{
  "contractName": "Fomo721",
  "abi": [
    {
      "inputs": [
        {
          "internalType": "string",
          "name": "_name",
          "type": "string"
        },
        {
          "internalType": "string",
          "name": "_symbol",
          "type": "string"
        },
        {
          "internalType": "address",
          "name": "_fomotoken",
          "type": "address"
        }
      ],
      "stateMutability": "nonpayable",
      "type": "constructor"
    },
    {
      "anonymous": false,
      "inputs": [
        {
          "indexed": true,
          "internalType": "address",
          "name": "owner",
          "type": "address"
        },
        {
          "indexed": true,
          "internalType": "address",
          "name": "approved",
          "type": "address"
        },
        {
          "indexed": true,
          "internalType": "uint256",
          "name": "tokenId",
          "type": "uint256"
        }
      ],
      "name": "Approval",
      "type": "event"
    },
    {
      "anonymous": false,
      "inputs": [
        {
          "indexed": true,
          "internalType": "address",
          "name": "owner",
          "type": "address"
        },
        {
          "indexed": true,
          "internalType": "address",
          "name": "operator",
          "type": "address"
        },
        {
          "indexed": false,
          "internalType": "bool",
          "name": "approved",
          "type": "bool"
        }
      ],
      "name": "ApprovalForAll",
      "type": "event"
    },
    {
      "anonymous": false,
      "inputs": [
        {
          "indexed": true,
          "internalType": "address",
          "name": "from",
          "type": "address"
        },
        {
          "indexed": true,
          "internalType": "address",
          "name": "to",
          "type": "address"
        },
        {
          "indexed": true,
          "internalType": "uint256",
          "name": "tokenId",
          "type": "uint256"
        }
      ],
      "name": "Transfer",
      "type": "event"
    },
    {
      "inputs": [],
      "name": "FomoToken",
      "outputs": [
        {
          "internalType": "contract IERC20",
          "name": "",
          "type": "address"
        }
      ],
      "stateMutability": "view",
      "type": "function"
    },
    {
      "inputs": [],
      "name": "_1",
      "outputs": [
        {
          "internalType": "bytes32",
          "name": "",
          "type": "bytes32"
        }
      ],
      "stateMutability": "view",
      "type": "function"
    },
    {
      "inputs": [],
      "name": "_2",
      "outputs": [
        {
          "internalType": "bytes32",
          "name": "",
          "type": "bytes32"
        }
      ],
      "stateMutability": "view",
      "type": "function"
    },
    {
      "inputs": [],
      "name": "_7",
      "outputs": [
        {
          "internalType": "bytes32",
          "name": "",
          "type": "bytes32"
        }
      ],
      "stateMutability": "view",
      "type": "function"
    },
    {
      "inputs": [],
      "name": "_F",
      "outputs": [
        {
          "internalType": "bytes32",
          "name": "",
          "type": "bytes32"
        }
      ],
      "stateMutability": "view",
      "type": "function"
    },
    {
      "inputs": [],
      "name": "_m",
      "outputs": [
        {
          "internalType": "bytes32",
          "name": "",
          "type": "bytes32"
        }
      ],
      "stateMutability": "view",
      "type": "function"
    },
    {
      "inputs": [],
      "name": "_o",
      "outputs": [
        {
          "internalType": "bytes32",
          "name": "",
          "type": "bytes32"
        }
      ],
      "stateMutability": "view",
      "type": "function"
    },
    {
      "inputs": [
        {
          "internalType": "address",
          "name": "to",
          "type": "address"
        },
        {
          "internalType": "uint256",
          "name": "tokenId",
          "type": "uint256"
        }
      ],
      "name": "approve",
      "outputs": [],
      "stateMutability": "nonpayable",
      "type": "function"
    },
    {
      "inputs": [
        {
          "internalType": "address",
          "name": "owner",
          "type": "address"
        }
      ],
      "name": "balanceOf",
      "outputs": [
        {
          "internalType": "uint256",
          "name": "",
          "type": "uint256"
        }
      ],
      "stateMutability": "view",
      "type": "function"
    },
    {
      "inputs": [],
      "name": "baseURI",
      "outputs": [
        {
          "internalType": "string",
          "name": "",
          "type": "string"
        }
      ],
      "stateMutability": "view",
      "type": "function"
    },
    {
      "inputs": [],
      "name": "burnAddress",
      "outputs": [
        {
          "internalType": "address",
          "name": "",
          "type": "address"
        }
      ],
      "stateMutability": "view",
      "type": "function"
    },
    {
      "inputs": [],
      "name": "burnRatio",
      "outputs": [
        {
          "internalType": "uint256",
          "name": "",
          "type": "uint256"
        }
      ],
      "stateMutability": "view",
      "type": "function"
    },
    {
      "inputs": [],
      "name": "fomo721Count",
      "outputs": [
        {
          "internalType": "uint256",
          "name": "",
          "type": "uint256"
        }
      ],
      "stateMutability": "view",
      "type": "function"
    },
    {
      "inputs": [],
      "name": "fomo721PieceCount",
      "outputs": [
        {
          "internalType": "uint256",
          "name": "",
          "type": "uint256"
        }
      ],
      "stateMutability": "view",
      "type": "function"
    },
    {
      "inputs": [
        {
          "internalType": "uint256",
          "name": "tokenId",
          "type": "uint256"
        }
      ],
      "name": "getApproved",
      "outputs": [
        {
          "internalType": "address",
          "name": "",
          "type": "address"
        }
      ],
      "stateMutability": "view",
      "type": "function"
    },
    {
      "inputs": [
        {
          "internalType": "address",
          "name": "owner",
          "type": "address"
        },
        {
          "internalType": "address",
          "name": "operator",
          "type": "address"
        }
      ],
      "name": "isApprovedForAll",
      "outputs": [
        {
          "internalType": "bool",
          "name": "",
          "type": "bool"
        }
      ],
      "stateMutability": "view",
      "type": "function"
    },
    {
      "inputs": [],
      "name": "mintPieceFee",
      "outputs": [
        {
          "internalType": "uint256",
          "name": "",
          "type": "uint256"
        }
      ],
      "stateMutability": "view",
      "type": "function"
    },
    {
      "inputs": [],
      "name": "name",
      "outputs": [
        {
          "internalType": "string",
          "name": "",
          "type": "string"
        }
      ],
      "stateMutability": "view",
      "type": "function"
    },
    {
      "inputs": [
        {
          "internalType": "uint256",
          "name": "tokenId",
          "type": "uint256"
        }
      ],
      "name": "ownerOf",
      "outputs": [
        {
          "internalType": "address",
          "name": "",
          "type": "address"
        }
      ],
      "stateMutability": "view",
      "type": "function"
    },
    {
      "inputs": [],
      "name": "prizePool",
      "outputs": [
        {
          "internalType": "address",
          "name": "",
          "type": "address"
        }
      ],
      "stateMutability": "view",
      "type": "function"
    },
    {
      "inputs": [
        {
          "internalType": "address",
          "name": "from",
          "type": "address"
        },
        {
          "internalType": "address",
          "name": "to",
          "type": "address"
        },
        {
          "internalType": "uint256",
          "name": "tokenId",
          "type": "uint256"
        }
      ],
      "name": "safeTransferFrom",
      "outputs": [],
      "stateMutability": "nonpayable",
      "type": "function"
    },
    {
      "inputs": [
        {
          "internalType": "address",
          "name": "from",
          "type": "address"
        },
        {
          "internalType": "address",
          "name": "to",
          "type": "address"
        },
        {
          "internalType": "uint256",
          "name": "tokenId",
          "type": "uint256"
        },
        {
          "internalType": "bytes",
          "name": "_data",
          "type": "bytes"
        }
      ],
      "name": "safeTransferFrom",
      "outputs": [],
      "stateMutability": "nonpayable",
      "type": "function"
    },
    {
      "inputs": [
        {
          "internalType": "address",
          "name": "operator",
          "type": "address"
        },
        {
          "internalType": "bool",
          "name": "approved",
          "type": "bool"
        }
      ],
      "name": "setApprovalForAll",
      "outputs": [],
      "stateMutability": "nonpayable",
      "type": "function"
    },
    {
      "inputs": [
        {
          "internalType": "bytes4",
          "name": "interfaceId",
          "type": "bytes4"
        }
      ],
      "name": "supportsInterface",
      "outputs": [
        {
          "internalType": "bool",
          "name": "",
          "type": "bool"
        }
      ],
      "stateMutability": "view",
      "type": "function"
    },
    {
      "inputs": [],
      "name": "symbol",
      "outputs": [
        {
          "internalType": "string",
          "name": "",
          "type": "string"
        }
      ],
      "stateMutability": "view",
      "type": "function"
    },
    {
      "inputs": [
        {
          "internalType": "uint256",
          "name": "index",
          "type": "uint256"
        }
      ],
      "name": "tokenByIndex",
      "outputs": [
        {
          "internalType": "uint256",
          "name": "",
          "type": "uint256"
        }
      ],
      "stateMutability": "view",
      "type": "function"
    },
    {
      "inputs": [
        {
          "internalType": "address",
          "name": "owner",
          "type": "address"
        },
        {
          "internalType": "uint256",
          "name": "index",
          "type": "uint256"
        }
      ],
      "name": "tokenOfOwnerByIndex",
      "outputs": [
        {
          "internalType": "uint256",
          "name": "",
          "type": "uint256"
        }
      ],
      "stateMutability": "view",
      "type": "function"
    },
    {
      "inputs": [
        {
          "internalType": "uint256",
          "name": "tokenId",
          "type": "uint256"
        }
      ],
      "name": "tokenURI",
      "outputs": [
        {
          "internalType": "string",
          "name": "",
          "type": "string"
        }
      ],
      "stateMutability": "view",
      "type": "function"
    },
    {
      "inputs": [],
      "name": "totalSupply",
      "outputs": [
        {
          "internalType": "uint256",
          "name": "",
          "type": "uint256"
        }
      ],
      "stateMutability": "view",
      "type": "function"
    },
    {
      "inputs": [
        {
          "internalType": "address",
          "name": "from",
          "type": "address"
        },
        {
          "internalType": "address",
          "name": "to",
          "type": "address"
        },
        {
          "internalType": "uint256",
          "name": "tokenId",
          "type": "uint256"
        }
      ],
      "name": "transferFrom",
      "outputs": [],
      "stateMutability": "nonpayable",
      "type": "function"
    },
    {
      "inputs": [
        {
          "internalType": "address",
          "name": "_prizepool",
          "type": "address"
        }
      ],
      "name": "setPrizePool",
      "outputs": [],
      "stateMutability": "nonpayable",
      "type": "function"
    },
    {
      "inputs": [],
      "name": "getFomo721Count",
      "outputs": [
        {
          "internalType": "uint256",
          "name": "",
          "type": "uint256"
        }
      ],
      "stateMutability": "view",
      "type": "function"
    },
    {
      "inputs": [],
      "name": "getFomo721PieceCount",
      "outputs": [
        {
          "internalType": "uint256",
          "name": "",
          "type": "uint256"
        }
      ],
      "stateMutability": "view",
      "type": "function"
    },
    {
      "inputs": [],
      "name": "mintFomo721Piece",
      "outputs": [],
      "stateMutability": "nonpayable",
      "type": "function"
    },
    {
      "inputs": [
        {
          "internalType": "uint256",
          "name": "id",
          "type": "uint256"
        }
      ],
      "name": "burnIt",
      "outputs": [],
      "stateMutability": "nonpayable",
      "type": "function"
    },
    {
      "inputs": [
        {
          "internalType": "uint256",
          "name": "id1",
          "type": "uint256"
        },
        {
          "internalType": "uint256",
          "name": "id2",
          "type": "uint256"
        },
        {
          "internalType": "uint256",
          "name": "id3",
          "type": "uint256"
        },
        {
          "internalType": "uint256",
          "name": "id4",
          "type": "uint256"
        },
        {
          "internalType": "uint256",
          "name": "id5",
          "type": "uint256"
        },
        {
          "internalType": "uint256",
          "name": "id6",
          "type": "uint256"
        },
        {
          "internalType": "uint256",
          "name": "id7",
          "type": "uint256"
        }
      ],
      "name": "mintFomo721",
      "outputs": [],
      "stateMutability": "nonpayable",
      "type": "function"
    },
    {
      "inputs": [
        {
          "internalType": "address",
          "name": "_owner",
          "type": "address"
        }
      ],
      "name": "tokensOfOwner",
      "outputs": [
        {
          "internalType": "uint256[]",
          "name": "ownerTokens",
          "type": "uint256[]"
        }
      ],
      "stateMutability": "view",
      "type": "function"
    }
  ],
  "bytecode": "0x60806040526101f4600e5560006016553480156200001c57600080fd5b5060405162004a0938038062004a09833981810160405260608110156200004257600080fd5b81019080805160405193929190846401000000008211156200006357600080fd5b838201915060208201858111156200007a57600080fd5b82518660018202830111640100000000821117156200009857600080fd5b8083526020830192505050908051906020019080838360005b83811015620000ce578082015181840152602081019050620000b1565b50505050905090810190601f168015620000fc5780820380516001836020036101000a031916815260200191505b50604052602001805160405193929190846401000000008211156200012057600080fd5b838201915060208201858111156200013757600080fd5b82518660018202830111640100000000821117156200015557600080fd5b8083526020830192505050908051906020019080838360005b838110156200018b5780820151818401526020810190506200016e565b50505050905090810190601f168015620001b95780820380516001836020036101000a031916815260200191505b50604052602001805190602001909291905050508282620001e76301ffc9a760e01b620004d560201b60201c565b8160069080519060200190620001ff929190620005de565b50806007908051906020019062000218929190620005de565b50620002316380ac58cd60e01b620004d560201b60201c565b62000249635b5e139f60e01b620004d560201b60201c565b6200026163780e9d6360e01b620004d560201b60201c565b505033601760006101000a81548173ffffffffffffffffffffffffffffffffffffffff021916908373ffffffffffffffffffffffffffffffffffffffff1602179055506000600c819055506000600d8190555080600a60006101000a81548173ffffffffffffffffffffffffffffffffffffffff021916908373ffffffffffffffffffffffffffffffffffffffff16021790555063deadbeef600b60006101000a81548173ffffffffffffffffffffffffffffffffffffffff021916908373ffffffffffffffffffffffffffffffffffffffff1602179055506040518060400160405280600181526020017f460000000000000000000000000000000000000000000000000000000000000081525080519060200120600f819055506040518060400160405280600181526020017f6f00000000000000000000000000000000000000000000000000000000000000815250805190602001206010819055506040518060400160405280600181526020017f6d00000000000000000000000000000000000000000000000000000000000000815250805190602001206011819055506040518060400160405280600181526020017f3700000000000000000000000000000000000000000000000000000000000000815250805190602001206012819055506040518060400160405280600181526020017f3200000000000000000000000000000000000000000000000000000000000000815250805190602001206013819055506040518060400160405280600181526020017f3100000000000000000000000000000000000000000000000000000000000000815250805190602001206014819055505050506200068d565b63ffffffff60e01b817bffffffffffffffffffffffffffffffffffffffffffffffffffffffff1916141562000572576040517f08c379a000000000000000000000000000000000000000000000000000000000815260040180806020018281038252601c8152602001807f4552433136353a20696e76616c696420696e746572666163652069640000000081525060200191505060405180910390fd5b6001600080837bffffffffffffffffffffffffffffffffffffffffffffffffffffffff19167bffffffffffffffffffffffffffffffffffffffffffffffffffffffff1916815260200190815260200160002060006101000a81548160ff02191690831515021790555050565b828054600181600116156101000203166002900490600052602060002090601f016020900481019282601f106200062157805160ff191683800117855562000652565b8280016001018555821562000652579182015b828111156200065157825182559160200191906001019062000634565b5b50905062000661919062000665565b5090565b6200068a91905b80821115620006865760008160009055506001016200066c565b5090565b90565b61436c806200069d6000396000f3fe608060405234801561001057600080fd5b50600436106102275760003560e01c806370d5ae0511610130578063a69e752f116100b8578063c87b56dd1161007c578063c87b56dd14610c0e578063cf92fc2114610cb5578063e300aa5414610cbf578063e985e9c514610cdd578063fb2542f414610d5957610227565b8063a69e752f14610a91578063ac7fd48814610aaf578063ad94f8bc14610acd578063b88d4fde14610aeb578063bf70931214610bf057610227565b806390434288116100ff578063904342881461092857806395d89b4114610946578063a11f8de4146109c9578063a22cb46514610a13578063a5e9da1014610a6357610227565b806370d5ae05146107dd578063719ce73e146108275780638462151c1461087157806384aa29d01461090a57610227565b80632f745c59116101b35780635192c82c116101825780635192c82c146106585780636352211e1461067657806369649820146106e45780636c0360eb1461070257806370a082311461078557610227565b80632f745c5914610502578063336c6d391461056457806342842e0e146105a85780634f6ccce71461061657610227565b806318160ddd116101fa57806318160ddd146103d057806318ce47cc146103ee578063197688261461040c57806323b872dd1461047657806325e0510f146104e457610227565b806301ffc9a71461022c57806306fdde0314610291578063081812fc14610314578063095ea7b314610382575b600080fd5b6102776004803603602081101561024257600080fd5b8101908080357bffffffffffffffffffffffffffffffffffffffffffffffffffffffff19169060200190929190505050610d77565b604051808215151515815260200191505060405180910390f35b610299610dde565b6040518080602001828103825283818151815260200191508051906020019080838360005b838110156102d95780820151818401526020810190506102be565b50505050905090810190601f1680156103065780820380516001836020036101000a031916815260200191505b509250505060405180910390f35b6103406004803603602081101561032a57600080fd5b8101908080359060200190929190505050610e80565b604051808273ffffffffffffffffffffffffffffffffffffffff1673ffffffffffffffffffffffffffffffffffffffff16815260200191505060405180910390f35b6103ce6004803603604081101561039857600080fd5b81019080803573ffffffffffffffffffffffffffffffffffffffff16906020019092919080359060200190929190505050610f1b565b005b6103d861105f565b6040518082815260200191505060405180910390f35b6103f6611070565b6040518082815260200191505060405180910390f35b610474600480360360e081101561042257600080fd5b8101908080359060200190929190803590602001909291908035906020019092919080359060200190929190803590602001909291908035906020019092919080359060200190929190505050611076565b005b6104e26004803603606081101561048c57600080fd5b81019080803573ffffffffffffffffffffffffffffffffffffffff169060200190929190803573ffffffffffffffffffffffffffffffffffffffff1690602001909291908035906020019092919050505061128a565b005b6104ec611300565b6040518082815260200191505060405180910390f35b61054e6004803603604081101561051857600080fd5b81019080803573ffffffffffffffffffffffffffffffffffffffff1690602001909291908035906020019092919050505061130a565b6040518082815260200191505060405180910390f35b6105a66004803603602081101561057a57600080fd5b81019080803573ffffffffffffffffffffffffffffffffffffffff169060200190929190505050611365565b005b610614600480360360608110156105be57600080fd5b81019080803573ffffffffffffffffffffffffffffffffffffffff169060200190929190803573ffffffffffffffffffffffffffffffffffffffff16906020019092919080359060200190929190505050611461565b005b6106426004803603602081101561062c57600080fd5b8101908080359060200190929190505050611481565b6040518082815260200191505060405180910390f35b6106606114a4565b6040518082815260200191505060405180910390f35b6106a26004803603602081101561068c57600080fd5b81019080803590602001909291905050506114aa565b604051808273ffffffffffffffffffffffffffffffffffffffff1673ffffffffffffffffffffffffffffffffffffffff16815260200191505060405180910390f35b6106ec6114e1565b6040518082815260200191505060405180910390f35b61070a6114e7565b6040518080602001828103825283818151815260200191508051906020019080838360005b8381101561074a57808201518184015260208101905061072f565b50505050905090810190601f1680156107775780820380516001836020036101000a031916815260200191505b509250505060405180910390f35b6107c76004803603602081101561079b57600080fd5b81019080803573ffffffffffffffffffffffffffffffffffffffff169060200190929190505050611589565b6040518082815260200191505060405180910390f35b6107e561165e565b604051808273ffffffffffffffffffffffffffffffffffffffff1673ffffffffffffffffffffffffffffffffffffffff16815260200191505060405180910390f35b61082f611666565b604051808273ffffffffffffffffffffffffffffffffffffffff1673ffffffffffffffffffffffffffffffffffffffff16815260200191505060405180910390f35b6108b36004803603602081101561088757600080fd5b81019080803573ffffffffffffffffffffffffffffffffffffffff16906020019092919050505061168c565b6040518080602001828103825283818151815260200191508051906020019060200280838360005b838110156108f65780820151818401526020810190506108db565b505050509050019250505060405180910390f35b610912611768565b6040518082815260200191505060405180910390f35b610930611772565b6040518082815260200191505060405180910390f35b61094e611778565b6040518080602001828103825283818151815260200191508051906020019080838360005b8381101561098e578082015181840152602081019050610973565b50505050905090810190601f1680156109bb5780820380516001836020036101000a031916815260200191505b509250505060405180910390f35b6109d161181a565b604051808273ffffffffffffffffffffffffffffffffffffffff1673ffffffffffffffffffffffffffffffffffffffff16815260200191505060405180910390f35b610a6160048036036040811015610a2957600080fd5b81019080803573ffffffffffffffffffffffffffffffffffffffff169060200190929190803515159060200190929190505050611840565b005b610a8f60048036036020811015610a7957600080fd5b81019080803590602001909291905050506119f8565b005b610a99611a44565b6040518082815260200191505060405180910390f35b610ab7611a4a565b6040518082815260200191505060405180910390f35b610ad5611a50565b6040518082815260200191505060405180910390f35b610bee60048036036080811015610b0157600080fd5b81019080803573ffffffffffffffffffffffffffffffffffffffff169060200190929190803573ffffffffffffffffffffffffffffffffffffffff1690602001909291908035906020019092919080359060200190640100000000811115610b6857600080fd5b820183602082011115610b7a57600080fd5b80359060200191846001830284011164010000000083111715610b9c57600080fd5b91908080601f016020809104026020016040519081016040528093929190818152602001838380828437600081840152601f19601f820116905080830192505050505050509192919290505050611a56565b005b610bf8611ace565b6040518082815260200191505060405180910390f35b610c3a60048036036020811015610c2457600080fd5b8101908080359060200190929190505050611ad4565b6040518080602001828103825283818151815260200191508051906020019080838360005b83811015610c7a578082015181840152602081019050610c5f565b50505050905090810190601f168015610ca75780820380516001836020036101000a031916815260200191505b509250505060405180910390f35b610cbd611dbd565b005b610cc76122d0565b6040518082815260200191505060405180910390f35b610d3f60048036036040811015610cf357600080fd5b81019080803573ffffffffffffffffffffffffffffffffffffffff169060200190929190803573ffffffffffffffffffffffffffffffffffffffff1690602001909291905050506122d6565b604051808215151515815260200191505060405180910390f35b610d6161236a565b6040518082815260200191505060405180910390f35b6000806000837bffffffffffffffffffffffffffffffffffffffffffffffffffffffff19167bffffffffffffffffffffffffffffffffffffffffffffffffffffffff1916815260200190815260200160002060009054906101000a900460ff169050919050565b606060068054600181600116156101000203166002900480601f016020809104026020016040519081016040528092919081815260200182805460018160011615610100020316600290048015610e765780601f10610e4b57610100808354040283529160200191610e76565b820191906000526020600020905b815481529060010190602001808311610e5957829003601f168201915b5050505050905090565b6000610e8b82612377565b610ee0576040517f08c379a000000000000000000000000000000000000000000000000000000000815260040180806020018281038252602c815260200180614237602c913960400191505060405180910390fd5b6004600083815260200190815260200160002060009054906101000a900473ffffffffffffffffffffffffffffffffffffffff169050919050565b6000610f26826114aa565b90508073ffffffffffffffffffffffffffffffffffffffff168373ffffffffffffffffffffffffffffffffffffffff161415610fad576040517f08c379a00000000000000000000000000000000000000000000000000000000081526004018080602001828103825260218152602001806142bb6021913960400191505060405180910390fd5b8073ffffffffffffffffffffffffffffffffffffffff16610fcc612394565b73ffffffffffffffffffffffffffffffffffffffff161480610ffb5750610ffa81610ff5612394565b6122d6565b5b611050576040517f08c379a00000000000000000000000000000000000000000000000000000000081526004018080602001828103825260388152602001806141696038913960400191505060405180910390fd5b61105a838361239c565b505050565b600061106b6002612455565b905090565b600c5481565b61108287600f5461246a565b801561109657506110958660105461246a565b5b80156110aa57506110a98560115461246a565b5b80156110be57506110bd8460105461246a565b5b80156110d257506110d18360125461246a565b5b80156110e657506110e58260135461246a565b5b80156110fa57506110f98160145461246a565b5b61116c576040517f08c379a000000000000000000000000000000000000000000000000000000000815260040180806020018281038252600c8152602001807f636865636b206661696c6564000000000000000000000000000000000000000081525060200191505060405180910390fd5b61117587612596565b61117e86612596565b61118785612596565b61119084612596565b61119983612596565b6111a282612596565b6111ab81612596565b6111c16007600d546125b490919063ffffffff16565b600d8190555060006111d16125fe565b905060405180604001604052808281526020016040518060400160405280600781526020017f466f6d6f3732310000000000000000000000000000000000000000000000000081525081525060156000838152602001908152602001600020600082015181600001556020820151816001019080519060200190611256929190613fbd565b509050506112643382612634565b61127a6001600c5461282890919063ffffffff16565b600c819055505050505050505050565b61129b611295612394565b826128b0565b6112f0576040517f08c379a00000000000000000000000000000000000000000000000000000000081526004018080602001828103825260318152602001806142dc6031913960400191505060405180910390fd5b6112fb8383836129a4565b505050565b6000600d54905090565b600061135d82600160008673ffffffffffffffffffffffffffffffffffffffff1673ffffffffffffffffffffffffffffffffffffffff168152602001908152602001600020612be790919063ffffffff16565b905092915050565b601760009054906101000a900473ffffffffffffffffffffffffffffffffffffffff1673ffffffffffffffffffffffffffffffffffffffff163373ffffffffffffffffffffffffffffffffffffffff16146113bf57600080fd5b63deadbeef73ffffffffffffffffffffffffffffffffffffffff16600b60009054906101000a900473ffffffffffffffffffffffffffffffffffffffff1673ffffffffffffffffffffffffffffffffffffffff161461141d57600080fd5b80600b60006101000a81548173ffffffffffffffffffffffffffffffffffffffff021916908373ffffffffffffffffffffffffffffffffffffffff16021790555050565b61147c83838360405180602001604052806000815250611a56565b505050565b600080611498836002612c0190919063ffffffff16565b50905080915050919050565b600e5481565b60006114da826040518060600160405280602981526020016141cb602991396002612c309092919063ffffffff16565b9050919050565b60115481565b606060098054600181600116156101000203166002900480601f01602080910402602001604051908101604052809291908181526020018280546001816001161561010002031660029004801561157f5780601f106115545761010080835404028352916020019161157f565b820191906000526020600020905b81548152906001019060200180831161156257829003601f168201915b5050505050905090565b60008073ffffffffffffffffffffffffffffffffffffffff168273ffffffffffffffffffffffffffffffffffffffff161415611610576040517f08c379a000000000000000000000000000000000000000000000000000000000815260040180806020018281038252602a8152602001806141a1602a913960400191505060405180910390fd5b611657600160008473ffffffffffffffffffffffffffffffffffffffff1673ffffffffffffffffffffffffffffffffffffffff168152602001908152602001600020612c4f565b9050919050565b63deadbeef81565b600b60009054906101000a900473ffffffffffffffffffffffffffffffffffffffff1681565b6060600061169983611589565b905060008114156116dd5760006040519080825280602002602001820160405280156116d45781602001602082028038833980820191505090505b50915050611763565b60608160405190808252806020026020018201604052801561170e5781602001602082028038833980820191505090505b509050600080905060008090505b8381101561175b5761172e868261130a565b83838151811061173a57fe5b6020026020010181815250508180600101925050808060010191505061171c565b829450505050505b919050565b6000600c54905090565b600d5481565b606060078054600181600116156101000203166002900480601f0160208091040260200160405190810160405280929190818152602001828054600181600116156101000203166002900480156118105780601f106117e557610100808354040283529160200191611810565b820191906000526020600020905b8154815290600101906020018083116117f357829003601f168201915b5050505050905090565b600a60009054906101000a900473ffffffffffffffffffffffffffffffffffffffff1681565b611848612394565b73ffffffffffffffffffffffffffffffffffffffff168273ffffffffffffffffffffffffffffffffffffffff1614156118e9576040517f08c379a00000000000000000000000000000000000000000000000000000000081526004018080602001828103825260198152602001807f4552433732313a20617070726f766520746f2063616c6c65720000000000000081525060200191505060405180910390fd5b80600560006118f6612394565b73ffffffffffffffffffffffffffffffffffffffff1673ffffffffffffffffffffffffffffffffffffffff16815260200190815260200160002060008473ffffffffffffffffffffffffffffffffffffffff1673ffffffffffffffffffffffffffffffffffffffff16815260200190815260200160002060006101000a81548160ff0219169083151502179055508173ffffffffffffffffffffffffffffffffffffffff166119a3612394565b73ffffffffffffffffffffffffffffffffffffffff167f17307eab39ab6107e8899845ad3d59bd9653f200f220920489ca2b5937696c3183604051808215151515815260200191505060405180910390a35050565b3373ffffffffffffffffffffffffffffffffffffffff16611a18826114aa565b73ffffffffffffffffffffffffffffffffffffffff1614611a3857600080fd5b611a4181612596565b50565b600f5481565b60135481565b60145481565b611a67611a61612394565b836128b0565b611abc576040517f08c379a00000000000000000000000000000000000000000000000000000000081526004018080602001828103825260318152602001806142dc6031913960400191505060405180910390fd5b611ac884848484612c64565b50505050565b60125481565b6060611adf82612377565b611b34576040517f08c379a000000000000000000000000000000000000000000000000000000000815260040180806020018281038252602f81526020018061428c602f913960400191505060405180910390fd5b6060600860008481526020019081526020016000208054600181600116156101000203166002900480601f016020809104026020016040519081016040528092919081815260200182805460018160011615610100020316600290048015611bdd5780601f10611bb257610100808354040283529160200191611bdd565b820191906000526020600020905b815481529060010190602001808311611bc057829003601f168201915b50505050509050600060098054600181600116156101000203166002900490501415611c0c5780915050611db8565b600081511115611ce5576009816040516020018083805460018160011615610100020316600290048015611c775780601f10611c55576101008083540402835291820191611c77565b820191906000526020600020905b815481529060010190602001808311611c63575b505082805190602001908083835b60208310611ca85780518252602082019150602081019050602083039250611c85565b6001836020036101000a03801982511681845116808217855250505050505090500192505050604051602081830303815290604052915050611db8565b6009611cf084612cd6565b6040516020018083805460018160011615610100020316600290048015611d4e5780601f10611d2c576101008083540402835291820191611d4e565b820191906000526020600020905b815481529060010190602001808311611d3a575b505082805190602001908083835b60208310611d7f5780518252602082019150602081019050602083039250611d5c565b6001836020036101000a038019825116818451168082178552505050505050905001925050506040516020818303038152906040529150505b919050565b3273ffffffffffffffffffffffffffffffffffffffff163373ffffffffffffffffffffffffffffffffffffffff1614611df557600080fd5b611e4d333068056bc75e2d63100000600a60009054906101000a900473ffffffffffffffffffffffffffffffffffffffff1673ffffffffffffffffffffffffffffffffffffffff16612e06909392919063ffffffff16565b611ed13063deadbeef611e886103e8611e7a600e5468056bc75e2d63100000612ef390919063ffffffff16565b612f7990919063ffffffff16565b600a60009054906101000a900473ffffffffffffffffffffffffffffffffffffffff1673ffffffffffffffffffffffffffffffffffffffff16612e06909392919063ffffffff16565b61201b30600b60009054906101000a900473ffffffffffffffffffffffffffffffffffffffff16600a60009054906101000a900473ffffffffffffffffffffffffffffffffffffffff1673ffffffffffffffffffffffffffffffffffffffff166370a08231306040518263ffffffff1660e01b8152600401808273ffffffffffffffffffffffffffffffffffffffff1673ffffffffffffffffffffffffffffffffffffffff16815260200191505060206040518083038186803b158015611f9757600080fd5b505afa158015611fab573d6000803e3d6000fd5b505050506040513d6020811015611fc157600080fd5b8101908080519060200190929190505050600a60009054906101000a900473ffffffffffffffffffffffffffffffffffffffff1673ffffffffffffffffffffffffffffffffffffffff16612e06909392919063ffffffff16565b6000612025612fc3565b90506060612706821061206f576040518060400160405280600181526020017f31000000000000000000000000000000000000000000000000000000000000008152509050612252565b6126fc82106120b5576040518060400160405280600181526020017f32000000000000000000000000000000000000000000000000000000000000008152509050612251565b6126ca82106120fb576040518060400160405280600181526020017f37000000000000000000000000000000000000000000000000000000000000008152509050612250565b6123288210612141576040518060400160405280600181526020017f6f00000000000000000000000000000000000000000000000000000000000000815250905061224f565b611f408210612187576040518060400160405280600181526020017f6d00000000000000000000000000000000000000000000000000000000000000815250905061224e565b610fa082106121cd576040518060400160405280600181526020017f6f00000000000000000000000000000000000000000000000000000000000000815250905061224d565b6103e88210612213576040518060400160405280600181526020017f4600000000000000000000000000000000000000000000000000000000000000815250905061224c565b6040518060400160405280601381526020017f446f6e277420676976652075702c2062726f210000000000000000000000000081525090505b5b5b5b5b5b5b600061225c6125fe565b9050604051806040016040528082815260200183815250601560008381526020019081526020016000206000820151816000015560208201518160010190805190602001906122ac929190613fbd565b509050506001600d600082825401925050819055506122cb3382612634565b505050565b60105481565b6000600560008473ffffffffffffffffffffffffffffffffffffffff1673ffffffffffffffffffffffffffffffffffffffff16815260200190815260200160002060008373ffffffffffffffffffffffffffffffffffffffff1673ffffffffffffffffffffffffffffffffffffffff16815260200190815260200160002060009054906101000a900460ff16905092915050565b68056bc75e2d6310000081565b600061238d82600261304990919063ffffffff16565b9050919050565b600033905090565b816004600083815260200190815260200160002060006101000a81548173ffffffffffffffffffffffffffffffffffffffff021916908373ffffffffffffffffffffffffffffffffffffffff160217905550808273ffffffffffffffffffffffffffffffffffffffff1661240f836114aa565b73ffffffffffffffffffffffffffffffffffffffff167f8c5be1e5ebec7d5bd14f71427d1e84f3dd0314c0f7b2291e5b200ac8c7c3b92560405160405180910390a45050565b600061246382600001613063565b9050919050565b600061247461403d565b6015600085815260200190815260200160002060405180604001604052908160008201548152602001600182018054600181600116156101000203166002900480601f0160208091040260200160405190810160405280929190818152602001828054600181600116156101000203166002900480156125355780601f1061250a57610100808354040283529160200191612535565b820191906000526020600020905b81548152906001019060200180831161251857829003601f168201915b50505050508152505090503373ffffffffffffffffffffffffffffffffffffffff16612560856114aa565b73ffffffffffffffffffffffffffffffffffffffff1614801561258d575082816020015180519060200120145b91505092915050565b61259f81613074565b60166000815480929190600101919050555050565b60006125f683836040518060400160405280601e81526020017f536166654d6174683a207375627472616374696f6e206f766572666c6f7700008152506131ae565b905092915050565b600061262f601654612621600161261361105f565b61282890919063ffffffff16565b61282890919063ffffffff16565b905090565b600073ffffffffffffffffffffffffffffffffffffffff168273ffffffffffffffffffffffffffffffffffffffff1614156126d7576040517f08c379a00000000000000000000000000000000000000000000000000000000081526004018080602001828103825260208152602001807f4552433732313a206d696e7420746f20746865207a65726f206164647265737381525060200191505060405180910390fd5b6126e081612377565b15612753576040517f08c379a000000000000000000000000000000000000000000000000000000000815260040180806020018281038252601c8152602001807f4552433732313a20746f6b656e20616c7265616479206d696e7465640000000081525060200191505060405180910390fd5b61275f6000838361326e565b6127b081600160008573ffffffffffffffffffffffffffffffffffffffff1673ffffffffffffffffffffffffffffffffffffffff16815260200190815260200160002061327390919063ffffffff16565b506127c78183600261328d9092919063ffffffff16565b50808273ffffffffffffffffffffffffffffffffffffffff16600073ffffffffffffffffffffffffffffffffffffffff167fddf252ad1be2c89b69c2b068fc378daa952ba7f163c4a11628f55a4df523b3ef60405160405180910390a45050565b6000808284019050838110156128a6576040517f08c379a000000000000000000000000000000000000000000000000000000000815260040180806020018281038252601b8152602001807f536166654d6174683a206164646974696f6e206f766572666c6f77000000000081525060200191505060405180910390fd5b8091505092915050565b60006128bb82612377565b612910576040517f08c379a000000000000000000000000000000000000000000000000000000000815260040180806020018281038252602c81526020018061413d602c913960400191505060405180910390fd5b600061291b836114aa565b90508073ffffffffffffffffffffffffffffffffffffffff168473ffffffffffffffffffffffffffffffffffffffff16148061298a57508373ffffffffffffffffffffffffffffffffffffffff1661297284610e80565b73ffffffffffffffffffffffffffffffffffffffff16145b8061299b575061299a81856122d6565b5b91505092915050565b8273ffffffffffffffffffffffffffffffffffffffff166129c4826114aa565b73ffffffffffffffffffffffffffffffffffffffff1614612a30576040517f08c379a00000000000000000000000000000000000000000000000000000000081526004018080602001828103825260298152602001806142636029913960400191505060405180910390fd5b600073ffffffffffffffffffffffffffffffffffffffff168273ffffffffffffffffffffffffffffffffffffffff161415612ab6576040517f08c379a00000000000000000000000000000000000000000000000000000000081526004018080602001828103825260248152602001806141196024913960400191505060405180910390fd5b612ac183838361326e565b612acc60008261239c565b612b1d81600160008673ffffffffffffffffffffffffffffffffffffffff1673ffffffffffffffffffffffffffffffffffffffff1681526020019081526020016000206132c290919063ffffffff16565b50612b6f81600160008573ffffffffffffffffffffffffffffffffffffffff1673ffffffffffffffffffffffffffffffffffffffff16815260200190815260200160002061327390919063ffffffff16565b50612b868183600261328d9092919063ffffffff16565b50808273ffffffffffffffffffffffffffffffffffffffff168473ffffffffffffffffffffffffffffffffffffffff167fddf252ad1be2c89b69c2b068fc378daa952ba7f163c4a11628f55a4df523b3ef60405160405180910390a4505050565b6000612bf683600001836132dc565b60001c905092915050565b600080600080612c14866000018661335f565b915091508160001c8160001c8090509350935050509250929050565b6000612c43846000018460001b846133f8565b60001c90509392505050565b6000612c5d826000016134ee565b9050919050565b612c6f8484846129a4565b612c7b848484846134ff565b612cd0576040517f08c379a00000000000000000000000000000000000000000000000000000000081526004018080602001828103825260328152602001806140e76032913960400191505060405180910390fd5b50505050565b60606000821415612d1e576040518060400160405280600181526020017f30000000000000000000000000000000000000000000000000000000000000008152509050612e01565b600082905060005b60008214612d48578080600101915050600a8281612d4057fe5b049150612d26565b6060816040519080825280601f01601f191660200182016040528015612d7d5781602001600182028038833980820191505090505b50905060006001830390508593505b60008414612df957600a8481612d9e57fe5b0660300160f81b82828060019003935081518110612db857fe5b60200101907effffffffffffffffffffffffffffffffffffffffffffffffffffffffffffff1916908160001a905350600a8481612df157fe5b049350612d8c565b819450505050505b919050565b612eed846323b872dd60e01b858585604051602401808473ffffffffffffffffffffffffffffffffffffffff1673ffffffffffffffffffffffffffffffffffffffff1681526020018373ffffffffffffffffffffffffffffffffffffffff1673ffffffffffffffffffffffffffffffffffffffff1681526020018281526020019350505050604051602081830303815290604052907bffffffffffffffffffffffffffffffffffffffffffffffffffffffff19166020820180517bffffffffffffffffffffffffffffffffffffffffffffffffffffffff8381831617835250505050613744565b50505050565b600080831415612f065760009050612f73565b6000828402905082848281612f1757fe5b0414612f6e576040517f08c379a00000000000000000000000000000000000000000000000000000000081526004018080602001828103825260218152602001806142166021913960400191505060405180910390fd5b809150505b92915050565b6000612fbb83836040518060400160405280601a81526020017f536166654d6174683a206469766973696f6e206279207a65726f000000000000815250613833565b905092915050565b600080424433604051602001808481526020018381526020018273ffffffffffffffffffffffffffffffffffffffff1673ffffffffffffffffffffffffffffffffffffffff1660601b815260140193505050506040516020818303038152906040528051906020012060001c9050600061303f826127106138f9565b9050809250505090565b600061305b836000018360001b6139df565b905092915050565b600081600001805490509050919050565b600061307f826114aa565b905061308d8160008461326e565b61309860008361239c565b600060086000848152602001908152602001600020805460018160011615610100020316600290049050146130e7576008600083815260200190815260200160002060006130e69190614057565b5b61313882600160008473ffffffffffffffffffffffffffffffffffffffff1673ffffffffffffffffffffffffffffffffffffffff1681526020019081526020016000206132c290919063ffffffff16565b5061314d826002613a0290919063ffffffff16565b5081600073ffffffffffffffffffffffffffffffffffffffff168273ffffffffffffffffffffffffffffffffffffffff167fddf252ad1be2c89b69c2b068fc378daa952ba7f163c4a11628f55a4df523b3ef60405160405180910390a45050565b600083831115829061325b576040517f08c379a00000000000000000000000000000000000000000000000000000000081526004018080602001828103825283818151815260200191508051906020019080838360005b83811015613220578082015181840152602081019050613205565b50505050905090810190601f16801561324d5780820380516001836020036101000a031916815260200191505b509250505060405180910390fd5b5060008385039050809150509392505050565b505050565b6000613285836000018360001b613a1c565b905092915050565b60006132b9846000018460001b8473ffffffffffffffffffffffffffffffffffffffff1660001b613a8c565b90509392505050565b60006132d4836000018360001b613b68565b905092915050565b60008183600001805490501161333d576040517f08c379a00000000000000000000000000000000000000000000000000000000081526004018080602001828103825260228152602001806140c56022913960400191505060405180910390fd5b82600001828154811061334c57fe5b9060005260206000200154905092915050565b600080828460000180549050116133c1576040517f08c379a00000000000000000000000000000000000000000000000000000000081526004018080602001828103825260228152602001806141f46022913960400191505060405180910390fd5b60008460000184815481106133d257fe5b906000526020600020906002020190508060000154816001015492509250509250929050565b600080846001016000858152602001908152602001600020549050600081141583906134bf576040517f08c379a00000000000000000000000000000000000000000000000000000000081526004018080602001828103825283818151815260200191508051906020019080838360005b83811015613484578082015181840152602081019050613469565b50505050905090810190601f1680156134b15780820380516001836020036101000a031916815260200191505b509250505060405180910390fd5b508460000160018203815481106134d257fe5b9060005260206000209060020201600101549150509392505050565b600081600001805490509050919050565b60006135208473ffffffffffffffffffffffffffffffffffffffff16613c50565b61352d576001905061373c565b60606136c363150b7a0260e01b613542612394565b888787604051602401808573ffffffffffffffffffffffffffffffffffffffff1673ffffffffffffffffffffffffffffffffffffffff1681526020018473ffffffffffffffffffffffffffffffffffffffff1673ffffffffffffffffffffffffffffffffffffffff16815260200183815260200180602001828103825283818151815260200191508051906020019080838360005b838110156135f25780820151818401526020810190506135d7565b50505050905090810190601f16801561361f5780820380516001836020036101000a031916815260200191505b5095505050505050604051602081830303815290604052907bffffffffffffffffffffffffffffffffffffffffffffffffffffffff19166020820180517bffffffffffffffffffffffffffffffffffffffffffffffffffffffff83818316178352505050506040518060600160405280603281526020016140e7603291398773ffffffffffffffffffffffffffffffffffffffff16613c639092919063ffffffff16565b905060008180602001905160208110156136dc57600080fd5b8101908080519060200190929190505050905063150b7a0260e01b7bffffffffffffffffffffffffffffffffffffffffffffffffffffffff1916817bffffffffffffffffffffffffffffffffffffffffffffffffffffffff191614925050505b949350505050565b60606137a6826040518060400160405280602081526020017f5361666545524332303a206c6f772d6c6576656c2063616c6c206661696c65648152508573ffffffffffffffffffffffffffffffffffffffff16613c639092919063ffffffff16565b905060008151111561382e578080602001905160208110156137c757600080fd5b810190808051906020019092919050505061382d576040517f08c379a000000000000000000000000000000000000000000000000000000000815260040180806020018281038252602a81526020018061430d602a913960400191505060405180910390fd5b5b505050565b600080831182906138df576040517f08c379a00000000000000000000000000000000000000000000000000000000081526004018080602001828103825283818151815260200191508051906020019080838360005b838110156138a4578082015181840152602081019050613889565b50505050905090810190601f1680156138d15780820380516001836020036101000a031916815260200191505b509250505060405180910390fd5b5060008385816138eb57fe5b049050809150509392505050565b6000808211613970576040517f08c379a00000000000000000000000000000000000000000000000000000000081526004018080602001828103825260158152602001807f556e69666f726d52616e642f6d696e2d626f756e64000000000000000000000081525060200191505060405180910390fd5b600082836000038161397e57fe5b06905060008490505b6001156139cb5781811061399a576139cb565b80604051602001808281526020019150506040516020818303038152906040528051906020012060001c9050613987565b8381816139d457fe5b069250505092915050565b600080836001016000848152602001908152602001600020541415905092915050565b6000613a14836000018360001b613c7b565b905092915050565b6000613a288383613d94565b613a81578260000182908060018154018082558091505060019003906000526020600020016000909190919091505582600001805490508360010160008481526020019081526020016000208190555060019050613a86565b600090505b92915050565b6000808460010160008581526020019081526020016000205490506000811415613b3357846000016040518060400160405280868152602001858152509080600181540180825580915050600190039060005260206000209060020201600090919091909150600082015181600001556020820151816001015550508460000180549050856001016000868152602001908152602001600020819055506001915050613b61565b82856000016001830381548110613b4657fe5b90600052602060002090600202016001018190555060009150505b9392505050565b60008083600101600084815260200190815260200160002054905060008114613c445760006001820390506000600186600001805490500390506000866000018281548110613bb357fe5b9060005260206000200154905080876000018481548110613bd057fe5b9060005260206000200181905550600183018760010160008381526020019081526020016000208190555086600001805480613c0857fe5b60019003818190600052602060002001600090559055866001016000878152602001908152602001600020600090556001945050505050613c4a565b60009150505b92915050565b600080823b905060008111915050919050565b6060613c728484600085613db7565b90509392505050565b60008083600101600084815260200190815260200160002054905060008114613d885760006001820390506000600186600001805490500390506000866000018281548110613cc657fe5b9060005260206000209060020201905080876000018481548110613ce657fe5b9060005260206000209060020201600082015481600001556001820154816001015590505060018301876001016000836000015481526020019081526020016000208190555086600001805480613d3957fe5b6001900381819060005260206000209060020201600080820160009055600182016000905550509055866001016000878152602001908152602001600020600090556001945050505050613d8e565b60009150505b92915050565b600080836001016000848152602001908152602001600020541415905092915050565b6060613dc285613c50565b613e34576040517f08c379a000000000000000000000000000000000000000000000000000000000815260040180806020018281038252601d8152602001807f416464726573733a2063616c6c20746f206e6f6e2d636f6e747261637400000081525060200191505060405180910390fd5b600060608673ffffffffffffffffffffffffffffffffffffffff1685876040518082805190602001908083835b60208310613e845780518252602082019150602081019050602083039250613e61565b6001836020036101000a03801982511681845116808217855250505050505090500191505060006040518083038185875af1925050503d8060008114613ee6576040519150601f19603f3d011682016040523d82523d6000602084013e613eeb565b606091505b50915091508115613f00578092505050613fb5565b600081511115613f135780518082602001fd5b836040517f08c379a00000000000000000000000000000000000000000000000000000000081526004018080602001828103825283818151815260200191508051906020019080838360005b83811015613f7a578082015181840152602081019050613f5f565b50505050905090810190601f168015613fa75780820380516001836020036101000a031916815260200191505b509250505060405180910390fd5b949350505050565b828054600181600116156101000203166002900490600052602060002090601f016020900481019282601f10613ffe57805160ff191683800117855561402c565b8280016001018555821561402c579182015b8281111561402b578251825591602001919060010190614010565b5b509050614039919061409f565b5090565b604051806040016040528060008152602001606081525090565b50805460018160011615610100020316600290046000825580601f1061407d575061409c565b601f01602090049060005260206000209081019061409b919061409f565b5b50565b6140c191905b808211156140bd5760008160009055506001016140a5565b5090565b9056fe456e756d657261626c655365743a20696e646578206f7574206f6620626f756e64734552433732313a207472616e7366657220746f206e6f6e20455243373231526563656976657220696d706c656d656e7465724552433732313a207472616e7366657220746f20746865207a65726f20616464726573734552433732313a206f70657261746f7220717565727920666f72206e6f6e6578697374656e7420746f6b656e4552433732313a20617070726f76652063616c6c6572206973206e6f74206f776e6572206e6f7220617070726f76656420666f7220616c6c4552433732313a2062616c616e636520717565727920666f7220746865207a65726f20616464726573734552433732313a206f776e657220717565727920666f72206e6f6e6578697374656e7420746f6b656e456e756d657261626c654d61703a20696e646578206f7574206f6620626f756e6473536166654d6174683a206d756c7469706c69636174696f6e206f766572666c6f774552433732313a20617070726f76656420717565727920666f72206e6f6e6578697374656e7420746f6b656e4552433732313a207472616e73666572206f6620746f6b656e2074686174206973206e6f74206f776e4552433732314d657461646174613a2055524920717565727920666f72206e6f6e6578697374656e7420746f6b656e4552433732313a20617070726f76616c20746f2063757272656e74206f776e65724552433732313a207472616e736665722063616c6c6572206973206e6f74206f776e6572206e6f7220617070726f7665645361666545524332303a204552433230206f7065726174696f6e20646964206e6f742073756363656564a2646970667358221220152b060972e638196d08a59b1dbe7f5db5e5e3858cede94f8a5aadd81c61b7d364736f6c63430006020033",
  "source": "pragma solidity ^0.6.0;\n\nimport \"@openzeppelin/contracts/math/Math.sol\";\nimport \"@openzeppelin/contracts/math/SafeMath.sol\";\nimport \"@openzeppelin/contracts/token/ERC20/IERC20.sol\";\nimport \"@openzeppelin/contracts/token/ERC20/SafeERC20.sol\";\nimport \"@openzeppelin/contracts/token/ERC721/ERC721.sol\";\nimport \"./rnd.sol\";\n\ncontract Fomo721 is ERC721 {\n    using SafeMath for uint256;\n\tusing SafeERC20 for IERC20;\n    \n\tuint256 constant public mintPieceFee = 100 * 1e18;\n\tIERC20 public FomoToken;\n\taddress public prizePool;\n\taddress constant public burnAddress = 0x00000000000000000000000000000000DeaDBeef;\n\t\n\tuint256 public fomo721Count;\n\tuint256 public fomo721PieceCount;\n\tuint256 public burnRatio = 500; // 50%\n\n\tbytes32 public _F; \n\tbytes32 public _o;\n\tbytes32 public _m;\n\tbytes32 public _7;\n\tbytes32 public _2;\n\tbytes32 public _1;\n    \n    struct Fomo721Token {\n        uint256 id;\n\t\tstring char; // Fomo721\n    }\n\tmapping(uint256 => Fomo721Token) tokens;\n    uint256 burnedCounter = 0;\n\n\taddress owner;\n    constructor(\n\t\tstring memory _name,\n\t\tstring memory _symbol,\n\t\taddress _fomotoken\n\t) ERC721(_name, _symbol) public {\n\t\towner = msg.sender;\n\t\tfomo721Count = 0;\n\t\tfomo721PieceCount = 0;\n\t\tFomoToken = IERC20(_fomotoken);\n\t\tprizePool = burnAddress;\n\n\t\t_F = keccak256(bytes(\"F\")); \n\t\t_o = keccak256(bytes(\"o\")); \n\t\t_m = keccak256(bytes(\"m\")); \n\t\t_7 = keccak256(bytes(\"7\")); \n\t\t_2 = keccak256(bytes(\"2\")); \n\t\t_1 = keccak256(bytes(\"1\")); \n\t}\n\n\tmodifier onlyOwner() {\n\t\trequire(msg.sender == owner);\n\t\t_;\n\t}\n\n\tmodifier onlyOnce() {\n\t\trequire(prizePool == burnAddress);\n\t\t_;\n\t}\n\n\tfunction setPrizePool(address _prizepool) external onlyOwner onlyOnce {\n\t\tprizePool = _prizepool;\n\t}\n    \n\tfunction getRandom() internal view returns (uint256) {\n\t\tuint256 seed = uint256(keccak256(abi.encodePacked(now, block.difficulty, msg.sender)));\n\t\tuint256 rnd = UniformRandomNumber.uniform(seed, 10000);\n\t\treturn rnd;\n\t}\n\n\tfunction getFomo721Count() external view returns (uint256) {\n\t\treturn fomo721Count;\n\t}\n\n\tfunction getFomo721PieceCount() external view returns (uint256) {\n\t\treturn fomo721PieceCount;\n\t}\n\n\tfunction mintFomo721Piece() external {\n\t\trequire(msg.sender == tx.origin);\n\t\tFomoToken.safeTransferFrom(msg.sender, address(this), mintPieceFee);\n\t\tFomoToken.safeTransferFrom(address(this), burnAddress, mintPieceFee.mul(burnRatio).div(1000));\n\t\tFomoToken.safeTransferFrom(address(this), prizePool, FomoToken.balanceOf(address(this)));\n\t\tuint256 rnd = getRandom();\n\t\tstring memory char;\n\t\tif (rnd >= 9990) {\n\t\t\t// 0.001\n\t\t\tchar = \"1\";\n\t\t} else if (rnd >= 9980) {\n\t\t\t// 0.002\n\t\t\tchar = \"2\";\n\t\t} else if (rnd >= 9930) {\n\t\t\t// 0.007\n\t\t\tchar = \"7\";\n\t\t} else if (rnd >= 9000) {\n\t\t\t// 0.1\n\t\t\tchar = \"o\";\n\t\t} else if (rnd >= 8000) {\n\t\t\t// 0.2\n\t\t\tchar = \"m\";\n\t\t} else if (rnd >= 4000) {\n\t\t\t// 0.6\n\t\t\tchar = \"o\";\n\t\t} else if (rnd >= 1000) {\n\t\t\t// 0.9\n\t\t\tchar = \"F\";\n\t\t} else {\n\t\t\tchar = \"Don't give up, bro!\";\n\t\t}\n\t\tuint256 tokenId = _getNextTokenId();\n\t\ttokens[tokenId] = Fomo721Token(tokenId, char);\n\t\tfomo721PieceCount += 1;\n\t\t_mint(msg.sender, tokenId);\n\t}\n\n\tfunction check(uint256 id, bytes32 v) internal view returns (bool) {\n\t\tFomo721Token memory token = tokens[id];\n\t\treturn ownerOf(id) == msg.sender && keccak256(bytes(token.char)) == v;\n\t}\n\n\tfunction burnIt(uint256 id) external {\n\t\trequire(ownerOf(id) == msg.sender);\n\t\t_burn(id);\n\t}\n\n\tfunction mintFomo721(uint256 id1, uint256 id2, uint256 id3, uint256 id4, uint256 id5, uint256 id6, uint256 id7) external {\n\t\trequire(check(id1, _F) && check(id2, _o) && check(id3, _m) && check(id4, _o) && check(id5, _7) && check(id6, _2) && check(id7, _1), \"check failed\");\n\t\t_burn(id1); _burn(id2); _burn(id3); _burn(id4); _burn(id5); _burn(id6); _burn(id7);\n\t\tfomo721PieceCount = fomo721PieceCount.sub(7);\n\t\tuint256 tokenId = _getNextTokenId();\n\t\ttokens[tokenId] = Fomo721Token(tokenId, \"Fomo721\");\n\t\t_mint(msg.sender, tokenId);\n\t\tfomo721Count = fomo721Count.add(1);\n\t}\n\n    function _getNextTokenId() private view returns (uint256) {\n        return totalSupply().add(1).add(burnedCounter);\n    }\n\n    function _burn(uint256 _tokenId) override internal {\n        super._burn(_tokenId);\n        burnedCounter++;\n    }\n\n    function tokensOfOwner(address _owner) external view returns(uint256[] memory ownerTokens) {\n        uint256 tokenCount = balanceOf(_owner);\n\n        if (tokenCount == 0) {\n            return new uint256[](0);\n        } else {\n            uint256[] memory result = new uint256[](tokenCount);\n            uint256 resultIndex = 0;\n            uint256 _tokenIdx;\n            for (_tokenIdx = 0; _tokenIdx < tokenCount; _tokenIdx++) {\n                result[resultIndex] = tokenOfOwnerByIndex(_owner, _tokenIdx);\n                resultIndex++;\n            }\n            return result;\n        }\n    }\n}\n",
  "sourcePath": "/Users/cyan/Desktop/projects/defi/nifty.fi/fomo721/contracts/fomo721.sol",
  "compiler": {
    "name": "solc",
    "version": "0.6.2+commit.bacdbe57.Emscripten.clang"
  },
  "schemaVersion": "3.2.5",
  "updatedAt": "2020-09-12T05:30:58.726Z",
  "devdoc": {
    "methods": {
      "approve(address,uint256)": {
        "details": "See {IERC721-approve}."
      },
      "balanceOf(address)": {
        "details": "See {IERC721-balanceOf}."
      },
      "baseURI()": {
        "details": "Returns the base URI set via {_setBaseURI}. This will be automatically added as a prefix in {tokenURI} to each token's URI, or to the token ID if no specific URI is set for that token ID."
      },
      "getApproved(uint256)": {
        "details": "See {IERC721-getApproved}."
      },
      "isApprovedForAll(address,address)": {
        "details": "See {IERC721-isApprovedForAll}."
      },
      "name()": {
        "details": "See {IERC721Metadata-name}."
      },
      "ownerOf(uint256)": {
        "details": "See {IERC721-ownerOf}."
      },
      "safeTransferFrom(address,address,uint256)": {
        "details": "See {IERC721-safeTransferFrom}."
      },
      "safeTransferFrom(address,address,uint256,bytes)": {
        "details": "See {IERC721-safeTransferFrom}."
      },
      "setApprovalForAll(address,bool)": {
        "details": "See {IERC721-setApprovalForAll}."
      },
      "supportsInterface(bytes4)": {
        "details": "See {IERC165-supportsInterface}.     * Time complexity O(1), guaranteed to always use less than 30 000 gas."
      },
      "symbol()": {
        "details": "See {IERC721Metadata-symbol}."
      },
      "tokenByIndex(uint256)": {
        "details": "See {IERC721Enumerable-tokenByIndex}."
      },
      "tokenOfOwnerByIndex(address,uint256)": {
        "details": "See {IERC721Enumerable-tokenOfOwnerByIndex}."
      },
      "tokenURI(uint256)": {
        "details": "See {IERC721Metadata-tokenURI}."
      },
      "totalSupply()": {
        "details": "See {IERC721Enumerable-totalSupply}."
      },
      "transferFrom(address,address,uint256)": {
        "details": "See {IERC721-transferFrom}."
      }
    }
  },
  "userdoc": {
    "methods": {}
  }
}