{
  "contractName": "Fomo721",
  "abi": [
    {
      "inputs": [
        {
          "internalType": "string",
          "name": "_name",
          "type": "string"
        },
        {
          "internalType": "string",
          "name": "_symbol",
          "type": "string"
        },
        {
          "internalType": "address",
          "name": "_fomotoken",
          "type": "address"
        }
      ],
      "stateMutability": "nonpayable",
      "type": "constructor"
    },
    {
      "anonymous": false,
      "inputs": [
        {
          "indexed": true,
          "internalType": "address",
          "name": "owner",
          "type": "address"
        },
        {
          "indexed": true,
          "internalType": "address",
          "name": "approved",
          "type": "address"
        },
        {
          "indexed": true,
          "internalType": "uint256",
          "name": "tokenId",
          "type": "uint256"
        }
      ],
      "name": "Approval",
      "type": "event"
    },
    {
      "anonymous": false,
      "inputs": [
        {
          "indexed": true,
          "internalType": "address",
          "name": "owner",
          "type": "address"
        },
        {
          "indexed": true,
          "internalType": "address",
          "name": "operator",
          "type": "address"
        },
        {
          "indexed": false,
          "internalType": "bool",
          "name": "approved",
          "type": "bool"
        }
      ],
      "name": "ApprovalForAll",
      "type": "event"
    },
    {
      "anonymous": false,
      "inputs": [
        {
          "indexed": true,
          "internalType": "address",
          "name": "from",
          "type": "address"
        },
        {
          "indexed": true,
          "internalType": "address",
          "name": "to",
          "type": "address"
        },
        {
          "indexed": true,
          "internalType": "uint256",
          "name": "tokenId",
          "type": "uint256"
        }
      ],
      "name": "Transfer",
      "type": "event"
    },
    {
      "inputs": [],
      "name": "FomoToken",
      "outputs": [
        {
          "internalType": "contract IERC20",
          "name": "",
          "type": "address"
        }
      ],
      "stateMutability": "view",
      "type": "function"
    },
    {
      "inputs": [],
      "name": "_1",
      "outputs": [
        {
          "internalType": "bytes32",
          "name": "",
          "type": "bytes32"
        }
      ],
      "stateMutability": "view",
      "type": "function"
    },
    {
      "inputs": [],
      "name": "_2",
      "outputs": [
        {
          "internalType": "bytes32",
          "name": "",
          "type": "bytes32"
        }
      ],
      "stateMutability": "view",
      "type": "function"
    },
    {
      "inputs": [],
      "name": "_7",
      "outputs": [
        {
          "internalType": "bytes32",
          "name": "",
          "type": "bytes32"
        }
      ],
      "stateMutability": "view",
      "type": "function"
    },
    {
      "inputs": [],
      "name": "_F",
      "outputs": [
        {
          "internalType": "bytes32",
          "name": "",
          "type": "bytes32"
        }
      ],
      "stateMutability": "view",
      "type": "function"
    },
    {
      "inputs": [],
      "name": "_m",
      "outputs": [
        {
          "internalType": "bytes32",
          "name": "",
          "type": "bytes32"
        }
      ],
      "stateMutability": "view",
      "type": "function"
    },
    {
      "inputs": [],
      "name": "_o",
      "outputs": [
        {
          "internalType": "bytes32",
          "name": "",
          "type": "bytes32"
        }
      ],
      "stateMutability": "view",
      "type": "function"
    },
    {
      "inputs": [
        {
          "internalType": "address",
          "name": "to",
          "type": "address"
        },
        {
          "internalType": "uint256",
          "name": "tokenId",
          "type": "uint256"
        }
      ],
      "name": "approve",
      "outputs": [],
      "stateMutability": "nonpayable",
      "type": "function"
    },
    {
      "inputs": [
        {
          "internalType": "address",
          "name": "owner",
          "type": "address"
        }
      ],
      "name": "balanceOf",
      "outputs": [
        {
          "internalType": "uint256",
          "name": "",
          "type": "uint256"
        }
      ],
      "stateMutability": "view",
      "type": "function"
    },
    {
      "inputs": [],
      "name": "baseURI",
      "outputs": [
        {
          "internalType": "string",
          "name": "",
          "type": "string"
        }
      ],
      "stateMutability": "view",
      "type": "function"
    },
    {
      "inputs": [],
      "name": "burnAddress",
      "outputs": [
        {
          "internalType": "address",
          "name": "",
          "type": "address"
        }
      ],
      "stateMutability": "view",
      "type": "function"
    },
    {
      "inputs": [],
      "name": "burnRatio",
      "outputs": [
        {
          "internalType": "uint256",
          "name": "",
          "type": "uint256"
        }
      ],
      "stateMutability": "view",
      "type": "function"
    },
    {
      "inputs": [],
      "name": "countdown",
      "outputs": [
        {
          "internalType": "uint256",
          "name": "",
          "type": "uint256"
        }
      ],
      "stateMutability": "view",
      "type": "function"
    },
    {
      "inputs": [],
      "name": "fomo721Count",
      "outputs": [
        {
          "internalType": "uint256",
          "name": "",
          "type": "uint256"
        }
      ],
      "stateMutability": "view",
      "type": "function"
    },
    {
      "inputs": [],
      "name": "fomo721PieceCount",
      "outputs": [
        {
          "internalType": "uint256",
          "name": "",
          "type": "uint256"
        }
      ],
      "stateMutability": "view",
      "type": "function"
    },
    {
      "inputs": [
        {
          "internalType": "uint256",
          "name": "tokenId",
          "type": "uint256"
        }
      ],
      "name": "getApproved",
      "outputs": [
        {
          "internalType": "address",
          "name": "",
          "type": "address"
        }
      ],
      "stateMutability": "view",
      "type": "function"
    },
    {
      "inputs": [
        {
          "internalType": "address",
          "name": "owner",
          "type": "address"
        },
        {
          "internalType": "address",
          "name": "operator",
          "type": "address"
        }
      ],
      "name": "isApprovedForAll",
      "outputs": [
        {
          "internalType": "bool",
          "name": "",
          "type": "bool"
        }
      ],
      "stateMutability": "view",
      "type": "function"
    },
    {
      "inputs": [],
      "name": "lastMintTime",
      "outputs": [
        {
          "internalType": "uint256",
          "name": "",
          "type": "uint256"
        }
      ],
      "stateMutability": "view",
      "type": "function"
    },
    {
      "inputs": [],
      "name": "lastMinter",
      "outputs": [
        {
          "internalType": "address",
          "name": "",
          "type": "address"
        }
      ],
      "stateMutability": "view",
      "type": "function"
    },
    {
      "inputs": [],
      "name": "mintPieceFee",
      "outputs": [
        {
          "internalType": "uint256",
          "name": "",
          "type": "uint256"
        }
      ],
      "stateMutability": "view",
      "type": "function"
    },
    {
      "inputs": [],
      "name": "name",
      "outputs": [
        {
          "internalType": "string",
          "name": "",
          "type": "string"
        }
      ],
      "stateMutability": "view",
      "type": "function"
    },
    {
      "inputs": [
        {
          "internalType": "uint256",
          "name": "tokenId",
          "type": "uint256"
        }
      ],
      "name": "ownerOf",
      "outputs": [
        {
          "internalType": "address",
          "name": "",
          "type": "address"
        }
      ],
      "stateMutability": "view",
      "type": "function"
    },
    {
      "inputs": [],
      "name": "prizePool",
      "outputs": [
        {
          "internalType": "address",
          "name": "",
          "type": "address"
        }
      ],
      "stateMutability": "view",
      "type": "function"
    },
    {
      "inputs": [
        {
          "internalType": "address",
          "name": "from",
          "type": "address"
        },
        {
          "internalType": "address",
          "name": "to",
          "type": "address"
        },
        {
          "internalType": "uint256",
          "name": "tokenId",
          "type": "uint256"
        }
      ],
      "name": "safeTransferFrom",
      "outputs": [],
      "stateMutability": "nonpayable",
      "type": "function"
    },
    {
      "inputs": [
        {
          "internalType": "address",
          "name": "from",
          "type": "address"
        },
        {
          "internalType": "address",
          "name": "to",
          "type": "address"
        },
        {
          "internalType": "uint256",
          "name": "tokenId",
          "type": "uint256"
        },
        {
          "internalType": "bytes",
          "name": "_data",
          "type": "bytes"
        }
      ],
      "name": "safeTransferFrom",
      "outputs": [],
      "stateMutability": "nonpayable",
      "type": "function"
    },
    {
      "inputs": [
        {
          "internalType": "address",
          "name": "operator",
          "type": "address"
        },
        {
          "internalType": "bool",
          "name": "approved",
          "type": "bool"
        }
      ],
      "name": "setApprovalForAll",
      "outputs": [],
      "stateMutability": "nonpayable",
      "type": "function"
    },
    {
      "inputs": [
        {
          "internalType": "bytes4",
          "name": "interfaceId",
          "type": "bytes4"
        }
      ],
      "name": "supportsInterface",
      "outputs": [
        {
          "internalType": "bool",
          "name": "",
          "type": "bool"
        }
      ],
      "stateMutability": "view",
      "type": "function"
    },
    {
      "inputs": [],
      "name": "symbol",
      "outputs": [
        {
          "internalType": "string",
          "name": "",
          "type": "string"
        }
      ],
      "stateMutability": "view",
      "type": "function"
    },
    {
      "inputs": [
        {
          "internalType": "uint256",
          "name": "index",
          "type": "uint256"
        }
      ],
      "name": "tokenByIndex",
      "outputs": [
        {
          "internalType": "uint256",
          "name": "",
          "type": "uint256"
        }
      ],
      "stateMutability": "view",
      "type": "function"
    },
    {
      "inputs": [
        {
          "internalType": "address",
          "name": "owner",
          "type": "address"
        },
        {
          "internalType": "uint256",
          "name": "index",
          "type": "uint256"
        }
      ],
      "name": "tokenOfOwnerByIndex",
      "outputs": [
        {
          "internalType": "uint256",
          "name": "",
          "type": "uint256"
        }
      ],
      "stateMutability": "view",
      "type": "function"
    },
    {
      "inputs": [
        {
          "internalType": "uint256",
          "name": "tokenId",
          "type": "uint256"
        }
      ],
      "name": "tokenURI",
      "outputs": [
        {
          "internalType": "string",
          "name": "",
          "type": "string"
        }
      ],
      "stateMutability": "view",
      "type": "function"
    },
    {
      "inputs": [],
      "name": "totalSupply",
      "outputs": [
        {
          "internalType": "uint256",
          "name": "",
          "type": "uint256"
        }
      ],
      "stateMutability": "view",
      "type": "function"
    },
    {
      "inputs": [
        {
          "internalType": "address",
          "name": "from",
          "type": "address"
        },
        {
          "internalType": "address",
          "name": "to",
          "type": "address"
        },
        {
          "internalType": "uint256",
          "name": "tokenId",
          "type": "uint256"
        }
      ],
      "name": "transferFrom",
      "outputs": [],
      "stateMutability": "nonpayable",
      "type": "function"
    },
    {
      "inputs": [
        {
          "internalType": "uint256",
          "name": "",
          "type": "uint256"
        }
      ],
      "name": "winners",
      "outputs": [
        {
          "internalType": "uint256",
          "name": "timestamp",
          "type": "uint256"
        },
        {
          "internalType": "uint256",
          "name": "tokenId",
          "type": "uint256"
        },
        {
          "internalType": "address",
          "name": "owner",
          "type": "address"
        }
      ],
      "stateMutability": "view",
      "type": "function"
    },
    {
      "inputs": [
        {
          "internalType": "address",
          "name": "_prizepool",
          "type": "address"
        }
      ],
      "name": "setPrizePool",
      "outputs": [],
      "stateMutability": "nonpayable",
      "type": "function"
    },
    {
      "inputs": [],
      "name": "getWinnersLength",
      "outputs": [
        {
          "internalType": "uint256",
          "name": "",
          "type": "uint256"
        }
      ],
      "stateMutability": "view",
      "type": "function"
    },
    {
      "inputs": [],
      "name": "getFomo721Count",
      "outputs": [
        {
          "internalType": "uint256",
          "name": "",
          "type": "uint256"
        }
      ],
      "stateMutability": "view",
      "type": "function"
    },
    {
      "inputs": [],
      "name": "getFomo721PieceCount",
      "outputs": [
        {
          "internalType": "uint256",
          "name": "",
          "type": "uint256"
        }
      ],
      "stateMutability": "view",
      "type": "function"
    },
    {
      "inputs": [],
      "name": "mintFomo721Piece",
      "outputs": [],
      "stateMutability": "nonpayable",
      "type": "function"
    },
    {
      "inputs": [
        {
          "internalType": "uint256",
          "name": "id",
          "type": "uint256"
        }
      ],
      "name": "burnIt",
      "outputs": [],
      "stateMutability": "nonpayable",
      "type": "function"
    },
    {
      "inputs": [
        {
          "internalType": "uint256",
          "name": "id1",
          "type": "uint256"
        },
        {
          "internalType": "uint256",
          "name": "id2",
          "type": "uint256"
        },
        {
          "internalType": "uint256",
          "name": "id3",
          "type": "uint256"
        },
        {
          "internalType": "uint256",
          "name": "id4",
          "type": "uint256"
        },
        {
          "internalType": "uint256",
          "name": "id5",
          "type": "uint256"
        },
        {
          "internalType": "uint256",
          "name": "id6",
          "type": "uint256"
        },
        {
          "internalType": "uint256",
          "name": "id7",
          "type": "uint256"
        }
      ],
      "name": "mintFomo721",
      "outputs": [],
      "stateMutability": "nonpayable",
      "type": "function"
    },
    {
      "inputs": [
        {
          "internalType": "address",
          "name": "_owner",
          "type": "address"
        }
      ],
      "name": "tokensOfOwner",
      "outputs": [
        {
          "internalType": "uint256[]",
          "name": "ownerTokens",
          "type": "uint256[]"
        }
      ],
      "stateMutability": "view",
      "type": "function"
    }
  ],
  "bytecode": "0x60806040526101f4600e55610e10600f5560006019553480156200002257600080fd5b5060405162004e5438038062004e54833981810160405260608110156200004857600080fd5b81019080805160405193929190846401000000008211156200006957600080fd5b838201915060208201858111156200008057600080fd5b82518660018202830111640100000000821117156200009e57600080fd5b8083526020830192505050908051906020019080838360005b83811015620000d4578082015181840152602081019050620000b7565b50505050905090810190601f168015620001025780820380516001836020036101000a031916815260200191505b50604052602001805160405193929190846401000000008211156200012657600080fd5b838201915060208201858111156200013d57600080fd5b82518660018202830111640100000000821117156200015b57600080fd5b8083526020830192505050908051906020019080838360005b838110156200019157808201518184015260208101905062000174565b50505050905090810190601f168015620001bf5780820380516001836020036101000a031916815260200191505b50604052602001805190602001909291905050508282620001ed6301ffc9a760e01b620004db60201b60201c565b816006908051906020019062000205929190620005e4565b5080600790805190602001906200021e929190620005e4565b50620002376380ac58cd60e01b620004db60201b60201c565b6200024f635b5e139f60e01b620004db60201b60201c565b6200026763780e9d6360e01b620004db60201b60201c565b505033601b60006101000a81548173ffffffffffffffffffffffffffffffffffffffff021916908373ffffffffffffffffffffffffffffffffffffffff1602179055506000600c819055506000600d8190555080600a60006101000a81548173ffffffffffffffffffffffffffffffffffffffff021916908373ffffffffffffffffffffffffffffffffffffffff16021790555063deadbeef600b60006101000a81548173ffffffffffffffffffffffffffffffffffffffff021916908373ffffffffffffffffffffffffffffffffffffffff1602179055506040518060400160405280600181526020017f4600000000000000000000000000000000000000000000000000000000000000815250805190602001206012819055506040518060400160405280600181526020017f6f00000000000000000000000000000000000000000000000000000000000000815250805190602001206013819055506040518060400160405280600181526020017f6d00000000000000000000000000000000000000000000000000000000000000815250805190602001206014819055506040518060400160405280600181526020017f3700000000000000000000000000000000000000000000000000000000000000815250805190602001206015819055506040518060400160405280600181526020017f3200000000000000000000000000000000000000000000000000000000000000815250805190602001206016819055506040518060400160405280600181526020017f31000000000000000000000000000000000000000000000000000000000000008152508051906020012060178190555050505062000693565b63ffffffff60e01b817bffffffffffffffffffffffffffffffffffffffffffffffffffffffff1916141562000578576040517f08c379a000000000000000000000000000000000000000000000000000000000815260040180806020018281038252601c8152602001807f4552433136353a20696e76616c696420696e746572666163652069640000000081525060200191505060405180910390fd5b6001600080837bffffffffffffffffffffffffffffffffffffffffffffffffffffffff19167bffffffffffffffffffffffffffffffffffffffffffffffffffffffff1916815260200190815260200160002060006101000a81548160ff02191690831515021790555050565b828054600181600116156101000203166002900490600052602060002090601f016020900481019282601f106200062757805160ff191683800117855562000658565b8280016001018555821562000658579182015b82811115620006575782518255916020019190600101906200063a565b5b5090506200066791906200066b565b5090565b6200069091905b808211156200068c57600081600090555060010162000672565b5090565b90565b6147b180620006a36000396000f3fe608060405234801561001057600080fd5b506004361061025e5760003560e01c80638462151c11610146578063ac7fd488116100c3578063c87b56dd11610087578063c87b56dd14610d47578063cba8887214610dee578063cf92fc2114610e0c578063e300aa5414610e16578063e985e9c514610e34578063fb2542f414610eb05761025e565b8063ac7fd48814610bca578063ad94f8bc14610be8578063b88d4fde14610c06578063bc8711fd14610d0b578063bf70931214610d295761025e565b8063a11f8de41161010a578063a11f8de414610a68578063a22cb46514610ab2578063a2fb117514610b02578063a5e9da1014610b7e578063a69e752f14610bac5761025e565b80638462151c146108f257806384aa29d01461098b57806390434288146109a957806395d89b41146109c75780639d46352014610a4a5761025e565b8063336c6d39116101df5780636352211e116101a35780636352211e146106f757806369649820146107655780636c0360eb1461078357806370a082311461080657806370d5ae051461085e578063719ce73e146108a85761025e565b8063336c6d391461059b57806342842e0e146105df5780634cd609bc1461064d5780634f6ccce7146106975780635192c82c146106d95761025e565b806318ce47cc1161022657806318ce47cc14610425578063197688261461044357806323b872dd146104ad57806325e0510f1461051b5780632f745c59146105395761025e565b806301ffc9a71461026357806306fdde03146102c8578063081812fc1461034b578063095ea7b3146103b957806318160ddd14610407575b600080fd5b6102ae6004803603602081101561027957600080fd5b8101908080357bffffffffffffffffffffffffffffffffffffffffffffffffffffffff19169060200190929190505050610ece565b604051808215151515815260200191505060405180910390f35b6102d0610f35565b6040518080602001828103825283818151815260200191508051906020019080838360005b838110156103105780820151818401526020810190506102f5565b50505050905090810190601f16801561033d5780820380516001836020036101000a031916815260200191505b509250505060405180910390f35b6103776004803603602081101561036157600080fd5b8101908080359060200190929190505050610fd7565b604051808273ffffffffffffffffffffffffffffffffffffffff1673ffffffffffffffffffffffffffffffffffffffff16815260200191505060405180910390f35b610405600480360360408110156103cf57600080fd5b81019080803573ffffffffffffffffffffffffffffffffffffffff16906020019092919080359060200190929190505050611072565b005b61040f6111b6565b6040518082815260200191505060405180910390f35b61042d6111c7565b6040518082815260200191505060405180910390f35b6104ab600480360360e081101561045957600080fd5b81019080803590602001909291908035906020019092919080359060200190929190803590602001909291908035906020019092919080359060200190929190803590602001909291905050506111cd565b005b610519600480360360608110156104c357600080fd5b81019080803573ffffffffffffffffffffffffffffffffffffffff169060200190929190803573ffffffffffffffffffffffffffffffffffffffff169060200190929190803590602001909291905050506113e1565b005b610523611457565b6040518082815260200191505060405180910390f35b6105856004803603604081101561054f57600080fd5b81019080803573ffffffffffffffffffffffffffffffffffffffff16906020019092919080359060200190929190505050611461565b6040518082815260200191505060405180910390f35b6105dd600480360360208110156105b157600080fd5b81019080803573ffffffffffffffffffffffffffffffffffffffff1690602001909291905050506114bc565b005b61064b600480360360608110156105f557600080fd5b81019080803573ffffffffffffffffffffffffffffffffffffffff169060200190929190803573ffffffffffffffffffffffffffffffffffffffff169060200190929190803590602001909291905050506115b8565b005b6106556115d8565b604051808273ffffffffffffffffffffffffffffffffffffffff1673ffffffffffffffffffffffffffffffffffffffff16815260200191505060405180910390f35b6106c3600480360360208110156106ad57600080fd5b81019080803590602001909291905050506115fe565b6040518082815260200191505060405180910390f35b6106e1611621565b6040518082815260200191505060405180910390f35b6107236004803603602081101561070d57600080fd5b8101908080359060200190929190505050611627565b604051808273ffffffffffffffffffffffffffffffffffffffff1673ffffffffffffffffffffffffffffffffffffffff16815260200191505060405180910390f35b61076d61165e565b6040518082815260200191505060405180910390f35b61078b611664565b6040518080602001828103825283818151815260200191508051906020019080838360005b838110156107cb5780820151818401526020810190506107b0565b50505050905090810190601f1680156107f85780820380516001836020036101000a031916815260200191505b509250505060405180910390f35b6108486004803603602081101561081c57600080fd5b81019080803573ffffffffffffffffffffffffffffffffffffffff169060200190929190505050611706565b6040518082815260200191505060405180910390f35b6108666117db565b604051808273ffffffffffffffffffffffffffffffffffffffff1673ffffffffffffffffffffffffffffffffffffffff16815260200191505060405180910390f35b6108b06117e3565b604051808273ffffffffffffffffffffffffffffffffffffffff1673ffffffffffffffffffffffffffffffffffffffff16815260200191505060405180910390f35b6109346004803603602081101561090857600080fd5b81019080803573ffffffffffffffffffffffffffffffffffffffff169060200190929190505050611809565b6040518080602001828103825283818151815260200191508051906020019060200280838360005b8381101561097757808201518184015260208101905061095c565b505050509050019250505060405180910390f35b6109936118e5565b6040518082815260200191505060405180910390f35b6109b16118ef565b6040518082815260200191505060405180910390f35b6109cf6118f5565b6040518080602001828103825283818151815260200191508051906020019080838360005b83811015610a0f5780820151818401526020810190506109f4565b50505050905090810190601f168015610a3c5780820380516001836020036101000a031916815260200191505b509250505060405180910390f35b610a52611997565b6040518082815260200191505060405180910390f35b610a7061199d565b604051808273ffffffffffffffffffffffffffffffffffffffff1673ffffffffffffffffffffffffffffffffffffffff16815260200191505060405180910390f35b610b0060048036036040811015610ac857600080fd5b81019080803573ffffffffffffffffffffffffffffffffffffffff1690602001909291908035151590602001909291905050506119c3565b005b610b2e60048036036020811015610b1857600080fd5b8101908080359060200190929190505050611b7b565b604051808481526020018381526020018273ffffffffffffffffffffffffffffffffffffffff1673ffffffffffffffffffffffffffffffffffffffff168152602001935050505060405180910390f35b610baa60048036036020811015610b9457600080fd5b8101908080359060200190929190505050611bd2565b005b610bb4611c1e565b6040518082815260200191505060405180910390f35b610bd2611c24565b6040518082815260200191505060405180910390f35b610bf0611c2a565b6040518082815260200191505060405180910390f35b610d0960048036036080811015610c1c57600080fd5b81019080803573ffffffffffffffffffffffffffffffffffffffff169060200190929190803573ffffffffffffffffffffffffffffffffffffffff1690602001909291908035906020019092919080359060200190640100000000811115610c8357600080fd5b820183602082011115610c9557600080fd5b80359060200191846001830284011164010000000083111715610cb757600080fd5b91908080601f016020809104026020016040519081016040528093929190818152602001838380828437600081840152601f19601f820116905080830192505050505050509192919290505050611c30565b005b610d13611ca8565b6040518082815260200191505060405180910390f35b610d31611cb5565b6040518082815260200191505060405180910390f35b610d7360048036036020811015610d5d57600080fd5b8101908080359060200190929190505050611cbb565b6040518080602001828103825283818151815260200191508051906020019080838360005b83811015610db3578082015181840152602081019050610d98565b50505050905090810190601f168015610de05780820380516001836020036101000a031916815260200191505b509250505060405180910390f35b610df6611fa4565b6040518082815260200191505060405180910390f35b610e14611faa565b005b610e1e612715565b6040518082815260200191505060405180910390f35b610e9660048036036040811015610e4a57600080fd5b81019080803573ffffffffffffffffffffffffffffffffffffffff169060200190929190803573ffffffffffffffffffffffffffffffffffffffff16906020019092919050505061271b565b604051808215151515815260200191505060405180910390f35b610eb86127af565b6040518082815260200191505060405180910390f35b6000806000837bffffffffffffffffffffffffffffffffffffffffffffffffffffffff19167bffffffffffffffffffffffffffffffffffffffffffffffffffffffff1916815260200190815260200160002060009054906101000a900460ff169050919050565b606060068054600181600116156101000203166002900480601f016020809104026020016040519081016040528092919081815260200182805460018160011615610100020316600290048015610fcd5780601f10610fa257610100808354040283529160200191610fcd565b820191906000526020600020905b815481529060010190602001808311610fb057829003601f168201915b5050505050905090565b6000610fe2826127bc565b611037576040517f08c379a000000000000000000000000000000000000000000000000000000000815260040180806020018281038252602c81526020018061467c602c913960400191505060405180910390fd5b6004600083815260200190815260200160002060009054906101000a900473ffffffffffffffffffffffffffffffffffffffff169050919050565b600061107d82611627565b90508073ffffffffffffffffffffffffffffffffffffffff168373ffffffffffffffffffffffffffffffffffffffff161415611104576040517f08c379a00000000000000000000000000000000000000000000000000000000081526004018080602001828103825260218152602001806147006021913960400191505060405180910390fd5b8073ffffffffffffffffffffffffffffffffffffffff166111236127d9565b73ffffffffffffffffffffffffffffffffffffffff16148061115257506111518161114c6127d9565b61271b565b5b6111a7576040517f08c379a00000000000000000000000000000000000000000000000000000000081526004018080602001828103825260388152602001806145ae6038913960400191505060405180910390fd5b6111b183836127e1565b505050565b60006111c2600261289a565b905090565b600c5481565b6111d9876012546128af565b80156111ed57506111ec866013546128af565b5b80156112015750611200856014546128af565b5b80156112155750611214846013546128af565b5b80156112295750611228836015546128af565b5b801561123d575061123c826016546128af565b5b80156112515750611250816017546128af565b5b6112c3576040517f08c379a000000000000000000000000000000000000000000000000000000000815260040180806020018281038252600c8152602001807f636865636b206661696c6564000000000000000000000000000000000000000081525060200191505060405180910390fd5b6112cc876129db565b6112d5866129db565b6112de856129db565b6112e7846129db565b6112f0836129db565b6112f9826129db565b611302816129db565b6113186007600d546129f990919063ffffffff16565b600d819055506000611328612a43565b905060405180604001604052808281526020016040518060400160405280600781526020017f466f6d6f37323100000000000000000000000000000000000000000000000000815250815250601860008381526020019081526020016000206000820151816000015560208201518160010190805190602001906113ad929190614402565b509050506113bb3382612a79565b6113d16001600c54612c6d90919063ffffffff16565b600c819055505050505050505050565b6113f26113ec6127d9565b82612cf5565b611447576040517f08c379a00000000000000000000000000000000000000000000000000000000081526004018080602001828103825260318152602001806147216031913960400191505060405180910390fd5b611452838383612de9565b505050565b6000600d54905090565b60006114b482600160008673ffffffffffffffffffffffffffffffffffffffff1673ffffffffffffffffffffffffffffffffffffffff16815260200190815260200160002061302c90919063ffffffff16565b905092915050565b601b60009054906101000a900473ffffffffffffffffffffffffffffffffffffffff1673ffffffffffffffffffffffffffffffffffffffff163373ffffffffffffffffffffffffffffffffffffffff161461151657600080fd5b63deadbeef73ffffffffffffffffffffffffffffffffffffffff16600b60009054906101000a900473ffffffffffffffffffffffffffffffffffffffff1673ffffffffffffffffffffffffffffffffffffffff161461157457600080fd5b80600b60006101000a81548173ffffffffffffffffffffffffffffffffffffffff021916908373ffffffffffffffffffffffffffffffffffffffff16021790555050565b6115d383838360405180602001604052806000815250611c30565b505050565b601160009054906101000a900473ffffffffffffffffffffffffffffffffffffffff1681565b60008061161583600261304690919063ffffffff16565b50905080915050919050565b600e5481565b6000611657826040518060600160405280602981526020016146106029913960026130759092919063ffffffff16565b9050919050565b60145481565b606060098054600181600116156101000203166002900480601f0160208091040260200160405190810160405280929190818152602001828054600181600116156101000203166002900480156116fc5780601f106116d1576101008083540402835291602001916116fc565b820191906000526020600020905b8154815290600101906020018083116116df57829003601f168201915b5050505050905090565b60008073ffffffffffffffffffffffffffffffffffffffff168273ffffffffffffffffffffffffffffffffffffffff16141561178d576040517f08c379a000000000000000000000000000000000000000000000000000000000815260040180806020018281038252602a8152602001806145e6602a913960400191505060405180910390fd5b6117d4600160008473ffffffffffffffffffffffffffffffffffffffff1673ffffffffffffffffffffffffffffffffffffffff168152602001908152602001600020613094565b9050919050565b63deadbeef81565b600b60009054906101000a900473ffffffffffffffffffffffffffffffffffffffff1681565b6060600061181683611706565b9050600081141561185a5760006040519080825280602002602001820160405280156118515781602001602082028038833980820191505090505b509150506118e0565b60608160405190808252806020026020018201604052801561188b5781602001602082028038833980820191505090505b509050600080905060008090505b838110156118d8576118ab8682611461565b8383815181106118b757fe5b60200260200101818152505081806001019250508080600101915050611899565b829450505050505b919050565b6000600c54905090565b600d5481565b606060078054600181600116156101000203166002900480601f01602080910402602001604051908101604052809291908181526020018280546001816001161561010002031660029004801561198d5780601f106119625761010080835404028352916020019161198d565b820191906000526020600020905b81548152906001019060200180831161197057829003601f168201915b5050505050905090565b60105481565b600a60009054906101000a900473ffffffffffffffffffffffffffffffffffffffff1681565b6119cb6127d9565b73ffffffffffffffffffffffffffffffffffffffff168273ffffffffffffffffffffffffffffffffffffffff161415611a6c576040517f08c379a00000000000000000000000000000000000000000000000000000000081526004018080602001828103825260198152602001807f4552433732313a20617070726f766520746f2063616c6c65720000000000000081525060200191505060405180910390fd5b8060056000611a796127d9565b73ffffffffffffffffffffffffffffffffffffffff1673ffffffffffffffffffffffffffffffffffffffff16815260200190815260200160002060008473ffffffffffffffffffffffffffffffffffffffff1673ffffffffffffffffffffffffffffffffffffffff16815260200190815260200160002060006101000a81548160ff0219169083151502179055508173ffffffffffffffffffffffffffffffffffffffff16611b266127d9565b73ffffffffffffffffffffffffffffffffffffffff167f17307eab39ab6107e8899845ad3d59bd9653f200f220920489ca2b5937696c3183604051808215151515815260200191505060405180910390a35050565b601a8181548110611b8857fe5b90600052602060002090600302016000915090508060000154908060010154908060020160009054906101000a900473ffffffffffffffffffffffffffffffffffffffff16905083565b3373ffffffffffffffffffffffffffffffffffffffff16611bf282611627565b73ffffffffffffffffffffffffffffffffffffffff1614611c1257600080fd5b611c1b816129db565b50565b60125481565b60165481565b60175481565b611c41611c3b6127d9565b83612cf5565b611c96576040517f08c379a00000000000000000000000000000000000000000000000000000000081526004018080602001828103825260318152602001806147216031913960400191505060405180910390fd5b611ca2848484846130a9565b50505050565b6000601a80549050905090565b60155481565b6060611cc6826127bc565b611d1b576040517f08c379a000000000000000000000000000000000000000000000000000000000815260040180806020018281038252602f8152602001806146d1602f913960400191505060405180910390fd5b6060600860008481526020019081526020016000208054600181600116156101000203166002900480601f016020809104026020016040519081016040528092919081815260200182805460018160011615610100020316600290048015611dc45780601f10611d9957610100808354040283529160200191611dc4565b820191906000526020600020905b815481529060010190602001808311611da757829003601f168201915b50505050509050600060098054600181600116156101000203166002900490501415611df35780915050611f9f565b600081511115611ecc576009816040516020018083805460018160011615610100020316600290048015611e5e5780601f10611e3c576101008083540402835291820191611e5e565b820191906000526020600020905b815481529060010190602001808311611e4a575b505082805190602001908083835b60208310611e8f5780518252602082019150602081019050602083039250611e6c565b6001836020036101000a03801982511681845116808217855250505050505090500192505050604051602081830303815290604052915050611f9f565b6009611ed78461311b565b6040516020018083805460018160011615610100020316600290048015611f355780601f10611f13576101008083540402835291820191611f35565b820191906000526020600020905b815481529060010190602001808311611f21575b505082805190602001908083835b60208310611f665780518252602082019150602081019050602083039250611f43565b6001836020036101000a038019825116818451168082178552505050505050905001925050506040516020818303038152906040529150505b919050565b600f5481565b3273ffffffffffffffffffffffffffffffffffffffff163373ffffffffffffffffffffffffffffffffffffffff1614611fe257600080fd5b61203a333068056bc75e2d63100000600a60009054906101000a900473ffffffffffffffffffffffffffffffffffffffff1673ffffffffffffffffffffffffffffffffffffffff1661324b909392919063ffffffff16565b6120be3063deadbeef6120756103e8612067600e5468056bc75e2d6310000061333890919063ffffffff16565b6133be90919063ffffffff16565b600a60009054906101000a900473ffffffffffffffffffffffffffffffffffffffff1673ffffffffffffffffffffffffffffffffffffffff1661324b909392919063ffffffff16565b61220830600b60009054906101000a900473ffffffffffffffffffffffffffffffffffffffff16600a60009054906101000a900473ffffffffffffffffffffffffffffffffffffffff1673ffffffffffffffffffffffffffffffffffffffff166370a08231306040518263ffffffff1660e01b8152600401808273ffffffffffffffffffffffffffffffffffffffff1673ffffffffffffffffffffffffffffffffffffffff16815260200191505060206040518083038186803b15801561218457600080fd5b505afa158015612198573d6000803e3d6000fd5b505050506040513d60208110156121ae57600080fd5b8101908080519060200190929190505050600a60009054906101000a900473ffffffffffffffffffffffffffffffffffffffff1673ffffffffffffffffffffffffffffffffffffffff1661324b909392919063ffffffff16565b6000612212613408565b90506060612706821061225c576040518060400160405280600181526020017f3100000000000000000000000000000000000000000000000000000000000000815250905061243f565b6126fc82106122a2576040518060400160405280600181526020017f3200000000000000000000000000000000000000000000000000000000000000815250905061243e565b6126ca82106122e8576040518060400160405280600181526020017f3700000000000000000000000000000000000000000000000000000000000000815250905061243d565b612328821061232e576040518060400160405280600181526020017f6f00000000000000000000000000000000000000000000000000000000000000815250905061243c565b611f408210612374576040518060400160405280600181526020017f6d00000000000000000000000000000000000000000000000000000000000000815250905061243b565b610fa082106123ba576040518060400160405280600181526020017f6f00000000000000000000000000000000000000000000000000000000000000815250905061243a565b6103e88210612400576040518060400160405280600181526020017f46000000000000000000000000000000000000000000000000000000000000008152509050612439565b6040518060400160405280601381526020017f446f6e277420676976652075702c2062726f210000000000000000000000000081525090505b5b5b5b5b5b5b6000612449612a43565b905060405180604001604052808281526020018381525060186000838152602001908152602001600020600082015181600001556020820151816001019080519060200190612499929190614402565b509050506001600d600082825401925050819055506124b83382612a79565b60006010541415612510574260108190555033601160006101000a81548173ffffffffffffffffffffffffffffffffffffffff021916908373ffffffffffffffffffffffffffffffffffffffff160217905550612710565b42612528600f54601054612c6d90919063ffffffff16565b101561270f57612536612a43565b905060405180604001604052808281526020016040518060400160405280600781526020017f466f6d6f37323100000000000000000000000000000000000000000000000000815250815250601860008381526020019081526020016000206000820151816000015560208201518160010190805190602001906125bb929190614402565b509050506125eb601160009054906101000a900473ffffffffffffffffffffffffffffffffffffffff1682612a79565b601a6040518060600160405280428152602001838152602001601160009054906101000a900473ffffffffffffffffffffffffffffffffffffffff1673ffffffffffffffffffffffffffffffffffffffff168152509080600181540180825580915050600190039060005260206000209060030201600090919091909150600082015181600001556020820151816001015560408201518160020160006101000a81548173ffffffffffffffffffffffffffffffffffffffff021916908373ffffffffffffffffffffffffffffffffffffffff160217905550505033601160006101000a81548173ffffffffffffffffffffffffffffffffffffffff021916908373ffffffffffffffffffffffffffffffffffffffff160217905550426010819055505b5b505050565b60135481565b6000600560008473ffffffffffffffffffffffffffffffffffffffff1673ffffffffffffffffffffffffffffffffffffffff16815260200190815260200160002060008373ffffffffffffffffffffffffffffffffffffffff1673ffffffffffffffffffffffffffffffffffffffff16815260200190815260200160002060009054906101000a900460ff16905092915050565b68056bc75e2d6310000081565b60006127d282600261348e90919063ffffffff16565b9050919050565b600033905090565b816004600083815260200190815260200160002060006101000a81548173ffffffffffffffffffffffffffffffffffffffff021916908373ffffffffffffffffffffffffffffffffffffffff160217905550808273ffffffffffffffffffffffffffffffffffffffff1661285483611627565b73ffffffffffffffffffffffffffffffffffffffff167f8c5be1e5ebec7d5bd14f71427d1e84f3dd0314c0f7b2291e5b200ac8c7c3b92560405160405180910390a45050565b60006128a8826000016134a8565b9050919050565b60006128b9614482565b6018600085815260200190815260200160002060405180604001604052908160008201548152602001600182018054600181600116156101000203166002900480601f01602080910402602001604051908101604052809291908181526020018280546001816001161561010002031660029004801561297a5780601f1061294f5761010080835404028352916020019161297a565b820191906000526020600020905b81548152906001019060200180831161295d57829003601f168201915b50505050508152505090503373ffffffffffffffffffffffffffffffffffffffff166129a585611627565b73ffffffffffffffffffffffffffffffffffffffff161480156129d2575082816020015180519060200120145b91505092915050565b6129e4816134b9565b60196000815480929190600101919050555050565b6000612a3b83836040518060400160405280601e81526020017f536166654d6174683a207375627472616374696f6e206f766572666c6f7700008152506135f3565b905092915050565b6000612a74601954612a666001612a586111b6565b612c6d90919063ffffffff16565b612c6d90919063ffffffff16565b905090565b600073ffffffffffffffffffffffffffffffffffffffff168273ffffffffffffffffffffffffffffffffffffffff161415612b1c576040517f08c379a00000000000000000000000000000000000000000000000000000000081526004018080602001828103825260208152602001807f4552433732313a206d696e7420746f20746865207a65726f206164647265737381525060200191505060405180910390fd5b612b25816127bc565b15612b98576040517f08c379a000000000000000000000000000000000000000000000000000000000815260040180806020018281038252601c8152602001807f4552433732313a20746f6b656e20616c7265616479206d696e7465640000000081525060200191505060405180910390fd5b612ba4600083836136b3565b612bf581600160008573ffffffffffffffffffffffffffffffffffffffff1673ffffffffffffffffffffffffffffffffffffffff1681526020019081526020016000206136b890919063ffffffff16565b50612c0c818360026136d29092919063ffffffff16565b50808273ffffffffffffffffffffffffffffffffffffffff16600073ffffffffffffffffffffffffffffffffffffffff167fddf252ad1be2c89b69c2b068fc378daa952ba7f163c4a11628f55a4df523b3ef60405160405180910390a45050565b600080828401905083811015612ceb576040517f08c379a000000000000000000000000000000000000000000000000000000000815260040180806020018281038252601b8152602001807f536166654d6174683a206164646974696f6e206f766572666c6f77000000000081525060200191505060405180910390fd5b8091505092915050565b6000612d00826127bc565b612d55576040517f08c379a000000000000000000000000000000000000000000000000000000000815260040180806020018281038252602c815260200180614582602c913960400191505060405180910390fd5b6000612d6083611627565b90508073ffffffffffffffffffffffffffffffffffffffff168473ffffffffffffffffffffffffffffffffffffffff161480612dcf57508373ffffffffffffffffffffffffffffffffffffffff16612db784610fd7565b73ffffffffffffffffffffffffffffffffffffffff16145b80612de05750612ddf818561271b565b5b91505092915050565b8273ffffffffffffffffffffffffffffffffffffffff16612e0982611627565b73ffffffffffffffffffffffffffffffffffffffff1614612e75576040517f08c379a00000000000000000000000000000000000000000000000000000000081526004018080602001828103825260298152602001806146a86029913960400191505060405180910390fd5b600073ffffffffffffffffffffffffffffffffffffffff168273ffffffffffffffffffffffffffffffffffffffff161415612efb576040517f08c379a000000000000000000000000000000000000000000000000000000000815260040180806020018281038252602481526020018061455e6024913960400191505060405180910390fd5b612f068383836136b3565b612f116000826127e1565b612f6281600160008673ffffffffffffffffffffffffffffffffffffffff1673ffffffffffffffffffffffffffffffffffffffff16815260200190815260200160002061370790919063ffffffff16565b50612fb481600160008573ffffffffffffffffffffffffffffffffffffffff1673ffffffffffffffffffffffffffffffffffffffff1681526020019081526020016000206136b890919063ffffffff16565b50612fcb818360026136d29092919063ffffffff16565b50808273ffffffffffffffffffffffffffffffffffffffff168473ffffffffffffffffffffffffffffffffffffffff167fddf252ad1be2c89b69c2b068fc378daa952ba7f163c4a11628f55a4df523b3ef60405160405180910390a4505050565b600061303b8360000183613721565b60001c905092915050565b60008060008061305986600001866137a4565b915091508160001c8160001c8090509350935050509250929050565b6000613088846000018460001b8461383d565b60001c90509392505050565b60006130a282600001613933565b9050919050565b6130b4848484612de9565b6130c084848484613944565b613115576040517f08c379a000000000000000000000000000000000000000000000000000000000815260040180806020018281038252603281526020018061452c6032913960400191505060405180910390fd5b50505050565b60606000821415613163576040518060400160405280600181526020017f30000000000000000000000000000000000000000000000000000000000000008152509050613246565b600082905060005b6000821461318d578080600101915050600a828161318557fe5b04915061316b565b6060816040519080825280601f01601f1916602001820160405280156131c25781602001600182028038833980820191505090505b50905060006001830390508593505b6000841461323e57600a84816131e357fe5b0660300160f81b828280600190039350815181106131fd57fe5b60200101907effffffffffffffffffffffffffffffffffffffffffffffffffffffffffffff1916908160001a905350600a848161323657fe5b0493506131d1565b819450505050505b919050565b613332846323b872dd60e01b858585604051602401808473ffffffffffffffffffffffffffffffffffffffff1673ffffffffffffffffffffffffffffffffffffffff1681526020018373ffffffffffffffffffffffffffffffffffffffff1673ffffffffffffffffffffffffffffffffffffffff1681526020018281526020019350505050604051602081830303815290604052907bffffffffffffffffffffffffffffffffffffffffffffffffffffffff19166020820180517bffffffffffffffffffffffffffffffffffffffffffffffffffffffff8381831617835250505050613b89565b50505050565b60008083141561334b57600090506133b8565b600082840290508284828161335c57fe5b04146133b3576040517f08c379a000000000000000000000000000000000000000000000000000000000815260040180806020018281038252602181526020018061465b6021913960400191505060405180910390fd5b809150505b92915050565b600061340083836040518060400160405280601a81526020017f536166654d6174683a206469766973696f6e206279207a65726f000000000000815250613c78565b905092915050565b600080424433604051602001808481526020018381526020018273ffffffffffffffffffffffffffffffffffffffff1673ffffffffffffffffffffffffffffffffffffffff1660601b815260140193505050506040516020818303038152906040528051906020012060001c9050600061348482612710613d3e565b9050809250505090565b60006134a0836000018360001b613e24565b905092915050565b600081600001805490509050919050565b60006134c482611627565b90506134d2816000846136b3565b6134dd6000836127e1565b6000600860008481526020019081526020016000208054600181600116156101000203166002900490501461352c5760086000838152602001908152602001600020600061352b919061449c565b5b61357d82600160008473ffffffffffffffffffffffffffffffffffffffff1673ffffffffffffffffffffffffffffffffffffffff16815260200190815260200160002061370790919063ffffffff16565b50613592826002613e4790919063ffffffff16565b5081600073ffffffffffffffffffffffffffffffffffffffff168273ffffffffffffffffffffffffffffffffffffffff167fddf252ad1be2c89b69c2b068fc378daa952ba7f163c4a11628f55a4df523b3ef60405160405180910390a45050565b60008383111582906136a0576040517f08c379a00000000000000000000000000000000000000000000000000000000081526004018080602001828103825283818151815260200191508051906020019080838360005b8381101561366557808201518184015260208101905061364a565b50505050905090810190601f1680156136925780820380516001836020036101000a031916815260200191505b509250505060405180910390fd5b5060008385039050809150509392505050565b505050565b60006136ca836000018360001b613e61565b905092915050565b60006136fe846000018460001b8473ffffffffffffffffffffffffffffffffffffffff1660001b613ed1565b90509392505050565b6000613719836000018360001b613fad565b905092915050565b600081836000018054905011613782576040517f08c379a000000000000000000000000000000000000000000000000000000000815260040180806020018281038252602281526020018061450a6022913960400191505060405180910390fd5b82600001828154811061379157fe5b9060005260206000200154905092915050565b60008082846000018054905011613806576040517f08c379a00000000000000000000000000000000000000000000000000000000081526004018080602001828103825260228152602001806146396022913960400191505060405180910390fd5b600084600001848154811061381757fe5b906000526020600020906002020190508060000154816001015492509250509250929050565b60008084600101600085815260200190815260200160002054905060008114158390613904576040517f08c379a00000000000000000000000000000000000000000000000000000000081526004018080602001828103825283818151815260200191508051906020019080838360005b838110156138c95780820151818401526020810190506138ae565b50505050905090810190601f1680156138f65780820380516001836020036101000a031916815260200191505b509250505060405180910390fd5b5084600001600182038154811061391757fe5b9060005260206000209060020201600101549150509392505050565b600081600001805490509050919050565b60006139658473ffffffffffffffffffffffffffffffffffffffff16614095565b6139725760019050613b81565b6060613b0863150b7a0260e01b6139876127d9565b888787604051602401808573ffffffffffffffffffffffffffffffffffffffff1673ffffffffffffffffffffffffffffffffffffffff1681526020018473ffffffffffffffffffffffffffffffffffffffff1673ffffffffffffffffffffffffffffffffffffffff16815260200183815260200180602001828103825283818151815260200191508051906020019080838360005b83811015613a37578082015181840152602081019050613a1c565b50505050905090810190601f168015613a645780820380516001836020036101000a031916815260200191505b5095505050505050604051602081830303815290604052907bffffffffffffffffffffffffffffffffffffffffffffffffffffffff19166020820180517bffffffffffffffffffffffffffffffffffffffffffffffffffffffff838183161783525050505060405180606001604052806032815260200161452c603291398773ffffffffffffffffffffffffffffffffffffffff166140a89092919063ffffffff16565b90506000818060200190516020811015613b2157600080fd5b8101908080519060200190929190505050905063150b7a0260e01b7bffffffffffffffffffffffffffffffffffffffffffffffffffffffff1916817bffffffffffffffffffffffffffffffffffffffffffffffffffffffff191614925050505b949350505050565b6060613beb826040518060400160405280602081526020017f5361666545524332303a206c6f772d6c6576656c2063616c6c206661696c65648152508573ffffffffffffffffffffffffffffffffffffffff166140a89092919063ffffffff16565b9050600081511115613c7357808060200190516020811015613c0c57600080fd5b8101908080519060200190929190505050613c72576040517f08c379a000000000000000000000000000000000000000000000000000000000815260040180806020018281038252602a815260200180614752602a913960400191505060405180910390fd5b5b505050565b60008083118290613d24576040517f08c379a00000000000000000000000000000000000000000000000000000000081526004018080602001828103825283818151815260200191508051906020019080838360005b83811015613ce9578082015181840152602081019050613cce565b50505050905090810190601f168015613d165780820380516001836020036101000a031916815260200191505b509250505060405180910390fd5b506000838581613d3057fe5b049050809150509392505050565b6000808211613db5576040517f08c379a00000000000000000000000000000000000000000000000000000000081526004018080602001828103825260158152602001807f556e69666f726d52616e642f6d696e2d626f756e64000000000000000000000081525060200191505060405180910390fd5b6000828360000381613dc357fe5b06905060008490505b600115613e1057818110613ddf57613e10565b80604051602001808281526020019150506040516020818303038152906040528051906020012060001c9050613dcc565b838181613e1957fe5b069250505092915050565b600080836001016000848152602001908152602001600020541415905092915050565b6000613e59836000018360001b6140c0565b905092915050565b6000613e6d83836141d9565b613ec6578260000182908060018154018082558091505060019003906000526020600020016000909190919091505582600001805490508360010160008481526020019081526020016000208190555060019050613ecb565b600090505b92915050565b6000808460010160008581526020019081526020016000205490506000811415613f7857846000016040518060400160405280868152602001858152509080600181540180825580915050600190039060005260206000209060020201600090919091909150600082015181600001556020820151816001015550508460000180549050856001016000868152602001908152602001600020819055506001915050613fa6565b82856000016001830381548110613f8b57fe5b90600052602060002090600202016001018190555060009150505b9392505050565b600080836001016000848152602001908152602001600020549050600081146140895760006001820390506000600186600001805490500390506000866000018281548110613ff857fe5b906000526020600020015490508087600001848154811061401557fe5b906000526020600020018190555060018301876001016000838152602001908152602001600020819055508660000180548061404d57fe5b6001900381819060005260206000200160009055905586600101600087815260200190815260200160002060009055600194505050505061408f565b60009150505b92915050565b600080823b905060008111915050919050565b60606140b784846000856141fc565b90509392505050565b600080836001016000848152602001908152602001600020549050600081146141cd576000600182039050600060018660000180549050039050600086600001828154811061410b57fe5b906000526020600020906002020190508087600001848154811061412b57fe5b906000526020600020906002020160008201548160000155600182015481600101559050506001830187600101600083600001548152602001908152602001600020819055508660000180548061417e57fe5b60019003818190600052602060002090600202016000808201600090556001820160009055505090558660010160008781526020019081526020016000206000905560019450505050506141d3565b60009150505b92915050565b600080836001016000848152602001908152602001600020541415905092915050565b606061420785614095565b614279576040517f08c379a000000000000000000000000000000000000000000000000000000000815260040180806020018281038252601d8152602001807f416464726573733a2063616c6c20746f206e6f6e2d636f6e747261637400000081525060200191505060405180910390fd5b600060608673ffffffffffffffffffffffffffffffffffffffff1685876040518082805190602001908083835b602083106142c957805182526020820191506020810190506020830392506142a6565b6001836020036101000a03801982511681845116808217855250505050505090500191505060006040518083038185875af1925050503d806000811461432b576040519150601f19603f3d011682016040523d82523d6000602084013e614330565b606091505b509150915081156143455780925050506143fa565b6000815111156143585780518082602001fd5b836040517f08c379a00000000000000000000000000000000000000000000000000000000081526004018080602001828103825283818151815260200191508051906020019080838360005b838110156143bf5780820151818401526020810190506143a4565b50505050905090810190601f1680156143ec5780820380516001836020036101000a031916815260200191505b509250505060405180910390fd5b949350505050565b828054600181600116156101000203166002900490600052602060002090601f016020900481019282601f1061444357805160ff1916838001178555614471565b82800160010185558215614471579182015b82811115614470578251825591602001919060010190614455565b5b50905061447e91906144e4565b5090565b604051806040016040528060008152602001606081525090565b50805460018160011615610100020316600290046000825580601f106144c257506144e1565b601f0160209004906000526020600020908101906144e091906144e4565b5b50565b61450691905b808211156145025760008160009055506001016144ea565b5090565b9056fe456e756d657261626c655365743a20696e646578206f7574206f6620626f756e64734552433732313a207472616e7366657220746f206e6f6e20455243373231526563656976657220696d706c656d656e7465724552433732313a207472616e7366657220746f20746865207a65726f20616464726573734552433732313a206f70657261746f7220717565727920666f72206e6f6e6578697374656e7420746f6b656e4552433732313a20617070726f76652063616c6c6572206973206e6f74206f776e6572206e6f7220617070726f76656420666f7220616c6c4552433732313a2062616c616e636520717565727920666f7220746865207a65726f20616464726573734552433732313a206f776e657220717565727920666f72206e6f6e6578697374656e7420746f6b656e456e756d657261626c654d61703a20696e646578206f7574206f6620626f756e6473536166654d6174683a206d756c7469706c69636174696f6e206f766572666c6f774552433732313a20617070726f76656420717565727920666f72206e6f6e6578697374656e7420746f6b656e4552433732313a207472616e73666572206f6620746f6b656e2074686174206973206e6f74206f776e4552433732314d657461646174613a2055524920717565727920666f72206e6f6e6578697374656e7420746f6b656e4552433732313a20617070726f76616c20746f2063757272656e74206f776e65724552433732313a207472616e736665722063616c6c6572206973206e6f74206f776e6572206e6f7220617070726f7665645361666545524332303a204552433230206f7065726174696f6e20646964206e6f742073756363656564a2646970667358221220470c494dc2f3b4e144ba1ae38d099dd42d2c896b8882472192f7e7ee69d545ac64736f6c63430006020033",
  "source": "pragma solidity ^0.6.0;\n\nimport \"@openzeppelin/contracts/math/Math.sol\";\nimport \"@openzeppelin/contracts/math/SafeMath.sol\";\nimport \"@openzeppelin/contracts/token/ERC20/IERC20.sol\";\nimport \"@openzeppelin/contracts/token/ERC20/SafeERC20.sol\";\nimport \"@openzeppelin/contracts/token/ERC721/ERC721.sol\";\nimport \"./rnd.sol\";\n\ncontract Fomo721 is ERC721 {\n    using SafeMath for uint256;\n\tusing SafeERC20 for IERC20;\n    \n\tuint256 constant public mintPieceFee = 100 * 1e18;\n\tIERC20 public FomoToken;\n\taddress public prizePool;\n\taddress constant public burnAddress = 0x00000000000000000000000000000000DeaDBeef;\n\t\n\tuint256 public fomo721Count;\n\tuint256 public fomo721PieceCount;\n\tuint256 public burnRatio = 500; // 50%\n\n\tuint256 public countdown = 1 hours;\n\tuint256 public lastMintTime;\n\taddress public lastMinter;\n\n\tbytes32 public _F; \n\tbytes32 public _o;\n\tbytes32 public _m;\n\tbytes32 public _7;\n\tbytes32 public _2;\n\tbytes32 public _1;\n    \n    struct Fomo721Token {\n        uint256 id;\n\t\tstring char; // Fomo721\n    }\n\tmapping(uint256 => Fomo721Token) tokens;\n    uint256 burnedCounter = 0;\n\n\tstruct Winner {\n\t\tuint256 timestamp;\n\t\tuint256 tokenId;\n\t\taddress owner;\n\t}\n\tWinner[] public winners;\n\n\taddress owner;\n    constructor(\n\t\tstring memory _name,\n\t\tstring memory _symbol,\n\t\taddress _fomotoken\n\t) ERC721(_name, _symbol) public {\n\t\towner = msg.sender;\n\t\tfomo721Count = 0;\n\t\tfomo721PieceCount = 0;\n\t\tFomoToken = IERC20(_fomotoken);\n\t\tprizePool = burnAddress;\n\n\t\t_F = keccak256(bytes(\"F\")); \n\t\t_o = keccak256(bytes(\"o\")); \n\t\t_m = keccak256(bytes(\"m\")); \n\t\t_7 = keccak256(bytes(\"7\")); \n\t\t_2 = keccak256(bytes(\"2\")); \n\t\t_1 = keccak256(bytes(\"1\")); \n\t}\n\n\tmodifier onlyOwner() {\n\t\trequire(msg.sender == owner);\n\t\t_;\n\t}\n\n\tmodifier onlyOnce() {\n\t\trequire(prizePool == burnAddress);\n\t\t_;\n\t}\n\n\tfunction setPrizePool(address _prizepool) external onlyOwner onlyOnce {\n\t\tprizePool = _prizepool;\n\t}\n\n\tfunction getWinnersLength() external view returns (uint256) {\n\t\treturn winners.length;\n\t}\n\n\tfunction getRandom() internal view returns (uint256) {\n\t\tuint256 seed = uint256(keccak256(abi.encodePacked(now, block.difficulty, msg.sender)));\n\t\tuint256 rnd = UniformRandomNumber.uniform(seed, 10000);\n\t\treturn rnd;\n\t}\n\n\tfunction getFomo721Count() external view returns (uint256) {\n\t\treturn fomo721Count;\n\t}\n\n\tfunction getFomo721PieceCount() external view returns (uint256) {\n\t\treturn fomo721PieceCount;\n\t}\n\n\tfunction mintFomo721Piece() external {\n\t\trequire(msg.sender == tx.origin);\n\t\tFomoToken.safeTransferFrom(msg.sender, address(this), mintPieceFee);\n\t\tFomoToken.safeTransferFrom(address(this), burnAddress, mintPieceFee.mul(burnRatio).div(1000));\n\t\tFomoToken.safeTransferFrom(address(this), prizePool, FomoToken.balanceOf(address(this)));\n\t\tuint256 rnd = getRandom();\n\t\tstring memory char;\n\t\tif (rnd >= 9990) {\n\t\t\t// 0.001\n\t\t\tchar = \"1\";\n\t\t} else if (rnd >= 9980) {\n\t\t\t// 0.002\n\t\t\tchar = \"2\";\n\t\t} else if (rnd >= 9930) {\n\t\t\t// 0.007\n\t\t\tchar = \"7\";\n\t\t} else if (rnd >= 9000) {\n\t\t\t// 0.1\n\t\t\tchar = \"o\";\n\t\t} else if (rnd >= 8000) {\n\t\t\t// 0.2\n\t\t\tchar = \"m\";\n\t\t} else if (rnd >= 4000) {\n\t\t\t// 0.6\n\t\t\tchar = \"o\";\n\t\t} else if (rnd >= 1000) {\n\t\t\t// 0.9\n\t\t\tchar = \"F\";\n\t\t} else {\n\t\t\tchar = \"Don't give up, bro!\";\n\t\t}\n\t\tuint256 tokenId = _getNextTokenId();\n\t\ttokens[tokenId] = Fomo721Token(tokenId, char);\n\t\tfomo721PieceCount += 1;\n\t\t_mint(msg.sender, tokenId);\n\n\t\tif(lastMintTime == 0) {\n\t\t\tlastMintTime = block.timestamp;\n\t\t\tlastMinter = msg.sender;\n\t\t} else {\n\t\t\tif(lastMintTime.add(countdown) < block.timestamp) {\n\t\t\t\ttokenId = _getNextTokenId();\n\t\t\t\ttokens[tokenId] = Fomo721Token(tokenId, \"Fomo721\");\n\t\t\t\t_mint(lastMinter, tokenId);\n\t\t\t\twinners.push(Winner(block.timestamp, tokenId, lastMinter));\n\n\t\t\t\tlastMinter = msg.sender;\n\t\t\t\tlastMintTime = block.timestamp;\n\t\t\t}\n\t\t}\n\t}\n\n\tfunction check(uint256 id, bytes32 v) internal view returns (bool) {\n\t\tFomo721Token memory token = tokens[id];\n\t\treturn ownerOf(id) == msg.sender && keccak256(bytes(token.char)) == v;\n\t}\n\n\tfunction burnIt(uint256 id) external {\n\t\trequire(ownerOf(id) == msg.sender);\n\t\t_burn(id);\n\t}\n\n\tfunction mintFomo721(uint256 id1, uint256 id2, uint256 id3, uint256 id4, uint256 id5, uint256 id6, uint256 id7) external {\n\t\trequire(check(id1, _F) && check(id2, _o) && check(id3, _m) && check(id4, _o) && check(id5, _7) && check(id6, _2) && check(id7, _1), \"check failed\");\n\t\t_burn(id1); _burn(id2); _burn(id3); _burn(id4); _burn(id5); _burn(id6); _burn(id7);\n\t\tfomo721PieceCount = fomo721PieceCount.sub(7);\n\t\tuint256 tokenId = _getNextTokenId();\n\t\ttokens[tokenId] = Fomo721Token(tokenId, \"Fomo721\");\n\t\t_mint(msg.sender, tokenId);\n\t\tfomo721Count = fomo721Count.add(1);\n\t}\n\n    function _getNextTokenId() private view returns (uint256) {\n        return totalSupply().add(1).add(burnedCounter);\n    }\n\n    function _burn(uint256 _tokenId) override internal {\n        super._burn(_tokenId);\n        burnedCounter++;\n    }\n\n    function tokensOfOwner(address _owner) external view returns(uint256[] memory ownerTokens) {\n        uint256 tokenCount = balanceOf(_owner);\n\n        if (tokenCount == 0) {\n            return new uint256[](0);\n        } else {\n            uint256[] memory result = new uint256[](tokenCount);\n            uint256 resultIndex = 0;\n            uint256 _tokenIdx;\n            for (_tokenIdx = 0; _tokenIdx < tokenCount; _tokenIdx++) {\n                result[resultIndex] = tokenOfOwnerByIndex(_owner, _tokenIdx);\n                resultIndex++;\n            }\n            return result;\n        }\n    }\n}\n",
  "sourcePath": "/Users/cyan/Desktop/projects/defi/nifty.fi/fomo721/contracts/fomo721.sol",
  "compiler": {
    "name": "solc",
    "version": "0.6.2+commit.bacdbe57.Emscripten.clang"
  },
  "schemaVersion": "3.2.5",
  "updatedAt": "2020-09-12T05:54:40.627Z",
  "devdoc": {
    "methods": {
      "approve(address,uint256)": {
        "details": "See {IERC721-approve}."
      },
      "balanceOf(address)": {
        "details": "See {IERC721-balanceOf}."
      },
      "baseURI()": {
        "details": "Returns the base URI set via {_setBaseURI}. This will be automatically added as a prefix in {tokenURI} to each token's URI, or to the token ID if no specific URI is set for that token ID."
      },
      "getApproved(uint256)": {
        "details": "See {IERC721-getApproved}."
      },
      "isApprovedForAll(address,address)": {
        "details": "See {IERC721-isApprovedForAll}."
      },
      "name()": {
        "details": "See {IERC721Metadata-name}."
      },
      "ownerOf(uint256)": {
        "details": "See {IERC721-ownerOf}."
      },
      "safeTransferFrom(address,address,uint256)": {
        "details": "See {IERC721-safeTransferFrom}."
      },
      "safeTransferFrom(address,address,uint256,bytes)": {
        "details": "See {IERC721-safeTransferFrom}."
      },
      "setApprovalForAll(address,bool)": {
        "details": "See {IERC721-setApprovalForAll}."
      },
      "supportsInterface(bytes4)": {
        "details": "See {IERC165-supportsInterface}.     * Time complexity O(1), guaranteed to always use less than 30 000 gas."
      },
      "symbol()": {
        "details": "See {IERC721Metadata-symbol}."
      },
      "tokenByIndex(uint256)": {
        "details": "See {IERC721Enumerable-tokenByIndex}."
      },
      "tokenOfOwnerByIndex(address,uint256)": {
        "details": "See {IERC721Enumerable-tokenOfOwnerByIndex}."
      },
      "tokenURI(uint256)": {
        "details": "See {IERC721Metadata-tokenURI}."
      },
      "totalSupply()": {
        "details": "See {IERC721Enumerable-totalSupply}."
      },
      "transferFrom(address,address,uint256)": {
        "details": "See {IERC721-transferFrom}."
      }
    }
  },
  "userdoc": {
    "methods": {}
  }
}