{
  "contractName": "Fomo721",
  "abi": [
    {
      "inputs": [
        {
          "internalType": "string",
          "name": "_name",
          "type": "string"
        },
        {
          "internalType": "string",
          "name": "_symbol",
          "type": "string"
        },
        {
          "internalType": "address",
          "name": "_fomotoken",
          "type": "address"
        }
      ],
      "stateMutability": "nonpayable",
      "type": "constructor"
    },
    {
      "anonymous": false,
      "inputs": [
        {
          "indexed": true,
          "internalType": "address",
          "name": "owner",
          "type": "address"
        },
        {
          "indexed": true,
          "internalType": "address",
          "name": "approved",
          "type": "address"
        },
        {
          "indexed": true,
          "internalType": "uint256",
          "name": "tokenId",
          "type": "uint256"
        }
      ],
      "name": "Approval",
      "type": "event"
    },
    {
      "anonymous": false,
      "inputs": [
        {
          "indexed": true,
          "internalType": "address",
          "name": "owner",
          "type": "address"
        },
        {
          "indexed": true,
          "internalType": "address",
          "name": "operator",
          "type": "address"
        },
        {
          "indexed": false,
          "internalType": "bool",
          "name": "approved",
          "type": "bool"
        }
      ],
      "name": "ApprovalForAll",
      "type": "event"
    },
    {
      "anonymous": false,
      "inputs": [
        {
          "indexed": true,
          "internalType": "address",
          "name": "from",
          "type": "address"
        },
        {
          "indexed": true,
          "internalType": "address",
          "name": "to",
          "type": "address"
        },
        {
          "indexed": true,
          "internalType": "uint256",
          "name": "tokenId",
          "type": "uint256"
        }
      ],
      "name": "Transfer",
      "type": "event"
    },
    {
      "inputs": [],
      "name": "FomoToken",
      "outputs": [
        {
          "internalType": "contract IERC20",
          "name": "",
          "type": "address"
        }
      ],
      "stateMutability": "view",
      "type": "function"
    },
    {
      "inputs": [],
      "name": "_1",
      "outputs": [
        {
          "internalType": "bytes32",
          "name": "",
          "type": "bytes32"
        }
      ],
      "stateMutability": "view",
      "type": "function"
    },
    {
      "inputs": [],
      "name": "_2",
      "outputs": [
        {
          "internalType": "bytes32",
          "name": "",
          "type": "bytes32"
        }
      ],
      "stateMutability": "view",
      "type": "function"
    },
    {
      "inputs": [],
      "name": "_7",
      "outputs": [
        {
          "internalType": "bytes32",
          "name": "",
          "type": "bytes32"
        }
      ],
      "stateMutability": "view",
      "type": "function"
    },
    {
      "inputs": [],
      "name": "_F",
      "outputs": [
        {
          "internalType": "bytes32",
          "name": "",
          "type": "bytes32"
        }
      ],
      "stateMutability": "view",
      "type": "function"
    },
    {
      "inputs": [],
      "name": "_m",
      "outputs": [
        {
          "internalType": "bytes32",
          "name": "",
          "type": "bytes32"
        }
      ],
      "stateMutability": "view",
      "type": "function"
    },
    {
      "inputs": [],
      "name": "_o",
      "outputs": [
        {
          "internalType": "bytes32",
          "name": "",
          "type": "bytes32"
        }
      ],
      "stateMutability": "view",
      "type": "function"
    },
    {
      "inputs": [
        {
          "internalType": "address",
          "name": "to",
          "type": "address"
        },
        {
          "internalType": "uint256",
          "name": "tokenId",
          "type": "uint256"
        }
      ],
      "name": "approve",
      "outputs": [],
      "stateMutability": "nonpayable",
      "type": "function"
    },
    {
      "inputs": [
        {
          "internalType": "address",
          "name": "owner",
          "type": "address"
        }
      ],
      "name": "balanceOf",
      "outputs": [
        {
          "internalType": "uint256",
          "name": "",
          "type": "uint256"
        }
      ],
      "stateMutability": "view",
      "type": "function"
    },
    {
      "inputs": [],
      "name": "baseURI",
      "outputs": [
        {
          "internalType": "string",
          "name": "",
          "type": "string"
        }
      ],
      "stateMutability": "view",
      "type": "function"
    },
    {
      "inputs": [],
      "name": "burnAddress",
      "outputs": [
        {
          "internalType": "address",
          "name": "",
          "type": "address"
        }
      ],
      "stateMutability": "view",
      "type": "function"
    },
    {
      "inputs": [],
      "name": "burnRatio",
      "outputs": [
        {
          "internalType": "uint256",
          "name": "",
          "type": "uint256"
        }
      ],
      "stateMutability": "view",
      "type": "function"
    },
    {
      "inputs": [],
      "name": "countdown",
      "outputs": [
        {
          "internalType": "uint256",
          "name": "",
          "type": "uint256"
        }
      ],
      "stateMutability": "view",
      "type": "function"
    },
    {
      "inputs": [],
      "name": "fomo721Count",
      "outputs": [
        {
          "internalType": "uint256",
          "name": "",
          "type": "uint256"
        }
      ],
      "stateMutability": "view",
      "type": "function"
    },
    {
      "inputs": [],
      "name": "fomo721PieceCount",
      "outputs": [
        {
          "internalType": "uint256",
          "name": "",
          "type": "uint256"
        }
      ],
      "stateMutability": "view",
      "type": "function"
    },
    {
      "inputs": [
        {
          "internalType": "uint256",
          "name": "tokenId",
          "type": "uint256"
        }
      ],
      "name": "getApproved",
      "outputs": [
        {
          "internalType": "address",
          "name": "",
          "type": "address"
        }
      ],
      "stateMutability": "view",
      "type": "function"
    },
    {
      "inputs": [
        {
          "internalType": "address",
          "name": "owner",
          "type": "address"
        },
        {
          "internalType": "address",
          "name": "operator",
          "type": "address"
        }
      ],
      "name": "isApprovedForAll",
      "outputs": [
        {
          "internalType": "bool",
          "name": "",
          "type": "bool"
        }
      ],
      "stateMutability": "view",
      "type": "function"
    },
    {
      "inputs": [],
      "name": "lastMintTime",
      "outputs": [
        {
          "internalType": "uint256",
          "name": "",
          "type": "uint256"
        }
      ],
      "stateMutability": "view",
      "type": "function"
    },
    {
      "inputs": [],
      "name": "lastMinter",
      "outputs": [
        {
          "internalType": "address",
          "name": "",
          "type": "address"
        }
      ],
      "stateMutability": "view",
      "type": "function"
    },
    {
      "inputs": [],
      "name": "mintPieceFee",
      "outputs": [
        {
          "internalType": "uint256",
          "name": "",
          "type": "uint256"
        }
      ],
      "stateMutability": "view",
      "type": "function"
    },
    {
      "inputs": [],
      "name": "name",
      "outputs": [
        {
          "internalType": "string",
          "name": "",
          "type": "string"
        }
      ],
      "stateMutability": "view",
      "type": "function"
    },
    {
      "inputs": [
        {
          "internalType": "uint256",
          "name": "tokenId",
          "type": "uint256"
        }
      ],
      "name": "ownerOf",
      "outputs": [
        {
          "internalType": "address",
          "name": "",
          "type": "address"
        }
      ],
      "stateMutability": "view",
      "type": "function"
    },
    {
      "inputs": [],
      "name": "prizePool",
      "outputs": [
        {
          "internalType": "address",
          "name": "",
          "type": "address"
        }
      ],
      "stateMutability": "view",
      "type": "function"
    },
    {
      "inputs": [
        {
          "internalType": "address",
          "name": "from",
          "type": "address"
        },
        {
          "internalType": "address",
          "name": "to",
          "type": "address"
        },
        {
          "internalType": "uint256",
          "name": "tokenId",
          "type": "uint256"
        }
      ],
      "name": "safeTransferFrom",
      "outputs": [],
      "stateMutability": "nonpayable",
      "type": "function"
    },
    {
      "inputs": [
        {
          "internalType": "address",
          "name": "from",
          "type": "address"
        },
        {
          "internalType": "address",
          "name": "to",
          "type": "address"
        },
        {
          "internalType": "uint256",
          "name": "tokenId",
          "type": "uint256"
        },
        {
          "internalType": "bytes",
          "name": "_data",
          "type": "bytes"
        }
      ],
      "name": "safeTransferFrom",
      "outputs": [],
      "stateMutability": "nonpayable",
      "type": "function"
    },
    {
      "inputs": [
        {
          "internalType": "address",
          "name": "operator",
          "type": "address"
        },
        {
          "internalType": "bool",
          "name": "approved",
          "type": "bool"
        }
      ],
      "name": "setApprovalForAll",
      "outputs": [],
      "stateMutability": "nonpayable",
      "type": "function"
    },
    {
      "inputs": [
        {
          "internalType": "bytes4",
          "name": "interfaceId",
          "type": "bytes4"
        }
      ],
      "name": "supportsInterface",
      "outputs": [
        {
          "internalType": "bool",
          "name": "",
          "type": "bool"
        }
      ],
      "stateMutability": "view",
      "type": "function"
    },
    {
      "inputs": [],
      "name": "symbol",
      "outputs": [
        {
          "internalType": "string",
          "name": "",
          "type": "string"
        }
      ],
      "stateMutability": "view",
      "type": "function"
    },
    {
      "inputs": [
        {
          "internalType": "uint256",
          "name": "index",
          "type": "uint256"
        }
      ],
      "name": "tokenByIndex",
      "outputs": [
        {
          "internalType": "uint256",
          "name": "",
          "type": "uint256"
        }
      ],
      "stateMutability": "view",
      "type": "function"
    },
    {
      "inputs": [
        {
          "internalType": "address",
          "name": "owner",
          "type": "address"
        },
        {
          "internalType": "uint256",
          "name": "index",
          "type": "uint256"
        }
      ],
      "name": "tokenOfOwnerByIndex",
      "outputs": [
        {
          "internalType": "uint256",
          "name": "",
          "type": "uint256"
        }
      ],
      "stateMutability": "view",
      "type": "function"
    },
    {
      "inputs": [
        {
          "internalType": "uint256",
          "name": "tokenId",
          "type": "uint256"
        }
      ],
      "name": "tokenURI",
      "outputs": [
        {
          "internalType": "string",
          "name": "",
          "type": "string"
        }
      ],
      "stateMutability": "view",
      "type": "function"
    },
    {
      "inputs": [],
      "name": "totalSupply",
      "outputs": [
        {
          "internalType": "uint256",
          "name": "",
          "type": "uint256"
        }
      ],
      "stateMutability": "view",
      "type": "function"
    },
    {
      "inputs": [
        {
          "internalType": "address",
          "name": "from",
          "type": "address"
        },
        {
          "internalType": "address",
          "name": "to",
          "type": "address"
        },
        {
          "internalType": "uint256",
          "name": "tokenId",
          "type": "uint256"
        }
      ],
      "name": "transferFrom",
      "outputs": [],
      "stateMutability": "nonpayable",
      "type": "function"
    },
    {
      "inputs": [
        {
          "internalType": "uint256",
          "name": "",
          "type": "uint256"
        }
      ],
      "name": "winners",
      "outputs": [
        {
          "internalType": "uint256",
          "name": "timestamp",
          "type": "uint256"
        },
        {
          "internalType": "uint256",
          "name": "tokenId",
          "type": "uint256"
        },
        {
          "internalType": "address",
          "name": "owner",
          "type": "address"
        }
      ],
      "stateMutability": "view",
      "type": "function"
    },
    {
      "inputs": [
        {
          "internalType": "address",
          "name": "_prizepool",
          "type": "address"
        }
      ],
      "name": "setPrizePool",
      "outputs": [],
      "stateMutability": "nonpayable",
      "type": "function"
    },
    {
      "inputs": [],
      "name": "getWinnersLength",
      "outputs": [
        {
          "internalType": "uint256",
          "name": "",
          "type": "uint256"
        }
      ],
      "stateMutability": "view",
      "type": "function"
    },
    {
      "inputs": [],
      "name": "getFomo721Count",
      "outputs": [
        {
          "internalType": "uint256",
          "name": "",
          "type": "uint256"
        }
      ],
      "stateMutability": "view",
      "type": "function"
    },
    {
      "inputs": [],
      "name": "getFomo721PieceCount",
      "outputs": [
        {
          "internalType": "uint256",
          "name": "",
          "type": "uint256"
        }
      ],
      "stateMutability": "view",
      "type": "function"
    },
    {
      "inputs": [
        {
          "internalType": "uint256",
          "name": "idx",
          "type": "uint256"
        }
      ],
      "name": "getFomo721Info",
      "outputs": [
        {
          "internalType": "string",
          "name": "",
          "type": "string"
        }
      ],
      "stateMutability": "view",
      "type": "function"
    },
    {
      "inputs": [],
      "name": "mintFomo721Piece",
      "outputs": [],
      "stateMutability": "nonpayable",
      "type": "function"
    },
    {
      "inputs": [
        {
          "internalType": "uint256",
          "name": "id",
          "type": "uint256"
        }
      ],
      "name": "burnIt",
      "outputs": [],
      "stateMutability": "nonpayable",
      "type": "function"
    },
    {
      "inputs": [
        {
          "internalType": "uint256",
          "name": "id1",
          "type": "uint256"
        },
        {
          "internalType": "uint256",
          "name": "id2",
          "type": "uint256"
        },
        {
          "internalType": "uint256",
          "name": "id3",
          "type": "uint256"
        },
        {
          "internalType": "uint256",
          "name": "id4",
          "type": "uint256"
        },
        {
          "internalType": "uint256",
          "name": "id5",
          "type": "uint256"
        },
        {
          "internalType": "uint256",
          "name": "id6",
          "type": "uint256"
        },
        {
          "internalType": "uint256",
          "name": "id7",
          "type": "uint256"
        }
      ],
      "name": "mintFomo721",
      "outputs": [],
      "stateMutability": "nonpayable",
      "type": "function"
    },
    {
      "inputs": [
        {
          "internalType": "address",
          "name": "_owner",
          "type": "address"
        }
      ],
      "name": "tokensOfOwner",
      "outputs": [
        {
          "internalType": "uint256[]",
          "name": "ownerTokens",
          "type": "uint256[]"
        }
      ],
      "stateMutability": "view",
      "type": "function"
    }
  ],
  "bytecode": "0x60806040526101f4600e55610e10600f5560006019553480156200002257600080fd5b5060405162004fbe38038062004fbe833981810160405260608110156200004857600080fd5b81019080805160405193929190846401000000008211156200006957600080fd5b838201915060208201858111156200008057600080fd5b82518660018202830111640100000000821117156200009e57600080fd5b8083526020830192505050908051906020019080838360005b83811015620000d4578082015181840152602081019050620000b7565b50505050905090810190601f168015620001025780820380516001836020036101000a031916815260200191505b50604052602001805160405193929190846401000000008211156200012657600080fd5b838201915060208201858111156200013d57600080fd5b82518660018202830111640100000000821117156200015b57600080fd5b8083526020830192505050908051906020019080838360005b838110156200019157808201518184015260208101905062000174565b50505050905090810190601f168015620001bf5780820380516001836020036101000a031916815260200191505b50604052602001805190602001909291905050508282620001ed6301ffc9a760e01b620004db60201b60201c565b816006908051906020019062000205929190620005e4565b5080600790805190602001906200021e929190620005e4565b50620002376380ac58cd60e01b620004db60201b60201c565b6200024f635b5e139f60e01b620004db60201b60201c565b6200026763780e9d6360e01b620004db60201b60201c565b505033601b60006101000a81548173ffffffffffffffffffffffffffffffffffffffff021916908373ffffffffffffffffffffffffffffffffffffffff1602179055506000600c819055506000600d8190555080600a60006101000a81548173ffffffffffffffffffffffffffffffffffffffff021916908373ffffffffffffffffffffffffffffffffffffffff16021790555063deadbeef600b60006101000a81548173ffffffffffffffffffffffffffffffffffffffff021916908373ffffffffffffffffffffffffffffffffffffffff1602179055506040518060400160405280600181526020017f4600000000000000000000000000000000000000000000000000000000000000815250805190602001206012819055506040518060400160405280600181526020017f6f00000000000000000000000000000000000000000000000000000000000000815250805190602001206013819055506040518060400160405280600181526020017f6d00000000000000000000000000000000000000000000000000000000000000815250805190602001206014819055506040518060400160405280600181526020017f3700000000000000000000000000000000000000000000000000000000000000815250805190602001206015819055506040518060400160405280600181526020017f3200000000000000000000000000000000000000000000000000000000000000815250805190602001206016819055506040518060400160405280600181526020017f31000000000000000000000000000000000000000000000000000000000000008152508051906020012060178190555050505062000693565b63ffffffff60e01b817bffffffffffffffffffffffffffffffffffffffffffffffffffffffff1916141562000578576040517f08c379a000000000000000000000000000000000000000000000000000000000815260040180806020018281038252601c8152602001807f4552433136353a20696e76616c696420696e746572666163652069640000000081525060200191505060405180910390fd5b6001600080837bffffffffffffffffffffffffffffffffffffffffffffffffffffffff19167bffffffffffffffffffffffffffffffffffffffffffffffffffffffff1916815260200190815260200160002060006101000a81548160ff02191690831515021790555050565b828054600181600116156101000203166002900490600052602060002090601f016020900481019282601f106200062757805160ff191683800117855562000658565b8280016001018555821562000658579182015b82811115620006575782518255916020019190600101906200063a565b5b5090506200066791906200066b565b5090565b6200069091905b808211156200068c57600081600090555060010162000672565b5090565b90565b61491b80620006a36000396000f3fe608060405234801561001057600080fd5b50600436106102695760003560e01c80638462151c11610151578063ad94f8bc116100c3578063c87b56dd11610087578063c87b56dd14610df9578063cba8887214610ea0578063cf92fc2114610ebe578063e300aa5414610ec8578063e985e9c514610ee6578063fb2542f414610f6257610269565b8063ad94f8bc14610bf3578063b88d4fde14610c11578063bc12838d14610d16578063bc8711fd14610dbd578063bf70931214610ddb57610269565b8063a11f8de411610115578063a11f8de414610a73578063a22cb46514610abd578063a2fb117514610b0d578063a5e9da1014610b89578063a69e752f14610bb7578063ac7fd48814610bd557610269565b80638462151c146108fd57806384aa29d01461099657806390434288146109b457806395d89b41146109d25780639d46352014610a5557610269565b8063336c6d39116101ea5780636352211e116101ae5780636352211e1461070257806369649820146107705780636c0360eb1461078e57806370a082311461081157806370d5ae0514610869578063719ce73e146108b357610269565b8063336c6d39146105a657806342842e0e146105ea5780634cd609bc146106585780634f6ccce7146106a25780635192c82c146106e457610269565b806318ce47cc1161023157806318ce47cc14610430578063197688261461044e57806323b872dd146104b857806325e0510f146105265780632f745c591461054457610269565b806301ffc9a71461026e57806306fdde03146102d3578063081812fc14610356578063095ea7b3146103c457806318160ddd14610412575b600080fd5b6102b96004803603602081101561028457600080fd5b8101908080357bffffffffffffffffffffffffffffffffffffffffffffffffffffffff19169060200190929190505050610f80565b604051808215151515815260200191505060405180910390f35b6102db610fe7565b6040518080602001828103825283818151815260200191508051906020019080838360005b8381101561031b578082015181840152602081019050610300565b50505050905090810190601f1680156103485780820380516001836020036101000a031916815260200191505b509250505060405180910390f35b6103826004803603602081101561036c57600080fd5b8101908080359060200190929190505050611089565b604051808273ffffffffffffffffffffffffffffffffffffffff1673ffffffffffffffffffffffffffffffffffffffff16815260200191505060405180910390f35b610410600480360360408110156103da57600080fd5b81019080803573ffffffffffffffffffffffffffffffffffffffff16906020019092919080359060200190929190505050611124565b005b61041a611268565b6040518082815260200191505060405180910390f35b610438611279565b6040518082815260200191505060405180910390f35b6104b6600480360360e081101561046457600080fd5b810190808035906020019092919080359060200190929190803590602001909291908035906020019092919080359060200190929190803590602001909291908035906020019092919050505061127f565b005b610524600480360360608110156104ce57600080fd5b81019080803573ffffffffffffffffffffffffffffffffffffffff169060200190929190803573ffffffffffffffffffffffffffffffffffffffff16906020019092919080359060200190929190505050611493565b005b61052e611509565b6040518082815260200191505060405180910390f35b6105906004803603604081101561055a57600080fd5b81019080803573ffffffffffffffffffffffffffffffffffffffff16906020019092919080359060200190929190505050611513565b6040518082815260200191505060405180910390f35b6105e8600480360360208110156105bc57600080fd5b81019080803573ffffffffffffffffffffffffffffffffffffffff16906020019092919050505061156e565b005b6106566004803603606081101561060057600080fd5b81019080803573ffffffffffffffffffffffffffffffffffffffff169060200190929190803573ffffffffffffffffffffffffffffffffffffffff1690602001909291908035906020019092919050505061166a565b005b61066061168a565b604051808273ffffffffffffffffffffffffffffffffffffffff1673ffffffffffffffffffffffffffffffffffffffff16815260200191505060405180910390f35b6106ce600480360360208110156106b857600080fd5b81019080803590602001909291905050506116b0565b6040518082815260200191505060405180910390f35b6106ec6116d3565b6040518082815260200191505060405180910390f35b61072e6004803603602081101561071857600080fd5b81019080803590602001909291905050506116d9565b604051808273ffffffffffffffffffffffffffffffffffffffff1673ffffffffffffffffffffffffffffffffffffffff16815260200191505060405180910390f35b610778611710565b6040518082815260200191505060405180910390f35b610796611716565b6040518080602001828103825283818151815260200191508051906020019080838360005b838110156107d65780820151818401526020810190506107bb565b50505050905090810190601f1680156108035780820380516001836020036101000a031916815260200191505b509250505060405180910390f35b6108536004803603602081101561082757600080fd5b81019080803573ffffffffffffffffffffffffffffffffffffffff1690602001909291905050506117b8565b6040518082815260200191505060405180910390f35b61087161188d565b604051808273ffffffffffffffffffffffffffffffffffffffff1673ffffffffffffffffffffffffffffffffffffffff16815260200191505060405180910390f35b6108bb611895565b604051808273ffffffffffffffffffffffffffffffffffffffff1673ffffffffffffffffffffffffffffffffffffffff16815260200191505060405180910390f35b61093f6004803603602081101561091357600080fd5b81019080803573ffffffffffffffffffffffffffffffffffffffff1690602001909291905050506118bb565b6040518080602001828103825283818151815260200191508051906020019060200280838360005b83811015610982578082015181840152602081019050610967565b505050509050019250505060405180910390f35b61099e611997565b6040518082815260200191505060405180910390f35b6109bc6119a1565b6040518082815260200191505060405180910390f35b6109da6119a7565b6040518080602001828103825283818151815260200191508051906020019080838360005b83811015610a1a5780820151818401526020810190506109ff565b50505050905090810190601f168015610a475780820380516001836020036101000a031916815260200191505b509250505060405180910390f35b610a5d611a49565b6040518082815260200191505060405180910390f35b610a7b611a4f565b604051808273ffffffffffffffffffffffffffffffffffffffff1673ffffffffffffffffffffffffffffffffffffffff16815260200191505060405180910390f35b610b0b60048036036040811015610ad357600080fd5b81019080803573ffffffffffffffffffffffffffffffffffffffff169060200190929190803515159060200190929190505050611a75565b005b610b3960048036036020811015610b2357600080fd5b8101908080359060200190929190505050611c2d565b604051808481526020018381526020018273ffffffffffffffffffffffffffffffffffffffff1673ffffffffffffffffffffffffffffffffffffffff168152602001935050505060405180910390f35b610bb560048036036020811015610b9f57600080fd5b8101908080359060200190929190505050611c84565b005b610bbf611cd0565b6040518082815260200191505060405180910390f35b610bdd611cd6565b6040518082815260200191505060405180910390f35b610bfb611cdc565b6040518082815260200191505060405180910390f35b610d1460048036036080811015610c2757600080fd5b81019080803573ffffffffffffffffffffffffffffffffffffffff169060200190929190803573ffffffffffffffffffffffffffffffffffffffff1690602001909291908035906020019092919080359060200190640100000000811115610c8e57600080fd5b820183602082011115610ca057600080fd5b80359060200191846001830284011164010000000083111715610cc257600080fd5b91908080601f016020809104026020016040519081016040528093929190818152602001838380828437600081840152601f19601f820116905080830192505050505050509192919290505050611ce2565b005b610d4260048036036020811015610d2c57600080fd5b8101908080359060200190929190505050611d5a565b6040518080602001828103825283818151815260200191508051906020019080838360005b83811015610d82578082015181840152602081019050610d67565b50505050905090810190601f168015610daf5780820380516001836020036101000a031916815260200191505b509250505060405180910390f35b610dc5611e12565b6040518082815260200191505060405180910390f35b610de3611e1f565b6040518082815260200191505060405180910390f35b610e2560048036036020811015610e0f57600080fd5b8101908080359060200190929190505050611e25565b6040518080602001828103825283818151815260200191508051906020019080838360005b83811015610e65578082015181840152602081019050610e4a565b50505050905090810190601f168015610e925780820380516001836020036101000a031916815260200191505b509250505060405180910390f35b610ea861210e565b6040518082815260200191505060405180910390f35b610ec6612114565b005b610ed061287f565b6040518082815260200191505060405180910390f35b610f4860048036036040811015610efc57600080fd5b81019080803573ffffffffffffffffffffffffffffffffffffffff169060200190929190803573ffffffffffffffffffffffffffffffffffffffff169060200190929190505050612885565b604051808215151515815260200191505060405180910390f35b610f6a612919565b6040518082815260200191505060405180910390f35b6000806000837bffffffffffffffffffffffffffffffffffffffffffffffffffffffff19167bffffffffffffffffffffffffffffffffffffffffffffffffffffffff1916815260200190815260200160002060009054906101000a900460ff169050919050565b606060068054600181600116156101000203166002900480601f01602080910402602001604051908101604052809291908181526020018280546001816001161561010002031660029004801561107f5780601f106110545761010080835404028352916020019161107f565b820191906000526020600020905b81548152906001019060200180831161106257829003601f168201915b5050505050905090565b600061109482612926565b6110e9576040517f08c379a000000000000000000000000000000000000000000000000000000000815260040180806020018281038252602c8152602001806147e6602c913960400191505060405180910390fd5b6004600083815260200190815260200160002060009054906101000a900473ffffffffffffffffffffffffffffffffffffffff169050919050565b600061112f826116d9565b90508073ffffffffffffffffffffffffffffffffffffffff168373ffffffffffffffffffffffffffffffffffffffff1614156111b6576040517f08c379a000000000000000000000000000000000000000000000000000000000815260040180806020018281038252602181526020018061486a6021913960400191505060405180910390fd5b8073ffffffffffffffffffffffffffffffffffffffff166111d5612943565b73ffffffffffffffffffffffffffffffffffffffff1614806112045750611203816111fe612943565b612885565b5b611259576040517f08c379a00000000000000000000000000000000000000000000000000000000081526004018080602001828103825260388152602001806147186038913960400191505060405180910390fd5b611263838361294b565b505050565b60006112746002612a04565b905090565b600c5481565b61128b87601254612a19565b801561129f575061129e86601354612a19565b5b80156112b357506112b285601454612a19565b5b80156112c757506112c684601354612a19565b5b80156112db57506112da83601554612a19565b5b80156112ef57506112ee82601654612a19565b5b8015611303575061130281601754612a19565b5b611375576040517f08c379a000000000000000000000000000000000000000000000000000000000815260040180806020018281038252600c8152602001807f636865636b206661696c6564000000000000000000000000000000000000000081525060200191505060405180910390fd5b61137e87612b45565b61138786612b45565b61139085612b45565b61139984612b45565b6113a283612b45565b6113ab82612b45565b6113b481612b45565b6113ca6007600d54612b6390919063ffffffff16565b600d8190555060006113da612bad565b905060405180604001604052808281526020016040518060400160405280600781526020017f466f6d6f373231000000000000000000000000000000000000000000000000008152508152506018600083815260200190815260200160002060008201518160000155602082015181600101908051906020019061145f92919061456c565b5090505061146d3382612be3565b6114836001600c54612dd790919063ffffffff16565b600c819055505050505050505050565b6114a461149e612943565b82612e5f565b6114f9576040517f08c379a000000000000000000000000000000000000000000000000000000000815260040180806020018281038252603181526020018061488b6031913960400191505060405180910390fd5b611504838383612f53565b505050565b6000600d54905090565b600061156682600160008673ffffffffffffffffffffffffffffffffffffffff1673ffffffffffffffffffffffffffffffffffffffff16815260200190815260200160002061319690919063ffffffff16565b905092915050565b601b60009054906101000a900473ffffffffffffffffffffffffffffffffffffffff1673ffffffffffffffffffffffffffffffffffffffff163373ffffffffffffffffffffffffffffffffffffffff16146115c857600080fd5b63deadbeef73ffffffffffffffffffffffffffffffffffffffff16600b60009054906101000a900473ffffffffffffffffffffffffffffffffffffffff1673ffffffffffffffffffffffffffffffffffffffff161461162657600080fd5b80600b60006101000a81548173ffffffffffffffffffffffffffffffffffffffff021916908373ffffffffffffffffffffffffffffffffffffffff16021790555050565b61168583838360405180602001604052806000815250611ce2565b505050565b601160009054906101000a900473ffffffffffffffffffffffffffffffffffffffff1681565b6000806116c78360026131b090919063ffffffff16565b50905080915050919050565b600e5481565b60006117098260405180606001604052806029815260200161477a6029913960026131df9092919063ffffffff16565b9050919050565b60145481565b606060098054600181600116156101000203166002900480601f0160208091040260200160405190810160405280929190818152602001828054600181600116156101000203166002900480156117ae5780601f10611783576101008083540402835291602001916117ae565b820191906000526020600020905b81548152906001019060200180831161179157829003601f168201915b5050505050905090565b60008073ffffffffffffffffffffffffffffffffffffffff168273ffffffffffffffffffffffffffffffffffffffff16141561183f576040517f08c379a000000000000000000000000000000000000000000000000000000000815260040180806020018281038252602a815260200180614750602a913960400191505060405180910390fd5b611886600160008473ffffffffffffffffffffffffffffffffffffffff1673ffffffffffffffffffffffffffffffffffffffff1681526020019081526020016000206131fe565b9050919050565b63deadbeef81565b600b60009054906101000a900473ffffffffffffffffffffffffffffffffffffffff1681565b606060006118c8836117b8565b9050600081141561190c5760006040519080825280602002602001820160405280156119035781602001602082028038833980820191505090505b50915050611992565b60608160405190808252806020026020018201604052801561193d5781602001602082028038833980820191505090505b509050600080905060008090505b8381101561198a5761195d8682611513565b83838151811061196957fe5b6020026020010181815250508180600101925050808060010191505061194b565b829450505050505b919050565b6000600c54905090565b600d5481565b606060078054600181600116156101000203166002900480601f016020809104026020016040519081016040528092919081815260200182805460018160011615610100020316600290048015611a3f5780601f10611a1457610100808354040283529160200191611a3f565b820191906000526020600020905b815481529060010190602001808311611a2257829003601f168201915b5050505050905090565b60105481565b600a60009054906101000a900473ffffffffffffffffffffffffffffffffffffffff1681565b611a7d612943565b73ffffffffffffffffffffffffffffffffffffffff168273ffffffffffffffffffffffffffffffffffffffff161415611b1e576040517f08c379a00000000000000000000000000000000000000000000000000000000081526004018080602001828103825260198152602001807f4552433732313a20617070726f766520746f2063616c6c65720000000000000081525060200191505060405180910390fd5b8060056000611b2b612943565b73ffffffffffffffffffffffffffffffffffffffff1673ffffffffffffffffffffffffffffffffffffffff16815260200190815260200160002060008473ffffffffffffffffffffffffffffffffffffffff1673ffffffffffffffffffffffffffffffffffffffff16815260200190815260200160002060006101000a81548160ff0219169083151502179055508173ffffffffffffffffffffffffffffffffffffffff16611bd8612943565b73ffffffffffffffffffffffffffffffffffffffff167f17307eab39ab6107e8899845ad3d59bd9653f200f220920489ca2b5937696c3183604051808215151515815260200191505060405180910390a35050565b601a8181548110611c3a57fe5b90600052602060002090600302016000915090508060000154908060010154908060020160009054906101000a900473ffffffffffffffffffffffffffffffffffffffff16905083565b3373ffffffffffffffffffffffffffffffffffffffff16611ca4826116d9565b73ffffffffffffffffffffffffffffffffffffffff1614611cc457600080fd5b611ccd81612b45565b50565b60125481565b60165481565b60175481565b611cf3611ced612943565b83612e5f565b611d48576040517f08c379a000000000000000000000000000000000000000000000000000000000815260040180806020018281038252603181526020018061488b6031913960400191505060405180910390fd5b611d5484848484613213565b50505050565b6060601860008381526020019081526020016000206001018054600181600116156101000203166002900480601f016020809104026020016040519081016040528092919081815260200182805460018160011615610100020316600290048015611e065780601f10611ddb57610100808354040283529160200191611e06565b820191906000526020600020905b815481529060010190602001808311611de957829003601f168201915b50505050509050919050565b6000601a80549050905090565b60155481565b6060611e3082612926565b611e85576040517f08c379a000000000000000000000000000000000000000000000000000000000815260040180806020018281038252602f81526020018061483b602f913960400191505060405180910390fd5b6060600860008481526020019081526020016000208054600181600116156101000203166002900480601f016020809104026020016040519081016040528092919081815260200182805460018160011615610100020316600290048015611f2e5780601f10611f0357610100808354040283529160200191611f2e565b820191906000526020600020905b815481529060010190602001808311611f1157829003601f168201915b50505050509050600060098054600181600116156101000203166002900490501415611f5d5780915050612109565b600081511115612036576009816040516020018083805460018160011615610100020316600290048015611fc85780601f10611fa6576101008083540402835291820191611fc8565b820191906000526020600020905b815481529060010190602001808311611fb4575b505082805190602001908083835b60208310611ff95780518252602082019150602081019050602083039250611fd6565b6001836020036101000a03801982511681845116808217855250505050505090500192505050604051602081830303815290604052915050612109565b600961204184613285565b604051602001808380546001816001161561010002031660029004801561209f5780601f1061207d57610100808354040283529182019161209f565b820191906000526020600020905b81548152906001019060200180831161208b575b505082805190602001908083835b602083106120d057805182526020820191506020810190506020830392506120ad565b6001836020036101000a038019825116818451168082178552505050505050905001925050506040516020818303038152906040529150505b919050565b600f5481565b3273ffffffffffffffffffffffffffffffffffffffff163373ffffffffffffffffffffffffffffffffffffffff161461214c57600080fd5b6121a4333068056bc75e2d63100000600a60009054906101000a900473ffffffffffffffffffffffffffffffffffffffff1673ffffffffffffffffffffffffffffffffffffffff166133b5909392919063ffffffff16565b6122283063deadbeef6121df6103e86121d1600e5468056bc75e2d631000006134a290919063ffffffff16565b61352890919063ffffffff16565b600a60009054906101000a900473ffffffffffffffffffffffffffffffffffffffff1673ffffffffffffffffffffffffffffffffffffffff166133b5909392919063ffffffff16565b61237230600b60009054906101000a900473ffffffffffffffffffffffffffffffffffffffff16600a60009054906101000a900473ffffffffffffffffffffffffffffffffffffffff1673ffffffffffffffffffffffffffffffffffffffff166370a08231306040518263ffffffff1660e01b8152600401808273ffffffffffffffffffffffffffffffffffffffff1673ffffffffffffffffffffffffffffffffffffffff16815260200191505060206040518083038186803b1580156122ee57600080fd5b505afa158015612302573d6000803e3d6000fd5b505050506040513d602081101561231857600080fd5b8101908080519060200190929190505050600a60009054906101000a900473ffffffffffffffffffffffffffffffffffffffff1673ffffffffffffffffffffffffffffffffffffffff166133b5909392919063ffffffff16565b600061237c613572565b9050606061270682106123c6576040518060400160405280600181526020017f310000000000000000000000000000000000000000000000000000000000000081525090506125a9565b6126fc821061240c576040518060400160405280600181526020017f320000000000000000000000000000000000000000000000000000000000000081525090506125a8565b6126ca8210612452576040518060400160405280600181526020017f370000000000000000000000000000000000000000000000000000000000000081525090506125a7565b6123288210612498576040518060400160405280600181526020017f6f0000000000000000000000000000000000000000000000000000000000000081525090506125a6565b611f4082106124de576040518060400160405280600181526020017f6d0000000000000000000000000000000000000000000000000000000000000081525090506125a5565b610fa08210612524576040518060400160405280600181526020017f6f0000000000000000000000000000000000000000000000000000000000000081525090506125a4565b6103e8821061256a576040518060400160405280600181526020017f460000000000000000000000000000000000000000000000000000000000000081525090506125a3565b6040518060400160405280601381526020017f446f6e277420676976652075702c2062726f210000000000000000000000000081525090505b5b5b5b5b5b5b60006125b3612bad565b90506040518060400160405280828152602001838152506018600083815260200190815260200160002060008201518160000155602082015181600101908051906020019061260392919061456c565b509050506001600d600082825401925050819055506126223382612be3565b6000601054141561267a574260108190555033601160006101000a81548173ffffffffffffffffffffffffffffffffffffffff021916908373ffffffffffffffffffffffffffffffffffffffff16021790555061287a565b42612692600f54601054612dd790919063ffffffff16565b1015612879576126a0612bad565b905060405180604001604052808281526020016040518060400160405280600781526020017f466f6d6f373231000000000000000000000000000000000000000000000000008152508152506018600083815260200190815260200160002060008201518160000155602082015181600101908051906020019061272592919061456c565b50905050612755601160009054906101000a900473ffffffffffffffffffffffffffffffffffffffff1682612be3565b601a6040518060600160405280428152602001838152602001601160009054906101000a900473ffffffffffffffffffffffffffffffffffffffff1673ffffffffffffffffffffffffffffffffffffffff168152509080600181540180825580915050600190039060005260206000209060030201600090919091909150600082015181600001556020820151816001015560408201518160020160006101000a81548173ffffffffffffffffffffffffffffffffffffffff021916908373ffffffffffffffffffffffffffffffffffffffff160217905550505033601160006101000a81548173ffffffffffffffffffffffffffffffffffffffff021916908373ffffffffffffffffffffffffffffffffffffffff160217905550426010819055505b5b505050565b60135481565b6000600560008473ffffffffffffffffffffffffffffffffffffffff1673ffffffffffffffffffffffffffffffffffffffff16815260200190815260200160002060008373ffffffffffffffffffffffffffffffffffffffff1673ffffffffffffffffffffffffffffffffffffffff16815260200190815260200160002060009054906101000a900460ff16905092915050565b68056bc75e2d6310000081565b600061293c8260026135f890919063ffffffff16565b9050919050565b600033905090565b816004600083815260200190815260200160002060006101000a81548173ffffffffffffffffffffffffffffffffffffffff021916908373ffffffffffffffffffffffffffffffffffffffff160217905550808273ffffffffffffffffffffffffffffffffffffffff166129be836116d9565b73ffffffffffffffffffffffffffffffffffffffff167f8c5be1e5ebec7d5bd14f71427d1e84f3dd0314c0f7b2291e5b200ac8c7c3b92560405160405180910390a45050565b6000612a1282600001613612565b9050919050565b6000612a236145ec565b6018600085815260200190815260200160002060405180604001604052908160008201548152602001600182018054600181600116156101000203166002900480601f016020809104026020016040519081016040528092919081815260200182805460018160011615610100020316600290048015612ae45780601f10612ab957610100808354040283529160200191612ae4565b820191906000526020600020905b815481529060010190602001808311612ac757829003601f168201915b50505050508152505090503373ffffffffffffffffffffffffffffffffffffffff16612b0f856116d9565b73ffffffffffffffffffffffffffffffffffffffff16148015612b3c575082816020015180519060200120145b91505092915050565b612b4e81613623565b60196000815480929190600101919050555050565b6000612ba583836040518060400160405280601e81526020017f536166654d6174683a207375627472616374696f6e206f766572666c6f77000081525061375d565b905092915050565b6000612bde601954612bd06001612bc2611268565b612dd790919063ffffffff16565b612dd790919063ffffffff16565b905090565b600073ffffffffffffffffffffffffffffffffffffffff168273ffffffffffffffffffffffffffffffffffffffff161415612c86576040517f08c379a00000000000000000000000000000000000000000000000000000000081526004018080602001828103825260208152602001807f4552433732313a206d696e7420746f20746865207a65726f206164647265737381525060200191505060405180910390fd5b612c8f81612926565b15612d02576040517f08c379a000000000000000000000000000000000000000000000000000000000815260040180806020018281038252601c8152602001807f4552433732313a20746f6b656e20616c7265616479206d696e7465640000000081525060200191505060405180910390fd5b612d0e6000838361381d565b612d5f81600160008573ffffffffffffffffffffffffffffffffffffffff1673ffffffffffffffffffffffffffffffffffffffff16815260200190815260200160002061382290919063ffffffff16565b50612d768183600261383c9092919063ffffffff16565b50808273ffffffffffffffffffffffffffffffffffffffff16600073ffffffffffffffffffffffffffffffffffffffff167fddf252ad1be2c89b69c2b068fc378daa952ba7f163c4a11628f55a4df523b3ef60405160405180910390a45050565b600080828401905083811015612e55576040517f08c379a000000000000000000000000000000000000000000000000000000000815260040180806020018281038252601b8152602001807f536166654d6174683a206164646974696f6e206f766572666c6f77000000000081525060200191505060405180910390fd5b8091505092915050565b6000612e6a82612926565b612ebf576040517f08c379a000000000000000000000000000000000000000000000000000000000815260040180806020018281038252602c8152602001806146ec602c913960400191505060405180910390fd5b6000612eca836116d9565b90508073ffffffffffffffffffffffffffffffffffffffff168473ffffffffffffffffffffffffffffffffffffffff161480612f3957508373ffffffffffffffffffffffffffffffffffffffff16612f2184611089565b73ffffffffffffffffffffffffffffffffffffffff16145b80612f4a5750612f498185612885565b5b91505092915050565b8273ffffffffffffffffffffffffffffffffffffffff16612f73826116d9565b73ffffffffffffffffffffffffffffffffffffffff1614612fdf576040517f08c379a00000000000000000000000000000000000000000000000000000000081526004018080602001828103825260298152602001806148126029913960400191505060405180910390fd5b600073ffffffffffffffffffffffffffffffffffffffff168273ffffffffffffffffffffffffffffffffffffffff161415613065576040517f08c379a00000000000000000000000000000000000000000000000000000000081526004018080602001828103825260248152602001806146c86024913960400191505060405180910390fd5b61307083838361381d565b61307b60008261294b565b6130cc81600160008673ffffffffffffffffffffffffffffffffffffffff1673ffffffffffffffffffffffffffffffffffffffff16815260200190815260200160002061387190919063ffffffff16565b5061311e81600160008573ffffffffffffffffffffffffffffffffffffffff1673ffffffffffffffffffffffffffffffffffffffff16815260200190815260200160002061382290919063ffffffff16565b506131358183600261383c9092919063ffffffff16565b50808273ffffffffffffffffffffffffffffffffffffffff168473ffffffffffffffffffffffffffffffffffffffff167fddf252ad1be2c89b69c2b068fc378daa952ba7f163c4a11628f55a4df523b3ef60405160405180910390a4505050565b60006131a5836000018361388b565b60001c905092915050565b6000806000806131c3866000018661390e565b915091508160001c8160001c8090509350935050509250929050565b60006131f2846000018460001b846139a7565b60001c90509392505050565b600061320c82600001613a9d565b9050919050565b61321e848484612f53565b61322a84848484613aae565b61327f576040517f08c379a00000000000000000000000000000000000000000000000000000000081526004018080602001828103825260328152602001806146966032913960400191505060405180910390fd5b50505050565b606060008214156132cd576040518060400160405280600181526020017f300000000000000000000000000000000000000000000000000000000000000081525090506133b0565b600082905060005b600082146132f7578080600101915050600a82816132ef57fe5b0491506132d5565b6060816040519080825280601f01601f19166020018201604052801561332c5781602001600182028038833980820191505090505b50905060006001830390508593505b600084146133a857600a848161334d57fe5b0660300160f81b8282806001900393508151811061336757fe5b60200101907effffffffffffffffffffffffffffffffffffffffffffffffffffffffffffff1916908160001a905350600a84816133a057fe5b04935061333b565b819450505050505b919050565b61349c846323b872dd60e01b858585604051602401808473ffffffffffffffffffffffffffffffffffffffff1673ffffffffffffffffffffffffffffffffffffffff1681526020018373ffffffffffffffffffffffffffffffffffffffff1673ffffffffffffffffffffffffffffffffffffffff1681526020018281526020019350505050604051602081830303815290604052907bffffffffffffffffffffffffffffffffffffffffffffffffffffffff19166020820180517bffffffffffffffffffffffffffffffffffffffffffffffffffffffff8381831617835250505050613cf3565b50505050565b6000808314156134b55760009050613522565b60008284029050828482816134c657fe5b041461351d576040517f08c379a00000000000000000000000000000000000000000000000000000000081526004018080602001828103825260218152602001806147c56021913960400191505060405180910390fd5b809150505b92915050565b600061356a83836040518060400160405280601a81526020017f536166654d6174683a206469766973696f6e206279207a65726f000000000000815250613de2565b905092915050565b600080424433604051602001808481526020018381526020018273ffffffffffffffffffffffffffffffffffffffff1673ffffffffffffffffffffffffffffffffffffffff1660601b815260140193505050506040516020818303038152906040528051906020012060001c905060006135ee82612710613ea8565b9050809250505090565b600061360a836000018360001b613f8e565b905092915050565b600081600001805490509050919050565b600061362e826116d9565b905061363c8160008461381d565b61364760008361294b565b60006008600084815260200190815260200160002080546001816001161561010002031660029004905014613696576008600083815260200190815260200160002060006136959190614606565b5b6136e782600160008473ffffffffffffffffffffffffffffffffffffffff1673ffffffffffffffffffffffffffffffffffffffff16815260200190815260200160002061387190919063ffffffff16565b506136fc826002613fb190919063ffffffff16565b5081600073ffffffffffffffffffffffffffffffffffffffff168273ffffffffffffffffffffffffffffffffffffffff167fddf252ad1be2c89b69c2b068fc378daa952ba7f163c4a11628f55a4df523b3ef60405160405180910390a45050565b600083831115829061380a576040517f08c379a00000000000000000000000000000000000000000000000000000000081526004018080602001828103825283818151815260200191508051906020019080838360005b838110156137cf5780820151818401526020810190506137b4565b50505050905090810190601f1680156137fc5780820380516001836020036101000a031916815260200191505b509250505060405180910390fd5b5060008385039050809150509392505050565b505050565b6000613834836000018360001b613fcb565b905092915050565b6000613868846000018460001b8473ffffffffffffffffffffffffffffffffffffffff1660001b61403b565b90509392505050565b6000613883836000018360001b614117565b905092915050565b6000818360000180549050116138ec576040517f08c379a00000000000000000000000000000000000000000000000000000000081526004018080602001828103825260228152602001806146746022913960400191505060405180910390fd5b8260000182815481106138fb57fe5b9060005260206000200154905092915050565b60008082846000018054905011613970576040517f08c379a00000000000000000000000000000000000000000000000000000000081526004018080602001828103825260228152602001806147a36022913960400191505060405180910390fd5b600084600001848154811061398157fe5b906000526020600020906002020190508060000154816001015492509250509250929050565b60008084600101600085815260200190815260200160002054905060008114158390613a6e576040517f08c379a00000000000000000000000000000000000000000000000000000000081526004018080602001828103825283818151815260200191508051906020019080838360005b83811015613a33578082015181840152602081019050613a18565b50505050905090810190601f168015613a605780820380516001836020036101000a031916815260200191505b509250505060405180910390fd5b50846000016001820381548110613a8157fe5b9060005260206000209060020201600101549150509392505050565b600081600001805490509050919050565b6000613acf8473ffffffffffffffffffffffffffffffffffffffff166141ff565b613adc5760019050613ceb565b6060613c7263150b7a0260e01b613af1612943565b888787604051602401808573ffffffffffffffffffffffffffffffffffffffff1673ffffffffffffffffffffffffffffffffffffffff1681526020018473ffffffffffffffffffffffffffffffffffffffff1673ffffffffffffffffffffffffffffffffffffffff16815260200183815260200180602001828103825283818151815260200191508051906020019080838360005b83811015613ba1578082015181840152602081019050613b86565b50505050905090810190601f168015613bce5780820380516001836020036101000a031916815260200191505b5095505050505050604051602081830303815290604052907bffffffffffffffffffffffffffffffffffffffffffffffffffffffff19166020820180517bffffffffffffffffffffffffffffffffffffffffffffffffffffffff8381831617835250505050604051806060016040528060328152602001614696603291398773ffffffffffffffffffffffffffffffffffffffff166142129092919063ffffffff16565b90506000818060200190516020811015613c8b57600080fd5b8101908080519060200190929190505050905063150b7a0260e01b7bffffffffffffffffffffffffffffffffffffffffffffffffffffffff1916817bffffffffffffffffffffffffffffffffffffffffffffffffffffffff191614925050505b949350505050565b6060613d55826040518060400160405280602081526020017f5361666545524332303a206c6f772d6c6576656c2063616c6c206661696c65648152508573ffffffffffffffffffffffffffffffffffffffff166142129092919063ffffffff16565b9050600081511115613ddd57808060200190516020811015613d7657600080fd5b8101908080519060200190929190505050613ddc576040517f08c379a000000000000000000000000000000000000000000000000000000000815260040180806020018281038252602a8152602001806148bc602a913960400191505060405180910390fd5b5b505050565b60008083118290613e8e576040517f08c379a00000000000000000000000000000000000000000000000000000000081526004018080602001828103825283818151815260200191508051906020019080838360005b83811015613e53578082015181840152602081019050613e38565b50505050905090810190601f168015613e805780820380516001836020036101000a031916815260200191505b509250505060405180910390fd5b506000838581613e9a57fe5b049050809150509392505050565b6000808211613f1f576040517f08c379a00000000000000000000000000000000000000000000000000000000081526004018080602001828103825260158152602001807f556e69666f726d52616e642f6d696e2d626f756e64000000000000000000000081525060200191505060405180910390fd5b6000828360000381613f2d57fe5b06905060008490505b600115613f7a57818110613f4957613f7a565b80604051602001808281526020019150506040516020818303038152906040528051906020012060001c9050613f36565b838181613f8357fe5b069250505092915050565b600080836001016000848152602001908152602001600020541415905092915050565b6000613fc3836000018360001b61422a565b905092915050565b6000613fd78383614343565b614030578260000182908060018154018082558091505060019003906000526020600020016000909190919091505582600001805490508360010160008481526020019081526020016000208190555060019050614035565b600090505b92915050565b60008084600101600085815260200190815260200160002054905060008114156140e257846000016040518060400160405280868152602001858152509080600181540180825580915050600190039060005260206000209060020201600090919091909150600082015181600001556020820151816001015550508460000180549050856001016000868152602001908152602001600020819055506001915050614110565b828560000160018303815481106140f557fe5b90600052602060002090600202016001018190555060009150505b9392505050565b600080836001016000848152602001908152602001600020549050600081146141f3576000600182039050600060018660000180549050039050600086600001828154811061416257fe5b906000526020600020015490508087600001848154811061417f57fe5b90600052602060002001819055506001830187600101600083815260200190815260200160002081905550866000018054806141b757fe5b600190038181906000526020600020016000905590558660010160008781526020019081526020016000206000905560019450505050506141f9565b60009150505b92915050565b600080823b905060008111915050919050565b60606142218484600085614366565b90509392505050565b60008083600101600084815260200190815260200160002054905060008114614337576000600182039050600060018660000180549050039050600086600001828154811061427557fe5b906000526020600020906002020190508087600001848154811061429557fe5b90600052602060002090600202016000820154816000015560018201548160010155905050600183018760010160008360000154815260200190815260200160002081905550866000018054806142e857fe5b600190038181906000526020600020906002020160008082016000905560018201600090555050905586600101600087815260200190815260200160002060009055600194505050505061433d565b60009150505b92915050565b600080836001016000848152602001908152602001600020541415905092915050565b6060614371856141ff565b6143e3576040517f08c379a000000000000000000000000000000000000000000000000000000000815260040180806020018281038252601d8152602001807f416464726573733a2063616c6c20746f206e6f6e2d636f6e747261637400000081525060200191505060405180910390fd5b600060608673ffffffffffffffffffffffffffffffffffffffff1685876040518082805190602001908083835b602083106144335780518252602082019150602081019050602083039250614410565b6001836020036101000a03801982511681845116808217855250505050505090500191505060006040518083038185875af1925050503d8060008114614495576040519150601f19603f3d011682016040523d82523d6000602084013e61449a565b606091505b509150915081156144af578092505050614564565b6000815111156144c25780518082602001fd5b836040517f08c379a00000000000000000000000000000000000000000000000000000000081526004018080602001828103825283818151815260200191508051906020019080838360005b8381101561452957808201518184015260208101905061450e565b50505050905090810190601f1680156145565780820380516001836020036101000a031916815260200191505b509250505060405180910390fd5b949350505050565b828054600181600116156101000203166002900490600052602060002090601f016020900481019282601f106145ad57805160ff19168380011785556145db565b828001600101855582156145db579182015b828111156145da5782518255916020019190600101906145bf565b5b5090506145e8919061464e565b5090565b604051806040016040528060008152602001606081525090565b50805460018160011615610100020316600290046000825580601f1061462c575061464b565b601f01602090049060005260206000209081019061464a919061464e565b5b50565b61467091905b8082111561466c576000816000905550600101614654565b5090565b9056fe456e756d657261626c655365743a20696e646578206f7574206f6620626f756e64734552433732313a207472616e7366657220746f206e6f6e20455243373231526563656976657220696d706c656d656e7465724552433732313a207472616e7366657220746f20746865207a65726f20616464726573734552433732313a206f70657261746f7220717565727920666f72206e6f6e6578697374656e7420746f6b656e4552433732313a20617070726f76652063616c6c6572206973206e6f74206f776e6572206e6f7220617070726f76656420666f7220616c6c4552433732313a2062616c616e636520717565727920666f7220746865207a65726f20616464726573734552433732313a206f776e657220717565727920666f72206e6f6e6578697374656e7420746f6b656e456e756d657261626c654d61703a20696e646578206f7574206f6620626f756e6473536166654d6174683a206d756c7469706c69636174696f6e206f766572666c6f774552433732313a20617070726f76656420717565727920666f72206e6f6e6578697374656e7420746f6b656e4552433732313a207472616e73666572206f6620746f6b656e2074686174206973206e6f74206f776e4552433732314d657461646174613a2055524920717565727920666f72206e6f6e6578697374656e7420746f6b656e4552433732313a20617070726f76616c20746f2063757272656e74206f776e65724552433732313a207472616e736665722063616c6c6572206973206e6f74206f776e6572206e6f7220617070726f7665645361666545524332303a204552433230206f7065726174696f6e20646964206e6f742073756363656564a264697066735822122067b0b7d23da59d864bcac84b06d9faaed470641c7bc192f24bbfcdb6061617b964736f6c63430006020033",
  "source": "pragma solidity ^0.6.0;\n\nimport \"@openzeppelin/contracts/math/Math.sol\";\nimport \"@openzeppelin/contracts/math/SafeMath.sol\";\nimport \"@openzeppelin/contracts/token/ERC20/IERC20.sol\";\nimport \"@openzeppelin/contracts/token/ERC20/SafeERC20.sol\";\nimport \"@openzeppelin/contracts/token/ERC721/ERC721.sol\";\nimport \"./rnd.sol\";\n\ncontract Fomo721 is ERC721 {\n    using SafeMath for uint256;\n\tusing SafeERC20 for IERC20;\n    \n\tuint256 constant public mintPieceFee = 100 * 1e18;\n\tIERC20 public FomoToken;\n\taddress public prizePool;\n\taddress constant public burnAddress = 0x00000000000000000000000000000000DeaDBeef;\n\t\n\tuint256 public fomo721Count;\n\tuint256 public fomo721PieceCount;\n\tuint256 public burnRatio = 500; // 50%\n\n\tuint256 public countdown = 1 hours;\n\tuint256 public lastMintTime;\n\taddress public lastMinter;\n\n\tbytes32 public _F; \n\tbytes32 public _o;\n\tbytes32 public _m;\n\tbytes32 public _7;\n\tbytes32 public _2;\n\tbytes32 public _1;\n    \n    struct Fomo721Token {\n        uint256 id;\n\t\tstring char; // Fomo721\n    }\n\tmapping(uint256 => Fomo721Token) tokens;\n    uint256 burnedCounter = 0;\n\n\tstruct Winner {\n\t\tuint256 timestamp;\n\t\tuint256 tokenId;\n\t\taddress owner;\n\t}\n\tWinner[] public winners;\n\n\taddress owner;\n    constructor(\n\t\tstring memory _name,\n\t\tstring memory _symbol,\n\t\taddress _fomotoken\n\t) ERC721(_name, _symbol) public {\n\t\towner = msg.sender;\n\t\tfomo721Count = 0;\n\t\tfomo721PieceCount = 0;\n\t\tFomoToken = IERC20(_fomotoken);\n\t\tprizePool = burnAddress;\n\n\t\t_F = keccak256(bytes(\"F\")); \n\t\t_o = keccak256(bytes(\"o\")); \n\t\t_m = keccak256(bytes(\"m\")); \n\t\t_7 = keccak256(bytes(\"7\")); \n\t\t_2 = keccak256(bytes(\"2\")); \n\t\t_1 = keccak256(bytes(\"1\")); \n\t}\n\n\tmodifier onlyOwner() {\n\t\trequire(msg.sender == owner);\n\t\t_;\n\t}\n\n\tmodifier onlyOnce() {\n\t\trequire(prizePool == burnAddress);\n\t\t_;\n\t}\n\n\tfunction setPrizePool(address _prizepool) external onlyOwner onlyOnce {\n\t\tprizePool = _prizepool;\n\t}\n\n\tfunction getWinnersLength() external view returns (uint256) {\n\t\treturn winners.length;\n\t}\n\n\tfunction getRandom() internal view returns (uint256) {\n\t\tuint256 seed = uint256(keccak256(abi.encodePacked(now, block.difficulty, msg.sender)));\n\t\tuint256 rnd = UniformRandomNumber.uniform(seed, 10000);\n\t\treturn rnd;\n\t}\n\n\tfunction getFomo721Count() external view returns (uint256) {\n\t\treturn fomo721Count;\n\t}\n\n\tfunction getFomo721PieceCount() external view returns (uint256) {\n\t\treturn fomo721PieceCount;\n\t}\n\n\tfunction getFomo721Info(uint256 idx) external view returns (string memory) {\n\t\treturn tokens[idx].char;\n\t}\n\n\tfunction mintFomo721Piece() external {\n\t\trequire(msg.sender == tx.origin);\n\t\tFomoToken.safeTransferFrom(msg.sender, address(this), mintPieceFee);\n\t\tFomoToken.safeTransferFrom(address(this), burnAddress, mintPieceFee.mul(burnRatio).div(1000));\n\t\tFomoToken.safeTransferFrom(address(this), prizePool, FomoToken.balanceOf(address(this)));\n\t\tuint256 rnd = getRandom();\n\t\tstring memory char;\n\t\tif (rnd >= 9990) {\n\t\t\t// 0.001\n\t\t\tchar = \"1\";\n\t\t} else if (rnd >= 9980) {\n\t\t\t// 0.002\n\t\t\tchar = \"2\";\n\t\t} else if (rnd >= 9930) {\n\t\t\t// 0.007\n\t\t\tchar = \"7\";\n\t\t} else if (rnd >= 9000) {\n\t\t\t// 0.1\n\t\t\tchar = \"o\";\n\t\t} else if (rnd >= 8000) {\n\t\t\t// 0.2\n\t\t\tchar = \"m\";\n\t\t} else if (rnd >= 4000) {\n\t\t\t// 0.6\n\t\t\tchar = \"o\";\n\t\t} else if (rnd >= 1000) {\n\t\t\t// 0.9\n\t\t\tchar = \"F\";\n\t\t} else {\n\t\t\tchar = \"Don't give up, bro!\";\n\t\t}\n\t\tuint256 tokenId = _getNextTokenId();\n\t\ttokens[tokenId] = Fomo721Token(tokenId, char);\n\t\tfomo721PieceCount += 1;\n\t\t_mint(msg.sender, tokenId);\n\n\t\tif(lastMintTime == 0) {\n\t\t\tlastMintTime = block.timestamp;\n\t\t\tlastMinter = msg.sender;\n\t\t} else {\n\t\t\tif(lastMintTime.add(countdown) < block.timestamp) {\n\t\t\t\ttokenId = _getNextTokenId();\n\t\t\t\ttokens[tokenId] = Fomo721Token(tokenId, \"Fomo721\");\n\t\t\t\t_mint(lastMinter, tokenId);\n\t\t\t\twinners.push(Winner(block.timestamp, tokenId, lastMinter));\n\n\t\t\t\tlastMinter = msg.sender;\n\t\t\t\tlastMintTime = block.timestamp;\n\t\t\t}\n\t\t}\n\t}\n\n\tfunction check(uint256 id, bytes32 v) internal view returns (bool) {\n\t\tFomo721Token memory token = tokens[id];\n\t\treturn ownerOf(id) == msg.sender && keccak256(bytes(token.char)) == v;\n\t}\n\n\tfunction burnIt(uint256 id) external {\n\t\trequire(ownerOf(id) == msg.sender);\n\t\t_burn(id);\n\t}\n\n\tfunction mintFomo721(uint256 id1, uint256 id2, uint256 id3, uint256 id4, uint256 id5, uint256 id6, uint256 id7) external {\n\t\trequire(check(id1, _F) && check(id2, _o) && check(id3, _m) && check(id4, _o) && check(id5, _7) && check(id6, _2) && check(id7, _1), \"check failed\");\n\t\t_burn(id1); _burn(id2); _burn(id3); _burn(id4); _burn(id5); _burn(id6); _burn(id7);\n\t\tfomo721PieceCount = fomo721PieceCount.sub(7);\n\t\tuint256 tokenId = _getNextTokenId();\n\t\ttokens[tokenId] = Fomo721Token(tokenId, \"Fomo721\");\n\t\t_mint(msg.sender, tokenId);\n\t\tfomo721Count = fomo721Count.add(1);\n\t}\n\n    function _getNextTokenId() private view returns (uint256) {\n        return totalSupply().add(1).add(burnedCounter);\n    }\n\n    function _burn(uint256 _tokenId) override internal {\n        super._burn(_tokenId);\n        burnedCounter++;\n    }\n\n    function tokensOfOwner(address _owner) external view returns(uint256[] memory ownerTokens) {\n        uint256 tokenCount = balanceOf(_owner);\n\n        if (tokenCount == 0) {\n            return new uint256[](0);\n        } else {\n            uint256[] memory result = new uint256[](tokenCount);\n            uint256 resultIndex = 0;\n            uint256 _tokenIdx;\n            for (_tokenIdx = 0; _tokenIdx < tokenCount; _tokenIdx++) {\n                result[resultIndex] = tokenOfOwnerByIndex(_owner, _tokenIdx);\n                resultIndex++;\n            }\n            return result;\n        }\n    }\n}\n",
  "sourcePath": "/Users/cyan/Desktop/projects/defi/nifty.fi/fomo721/contracts/fomo721.sol",
  "compiler": {
    "name": "solc",
    "version": "0.6.2+commit.bacdbe57.Emscripten.clang"
  },
  "schemaVersion": "3.2.5",
  "updatedAt": "2020-09-12T13:23:01.837Z",
  "devdoc": {
    "methods": {
      "approve(address,uint256)": {
        "details": "See {IERC721-approve}."
      },
      "balanceOf(address)": {
        "details": "See {IERC721-balanceOf}."
      },
      "baseURI()": {
        "details": "Returns the base URI set via {_setBaseURI}. This will be automatically added as a prefix in {tokenURI} to each token's URI, or to the token ID if no specific URI is set for that token ID."
      },
      "getApproved(uint256)": {
        "details": "See {IERC721-getApproved}."
      },
      "isApprovedForAll(address,address)": {
        "details": "See {IERC721-isApprovedForAll}."
      },
      "name()": {
        "details": "See {IERC721Metadata-name}."
      },
      "ownerOf(uint256)": {
        "details": "See {IERC721-ownerOf}."
      },
      "safeTransferFrom(address,address,uint256)": {
        "details": "See {IERC721-safeTransferFrom}."
      },
      "safeTransferFrom(address,address,uint256,bytes)": {
        "details": "See {IERC721-safeTransferFrom}."
      },
      "setApprovalForAll(address,bool)": {
        "details": "See {IERC721-setApprovalForAll}."
      },
      "supportsInterface(bytes4)": {
        "details": "See {IERC165-supportsInterface}.     * Time complexity O(1), guaranteed to always use less than 30 000 gas."
      },
      "symbol()": {
        "details": "See {IERC721Metadata-symbol}."
      },
      "tokenByIndex(uint256)": {
        "details": "See {IERC721Enumerable-tokenByIndex}."
      },
      "tokenOfOwnerByIndex(address,uint256)": {
        "details": "See {IERC721Enumerable-tokenOfOwnerByIndex}."
      },
      "tokenURI(uint256)": {
        "details": "See {IERC721Metadata-tokenURI}."
      },
      "totalSupply()": {
        "details": "See {IERC721Enumerable-totalSupply}."
      },
      "transferFrom(address,address,uint256)": {
        "details": "See {IERC721-transferFrom}."
      }
    }
  },
  "userdoc": {
    "methods": {}
  }
}