{
  "contractName": "Fomo721Auction",
  "abi": [
    {
      "inputs": [
        {
          "internalType": "address",
          "name": "_fomotoken",
          "type": "address"
        },
        {
          "internalType": "address",
          "name": "_fomo721",
          "type": "address"
        }
      ],
      "stateMutability": "nonpayable",
      "type": "constructor"
    },
    {
      "anonymous": false,
      "inputs": [
        {
          "indexed": false,
          "internalType": "uint256",
          "name": "_index",
          "type": "uint256"
        },
        {
          "indexed": false,
          "internalType": "address",
          "name": "_bidder",
          "type": "address"
        },
        {
          "indexed": false,
          "internalType": "uint256",
          "name": "amount",
          "type": "uint256"
        }
      ],
      "name": "AuctionBid",
      "type": "event"
    },
    {
      "anonymous": false,
      "inputs": [
        {
          "indexed": false,
          "internalType": "uint256",
          "name": "_index",
          "type": "uint256"
        },
        {
          "indexed": false,
          "internalType": "address",
          "name": "_creator",
          "type": "address"
        },
        {
          "indexed": false,
          "internalType": "uint256",
          "name": "_tokenId",
          "type": "uint256"
        }
      ],
      "name": "AuctionCreated",
      "type": "event"
    },
    {
      "anonymous": false,
      "inputs": [
        {
          "indexed": false,
          "internalType": "uint256",
          "name": "auctionIndex",
          "type": "uint256"
        },
        {
          "indexed": false,
          "internalType": "address",
          "name": "claimer",
          "type": "address"
        }
      ],
      "name": "Claim",
      "type": "event"
    },
    {
      "inputs": [],
      "name": "Fomo721",
      "outputs": [
        {
          "internalType": "contract IERC721",
          "name": "",
          "type": "address"
        }
      ],
      "stateMutability": "view",
      "type": "function"
    },
    {
      "inputs": [],
      "name": "FomoToken",
      "outputs": [
        {
          "internalType": "contract IERC20",
          "name": "",
          "type": "address"
        }
      ],
      "stateMutability": "view",
      "type": "function"
    },
    {
      "inputs": [
        {
          "internalType": "uint256",
          "name": "",
          "type": "uint256"
        }
      ],
      "name": "auctions",
      "outputs": [
        {
          "internalType": "uint256",
          "name": "tokenId",
          "type": "uint256"
        },
        {
          "internalType": "address",
          "name": "creator",
          "type": "address"
        },
        {
          "internalType": "uint256",
          "name": "startTime",
          "type": "uint256"
        },
        {
          "internalType": "uint256",
          "name": "duration",
          "type": "uint256"
        },
        {
          "internalType": "uint256",
          "name": "currentBidAmount",
          "type": "uint256"
        },
        {
          "internalType": "address",
          "name": "currentBidOwner",
          "type": "address"
        },
        {
          "internalType": "uint256",
          "name": "bidCount",
          "type": "uint256"
        }
      ],
      "stateMutability": "view",
      "type": "function"
    },
    {
      "inputs": [
        {
          "internalType": "uint256",
          "name": "_tokenId",
          "type": "uint256"
        },
        {
          "internalType": "uint256",
          "name": "_startPrice",
          "type": "uint256"
        },
        {
          "internalType": "uint256",
          "name": "_startTime",
          "type": "uint256"
        },
        {
          "internalType": "uint256",
          "name": "_duration",
          "type": "uint256"
        }
      ],
      "name": "createAuction",
      "outputs": [
        {
          "internalType": "uint256",
          "name": "",
          "type": "uint256"
        }
      ],
      "stateMutability": "nonpayable",
      "type": "function"
    },
    {
      "inputs": [
        {
          "internalType": "uint256",
          "name": "auctionIndex",
          "type": "uint256"
        },
        {
          "internalType": "uint256",
          "name": "amount",
          "type": "uint256"
        }
      ],
      "name": "bid",
      "outputs": [
        {
          "internalType": "bool",
          "name": "",
          "type": "bool"
        }
      ],
      "stateMutability": "nonpayable",
      "type": "function"
    },
    {
      "inputs": [],
      "name": "getTotalAuctions",
      "outputs": [
        {
          "internalType": "uint256",
          "name": "",
          "type": "uint256"
        }
      ],
      "stateMutability": "view",
      "type": "function"
    },
    {
      "inputs": [
        {
          "internalType": "uint256",
          "name": "index",
          "type": "uint256"
        }
      ],
      "name": "isActive",
      "outputs": [
        {
          "internalType": "bool",
          "name": "",
          "type": "bool"
        }
      ],
      "stateMutability": "view",
      "type": "function"
    },
    {
      "inputs": [
        {
          "internalType": "uint256",
          "name": "index",
          "type": "uint256"
        }
      ],
      "name": "isFinished",
      "outputs": [
        {
          "internalType": "bool",
          "name": "",
          "type": "bool"
        }
      ],
      "stateMutability": "view",
      "type": "function"
    },
    {
      "inputs": [
        {
          "internalType": "uint256",
          "name": "index",
          "type": "uint256"
        }
      ],
      "name": "getStatus",
      "outputs": [
        {
          "internalType": "enum Fomo721Auction.Status",
          "name": "",
          "type": "uint8"
        }
      ],
      "stateMutability": "view",
      "type": "function"
    },
    {
      "inputs": [
        {
          "internalType": "uint256",
          "name": "auctionIndex",
          "type": "uint256"
        }
      ],
      "name": "getCurrentBidOwner",
      "outputs": [
        {
          "internalType": "address",
          "name": "",
          "type": "address"
        }
      ],
      "stateMutability": "view",
      "type": "function"
    },
    {
      "inputs": [
        {
          "internalType": "uint256",
          "name": "auctionIndex",
          "type": "uint256"
        }
      ],
      "name": "getCurrentBidAmount",
      "outputs": [
        {
          "internalType": "uint256",
          "name": "",
          "type": "uint256"
        }
      ],
      "stateMutability": "view",
      "type": "function"
    },
    {
      "inputs": [
        {
          "internalType": "uint256",
          "name": "auctionIndex",
          "type": "uint256"
        }
      ],
      "name": "getBidCount",
      "outputs": [
        {
          "internalType": "uint256",
          "name": "",
          "type": "uint256"
        }
      ],
      "stateMutability": "view",
      "type": "function"
    },
    {
      "inputs": [
        {
          "internalType": "uint256",
          "name": "auctionIndex",
          "type": "uint256"
        }
      ],
      "name": "getWinner",
      "outputs": [
        {
          "internalType": "address",
          "name": "",
          "type": "address"
        }
      ],
      "stateMutability": "view",
      "type": "function"
    },
    {
      "inputs": [
        {
          "internalType": "uint256",
          "name": "auctionIndex",
          "type": "uint256"
        }
      ],
      "name": "claimFomoToken",
      "outputs": [],
      "stateMutability": "nonpayable",
      "type": "function"
    },
    {
      "inputs": [
        {
          "internalType": "uint256",
          "name": "auctionIndex",
          "type": "uint256"
        }
      ],
      "name": "claimFomo721",
      "outputs": [],
      "stateMutability": "nonpayable",
      "type": "function"
    }
  ],
  "bytecode": "0x608060405234801561001057600080fd5b506040516118f93803806118f98339818101604052604081101561003357600080fd5b810190808051906020019092919080519060200190929190505050816000806101000a81548173ffffffffffffffffffffffffffffffffffffffff021916908373ffffffffffffffffffffffffffffffffffffffff16021790555080600160006101000a81548173ffffffffffffffffffffffffffffffffffffffff021916908373ffffffffffffffffffffffffffffffffffffffff1602179055505050611819806100e06000396000f3fe608060405234801561001057600080fd5b50600436106100f55760003560e01c80635c622a0e1161009757806386b460731161006657806386b460731461048c578063a11f8de4146104fa578063c944035514610544578063e8ba650914610572576100f5565b80635c622a0e146103725780636975846a146103c2578063744d34111461040457806382afd23b14610446576100f5565b8063431f21da116100d3578063431f21da146101b4578063571a26a014610214578063598647f8146102d857806359de261914610328576100f5565b80633d010345146100fa5780633ef14cc8146101285780634129b2c914610146575b600080fd5b6101266004803603602081101561011057600080fd5b81019080803590602001909291905050506105b8565b005b610130610797565b6040518082815260200191505060405180910390f35b6101726004803603602081101561015c57600080fd5b81019080803590602001909291905050506107a4565b604051808273ffffffffffffffffffffffffffffffffffffffff1673ffffffffffffffffffffffffffffffffffffffff16815260200191505060405180910390f35b6101fe600480360360808110156101ca57600080fd5b81019080803590602001909291908035906020019092919080359060200190929190803590602001909291905050506108b8565b6040518082815260200191505060405180910390f35b6102406004803603602081101561022a57600080fd5b8101908080359060200190929190505050610c8f565b604051808881526020018773ffffffffffffffffffffffffffffffffffffffff1673ffffffffffffffffffffffffffffffffffffffff1681526020018681526020018581526020018481526020018373ffffffffffffffffffffffffffffffffffffffff1673ffffffffffffffffffffffffffffffffffffffff16815260200182815260200197505050505050505060405180910390f35b61030e600480360360408110156102ee57600080fd5b810190808035906020019092919080359060200190929190505050610d1e565b604051808215151515815260200191505060405180910390f35b610330610f80565b604051808273ffffffffffffffffffffffffffffffffffffffff1673ffffffffffffffffffffffffffffffffffffffff16815260200191505060405180910390f35b61039e6004803603602081101561038857600080fd5b8101908080359060200190929190505050610fa6565b604051808260028111156103ae57fe5b60ff16815260200191505060405180910390f35b6103ee600480360360208110156103d857600080fd5b8101908080359060200190929190505050611013565b6040518082815260200191505060405180910390f35b6104306004803603602081101561041a57600080fd5b810190808035906020019092919050505061103b565b6040518082815260200191505060405180910390f35b6104726004803603602081101561045c57600080fd5b8101908080359060200190929190505050611063565b604051808215151515815260200191505060405180910390f35b6104b8600480360360208110156104a257600080fd5b810190808035906020019092919050505061108e565b604051808273ffffffffffffffffffffffffffffffffffffffff1673ffffffffffffffffffffffffffffffffffffffff16815260200191505060405180910390f35b6105026110d6565b604051808273ffffffffffffffffffffffffffffffffffffffff1673ffffffffffffffffffffffffffffffffffffffff16815260200191505060405180910390f35b6105706004803603602081101561055a57600080fd5b81019080803590602001909291905050506110fb565b005b61059e6004803603602081101561058857600080fd5b8101908080359060200190929190505050611291565b604051808215151515815260200191505060405180910390f35b6105c181611291565b6105ca57600080fd5b6000600282815481106105d957fe5b9060005260206000209060070201905060006105f4836107a4565b90503373ffffffffffffffffffffffffffffffffffffffff168173ffffffffffffffffffffffffffffffffffffffff161461062e57600080fd5b600160009054906101000a900473ffffffffffffffffffffffffffffffffffffffff1673ffffffffffffffffffffffffffffffffffffffff166323b872dd308385600001546040518463ffffffff1660e01b8152600401808473ffffffffffffffffffffffffffffffffffffffff1673ffffffffffffffffffffffffffffffffffffffff1681526020018373ffffffffffffffffffffffffffffffffffffffff1673ffffffffffffffffffffffffffffffffffffffff1681526020018281526020019350505050600060405180830381600087803b15801561070f57600080fd5b505af1158015610723573d6000803e3d6000fd5b505050507f35538759d80c1fd7bb450a0d05601db5a99fa8b5d073a07c847a9fd61029b1078382604051808381526020018273ffffffffffffffffffffffffffffffffffffffff1673ffffffffffffffffffffffffffffffffffffffff1681526020019250505060405180910390a1505050565b6000600280549050905090565b60006107af82611291565b6107b857600080fd5b600073ffffffffffffffffffffffffffffffffffffffff16600283815481106107dd57fe5b906000526020600020906007020160050160009054906101000a900473ffffffffffffffffffffffffffffffffffffffff1673ffffffffffffffffffffffffffffffffffffffff161415610871576002828154811061083857fe5b906000526020600020906007020160010160009054906101000a900473ffffffffffffffffffffffffffffffffffffffff1690506108b3565b6002828154811061087e57fe5b906000526020600020906007020160050160009054906101000a900473ffffffffffffffffffffffffffffffffffffffff1690505b919050565b60003373ffffffffffffffffffffffffffffffffffffffff16600160009054906101000a900473ffffffffffffffffffffffffffffffffffffffff1673ffffffffffffffffffffffffffffffffffffffff16636352211e876040518263ffffffff1660e01b81526004018082815260200191505060206040518083038186803b15801561094457600080fd5b505afa158015610958573d6000803e3d6000fd5b505050506040513d602081101561096e57600080fd5b810190808051906020019092919050505073ffffffffffffffffffffffffffffffffffffffff161461099f57600080fd5b600160009054906101000a900473ffffffffffffffffffffffffffffffffffffffff1673ffffffffffffffffffffffffffffffffffffffff166342842e0e3330886040518463ffffffff1660e01b8152600401808473ffffffffffffffffffffffffffffffffffffffff1673ffffffffffffffffffffffffffffffffffffffff1681526020018373ffffffffffffffffffffffffffffffffffffffff1673ffffffffffffffffffffffffffffffffffffffff1681526020018281526020019350505050600060405180830381600087803b158015610a7c57600080fd5b505af1158015610a90573d6000803e3d6000fd5b505050506000831415610aa1574292505b610aa9611750565b6040518060e001604052808781526020013373ffffffffffffffffffffffffffffffffffffffff168152602001858152602001848152602001868152602001600073ffffffffffffffffffffffffffffffffffffffff1681526020016000815250905060028190806001815401808255809150506001900390600052602060002090600702016000909190919091506000820151816000015560208201518160010160006101000a81548173ffffffffffffffffffffffffffffffffffffffff021916908373ffffffffffffffffffffffffffffffffffffffff16021790555060408201518160020155606082015181600301556080820151816004015560a08201518160050160006101000a81548173ffffffffffffffffffffffffffffffffffffffff021916908373ffffffffffffffffffffffffffffffffffffffff16021790555060c082015181600601555050600060016002805490500390507f6ff530872708bbb51bad8ea341564e4ea039807ad1331f61ab4c906a66875daf8183602001518460000151604051808481526020018373ffffffffffffffffffffffffffffffffffffffff1673ffffffffffffffffffffffffffffffffffffffff168152602001828152602001935050505060405180910390a18092505050949350505050565b60028181548110610c9c57fe5b90600052602060002090600702016000915090508060000154908060010160009054906101000a900473ffffffffffffffffffffffffffffffffffffffff16908060020154908060030154908060040154908060050160009054906101000a900473ffffffffffffffffffffffffffffffffffffffff16908060060154905087565b60008060028481548110610d2e57fe5b90600052602060002090600702019050600073ffffffffffffffffffffffffffffffffffffffff168160010160009054906101000a900473ffffffffffffffffffffffffffffffffffffffff1673ffffffffffffffffffffffffffffffffffffffff161415610d9c57600080fd5b610da584611063565b610dae57600080fd5b8060040154831115610f7457610e083330856000809054906101000a900473ffffffffffffffffffffffffffffffffffffffff1673ffffffffffffffffffffffffffffffffffffffff166112bb909392919063ffffffff16565b6000816004015414610e8b57610e8a308260050160009054906101000a900473ffffffffffffffffffffffffffffffffffffffff1683600401546000809054906101000a900473ffffffffffffffffffffffffffffffffffffffff1673ffffffffffffffffffffffffffffffffffffffff166112bb909392919063ffffffff16565b5b828160040181905550338160050160006101000a81548173ffffffffffffffffffffffffffffffffffffffff021916908373ffffffffffffffffffffffffffffffffffffffff160217905550610eef600182600601546113a890919063ffffffff16565b81600601819055507fb8d756f2d1da4663767eb4d559780ace84f2f65a421a60ddcb47e8b2e5d2fd26843385604051808481526020018373ffffffffffffffffffffffffffffffffffffffff1673ffffffffffffffffffffffffffffffffffffffff168152602001828152602001935050505060405180910390a16001915050610f7a565b60009150505b92915050565b600160009054906101000a900473ffffffffffffffffffffffffffffffffffffffff1681565b60008060028381548110610fb657fe5b906000526020600020906007020190508060020154421015610fdc57600091505061100e565b610ff7816003015482600201546113a890919063ffffffff16565b42101561100857600191505061100e565b60029150505b919050565b60006002828154811061102257fe5b9060005260206000209060070201600401549050919050565b60006002828154811061104a57fe5b9060005260206000209060070201600601549050919050565b60006001600281111561107257fe5b61107b83610fa6565b600281111561108657fe5b149050919050565b60006002828154811061109d57fe5b906000526020600020906007020160050160009054906101000a900473ffffffffffffffffffffffffffffffffffffffff169050919050565b6000809054906101000a900473ffffffffffffffffffffffffffffffffffffffff1681565b61110481611291565b61110d57600080fd5b60006002828154811061111c57fe5b906000526020600020906007020190503373ffffffffffffffffffffffffffffffffffffffff168160010160009054906101000a900473ffffffffffffffffffffffffffffffffffffffff1673ffffffffffffffffffffffffffffffffffffffff161461118857600080fd5b6111fe308260010160009054906101000a900473ffffffffffffffffffffffffffffffffffffffff1683600401546000809054906101000a900473ffffffffffffffffffffffffffffffffffffffff1673ffffffffffffffffffffffffffffffffffffffff166112bb909392919063ffffffff16565b7f35538759d80c1fd7bb450a0d05601db5a99fa8b5d073a07c847a9fd61029b107828260010160009054906101000a900473ffffffffffffffffffffffffffffffffffffffff16604051808381526020018273ffffffffffffffffffffffffffffffffffffffff1673ffffffffffffffffffffffffffffffffffffffff1681526020019250505060405180910390a15050565b600060028081111561129f57fe5b6112a883610fa6565b60028111156112b357fe5b149050919050565b6113a2846323b872dd60e01b858585604051602401808473ffffffffffffffffffffffffffffffffffffffff1673ffffffffffffffffffffffffffffffffffffffff1681526020018373ffffffffffffffffffffffffffffffffffffffff1673ffffffffffffffffffffffffffffffffffffffff1681526020018281526020019350505050604051602081830303815290604052907bffffffffffffffffffffffffffffffffffffffffffffffffffffffff19166020820180517bffffffffffffffffffffffffffffffffffffffffffffffffffffffff8381831617835250505050611430565b50505050565b600080828401905083811015611426576040517f08c379a000000000000000000000000000000000000000000000000000000000815260040180806020018281038252601b8152602001807f536166654d6174683a206164646974696f6e206f766572666c6f77000000000081525060200191505060405180910390fd5b8091505092915050565b6060611492826040518060400160405280602081526020017f5361666545524332303a206c6f772d6c6576656c2063616c6c206661696c65648152508573ffffffffffffffffffffffffffffffffffffffff1661151f9092919063ffffffff16565b905060008151111561151a578080602001905160208110156114b357600080fd5b8101908080519060200190929190505050611519576040517f08c379a000000000000000000000000000000000000000000000000000000000815260040180806020018281038252602a8152602001806117ba602a913960400191505060405180910390fd5b5b505050565b606061152e8484600085611537565b90509392505050565b60606115428561173d565b6115b4576040517f08c379a000000000000000000000000000000000000000000000000000000000815260040180806020018281038252601d8152602001807f416464726573733a2063616c6c20746f206e6f6e2d636f6e747261637400000081525060200191505060405180910390fd5b600060608673ffffffffffffffffffffffffffffffffffffffff1685876040518082805190602001908083835b6020831061160457805182526020820191506020810190506020830392506115e1565b6001836020036101000a03801982511681845116808217855250505050505090500191505060006040518083038185875af1925050503d8060008114611666576040519150601f19603f3d011682016040523d82523d6000602084013e61166b565b606091505b50915091508115611680578092505050611735565b6000815111156116935780518082602001fd5b836040517f08c379a00000000000000000000000000000000000000000000000000000000081526004018080602001828103825283818151815260200191508051906020019080838360005b838110156116fa5780820151818401526020810190506116df565b50505050905090810190601f1680156117275780820380516001836020036101000a031916815260200191505b509250505060405180910390fd5b949350505050565b600080823b905060008111915050919050565b6040518060e0016040528060008152602001600073ffffffffffffffffffffffffffffffffffffffff168152602001600081526020016000815260200160008152602001600073ffffffffffffffffffffffffffffffffffffffff16815260200160008152509056fe5361666545524332303a204552433230206f7065726174696f6e20646964206e6f742073756363656564a264697066735822122094f5d60a1a14f08528a57676fe8b9353dee7e75fcaf206afb18f61508bb1d5b364736f6c63430006020033",
  "source": "pragma solidity ^0.6.0;\n\nimport \"@openzeppelin/contracts/math/Math.sol\";\nimport \"@openzeppelin/contracts/math/SafeMath.sol\";\nimport \"@openzeppelin/contracts/token/ERC20/IERC20.sol\";\nimport \"@openzeppelin/contracts/token/ERC20/SafeERC20.sol\";\nimport \"@openzeppelin/contracts/token/ERC721/IERC721.sol\";\nimport \"@openzeppelin/contracts/utils/Address.sol\";\n\ncontract Fomo721Auction {\n    using SafeMath for uint256;\n    using Address for address;\n\tusing SafeERC20 for IERC20;\n\n    event AuctionCreated(uint256 _index, address _creator, uint256 _tokenId);\n    event AuctionBid(uint256 _index, address _bidder, uint256 amount);\n    event Claim(uint256 auctionIndex, address claimer);\n\n    enum Status { pending, active, finished }\n\tIERC20 public FomoToken;\n\tIERC721 public Fomo721;\n\n    struct Auction {\n        uint256 tokenId;\n        address creator;\n        uint256 startTime;\n        uint256 duration;\n        uint256 currentBidAmount;\n        address currentBidOwner;\n        uint256 bidCount;\n    }\n    Auction[] public auctions;\n\n\tconstructor(address _fomotoken, address _fomo721) public {\n\t\tFomoToken = IERC20(_fomotoken);\n\t\tFomo721 = IERC721(_fomo721);\n\t}\n\n    function createAuction(uint256 _tokenId,\n                           uint256 _startPrice,\n                           uint256 _startTime,\n                           uint256 _duration) public returns (uint256) {\n\n        require(Fomo721.ownerOf(_tokenId) == msg.sender);\n\t\tFomo721.safeTransferFrom(msg.sender, address(this), _tokenId);\n\n        if (_startTime == 0) { _startTime = now; }\n\n        Auction memory auction = Auction({\n            creator: msg.sender,\n            tokenId: _tokenId,\n            startTime: _startTime,\n            duration: _duration,\n            currentBidAmount: _startPrice,\n            currentBidOwner: address(0),\n            bidCount: 0\n        });\n        auctions.push(auction);\n\t\tuint256 index = auctions.length - 1;\n\n        emit AuctionCreated(index, auction.creator, auction.tokenId);\n\n        return index;\n    }\n\n    function bid(uint256 auctionIndex, uint256 amount) public returns (bool) {\n        Auction storage auction = auctions[auctionIndex];\n        require(auction.creator != address(0));\n        require(isActive(auctionIndex));\n\n        if (amount > auction.currentBidAmount) {\n            // we got a better bid. Return tokens to the previous best bidder\n            // and register the sender as `currentBidOwner`\n            FomoToken.safeTransferFrom(msg.sender, address(this), amount);\n            if (auction.currentBidAmount != 0) {\n                // return funds to the previuos bidder\n                FomoToken.safeTransferFrom(\n\t\t\t\t\taddress(this),\n                    auction.currentBidOwner,\n                    auction.currentBidAmount\n                );\n            }\n            // register new bidder\n            auction.currentBidAmount = amount;\n            auction.currentBidOwner = msg.sender;\n            auction.bidCount = auction.bidCount.add(1);\n\n            emit AuctionBid(auctionIndex, msg.sender, amount);\n            return true;\n        }\n        return false;\n    }\n\n    function getTotalAuctions() public view returns (uint256) { return auctions.length; }\n\n    function isActive(uint256 index) public view returns (bool) { return getStatus(index) == Status.active; }\n\n    function isFinished(uint256 index) public view returns (bool) { return getStatus(index) == Status.finished; }\n\n    function getStatus(uint256 index) public view returns (Status) {\n        Auction storage auction = auctions[index];\n        if (now < auction.startTime) {\n            return Status.pending;\n        } else if (now < auction.startTime.add(auction.duration)) {\n            return Status.active;\n        } else {\n            return Status.finished;\n        }\n    }\n\n    function getCurrentBidOwner(uint256 auctionIndex) public view returns (address) { return auctions[auctionIndex].currentBidOwner; }\n\n    function getCurrentBidAmount(uint256 auctionIndex) public view returns (uint256) { return auctions[auctionIndex].currentBidAmount; }\n\n    function getBidCount(uint256 auctionIndex) public view returns (uint256) { return auctions[auctionIndex].bidCount; }\n\n    function getWinner(uint256 auctionIndex) public view returns (address) {\n        require(isFinished(auctionIndex));\n\t\tif(auctions[auctionIndex].currentBidOwner == address(0)) {\n\t\t\treturn auctions[auctionIndex].creator;\n\t\t}\n        return auctions[auctionIndex].currentBidOwner;\n    }\n\n    function claimFomoToken(uint256 auctionIndex) public {\n        require(isFinished(auctionIndex));\n        Auction storage auction = auctions[auctionIndex];\n\n        require(auction.creator == msg.sender);\n        FomoToken.safeTransferFrom(address(this), auction.creator, auction.currentBidAmount);\n\n        emit Claim(auctionIndex, auction.creator);\n    }\n\n    function claimFomo721(uint256 auctionIndex) public {\n        require(isFinished(auctionIndex));\n        Auction storage auction = auctions[auctionIndex];\n\n        address winner = getWinner(auctionIndex);\n        require(winner == msg.sender);\n\n        Fomo721.transferFrom(address(this), winner, auction.tokenId);\n        emit Claim(auctionIndex, winner);\n    }\n}\n",
  "sourcePath": "/Users/cyan/Desktop/projects/defi/nifty.fi/fomo721/contracts/fomo721Auction.sol",
  "compiler": {
    "name": "solc",
    "version": "0.6.2+commit.bacdbe57.Emscripten.clang"
  },
  "schemaVersion": "3.2.5",
  "updatedAt": "2020-09-12T05:35:47.466Z",
  "devdoc": {
    "methods": {}
  },
  "userdoc": {
    "methods": {}
  }
}