{
  "contractName": "Fomo721",
  "abi": [
    {
      "inputs": [
        {
          "internalType": "string",
          "name": "_name",
          "type": "string"
        },
        {
          "internalType": "string",
          "name": "_symbol",
          "type": "string"
        },
        {
          "internalType": "address",
          "name": "_fomotoken",
          "type": "address"
        }
      ],
      "stateMutability": "nonpayable",
      "type": "constructor"
    },
    {
      "anonymous": false,
      "inputs": [
        {
          "indexed": true,
          "internalType": "address",
          "name": "owner",
          "type": "address"
        },
        {
          "indexed": true,
          "internalType": "address",
          "name": "approved",
          "type": "address"
        },
        {
          "indexed": true,
          "internalType": "uint256",
          "name": "tokenId",
          "type": "uint256"
        }
      ],
      "name": "Approval",
      "type": "event"
    },
    {
      "anonymous": false,
      "inputs": [
        {
          "indexed": true,
          "internalType": "address",
          "name": "owner",
          "type": "address"
        },
        {
          "indexed": true,
          "internalType": "address",
          "name": "operator",
          "type": "address"
        },
        {
          "indexed": false,
          "internalType": "bool",
          "name": "approved",
          "type": "bool"
        }
      ],
      "name": "ApprovalForAll",
      "type": "event"
    },
    {
      "anonymous": false,
      "inputs": [
        {
          "indexed": true,
          "internalType": "address",
          "name": "from",
          "type": "address"
        },
        {
          "indexed": true,
          "internalType": "address",
          "name": "to",
          "type": "address"
        },
        {
          "indexed": true,
          "internalType": "uint256",
          "name": "tokenId",
          "type": "uint256"
        }
      ],
      "name": "Transfer",
      "type": "event"
    },
    {
      "inputs": [],
      "name": "FomoToken",
      "outputs": [
        {
          "internalType": "contract IERC20",
          "name": "",
          "type": "address"
        }
      ],
      "stateMutability": "view",
      "type": "function"
    },
    {
      "inputs": [],
      "name": "_1",
      "outputs": [
        {
          "internalType": "bytes32",
          "name": "",
          "type": "bytes32"
        }
      ],
      "stateMutability": "view",
      "type": "function"
    },
    {
      "inputs": [],
      "name": "_2",
      "outputs": [
        {
          "internalType": "bytes32",
          "name": "",
          "type": "bytes32"
        }
      ],
      "stateMutability": "view",
      "type": "function"
    },
    {
      "inputs": [],
      "name": "_7",
      "outputs": [
        {
          "internalType": "bytes32",
          "name": "",
          "type": "bytes32"
        }
      ],
      "stateMutability": "view",
      "type": "function"
    },
    {
      "inputs": [],
      "name": "_F",
      "outputs": [
        {
          "internalType": "bytes32",
          "name": "",
          "type": "bytes32"
        }
      ],
      "stateMutability": "view",
      "type": "function"
    },
    {
      "inputs": [],
      "name": "_m",
      "outputs": [
        {
          "internalType": "bytes32",
          "name": "",
          "type": "bytes32"
        }
      ],
      "stateMutability": "view",
      "type": "function"
    },
    {
      "inputs": [],
      "name": "_o",
      "outputs": [
        {
          "internalType": "bytes32",
          "name": "",
          "type": "bytes32"
        }
      ],
      "stateMutability": "view",
      "type": "function"
    },
    {
      "inputs": [
        {
          "internalType": "address",
          "name": "to",
          "type": "address"
        },
        {
          "internalType": "uint256",
          "name": "tokenId",
          "type": "uint256"
        }
      ],
      "name": "approve",
      "outputs": [],
      "stateMutability": "nonpayable",
      "type": "function"
    },
    {
      "inputs": [
        {
          "internalType": "address",
          "name": "owner",
          "type": "address"
        }
      ],
      "name": "balanceOf",
      "outputs": [
        {
          "internalType": "uint256",
          "name": "",
          "type": "uint256"
        }
      ],
      "stateMutability": "view",
      "type": "function"
    },
    {
      "inputs": [],
      "name": "baseURI",
      "outputs": [
        {
          "internalType": "string",
          "name": "",
          "type": "string"
        }
      ],
      "stateMutability": "view",
      "type": "function"
    },
    {
      "inputs": [],
      "name": "burnAddress",
      "outputs": [
        {
          "internalType": "address",
          "name": "",
          "type": "address"
        }
      ],
      "stateMutability": "view",
      "type": "function"
    },
    {
      "inputs": [],
      "name": "burnRatio",
      "outputs": [
        {
          "internalType": "uint256",
          "name": "",
          "type": "uint256"
        }
      ],
      "stateMutability": "view",
      "type": "function"
    },
    {
      "inputs": [],
      "name": "countdown",
      "outputs": [
        {
          "internalType": "uint256",
          "name": "",
          "type": "uint256"
        }
      ],
      "stateMutability": "view",
      "type": "function"
    },
    {
      "inputs": [],
      "name": "fomo721Count",
      "outputs": [
        {
          "internalType": "uint256",
          "name": "",
          "type": "uint256"
        }
      ],
      "stateMutability": "view",
      "type": "function"
    },
    {
      "inputs": [],
      "name": "fomo721PieceCount",
      "outputs": [
        {
          "internalType": "uint256",
          "name": "",
          "type": "uint256"
        }
      ],
      "stateMutability": "view",
      "type": "function"
    },
    {
      "inputs": [
        {
          "internalType": "uint256",
          "name": "tokenId",
          "type": "uint256"
        }
      ],
      "name": "getApproved",
      "outputs": [
        {
          "internalType": "address",
          "name": "",
          "type": "address"
        }
      ],
      "stateMutability": "view",
      "type": "function"
    },
    {
      "inputs": [
        {
          "internalType": "address",
          "name": "owner",
          "type": "address"
        },
        {
          "internalType": "address",
          "name": "operator",
          "type": "address"
        }
      ],
      "name": "isApprovedForAll",
      "outputs": [
        {
          "internalType": "bool",
          "name": "",
          "type": "bool"
        }
      ],
      "stateMutability": "view",
      "type": "function"
    },
    {
      "inputs": [],
      "name": "lastMintTime",
      "outputs": [
        {
          "internalType": "uint256",
          "name": "",
          "type": "uint256"
        }
      ],
      "stateMutability": "view",
      "type": "function"
    },
    {
      "inputs": [],
      "name": "lastMinter",
      "outputs": [
        {
          "internalType": "address",
          "name": "",
          "type": "address"
        }
      ],
      "stateMutability": "view",
      "type": "function"
    },
    {
      "inputs": [],
      "name": "mintPieceFee",
      "outputs": [
        {
          "internalType": "uint256",
          "name": "",
          "type": "uint256"
        }
      ],
      "stateMutability": "view",
      "type": "function"
    },
    {
      "inputs": [],
      "name": "name",
      "outputs": [
        {
          "internalType": "string",
          "name": "",
          "type": "string"
        }
      ],
      "stateMutability": "view",
      "type": "function"
    },
    {
      "inputs": [
        {
          "internalType": "uint256",
          "name": "tokenId",
          "type": "uint256"
        }
      ],
      "name": "ownerOf",
      "outputs": [
        {
          "internalType": "address",
          "name": "",
          "type": "address"
        }
      ],
      "stateMutability": "view",
      "type": "function"
    },
    {
      "inputs": [],
      "name": "prizePool",
      "outputs": [
        {
          "internalType": "address",
          "name": "",
          "type": "address"
        }
      ],
      "stateMutability": "view",
      "type": "function"
    },
    {
      "inputs": [
        {
          "internalType": "address",
          "name": "from",
          "type": "address"
        },
        {
          "internalType": "address",
          "name": "to",
          "type": "address"
        },
        {
          "internalType": "uint256",
          "name": "tokenId",
          "type": "uint256"
        }
      ],
      "name": "safeTransferFrom",
      "outputs": [],
      "stateMutability": "nonpayable",
      "type": "function"
    },
    {
      "inputs": [
        {
          "internalType": "address",
          "name": "from",
          "type": "address"
        },
        {
          "internalType": "address",
          "name": "to",
          "type": "address"
        },
        {
          "internalType": "uint256",
          "name": "tokenId",
          "type": "uint256"
        },
        {
          "internalType": "bytes",
          "name": "_data",
          "type": "bytes"
        }
      ],
      "name": "safeTransferFrom",
      "outputs": [],
      "stateMutability": "nonpayable",
      "type": "function"
    },
    {
      "inputs": [
        {
          "internalType": "address",
          "name": "operator",
          "type": "address"
        },
        {
          "internalType": "bool",
          "name": "approved",
          "type": "bool"
        }
      ],
      "name": "setApprovalForAll",
      "outputs": [],
      "stateMutability": "nonpayable",
      "type": "function"
    },
    {
      "inputs": [
        {
          "internalType": "bytes4",
          "name": "interfaceId",
          "type": "bytes4"
        }
      ],
      "name": "supportsInterface",
      "outputs": [
        {
          "internalType": "bool",
          "name": "",
          "type": "bool"
        }
      ],
      "stateMutability": "view",
      "type": "function"
    },
    {
      "inputs": [],
      "name": "symbol",
      "outputs": [
        {
          "internalType": "string",
          "name": "",
          "type": "string"
        }
      ],
      "stateMutability": "view",
      "type": "function"
    },
    {
      "inputs": [
        {
          "internalType": "uint256",
          "name": "index",
          "type": "uint256"
        }
      ],
      "name": "tokenByIndex",
      "outputs": [
        {
          "internalType": "uint256",
          "name": "",
          "type": "uint256"
        }
      ],
      "stateMutability": "view",
      "type": "function"
    },
    {
      "inputs": [
        {
          "internalType": "address",
          "name": "owner",
          "type": "address"
        },
        {
          "internalType": "uint256",
          "name": "index",
          "type": "uint256"
        }
      ],
      "name": "tokenOfOwnerByIndex",
      "outputs": [
        {
          "internalType": "uint256",
          "name": "",
          "type": "uint256"
        }
      ],
      "stateMutability": "view",
      "type": "function"
    },
    {
      "inputs": [
        {
          "internalType": "uint256",
          "name": "tokenId",
          "type": "uint256"
        }
      ],
      "name": "tokenURI",
      "outputs": [
        {
          "internalType": "string",
          "name": "",
          "type": "string"
        }
      ],
      "stateMutability": "view",
      "type": "function"
    },
    {
      "inputs": [],
      "name": "totalSupply",
      "outputs": [
        {
          "internalType": "uint256",
          "name": "",
          "type": "uint256"
        }
      ],
      "stateMutability": "view",
      "type": "function"
    },
    {
      "inputs": [
        {
          "internalType": "address",
          "name": "from",
          "type": "address"
        },
        {
          "internalType": "address",
          "name": "to",
          "type": "address"
        },
        {
          "internalType": "uint256",
          "name": "tokenId",
          "type": "uint256"
        }
      ],
      "name": "transferFrom",
      "outputs": [],
      "stateMutability": "nonpayable",
      "type": "function"
    },
    {
      "inputs": [
        {
          "internalType": "uint256",
          "name": "",
          "type": "uint256"
        }
      ],
      "name": "winners",
      "outputs": [
        {
          "internalType": "uint256",
          "name": "timestamp",
          "type": "uint256"
        },
        {
          "internalType": "uint256",
          "name": "tokenId",
          "type": "uint256"
        },
        {
          "internalType": "address",
          "name": "owner",
          "type": "address"
        }
      ],
      "stateMutability": "view",
      "type": "function"
    },
    {
      "inputs": [
        {
          "internalType": "address",
          "name": "_prizepool",
          "type": "address"
        }
      ],
      "name": "setPrizePool",
      "outputs": [],
      "stateMutability": "nonpayable",
      "type": "function"
    },
    {
      "inputs": [],
      "name": "getFomo721Count",
      "outputs": [
        {
          "internalType": "uint256",
          "name": "",
          "type": "uint256"
        }
      ],
      "stateMutability": "view",
      "type": "function"
    },
    {
      "inputs": [],
      "name": "getFomo721PieceCount",
      "outputs": [
        {
          "internalType": "uint256",
          "name": "",
          "type": "uint256"
        }
      ],
      "stateMutability": "view",
      "type": "function"
    },
    {
      "inputs": [],
      "name": "mintFomo721Piece",
      "outputs": [],
      "stateMutability": "nonpayable",
      "type": "function"
    },
    {
      "inputs": [
        {
          "internalType": "uint256",
          "name": "id",
          "type": "uint256"
        }
      ],
      "name": "burnIt",
      "outputs": [],
      "stateMutability": "nonpayable",
      "type": "function"
    },
    {
      "inputs": [
        {
          "internalType": "uint256",
          "name": "id1",
          "type": "uint256"
        },
        {
          "internalType": "uint256",
          "name": "id2",
          "type": "uint256"
        },
        {
          "internalType": "uint256",
          "name": "id3",
          "type": "uint256"
        },
        {
          "internalType": "uint256",
          "name": "id4",
          "type": "uint256"
        },
        {
          "internalType": "uint256",
          "name": "id5",
          "type": "uint256"
        },
        {
          "internalType": "uint256",
          "name": "id6",
          "type": "uint256"
        },
        {
          "internalType": "uint256",
          "name": "id7",
          "type": "uint256"
        }
      ],
      "name": "mintFomo721",
      "outputs": [],
      "stateMutability": "nonpayable",
      "type": "function"
    },
    {
      "inputs": [
        {
          "internalType": "address",
          "name": "_owner",
          "type": "address"
        }
      ],
      "name": "tokensOfOwner",
      "outputs": [
        {
          "internalType": "uint256[]",
          "name": "ownerTokens",
          "type": "uint256[]"
        }
      ],
      "stateMutability": "view",
      "type": "function"
    }
  ],
  "bytecode": "0x60806040526101f4600e55610e10600f5560006019553480156200002257600080fd5b5060405162004e1e38038062004e1e833981810160405260608110156200004857600080fd5b81019080805160405193929190846401000000008211156200006957600080fd5b838201915060208201858111156200008057600080fd5b82518660018202830111640100000000821117156200009e57600080fd5b8083526020830192505050908051906020019080838360005b83811015620000d4578082015181840152602081019050620000b7565b50505050905090810190601f168015620001025780820380516001836020036101000a031916815260200191505b50604052602001805160405193929190846401000000008211156200012657600080fd5b838201915060208201858111156200013d57600080fd5b82518660018202830111640100000000821117156200015b57600080fd5b8083526020830192505050908051906020019080838360005b838110156200019157808201518184015260208101905062000174565b50505050905090810190601f168015620001bf5780820380516001836020036101000a031916815260200191505b50604052602001805190602001909291905050508282620001ed6301ffc9a760e01b620004db60201b60201c565b816006908051906020019062000205929190620005e4565b5080600790805190602001906200021e929190620005e4565b50620002376380ac58cd60e01b620004db60201b60201c565b6200024f635b5e139f60e01b620004db60201b60201c565b6200026763780e9d6360e01b620004db60201b60201c565b505033601b60006101000a81548173ffffffffffffffffffffffffffffffffffffffff021916908373ffffffffffffffffffffffffffffffffffffffff1602179055506000600c819055506000600d8190555080600a60006101000a81548173ffffffffffffffffffffffffffffffffffffffff021916908373ffffffffffffffffffffffffffffffffffffffff16021790555063deadbeef600b60006101000a81548173ffffffffffffffffffffffffffffffffffffffff021916908373ffffffffffffffffffffffffffffffffffffffff1602179055506040518060400160405280600181526020017f4600000000000000000000000000000000000000000000000000000000000000815250805190602001206012819055506040518060400160405280600181526020017f6f00000000000000000000000000000000000000000000000000000000000000815250805190602001206013819055506040518060400160405280600181526020017f6d00000000000000000000000000000000000000000000000000000000000000815250805190602001206014819055506040518060400160405280600181526020017f3700000000000000000000000000000000000000000000000000000000000000815250805190602001206015819055506040518060400160405280600181526020017f3200000000000000000000000000000000000000000000000000000000000000815250805190602001206016819055506040518060400160405280600181526020017f31000000000000000000000000000000000000000000000000000000000000008152508051906020012060178190555050505062000693565b63ffffffff60e01b817bffffffffffffffffffffffffffffffffffffffffffffffffffffffff1916141562000578576040517f08c379a000000000000000000000000000000000000000000000000000000000815260040180806020018281038252601c8152602001807f4552433136353a20696e76616c696420696e746572666163652069640000000081525060200191505060405180910390fd5b6001600080837bffffffffffffffffffffffffffffffffffffffffffffffffffffffff19167bffffffffffffffffffffffffffffffffffffffffffffffffffffffff1916815260200190815260200160002060006101000a81548160ff02191690831515021790555050565b828054600181600116156101000203166002900490600052602060002090601f016020900481019282601f106200062757805160ff191683800117855562000658565b8280016001018555821562000658579182015b82811115620006575782518255916020019190600101906200063a565b5b5090506200066791906200066b565b5090565b6200069091905b808211156200068c57600081600090555060010162000672565b5090565b90565b61477b80620006a36000396000f3fe608060405234801561001057600080fd5b50600436106102535760003560e01c8063719ce73e11610146578063a69e752f116100c3578063c87b56dd11610087578063c87b56dd14610d1e578063cba8887214610dc5578063cf92fc2114610de3578063e300aa5414610ded578063e985e9c514610e0b578063fb2542f414610e8757610253565b8063a69e752f14610ba1578063ac7fd48814610bbf578063ad94f8bc14610bdd578063b88d4fde14610bfb578063bf70931214610d0057610253565b80639d4635201161010a5780639d46352014610a3f578063a11f8de414610a5d578063a22cb46514610aa7578063a2fb117514610af7578063a5e9da1014610b7357610253565b8063719ce73e1461089d5780638462151c146108e757806384aa29d014610980578063904342881461099e57806395d89b41146109bc57610253565b8063336c6d39116101d45780636352211e116101985780636352211e146106ec578063696498201461075a5780636c0360eb1461077857806370a08231146107fb57806370d5ae051461085357610253565b8063336c6d391461059057806342842e0e146105d45780634cd609bc146106425780634f6ccce71461068c5780635192c82c146106ce57610253565b806318ce47cc1161021b57806318ce47cc1461041a578063197688261461043857806323b872dd146104a257806325e0510f146105105780632f745c591461052e57610253565b806301ffc9a71461025857806306fdde03146102bd578063081812fc14610340578063095ea7b3146103ae57806318160ddd146103fc575b600080fd5b6102a36004803603602081101561026e57600080fd5b8101908080357bffffffffffffffffffffffffffffffffffffffffffffffffffffffff19169060200190929190505050610ea5565b604051808215151515815260200191505060405180910390f35b6102c5610f0c565b6040518080602001828103825283818151815260200191508051906020019080838360005b838110156103055780820151818401526020810190506102ea565b50505050905090810190601f1680156103325780820380516001836020036101000a031916815260200191505b509250505060405180910390f35b61036c6004803603602081101561035657600080fd5b8101908080359060200190929190505050610fae565b604051808273ffffffffffffffffffffffffffffffffffffffff1673ffffffffffffffffffffffffffffffffffffffff16815260200191505060405180910390f35b6103fa600480360360408110156103c457600080fd5b81019080803573ffffffffffffffffffffffffffffffffffffffff16906020019092919080359060200190929190505050611049565b005b61040461118d565b6040518082815260200191505060405180910390f35b61042261119e565b6040518082815260200191505060405180910390f35b6104a0600480360360e081101561044e57600080fd5b81019080803590602001909291908035906020019092919080359060200190929190803590602001909291908035906020019092919080359060200190929190803590602001909291905050506111a4565b005b61050e600480360360608110156104b857600080fd5b81019080803573ffffffffffffffffffffffffffffffffffffffff169060200190929190803573ffffffffffffffffffffffffffffffffffffffff169060200190929190803590602001909291905050506113b8565b005b61051861142e565b6040518082815260200191505060405180910390f35b61057a6004803603604081101561054457600080fd5b81019080803573ffffffffffffffffffffffffffffffffffffffff16906020019092919080359060200190929190505050611438565b6040518082815260200191505060405180910390f35b6105d2600480360360208110156105a657600080fd5b81019080803573ffffffffffffffffffffffffffffffffffffffff169060200190929190505050611493565b005b610640600480360360608110156105ea57600080fd5b81019080803573ffffffffffffffffffffffffffffffffffffffff169060200190929190803573ffffffffffffffffffffffffffffffffffffffff1690602001909291908035906020019092919050505061158f565b005b61064a6115af565b604051808273ffffffffffffffffffffffffffffffffffffffff1673ffffffffffffffffffffffffffffffffffffffff16815260200191505060405180910390f35b6106b8600480360360208110156106a257600080fd5b81019080803590602001909291905050506115d5565b6040518082815260200191505060405180910390f35b6106d66115f8565b6040518082815260200191505060405180910390f35b6107186004803603602081101561070257600080fd5b81019080803590602001909291905050506115fe565b604051808273ffffffffffffffffffffffffffffffffffffffff1673ffffffffffffffffffffffffffffffffffffffff16815260200191505060405180910390f35b610762611635565b6040518082815260200191505060405180910390f35b61078061163b565b6040518080602001828103825283818151815260200191508051906020019080838360005b838110156107c05780820151818401526020810190506107a5565b50505050905090810190601f1680156107ed5780820380516001836020036101000a031916815260200191505b509250505060405180910390f35b61083d6004803603602081101561081157600080fd5b81019080803573ffffffffffffffffffffffffffffffffffffffff1690602001909291905050506116dd565b6040518082815260200191505060405180910390f35b61085b6117b2565b604051808273ffffffffffffffffffffffffffffffffffffffff1673ffffffffffffffffffffffffffffffffffffffff16815260200191505060405180910390f35b6108a56117ba565b604051808273ffffffffffffffffffffffffffffffffffffffff1673ffffffffffffffffffffffffffffffffffffffff16815260200191505060405180910390f35b610929600480360360208110156108fd57600080fd5b81019080803573ffffffffffffffffffffffffffffffffffffffff1690602001909291905050506117e0565b6040518080602001828103825283818151815260200191508051906020019060200280838360005b8381101561096c578082015181840152602081019050610951565b505050509050019250505060405180910390f35b6109886118bc565b6040518082815260200191505060405180910390f35b6109a66118c6565b6040518082815260200191505060405180910390f35b6109c46118cc565b6040518080602001828103825283818151815260200191508051906020019080838360005b83811015610a045780820151818401526020810190506109e9565b50505050905090810190601f168015610a315780820380516001836020036101000a031916815260200191505b509250505060405180910390f35b610a4761196e565b6040518082815260200191505060405180910390f35b610a65611974565b604051808273ffffffffffffffffffffffffffffffffffffffff1673ffffffffffffffffffffffffffffffffffffffff16815260200191505060405180910390f35b610af560048036036040811015610abd57600080fd5b81019080803573ffffffffffffffffffffffffffffffffffffffff16906020019092919080351515906020019092919050505061199a565b005b610b2360048036036020811015610b0d57600080fd5b8101908080359060200190929190505050611b52565b604051808481526020018381526020018273ffffffffffffffffffffffffffffffffffffffff1673ffffffffffffffffffffffffffffffffffffffff168152602001935050505060405180910390f35b610b9f60048036036020811015610b8957600080fd5b8101908080359060200190929190505050611ba9565b005b610ba9611bf5565b6040518082815260200191505060405180910390f35b610bc7611bfb565b6040518082815260200191505060405180910390f35b610be5611c01565b6040518082815260200191505060405180910390f35b610cfe60048036036080811015610c1157600080fd5b81019080803573ffffffffffffffffffffffffffffffffffffffff169060200190929190803573ffffffffffffffffffffffffffffffffffffffff1690602001909291908035906020019092919080359060200190640100000000811115610c7857600080fd5b820183602082011115610c8a57600080fd5b80359060200191846001830284011164010000000083111715610cac57600080fd5b91908080601f016020809104026020016040519081016040528093929190818152602001838380828437600081840152601f19601f820116905080830192505050505050509192919290505050611c07565b005b610d08611c7f565b6040518082815260200191505060405180910390f35b610d4a60048036036020811015610d3457600080fd5b8101908080359060200190929190505050611c85565b6040518080602001828103825283818151815260200191508051906020019080838360005b83811015610d8a578082015181840152602081019050610d6f565b50505050905090810190601f168015610db75780820380516001836020036101000a031916815260200191505b509250505060405180910390f35b610dcd611f6e565b6040518082815260200191505060405180910390f35b610deb611f74565b005b610df56126df565b6040518082815260200191505060405180910390f35b610e6d60048036036040811015610e2157600080fd5b81019080803573ffffffffffffffffffffffffffffffffffffffff169060200190929190803573ffffffffffffffffffffffffffffffffffffffff1690602001909291905050506126e5565b604051808215151515815260200191505060405180910390f35b610e8f612779565b6040518082815260200191505060405180910390f35b6000806000837bffffffffffffffffffffffffffffffffffffffffffffffffffffffff19167bffffffffffffffffffffffffffffffffffffffffffffffffffffffff1916815260200190815260200160002060009054906101000a900460ff169050919050565b606060068054600181600116156101000203166002900480601f016020809104026020016040519081016040528092919081815260200182805460018160011615610100020316600290048015610fa45780601f10610f7957610100808354040283529160200191610fa4565b820191906000526020600020905b815481529060010190602001808311610f8757829003601f168201915b5050505050905090565b6000610fb982612786565b61100e576040517f08c379a000000000000000000000000000000000000000000000000000000000815260040180806020018281038252602c815260200180614646602c913960400191505060405180910390fd5b6004600083815260200190815260200160002060009054906101000a900473ffffffffffffffffffffffffffffffffffffffff169050919050565b6000611054826115fe565b90508073ffffffffffffffffffffffffffffffffffffffff168373ffffffffffffffffffffffffffffffffffffffff1614156110db576040517f08c379a00000000000000000000000000000000000000000000000000000000081526004018080602001828103825260218152602001806146ca6021913960400191505060405180910390fd5b8073ffffffffffffffffffffffffffffffffffffffff166110fa6127a3565b73ffffffffffffffffffffffffffffffffffffffff1614806111295750611128816111236127a3565b6126e5565b5b61117e576040517f08c379a00000000000000000000000000000000000000000000000000000000081526004018080602001828103825260388152602001806145786038913960400191505060405180910390fd5b61118883836127ab565b505050565b60006111996002612864565b905090565b600c5481565b6111b087601254612879565b80156111c457506111c386601354612879565b5b80156111d857506111d785601454612879565b5b80156111ec57506111eb84601354612879565b5b801561120057506111ff83601554612879565b5b8015611214575061121382601654612879565b5b8015611228575061122781601754612879565b5b61129a576040517f08c379a000000000000000000000000000000000000000000000000000000000815260040180806020018281038252600c8152602001807f636865636b206661696c6564000000000000000000000000000000000000000081525060200191505060405180910390fd5b6112a3876129a5565b6112ac866129a5565b6112b5856129a5565b6112be846129a5565b6112c7836129a5565b6112d0826129a5565b6112d9816129a5565b6112ef6007600d546129c390919063ffffffff16565b600d8190555060006112ff612a0d565b905060405180604001604052808281526020016040518060400160405280600781526020017f466f6d6f37323100000000000000000000000000000000000000000000000000815250815250601860008381526020019081526020016000206000820151816000015560208201518160010190805190602001906113849291906143cc565b509050506113923382612a43565b6113a86001600c54612c3790919063ffffffff16565b600c819055505050505050505050565b6113c96113c36127a3565b82612cbf565b61141e576040517f08c379a00000000000000000000000000000000000000000000000000000000081526004018080602001828103825260318152602001806146eb6031913960400191505060405180910390fd5b611429838383612db3565b505050565b6000600d54905090565b600061148b82600160008673ffffffffffffffffffffffffffffffffffffffff1673ffffffffffffffffffffffffffffffffffffffff168152602001908152602001600020612ff690919063ffffffff16565b905092915050565b601b60009054906101000a900473ffffffffffffffffffffffffffffffffffffffff1673ffffffffffffffffffffffffffffffffffffffff163373ffffffffffffffffffffffffffffffffffffffff16146114ed57600080fd5b63deadbeef73ffffffffffffffffffffffffffffffffffffffff16600b60009054906101000a900473ffffffffffffffffffffffffffffffffffffffff1673ffffffffffffffffffffffffffffffffffffffff161461154b57600080fd5b80600b60006101000a81548173ffffffffffffffffffffffffffffffffffffffff021916908373ffffffffffffffffffffffffffffffffffffffff16021790555050565b6115aa83838360405180602001604052806000815250611c07565b505050565b601160009054906101000a900473ffffffffffffffffffffffffffffffffffffffff1681565b6000806115ec83600261301090919063ffffffff16565b50905080915050919050565b600e5481565b600061162e826040518060600160405280602981526020016145da60299139600261303f9092919063ffffffff16565b9050919050565b60145481565b606060098054600181600116156101000203166002900480601f0160208091040260200160405190810160405280929190818152602001828054600181600116156101000203166002900480156116d35780601f106116a8576101008083540402835291602001916116d3565b820191906000526020600020905b8154815290600101906020018083116116b657829003601f168201915b5050505050905090565b60008073ffffffffffffffffffffffffffffffffffffffff168273ffffffffffffffffffffffffffffffffffffffff161415611764576040517f08c379a000000000000000000000000000000000000000000000000000000000815260040180806020018281038252602a8152602001806145b0602a913960400191505060405180910390fd5b6117ab600160008473ffffffffffffffffffffffffffffffffffffffff1673ffffffffffffffffffffffffffffffffffffffff16815260200190815260200160002061305e565b9050919050565b63deadbeef81565b600b60009054906101000a900473ffffffffffffffffffffffffffffffffffffffff1681565b606060006117ed836116dd565b905060008114156118315760006040519080825280602002602001820160405280156118285781602001602082028038833980820191505090505b509150506118b7565b6060816040519080825280602002602001820160405280156118625781602001602082028038833980820191505090505b509050600080905060008090505b838110156118af576118828682611438565b83838151811061188e57fe5b60200260200101818152505081806001019250508080600101915050611870565b829450505050505b919050565b6000600c54905090565b600d5481565b606060078054600181600116156101000203166002900480601f0160208091040260200160405190810160405280929190818152602001828054600181600116156101000203166002900480156119645780601f1061193957610100808354040283529160200191611964565b820191906000526020600020905b81548152906001019060200180831161194757829003601f168201915b5050505050905090565b60105481565b600a60009054906101000a900473ffffffffffffffffffffffffffffffffffffffff1681565b6119a26127a3565b73ffffffffffffffffffffffffffffffffffffffff168273ffffffffffffffffffffffffffffffffffffffff161415611a43576040517f08c379a00000000000000000000000000000000000000000000000000000000081526004018080602001828103825260198152602001807f4552433732313a20617070726f766520746f2063616c6c65720000000000000081525060200191505060405180910390fd5b8060056000611a506127a3565b73ffffffffffffffffffffffffffffffffffffffff1673ffffffffffffffffffffffffffffffffffffffff16815260200190815260200160002060008473ffffffffffffffffffffffffffffffffffffffff1673ffffffffffffffffffffffffffffffffffffffff16815260200190815260200160002060006101000a81548160ff0219169083151502179055508173ffffffffffffffffffffffffffffffffffffffff16611afd6127a3565b73ffffffffffffffffffffffffffffffffffffffff167f17307eab39ab6107e8899845ad3d59bd9653f200f220920489ca2b5937696c3183604051808215151515815260200191505060405180910390a35050565b601a8181548110611b5f57fe5b90600052602060002090600302016000915090508060000154908060010154908060020160009054906101000a900473ffffffffffffffffffffffffffffffffffffffff16905083565b3373ffffffffffffffffffffffffffffffffffffffff16611bc9826115fe565b73ffffffffffffffffffffffffffffffffffffffff1614611be957600080fd5b611bf2816129a5565b50565b60125481565b60165481565b60175481565b611c18611c126127a3565b83612cbf565b611c6d576040517f08c379a00000000000000000000000000000000000000000000000000000000081526004018080602001828103825260318152602001806146eb6031913960400191505060405180910390fd5b611c7984848484613073565b50505050565b60155481565b6060611c9082612786565b611ce5576040517f08c379a000000000000000000000000000000000000000000000000000000000815260040180806020018281038252602f81526020018061469b602f913960400191505060405180910390fd5b6060600860008481526020019081526020016000208054600181600116156101000203166002900480601f016020809104026020016040519081016040528092919081815260200182805460018160011615610100020316600290048015611d8e5780601f10611d6357610100808354040283529160200191611d8e565b820191906000526020600020905b815481529060010190602001808311611d7157829003601f168201915b50505050509050600060098054600181600116156101000203166002900490501415611dbd5780915050611f69565b600081511115611e96576009816040516020018083805460018160011615610100020316600290048015611e285780601f10611e06576101008083540402835291820191611e28565b820191906000526020600020905b815481529060010190602001808311611e14575b505082805190602001908083835b60208310611e595780518252602082019150602081019050602083039250611e36565b6001836020036101000a03801982511681845116808217855250505050505090500192505050604051602081830303815290604052915050611f69565b6009611ea1846130e5565b6040516020018083805460018160011615610100020316600290048015611eff5780601f10611edd576101008083540402835291820191611eff565b820191906000526020600020905b815481529060010190602001808311611eeb575b505082805190602001908083835b60208310611f305780518252602082019150602081019050602083039250611f0d565b6001836020036101000a038019825116818451168082178552505050505050905001925050506040516020818303038152906040529150505b919050565b600f5481565b3273ffffffffffffffffffffffffffffffffffffffff163373ffffffffffffffffffffffffffffffffffffffff1614611fac57600080fd5b612004333068056bc75e2d63100000600a60009054906101000a900473ffffffffffffffffffffffffffffffffffffffff1673ffffffffffffffffffffffffffffffffffffffff16613215909392919063ffffffff16565b6120883063deadbeef61203f6103e8612031600e5468056bc75e2d6310000061330290919063ffffffff16565b61338890919063ffffffff16565b600a60009054906101000a900473ffffffffffffffffffffffffffffffffffffffff1673ffffffffffffffffffffffffffffffffffffffff16613215909392919063ffffffff16565b6121d230600b60009054906101000a900473ffffffffffffffffffffffffffffffffffffffff16600a60009054906101000a900473ffffffffffffffffffffffffffffffffffffffff1673ffffffffffffffffffffffffffffffffffffffff166370a08231306040518263ffffffff1660e01b8152600401808273ffffffffffffffffffffffffffffffffffffffff1673ffffffffffffffffffffffffffffffffffffffff16815260200191505060206040518083038186803b15801561214e57600080fd5b505afa158015612162573d6000803e3d6000fd5b505050506040513d602081101561217857600080fd5b8101908080519060200190929190505050600a60009054906101000a900473ffffffffffffffffffffffffffffffffffffffff1673ffffffffffffffffffffffffffffffffffffffff16613215909392919063ffffffff16565b60006121dc6133d2565b905060606127068210612226576040518060400160405280600181526020017f31000000000000000000000000000000000000000000000000000000000000008152509050612409565b6126fc821061226c576040518060400160405280600181526020017f32000000000000000000000000000000000000000000000000000000000000008152509050612408565b6126ca82106122b2576040518060400160405280600181526020017f37000000000000000000000000000000000000000000000000000000000000008152509050612407565b61232882106122f8576040518060400160405280600181526020017f6f000000000000000000000000000000000000000000000000000000000000008152509050612406565b611f40821061233e576040518060400160405280600181526020017f6d000000000000000000000000000000000000000000000000000000000000008152509050612405565b610fa08210612384576040518060400160405280600181526020017f6f000000000000000000000000000000000000000000000000000000000000008152509050612404565b6103e882106123ca576040518060400160405280600181526020017f46000000000000000000000000000000000000000000000000000000000000008152509050612403565b6040518060400160405280601381526020017f446f6e277420676976652075702c2062726f210000000000000000000000000081525090505b5b5b5b5b5b5b6000612413612a0d565b9050604051806040016040528082815260200183815250601860008381526020019081526020016000206000820151816000015560208201518160010190805190602001906124639291906143cc565b509050506001600d600082825401925050819055506124823382612a43565b600060105414156124da574260108190555033601160006101000a81548173ffffffffffffffffffffffffffffffffffffffff021916908373ffffffffffffffffffffffffffffffffffffffff1602179055506126da565b426124f2600f54601054612c3790919063ffffffff16565b10156126d957612500612a0d565b905060405180604001604052808281526020016040518060400160405280600781526020017f466f6d6f37323100000000000000000000000000000000000000000000000000815250815250601860008381526020019081526020016000206000820151816000015560208201518160010190805190602001906125859291906143cc565b509050506125b5601160009054906101000a900473ffffffffffffffffffffffffffffffffffffffff1682612a43565b601a6040518060600160405280428152602001838152602001601160009054906101000a900473ffffffffffffffffffffffffffffffffffffffff1673ffffffffffffffffffffffffffffffffffffffff168152509080600181540180825580915050600190039060005260206000209060030201600090919091909150600082015181600001556020820151816001015560408201518160020160006101000a81548173ffffffffffffffffffffffffffffffffffffffff021916908373ffffffffffffffffffffffffffffffffffffffff160217905550505033601160006101000a81548173ffffffffffffffffffffffffffffffffffffffff021916908373ffffffffffffffffffffffffffffffffffffffff160217905550426010819055505b5b505050565b60135481565b6000600560008473ffffffffffffffffffffffffffffffffffffffff1673ffffffffffffffffffffffffffffffffffffffff16815260200190815260200160002060008373ffffffffffffffffffffffffffffffffffffffff1673ffffffffffffffffffffffffffffffffffffffff16815260200190815260200160002060009054906101000a900460ff16905092915050565b68056bc75e2d6310000081565b600061279c82600261345890919063ffffffff16565b9050919050565b600033905090565b816004600083815260200190815260200160002060006101000a81548173ffffffffffffffffffffffffffffffffffffffff021916908373ffffffffffffffffffffffffffffffffffffffff160217905550808273ffffffffffffffffffffffffffffffffffffffff1661281e836115fe565b73ffffffffffffffffffffffffffffffffffffffff167f8c5be1e5ebec7d5bd14f71427d1e84f3dd0314c0f7b2291e5b200ac8c7c3b92560405160405180910390a45050565b600061287282600001613472565b9050919050565b600061288361444c565b6018600085815260200190815260200160002060405180604001604052908160008201548152602001600182018054600181600116156101000203166002900480601f0160208091040260200160405190810160405280929190818152602001828054600181600116156101000203166002900480156129445780601f1061291957610100808354040283529160200191612944565b820191906000526020600020905b81548152906001019060200180831161292757829003601f168201915b50505050508152505090503373ffffffffffffffffffffffffffffffffffffffff1661296f856115fe565b73ffffffffffffffffffffffffffffffffffffffff1614801561299c575082816020015180519060200120145b91505092915050565b6129ae81613483565b60196000815480929190600101919050555050565b6000612a0583836040518060400160405280601e81526020017f536166654d6174683a207375627472616374696f6e206f766572666c6f7700008152506135bd565b905092915050565b6000612a3e601954612a306001612a2261118d565b612c3790919063ffffffff16565b612c3790919063ffffffff16565b905090565b600073ffffffffffffffffffffffffffffffffffffffff168273ffffffffffffffffffffffffffffffffffffffff161415612ae6576040517f08c379a00000000000000000000000000000000000000000000000000000000081526004018080602001828103825260208152602001807f4552433732313a206d696e7420746f20746865207a65726f206164647265737381525060200191505060405180910390fd5b612aef81612786565b15612b62576040517f08c379a000000000000000000000000000000000000000000000000000000000815260040180806020018281038252601c8152602001807f4552433732313a20746f6b656e20616c7265616479206d696e7465640000000081525060200191505060405180910390fd5b612b6e6000838361367d565b612bbf81600160008573ffffffffffffffffffffffffffffffffffffffff1673ffffffffffffffffffffffffffffffffffffffff16815260200190815260200160002061368290919063ffffffff16565b50612bd68183600261369c9092919063ffffffff16565b50808273ffffffffffffffffffffffffffffffffffffffff16600073ffffffffffffffffffffffffffffffffffffffff167fddf252ad1be2c89b69c2b068fc378daa952ba7f163c4a11628f55a4df523b3ef60405160405180910390a45050565b600080828401905083811015612cb5576040517f08c379a000000000000000000000000000000000000000000000000000000000815260040180806020018281038252601b8152602001807f536166654d6174683a206164646974696f6e206f766572666c6f77000000000081525060200191505060405180910390fd5b8091505092915050565b6000612cca82612786565b612d1f576040517f08c379a000000000000000000000000000000000000000000000000000000000815260040180806020018281038252602c81526020018061454c602c913960400191505060405180910390fd5b6000612d2a836115fe565b90508073ffffffffffffffffffffffffffffffffffffffff168473ffffffffffffffffffffffffffffffffffffffff161480612d9957508373ffffffffffffffffffffffffffffffffffffffff16612d8184610fae565b73ffffffffffffffffffffffffffffffffffffffff16145b80612daa5750612da981856126e5565b5b91505092915050565b8273ffffffffffffffffffffffffffffffffffffffff16612dd3826115fe565b73ffffffffffffffffffffffffffffffffffffffff1614612e3f576040517f08c379a00000000000000000000000000000000000000000000000000000000081526004018080602001828103825260298152602001806146726029913960400191505060405180910390fd5b600073ffffffffffffffffffffffffffffffffffffffff168273ffffffffffffffffffffffffffffffffffffffff161415612ec5576040517f08c379a00000000000000000000000000000000000000000000000000000000081526004018080602001828103825260248152602001806145286024913960400191505060405180910390fd5b612ed083838361367d565b612edb6000826127ab565b612f2c81600160008673ffffffffffffffffffffffffffffffffffffffff1673ffffffffffffffffffffffffffffffffffffffff1681526020019081526020016000206136d190919063ffffffff16565b50612f7e81600160008573ffffffffffffffffffffffffffffffffffffffff1673ffffffffffffffffffffffffffffffffffffffff16815260200190815260200160002061368290919063ffffffff16565b50612f958183600261369c9092919063ffffffff16565b50808273ffffffffffffffffffffffffffffffffffffffff168473ffffffffffffffffffffffffffffffffffffffff167fddf252ad1be2c89b69c2b068fc378daa952ba7f163c4a11628f55a4df523b3ef60405160405180910390a4505050565b600061300583600001836136eb565b60001c905092915050565b600080600080613023866000018661376e565b915091508160001c8160001c8090509350935050509250929050565b6000613052846000018460001b84613807565b60001c90509392505050565b600061306c826000016138fd565b9050919050565b61307e848484612db3565b61308a8484848461390e565b6130df576040517f08c379a00000000000000000000000000000000000000000000000000000000081526004018080602001828103825260328152602001806144f66032913960400191505060405180910390fd5b50505050565b6060600082141561312d576040518060400160405280600181526020017f30000000000000000000000000000000000000000000000000000000000000008152509050613210565b600082905060005b60008214613157578080600101915050600a828161314f57fe5b049150613135565b6060816040519080825280601f01601f19166020018201604052801561318c5781602001600182028038833980820191505090505b50905060006001830390508593505b6000841461320857600a84816131ad57fe5b0660300160f81b828280600190039350815181106131c757fe5b60200101907effffffffffffffffffffffffffffffffffffffffffffffffffffffffffffff1916908160001a905350600a848161320057fe5b04935061319b565b819450505050505b919050565b6132fc846323b872dd60e01b858585604051602401808473ffffffffffffffffffffffffffffffffffffffff1673ffffffffffffffffffffffffffffffffffffffff1681526020018373ffffffffffffffffffffffffffffffffffffffff1673ffffffffffffffffffffffffffffffffffffffff1681526020018281526020019350505050604051602081830303815290604052907bffffffffffffffffffffffffffffffffffffffffffffffffffffffff19166020820180517bffffffffffffffffffffffffffffffffffffffffffffffffffffffff8381831617835250505050613b53565b50505050565b6000808314156133155760009050613382565b600082840290508284828161332657fe5b041461337d576040517f08c379a00000000000000000000000000000000000000000000000000000000081526004018080602001828103825260218152602001806146256021913960400191505060405180910390fd5b809150505b92915050565b60006133ca83836040518060400160405280601a81526020017f536166654d6174683a206469766973696f6e206279207a65726f000000000000815250613c42565b905092915050565b600080424433604051602001808481526020018381526020018273ffffffffffffffffffffffffffffffffffffffff1673ffffffffffffffffffffffffffffffffffffffff1660601b815260140193505050506040516020818303038152906040528051906020012060001c9050600061344e82612710613d08565b9050809250505090565b600061346a836000018360001b613dee565b905092915050565b600081600001805490509050919050565b600061348e826115fe565b905061349c8160008461367d565b6134a76000836127ab565b600060086000848152602001908152602001600020805460018160011615610100020316600290049050146134f6576008600083815260200190815260200160002060006134f59190614466565b5b61354782600160008473ffffffffffffffffffffffffffffffffffffffff1673ffffffffffffffffffffffffffffffffffffffff1681526020019081526020016000206136d190919063ffffffff16565b5061355c826002613e1190919063ffffffff16565b5081600073ffffffffffffffffffffffffffffffffffffffff168273ffffffffffffffffffffffffffffffffffffffff167fddf252ad1be2c89b69c2b068fc378daa952ba7f163c4a11628f55a4df523b3ef60405160405180910390a45050565b600083831115829061366a576040517f08c379a00000000000000000000000000000000000000000000000000000000081526004018080602001828103825283818151815260200191508051906020019080838360005b8381101561362f578082015181840152602081019050613614565b50505050905090810190601f16801561365c5780820380516001836020036101000a031916815260200191505b509250505060405180910390fd5b5060008385039050809150509392505050565b505050565b6000613694836000018360001b613e2b565b905092915050565b60006136c8846000018460001b8473ffffffffffffffffffffffffffffffffffffffff1660001b613e9b565b90509392505050565b60006136e3836000018360001b613f77565b905092915050565b60008183600001805490501161374c576040517f08c379a00000000000000000000000000000000000000000000000000000000081526004018080602001828103825260228152602001806144d46022913960400191505060405180910390fd5b82600001828154811061375b57fe5b9060005260206000200154905092915050565b600080828460000180549050116137d0576040517f08c379a00000000000000000000000000000000000000000000000000000000081526004018080602001828103825260228152602001806146036022913960400191505060405180910390fd5b60008460000184815481106137e157fe5b906000526020600020906002020190508060000154816001015492509250509250929050565b600080846001016000858152602001908152602001600020549050600081141583906138ce576040517f08c379a00000000000000000000000000000000000000000000000000000000081526004018080602001828103825283818151815260200191508051906020019080838360005b83811015613893578082015181840152602081019050613878565b50505050905090810190601f1680156138c05780820380516001836020036101000a031916815260200191505b509250505060405180910390fd5b508460000160018203815481106138e157fe5b9060005260206000209060020201600101549150509392505050565b600081600001805490509050919050565b600061392f8473ffffffffffffffffffffffffffffffffffffffff1661405f565b61393c5760019050613b4b565b6060613ad263150b7a0260e01b6139516127a3565b888787604051602401808573ffffffffffffffffffffffffffffffffffffffff1673ffffffffffffffffffffffffffffffffffffffff1681526020018473ffffffffffffffffffffffffffffffffffffffff1673ffffffffffffffffffffffffffffffffffffffff16815260200183815260200180602001828103825283818151815260200191508051906020019080838360005b83811015613a015780820151818401526020810190506139e6565b50505050905090810190601f168015613a2e5780820380516001836020036101000a031916815260200191505b5095505050505050604051602081830303815290604052907bffffffffffffffffffffffffffffffffffffffffffffffffffffffff19166020820180517bffffffffffffffffffffffffffffffffffffffffffffffffffffffff83818316178352505050506040518060600160405280603281526020016144f6603291398773ffffffffffffffffffffffffffffffffffffffff166140729092919063ffffffff16565b90506000818060200190516020811015613aeb57600080fd5b8101908080519060200190929190505050905063150b7a0260e01b7bffffffffffffffffffffffffffffffffffffffffffffffffffffffff1916817bffffffffffffffffffffffffffffffffffffffffffffffffffffffff191614925050505b949350505050565b6060613bb5826040518060400160405280602081526020017f5361666545524332303a206c6f772d6c6576656c2063616c6c206661696c65648152508573ffffffffffffffffffffffffffffffffffffffff166140729092919063ffffffff16565b9050600081511115613c3d57808060200190516020811015613bd657600080fd5b8101908080519060200190929190505050613c3c576040517f08c379a000000000000000000000000000000000000000000000000000000000815260040180806020018281038252602a81526020018061471c602a913960400191505060405180910390fd5b5b505050565b60008083118290613cee576040517f08c379a00000000000000000000000000000000000000000000000000000000081526004018080602001828103825283818151815260200191508051906020019080838360005b83811015613cb3578082015181840152602081019050613c98565b50505050905090810190601f168015613ce05780820380516001836020036101000a031916815260200191505b509250505060405180910390fd5b506000838581613cfa57fe5b049050809150509392505050565b6000808211613d7f576040517f08c379a00000000000000000000000000000000000000000000000000000000081526004018080602001828103825260158152602001807f556e69666f726d52616e642f6d696e2d626f756e64000000000000000000000081525060200191505060405180910390fd5b6000828360000381613d8d57fe5b06905060008490505b600115613dda57818110613da957613dda565b80604051602001808281526020019150506040516020818303038152906040528051906020012060001c9050613d96565b838181613de357fe5b069250505092915050565b600080836001016000848152602001908152602001600020541415905092915050565b6000613e23836000018360001b61408a565b905092915050565b6000613e3783836141a3565b613e90578260000182908060018154018082558091505060019003906000526020600020016000909190919091505582600001805490508360010160008481526020019081526020016000208190555060019050613e95565b600090505b92915050565b6000808460010160008581526020019081526020016000205490506000811415613f4257846000016040518060400160405280868152602001858152509080600181540180825580915050600190039060005260206000209060020201600090919091909150600082015181600001556020820151816001015550508460000180549050856001016000868152602001908152602001600020819055506001915050613f70565b82856000016001830381548110613f5557fe5b90600052602060002090600202016001018190555060009150505b9392505050565b600080836001016000848152602001908152602001600020549050600081146140535760006001820390506000600186600001805490500390506000866000018281548110613fc257fe5b9060005260206000200154905080876000018481548110613fdf57fe5b906000526020600020018190555060018301876001016000838152602001908152602001600020819055508660000180548061401757fe5b60019003818190600052602060002001600090559055866001016000878152602001908152602001600020600090556001945050505050614059565b60009150505b92915050565b600080823b905060008111915050919050565b606061408184846000856141c6565b90509392505050565b6000808360010160008481526020019081526020016000205490506000811461419757600060018203905060006001866000018054905003905060008660000182815481106140d557fe5b90600052602060002090600202019050808760000184815481106140f557fe5b906000526020600020906002020160008201548160000155600182015481600101559050506001830187600101600083600001548152602001908152602001600020819055508660000180548061414857fe5b600190038181906000526020600020906002020160008082016000905560018201600090555050905586600101600087815260200190815260200160002060009055600194505050505061419d565b60009150505b92915050565b600080836001016000848152602001908152602001600020541415905092915050565b60606141d18561405f565b614243576040517f08c379a000000000000000000000000000000000000000000000000000000000815260040180806020018281038252601d8152602001807f416464726573733a2063616c6c20746f206e6f6e2d636f6e747261637400000081525060200191505060405180910390fd5b600060608673ffffffffffffffffffffffffffffffffffffffff1685876040518082805190602001908083835b602083106142935780518252602082019150602081019050602083039250614270565b6001836020036101000a03801982511681845116808217855250505050505090500191505060006040518083038185875af1925050503d80600081146142f5576040519150601f19603f3d011682016040523d82523d6000602084013e6142fa565b606091505b5091509150811561430f5780925050506143c4565b6000815111156143225780518082602001fd5b836040517f08c379a00000000000000000000000000000000000000000000000000000000081526004018080602001828103825283818151815260200191508051906020019080838360005b8381101561438957808201518184015260208101905061436e565b50505050905090810190601f1680156143b65780820380516001836020036101000a031916815260200191505b509250505060405180910390fd5b949350505050565b828054600181600116156101000203166002900490600052602060002090601f016020900481019282601f1061440d57805160ff191683800117855561443b565b8280016001018555821561443b579182015b8281111561443a57825182559160200191906001019061441f565b5b50905061444891906144ae565b5090565b604051806040016040528060008152602001606081525090565b50805460018160011615610100020316600290046000825580601f1061448c57506144ab565b601f0160209004906000526020600020908101906144aa91906144ae565b5b50565b6144d091905b808211156144cc5760008160009055506001016144b4565b5090565b9056fe456e756d657261626c655365743a20696e646578206f7574206f6620626f756e64734552433732313a207472616e7366657220746f206e6f6e20455243373231526563656976657220696d706c656d656e7465724552433732313a207472616e7366657220746f20746865207a65726f20616464726573734552433732313a206f70657261746f7220717565727920666f72206e6f6e6578697374656e7420746f6b656e4552433732313a20617070726f76652063616c6c6572206973206e6f74206f776e6572206e6f7220617070726f76656420666f7220616c6c4552433732313a2062616c616e636520717565727920666f7220746865207a65726f20616464726573734552433732313a206f776e657220717565727920666f72206e6f6e6578697374656e7420746f6b656e456e756d657261626c654d61703a20696e646578206f7574206f6620626f756e6473536166654d6174683a206d756c7469706c69636174696f6e206f766572666c6f774552433732313a20617070726f76656420717565727920666f72206e6f6e6578697374656e7420746f6b656e4552433732313a207472616e73666572206f6620746f6b656e2074686174206973206e6f74206f776e4552433732314d657461646174613a2055524920717565727920666f72206e6f6e6578697374656e7420746f6b656e4552433732313a20617070726f76616c20746f2063757272656e74206f776e65724552433732313a207472616e736665722063616c6c6572206973206e6f74206f776e6572206e6f7220617070726f7665645361666545524332303a204552433230206f7065726174696f6e20646964206e6f742073756363656564a2646970667358221220f42456d43d96e7d97d260900d3c3401b9dec782a6905bd0476c809c7fca1f5e464736f6c63430006020033",
  "source": "pragma solidity ^0.6.0;\n\nimport \"@openzeppelin/contracts/math/Math.sol\";\nimport \"@openzeppelin/contracts/math/SafeMath.sol\";\nimport \"@openzeppelin/contracts/token/ERC20/IERC20.sol\";\nimport \"@openzeppelin/contracts/token/ERC20/SafeERC20.sol\";\nimport \"@openzeppelin/contracts/token/ERC721/ERC721.sol\";\nimport \"./rnd.sol\";\n\ncontract Fomo721 is ERC721 {\n    using SafeMath for uint256;\n\tusing SafeERC20 for IERC20;\n    \n\tuint256 constant public mintPieceFee = 100 * 1e18;\n\tIERC20 public FomoToken;\n\taddress public prizePool;\n\taddress constant public burnAddress = 0x00000000000000000000000000000000DeaDBeef;\n\t\n\tuint256 public fomo721Count;\n\tuint256 public fomo721PieceCount;\n\tuint256 public burnRatio = 500; // 50%\n\n\tuint256 public countdown = 1 hours;\n\tuint256 public lastMintTime;\n\taddress public lastMinter;\n\n\tbytes32 public _F; \n\tbytes32 public _o;\n\tbytes32 public _m;\n\tbytes32 public _7;\n\tbytes32 public _2;\n\tbytes32 public _1;\n    \n    struct Fomo721Token {\n        uint256 id;\n\t\tstring char; // Fomo721\n    }\n\tmapping(uint256 => Fomo721Token) tokens;\n    uint256 burnedCounter = 0;\n\n\tstruct Winner {\n\t\tuint256 timestamp;\n\t\tuint256 tokenId;\n\t\taddress owner;\n\t}\n\tWinner[] public winners;\n\n\taddress owner;\n    constructor(\n\t\tstring memory _name,\n\t\tstring memory _symbol,\n\t\taddress _fomotoken\n\t) ERC721(_name, _symbol) public {\n\t\towner = msg.sender;\n\t\tfomo721Count = 0;\n\t\tfomo721PieceCount = 0;\n\t\tFomoToken = IERC20(_fomotoken);\n\t\tprizePool = burnAddress;\n\n\t\t_F = keccak256(bytes(\"F\")); \n\t\t_o = keccak256(bytes(\"o\")); \n\t\t_m = keccak256(bytes(\"m\")); \n\t\t_7 = keccak256(bytes(\"7\")); \n\t\t_2 = keccak256(bytes(\"2\")); \n\t\t_1 = keccak256(bytes(\"1\")); \n\t}\n\n\tmodifier onlyOwner() {\n\t\trequire(msg.sender == owner);\n\t\t_;\n\t}\n\n\tmodifier onlyOnce() {\n\t\trequire(prizePool == burnAddress);\n\t\t_;\n\t}\n\n\tfunction setPrizePool(address _prizepool) external onlyOwner onlyOnce {\n\t\tprizePool = _prizepool;\n\t}\n    \n\tfunction getRandom() internal view returns (uint256) {\n\t\tuint256 seed = uint256(keccak256(abi.encodePacked(now, block.difficulty, msg.sender)));\n\t\tuint256 rnd = UniformRandomNumber.uniform(seed, 10000);\n\t\treturn rnd;\n\t}\n\n\tfunction getFomo721Count() external view returns (uint256) {\n\t\treturn fomo721Count;\n\t}\n\n\tfunction getFomo721PieceCount() external view returns (uint256) {\n\t\treturn fomo721PieceCount;\n\t}\n\n\tfunction mintFomo721Piece() external {\n\t\trequire(msg.sender == tx.origin);\n\t\tFomoToken.safeTransferFrom(msg.sender, address(this), mintPieceFee);\n\t\tFomoToken.safeTransferFrom(address(this), burnAddress, mintPieceFee.mul(burnRatio).div(1000));\n\t\tFomoToken.safeTransferFrom(address(this), prizePool, FomoToken.balanceOf(address(this)));\n\t\tuint256 rnd = getRandom();\n\t\tstring memory char;\n\t\tif (rnd >= 9990) {\n\t\t\t// 0.001\n\t\t\tchar = \"1\";\n\t\t} else if (rnd >= 9980) {\n\t\t\t// 0.002\n\t\t\tchar = \"2\";\n\t\t} else if (rnd >= 9930) {\n\t\t\t// 0.007\n\t\t\tchar = \"7\";\n\t\t} else if (rnd >= 9000) {\n\t\t\t// 0.1\n\t\t\tchar = \"o\";\n\t\t} else if (rnd >= 8000) {\n\t\t\t// 0.2\n\t\t\tchar = \"m\";\n\t\t} else if (rnd >= 4000) {\n\t\t\t// 0.6\n\t\t\tchar = \"o\";\n\t\t} else if (rnd >= 1000) {\n\t\t\t// 0.9\n\t\t\tchar = \"F\";\n\t\t} else {\n\t\t\tchar = \"Don't give up, bro!\";\n\t\t}\n\t\tuint256 tokenId = _getNextTokenId();\n\t\ttokens[tokenId] = Fomo721Token(tokenId, char);\n\t\tfomo721PieceCount += 1;\n\t\t_mint(msg.sender, tokenId);\n\n\t\tif(lastMintTime == 0) {\n\t\t\tlastMintTime = block.timestamp;\n\t\t\tlastMinter = msg.sender;\n\t\t} else {\n\t\t\tif(lastMintTime.add(countdown) < block.timestamp) {\n\t\t\t\ttokenId = _getNextTokenId();\n\t\t\t\ttokens[tokenId] = Fomo721Token(tokenId, \"Fomo721\");\n\t\t\t\t_mint(lastMinter, tokenId);\n\t\t\t\twinners.push(Winner(block.timestamp, tokenId, lastMinter));\n\n\t\t\t\tlastMinter = msg.sender;\n\t\t\t\tlastMintTime = block.timestamp;\n\t\t\t}\n\t\t}\n\t}\n\n\tfunction check(uint256 id, bytes32 v) internal view returns (bool) {\n\t\tFomo721Token memory token = tokens[id];\n\t\treturn ownerOf(id) == msg.sender && keccak256(bytes(token.char)) == v;\n\t}\n\n\tfunction burnIt(uint256 id) external {\n\t\trequire(ownerOf(id) == msg.sender);\n\t\t_burn(id);\n\t}\n\n\tfunction mintFomo721(uint256 id1, uint256 id2, uint256 id3, uint256 id4, uint256 id5, uint256 id6, uint256 id7) external {\n\t\trequire(check(id1, _F) && check(id2, _o) && check(id3, _m) && check(id4, _o) && check(id5, _7) && check(id6, _2) && check(id7, _1), \"check failed\");\n\t\t_burn(id1); _burn(id2); _burn(id3); _burn(id4); _burn(id5); _burn(id6); _burn(id7);\n\t\tfomo721PieceCount = fomo721PieceCount.sub(7);\n\t\tuint256 tokenId = _getNextTokenId();\n\t\ttokens[tokenId] = Fomo721Token(tokenId, \"Fomo721\");\n\t\t_mint(msg.sender, tokenId);\n\t\tfomo721Count = fomo721Count.add(1);\n\t}\n\n    function _getNextTokenId() private view returns (uint256) {\n        return totalSupply().add(1).add(burnedCounter);\n    }\n\n    function _burn(uint256 _tokenId) override internal {\n        super._burn(_tokenId);\n        burnedCounter++;\n    }\n\n    function tokensOfOwner(address _owner) external view returns(uint256[] memory ownerTokens) {\n        uint256 tokenCount = balanceOf(_owner);\n\n        if (tokenCount == 0) {\n            return new uint256[](0);\n        } else {\n            uint256[] memory result = new uint256[](tokenCount);\n            uint256 resultIndex = 0;\n            uint256 _tokenIdx;\n            for (_tokenIdx = 0; _tokenIdx < tokenCount; _tokenIdx++) {\n                result[resultIndex] = tokenOfOwnerByIndex(_owner, _tokenIdx);\n                resultIndex++;\n            }\n            return result;\n        }\n    }\n}\n",
  "sourcePath": "/Users/cyan/Desktop/projects/defi/nifty.fi/fomo721/contracts/fomo721.sol",
  "compiler": {
    "name": "solc",
    "version": "0.6.2+commit.bacdbe57.Emscripten.clang"
  },
  "schemaVersion": "3.2.5",
  "updatedAt": "2020-09-12T05:51:16.226Z",
  "devdoc": {
    "methods": {
      "approve(address,uint256)": {
        "details": "See {IERC721-approve}."
      },
      "balanceOf(address)": {
        "details": "See {IERC721-balanceOf}."
      },
      "baseURI()": {
        "details": "Returns the base URI set via {_setBaseURI}. This will be automatically added as a prefix in {tokenURI} to each token's URI, or to the token ID if no specific URI is set for that token ID."
      },
      "getApproved(uint256)": {
        "details": "See {IERC721-getApproved}."
      },
      "isApprovedForAll(address,address)": {
        "details": "See {IERC721-isApprovedForAll}."
      },
      "name()": {
        "details": "See {IERC721Metadata-name}."
      },
      "ownerOf(uint256)": {
        "details": "See {IERC721-ownerOf}."
      },
      "safeTransferFrom(address,address,uint256)": {
        "details": "See {IERC721-safeTransferFrom}."
      },
      "safeTransferFrom(address,address,uint256,bytes)": {
        "details": "See {IERC721-safeTransferFrom}."
      },
      "setApprovalForAll(address,bool)": {
        "details": "See {IERC721-setApprovalForAll}."
      },
      "supportsInterface(bytes4)": {
        "details": "See {IERC165-supportsInterface}.     * Time complexity O(1), guaranteed to always use less than 30 000 gas."
      },
      "symbol()": {
        "details": "See {IERC721Metadata-symbol}."
      },
      "tokenByIndex(uint256)": {
        "details": "See {IERC721Enumerable-tokenByIndex}."
      },
      "tokenOfOwnerByIndex(address,uint256)": {
        "details": "See {IERC721Enumerable-tokenOfOwnerByIndex}."
      },
      "tokenURI(uint256)": {
        "details": "See {IERC721Metadata-tokenURI}."
      },
      "totalSupply()": {
        "details": "See {IERC721Enumerable-totalSupply}."
      },
      "transferFrom(address,address,uint256)": {
        "details": "See {IERC721-transferFrom}."
      }
    }
  },
  "userdoc": {
    "methods": {}
  }
}