{
  "contractName": "Fomo721",
  "abi": [
    {
      "inputs": [
        {
          "internalType": "string",
          "name": "_name",
          "type": "string"
        },
        {
          "internalType": "string",
          "name": "_symbol",
          "type": "string"
        }
      ],
      "stateMutability": "nonpayable",
      "type": "constructor"
    },
    {
      "anonymous": false,
      "inputs": [
        {
          "indexed": true,
          "internalType": "address",
          "name": "owner",
          "type": "address"
        },
        {
          "indexed": true,
          "internalType": "address",
          "name": "approved",
          "type": "address"
        },
        {
          "indexed": true,
          "internalType": "uint256",
          "name": "tokenId",
          "type": "uint256"
        }
      ],
      "name": "Approval",
      "type": "event"
    },
    {
      "anonymous": false,
      "inputs": [
        {
          "indexed": true,
          "internalType": "address",
          "name": "owner",
          "type": "address"
        },
        {
          "indexed": true,
          "internalType": "address",
          "name": "operator",
          "type": "address"
        },
        {
          "indexed": false,
          "internalType": "bool",
          "name": "approved",
          "type": "bool"
        }
      ],
      "name": "ApprovalForAll",
      "type": "event"
    },
    {
      "anonymous": false,
      "inputs": [
        {
          "indexed": true,
          "internalType": "address",
          "name": "from",
          "type": "address"
        },
        {
          "indexed": true,
          "internalType": "address",
          "name": "to",
          "type": "address"
        },
        {
          "indexed": true,
          "internalType": "uint256",
          "name": "tokenId",
          "type": "uint256"
        }
      ],
      "name": "Transfer",
      "type": "event"
    },
    {
      "inputs": [],
      "name": "FomoToken",
      "outputs": [
        {
          "internalType": "contract IERC20",
          "name": "",
          "type": "address"
        }
      ],
      "stateMutability": "view",
      "type": "function"
    },
    {
      "inputs": [],
      "name": "_1",
      "outputs": [
        {
          "internalType": "bytes32",
          "name": "",
          "type": "bytes32"
        }
      ],
      "stateMutability": "view",
      "type": "function"
    },
    {
      "inputs": [],
      "name": "_2",
      "outputs": [
        {
          "internalType": "bytes32",
          "name": "",
          "type": "bytes32"
        }
      ],
      "stateMutability": "view",
      "type": "function"
    },
    {
      "inputs": [],
      "name": "_7",
      "outputs": [
        {
          "internalType": "bytes32",
          "name": "",
          "type": "bytes32"
        }
      ],
      "stateMutability": "view",
      "type": "function"
    },
    {
      "inputs": [],
      "name": "_F",
      "outputs": [
        {
          "internalType": "bytes32",
          "name": "",
          "type": "bytes32"
        }
      ],
      "stateMutability": "view",
      "type": "function"
    },
    {
      "inputs": [],
      "name": "_m",
      "outputs": [
        {
          "internalType": "bytes32",
          "name": "",
          "type": "bytes32"
        }
      ],
      "stateMutability": "view",
      "type": "function"
    },
    {
      "inputs": [],
      "name": "_o",
      "outputs": [
        {
          "internalType": "bytes32",
          "name": "",
          "type": "bytes32"
        }
      ],
      "stateMutability": "view",
      "type": "function"
    },
    {
      "inputs": [
        {
          "internalType": "address",
          "name": "to",
          "type": "address"
        },
        {
          "internalType": "uint256",
          "name": "tokenId",
          "type": "uint256"
        }
      ],
      "name": "approve",
      "outputs": [],
      "stateMutability": "nonpayable",
      "type": "function"
    },
    {
      "inputs": [
        {
          "internalType": "address",
          "name": "owner",
          "type": "address"
        }
      ],
      "name": "balanceOf",
      "outputs": [
        {
          "internalType": "uint256",
          "name": "",
          "type": "uint256"
        }
      ],
      "stateMutability": "view",
      "type": "function"
    },
    {
      "inputs": [],
      "name": "baseURI",
      "outputs": [
        {
          "internalType": "string",
          "name": "",
          "type": "string"
        }
      ],
      "stateMutability": "view",
      "type": "function"
    },
    {
      "inputs": [],
      "name": "burnAddress",
      "outputs": [
        {
          "internalType": "address",
          "name": "",
          "type": "address"
        }
      ],
      "stateMutability": "view",
      "type": "function"
    },
    {
      "inputs": [],
      "name": "fomo721Count",
      "outputs": [
        {
          "internalType": "uint256",
          "name": "",
          "type": "uint256"
        }
      ],
      "stateMutability": "view",
      "type": "function"
    },
    {
      "inputs": [],
      "name": "fomo721PieceCount",
      "outputs": [
        {
          "internalType": "uint256",
          "name": "",
          "type": "uint256"
        }
      ],
      "stateMutability": "view",
      "type": "function"
    },
    {
      "inputs": [
        {
          "internalType": "uint256",
          "name": "tokenId",
          "type": "uint256"
        }
      ],
      "name": "getApproved",
      "outputs": [
        {
          "internalType": "address",
          "name": "",
          "type": "address"
        }
      ],
      "stateMutability": "view",
      "type": "function"
    },
    {
      "inputs": [
        {
          "internalType": "address",
          "name": "owner",
          "type": "address"
        },
        {
          "internalType": "address",
          "name": "operator",
          "type": "address"
        }
      ],
      "name": "isApprovedForAll",
      "outputs": [
        {
          "internalType": "bool",
          "name": "",
          "type": "bool"
        }
      ],
      "stateMutability": "view",
      "type": "function"
    },
    {
      "inputs": [],
      "name": "mintPieceFee",
      "outputs": [
        {
          "internalType": "uint256",
          "name": "",
          "type": "uint256"
        }
      ],
      "stateMutability": "view",
      "type": "function"
    },
    {
      "inputs": [],
      "name": "name",
      "outputs": [
        {
          "internalType": "string",
          "name": "",
          "type": "string"
        }
      ],
      "stateMutability": "view",
      "type": "function"
    },
    {
      "inputs": [
        {
          "internalType": "uint256",
          "name": "tokenId",
          "type": "uint256"
        }
      ],
      "name": "ownerOf",
      "outputs": [
        {
          "internalType": "address",
          "name": "",
          "type": "address"
        }
      ],
      "stateMutability": "view",
      "type": "function"
    },
    {
      "inputs": [
        {
          "internalType": "address",
          "name": "from",
          "type": "address"
        },
        {
          "internalType": "address",
          "name": "to",
          "type": "address"
        },
        {
          "internalType": "uint256",
          "name": "tokenId",
          "type": "uint256"
        }
      ],
      "name": "safeTransferFrom",
      "outputs": [],
      "stateMutability": "nonpayable",
      "type": "function"
    },
    {
      "inputs": [
        {
          "internalType": "address",
          "name": "from",
          "type": "address"
        },
        {
          "internalType": "address",
          "name": "to",
          "type": "address"
        },
        {
          "internalType": "uint256",
          "name": "tokenId",
          "type": "uint256"
        },
        {
          "internalType": "bytes",
          "name": "_data",
          "type": "bytes"
        }
      ],
      "name": "safeTransferFrom",
      "outputs": [],
      "stateMutability": "nonpayable",
      "type": "function"
    },
    {
      "inputs": [
        {
          "internalType": "address",
          "name": "operator",
          "type": "address"
        },
        {
          "internalType": "bool",
          "name": "approved",
          "type": "bool"
        }
      ],
      "name": "setApprovalForAll",
      "outputs": [],
      "stateMutability": "nonpayable",
      "type": "function"
    },
    {
      "inputs": [
        {
          "internalType": "bytes4",
          "name": "interfaceId",
          "type": "bytes4"
        }
      ],
      "name": "supportsInterface",
      "outputs": [
        {
          "internalType": "bool",
          "name": "",
          "type": "bool"
        }
      ],
      "stateMutability": "view",
      "type": "function"
    },
    {
      "inputs": [],
      "name": "symbol",
      "outputs": [
        {
          "internalType": "string",
          "name": "",
          "type": "string"
        }
      ],
      "stateMutability": "view",
      "type": "function"
    },
    {
      "inputs": [
        {
          "internalType": "uint256",
          "name": "index",
          "type": "uint256"
        }
      ],
      "name": "tokenByIndex",
      "outputs": [
        {
          "internalType": "uint256",
          "name": "",
          "type": "uint256"
        }
      ],
      "stateMutability": "view",
      "type": "function"
    },
    {
      "inputs": [
        {
          "internalType": "address",
          "name": "owner",
          "type": "address"
        },
        {
          "internalType": "uint256",
          "name": "index",
          "type": "uint256"
        }
      ],
      "name": "tokenOfOwnerByIndex",
      "outputs": [
        {
          "internalType": "uint256",
          "name": "",
          "type": "uint256"
        }
      ],
      "stateMutability": "view",
      "type": "function"
    },
    {
      "inputs": [
        {
          "internalType": "uint256",
          "name": "tokenId",
          "type": "uint256"
        }
      ],
      "name": "tokenURI",
      "outputs": [
        {
          "internalType": "string",
          "name": "",
          "type": "string"
        }
      ],
      "stateMutability": "view",
      "type": "function"
    },
    {
      "inputs": [],
      "name": "totalSupply",
      "outputs": [
        {
          "internalType": "uint256",
          "name": "",
          "type": "uint256"
        }
      ],
      "stateMutability": "view",
      "type": "function"
    },
    {
      "inputs": [
        {
          "internalType": "address",
          "name": "from",
          "type": "address"
        },
        {
          "internalType": "address",
          "name": "to",
          "type": "address"
        },
        {
          "internalType": "uint256",
          "name": "tokenId",
          "type": "uint256"
        }
      ],
      "name": "transferFrom",
      "outputs": [],
      "stateMutability": "nonpayable",
      "type": "function"
    },
    {
      "inputs": [],
      "name": "getFomo721Count",
      "outputs": [
        {
          "internalType": "uint256",
          "name": "",
          "type": "uint256"
        }
      ],
      "stateMutability": "view",
      "type": "function"
    },
    {
      "inputs": [],
      "name": "getFomo721PieceCount",
      "outputs": [
        {
          "internalType": "uint256",
          "name": "",
          "type": "uint256"
        }
      ],
      "stateMutability": "view",
      "type": "function"
    },
    {
      "inputs": [],
      "name": "mintFomo721Piece",
      "outputs": [],
      "stateMutability": "nonpayable",
      "type": "function"
    },
    {
      "inputs": [
        {
          "internalType": "uint256",
          "name": "id",
          "type": "uint256"
        }
      ],
      "name": "burnIt",
      "outputs": [],
      "stateMutability": "nonpayable",
      "type": "function"
    },
    {
      "inputs": [
        {
          "internalType": "uint256",
          "name": "id1",
          "type": "uint256"
        },
        {
          "internalType": "uint256",
          "name": "id2",
          "type": "uint256"
        },
        {
          "internalType": "uint256",
          "name": "id3",
          "type": "uint256"
        },
        {
          "internalType": "uint256",
          "name": "id4",
          "type": "uint256"
        },
        {
          "internalType": "uint256",
          "name": "id5",
          "type": "uint256"
        },
        {
          "internalType": "uint256",
          "name": "id6",
          "type": "uint256"
        },
        {
          "internalType": "uint256",
          "name": "id7",
          "type": "uint256"
        }
      ],
      "name": "mintFomo721",
      "outputs": [],
      "stateMutability": "nonpayable",
      "type": "function"
    },
    {
      "inputs": [
        {
          "internalType": "address",
          "name": "_owner",
          "type": "address"
        }
      ],
      "name": "tokensOfOwner",
      "outputs": [
        {
          "internalType": "uint256[]",
          "name": "ownerTokens",
          "type": "uint256[]"
        }
      ],
      "stateMutability": "view",
      "type": "function"
    }
  ],
  "bytecode": "0x608060405260006013553480156200001657600080fd5b506040516200437c3803806200437c833981810160405260408110156200003c57600080fd5b81019080805160405193929190846401000000008211156200005d57600080fd5b838201915060208201858111156200007457600080fd5b82518660018202830111640100000000821117156200009257600080fd5b8083526020830192505050908051906020019080838360005b83811015620000c8578082015181840152602081019050620000ab565b50505050905090810190601f168015620000f65780820380516001836020036101000a031916815260200191505b50604052602001805160405193929190846401000000008211156200011a57600080fd5b838201915060208201858111156200013157600080fd5b82518660018202830111640100000000821117156200014f57600080fd5b8083526020830192505050908051906020019080838360005b838110156200018557808201518184015260208101905062000168565b50505050905090810190601f168015620001b35780820380516001836020036101000a031916815260200191505b506040525050508181620001d46301ffc9a760e01b620003fa60201b60201c565b8160069080519060200190620001ec92919062000503565b5080600790805190602001906200020592919062000503565b506200021e6380ac58cd60e01b620003fa60201b60201c565b62000236635b5e139f60e01b620003fa60201b60201c565b6200024e63780e9d6360e01b620003fa60201b60201c565b50506000600a819055506000600b819055506040518060400160405280600181526020017f460000000000000000000000000000000000000000000000000000000000000081525080519060200120600c819055506040518060400160405280600181526020017f6f0000000000000000000000000000000000000000000000000000000000000081525080519060200120600d819055506040518060400160405280600181526020017f6d0000000000000000000000000000000000000000000000000000000000000081525080519060200120600e819055506040518060400160405280600181526020017f370000000000000000000000000000000000000000000000000000000000000081525080519060200120600f819055506040518060400160405280600181526020017f3200000000000000000000000000000000000000000000000000000000000000815250805190602001206010819055506040518060400160405280600181526020017f3100000000000000000000000000000000000000000000000000000000000000815250805190602001206011819055505050620005b2565b63ffffffff60e01b817bffffffffffffffffffffffffffffffffffffffffffffffffffffffff1916141562000497576040517f08c379a000000000000000000000000000000000000000000000000000000000815260040180806020018281038252601c8152602001807f4552433136353a20696e76616c696420696e746572666163652069640000000081525060200191505060405180910390fd5b6001600080837bffffffffffffffffffffffffffffffffffffffffffffffffffffffff19167bffffffffffffffffffffffffffffffffffffffffffffffffffffffff1916815260200190815260200160002060006101000a81548160ff02191690831515021790555050565b828054600181600116156101000203166002900490600052602060002090601f016020900481019282601f106200054657805160ff191683800117855562000577565b8280016001018555821562000577579182015b828111156200057657825182559160200191906001019062000559565b5b5090506200058691906200058a565b5090565b620005af91905b80821115620005ab57600081600090555060010162000591565b5090565b90565b613dba80620005c26000396000f3fe608060405234801561001057600080fd5b50600436106102065760003560e01c80638462151c1161011a578063ac7fd488116100ad578063c87b56dd1161007c578063c87b56dd14610b41578063cf92fc2114610be8578063e300aa5414610bf2578063e985e9c514610c10578063fb2542f414610c8c57610206565b8063ac7fd488146109e2578063ad94f8bc14610a00578063b88d4fde14610a1e578063bf70931214610b2357610206565b8063a11f8de4116100e9578063a11f8de4146108fc578063a22cb46514610946578063a5e9da1014610996578063a69e752f146109c457610206565b80638462151c146107a457806384aa29d01461083d578063904342881461085b57806395d89b411461087957610206565b806325e0510f1161019d5780636352211e1161016c5780636352211e146105f357806369649820146106615780636c0360eb1461067f57806370a082311461070257806370d5ae051461075a57610206565b806325e0510f146104c35780632f745c59146104e157806342842e0e146105435780634f6ccce7146105b157610206565b806318160ddd116101d957806318160ddd146103af57806318ce47cc146103cd57806319768826146103eb57806323b872dd1461045557610206565b806301ffc9a71461020b57806306fdde0314610270578063081812fc146102f3578063095ea7b314610361575b600080fd5b6102566004803603602081101561022157600080fd5b8101908080357bffffffffffffffffffffffffffffffffffffffffffffffffffffffff19169060200190929190505050610caa565b604051808215151515815260200191505060405180910390f35b610278610d11565b6040518080602001828103825283818151815260200191508051906020019080838360005b838110156102b857808201518184015260208101905061029d565b50505050905090810190601f1680156102e55780820380516001836020036101000a031916815260200191505b509250505060405180910390f35b61031f6004803603602081101561030957600080fd5b8101908080359060200190929190505050610db3565b604051808273ffffffffffffffffffffffffffffffffffffffff1673ffffffffffffffffffffffffffffffffffffffff16815260200191505060405180910390f35b6103ad6004803603604081101561037757600080fd5b81019080803573ffffffffffffffffffffffffffffffffffffffff16906020019092919080359060200190929190505050610e4e565b005b6103b7610f92565b6040518082815260200191505060405180910390f35b6103d5610fa3565b6040518082815260200191505060405180910390f35b610453600480360360e081101561040157600080fd5b8101908080359060200190929190803590602001909291908035906020019092919080359060200190929190803590602001909291908035906020019092919080359060200190929190505050610fa9565b005b6104c16004803603606081101561046b57600080fd5b81019080803573ffffffffffffffffffffffffffffffffffffffff169060200190929190803573ffffffffffffffffffffffffffffffffffffffff169060200190929190803590602001909291905050506111bd565b005b6104cb611233565b6040518082815260200191505060405180910390f35b61052d600480360360408110156104f757600080fd5b81019080803573ffffffffffffffffffffffffffffffffffffffff1690602001909291908035906020019092919050505061123d565b6040518082815260200191505060405180910390f35b6105af6004803603606081101561055957600080fd5b81019080803573ffffffffffffffffffffffffffffffffffffffff169060200190929190803573ffffffffffffffffffffffffffffffffffffffff16906020019092919080359060200190929190505050611298565b005b6105dd600480360360208110156105c757600080fd5b81019080803590602001909291905050506112b8565b6040518082815260200191505060405180910390f35b61061f6004803603602081101561060957600080fd5b81019080803590602001909291905050506112db565b604051808273ffffffffffffffffffffffffffffffffffffffff1673ffffffffffffffffffffffffffffffffffffffff16815260200191505060405180910390f35b610669611312565b6040518082815260200191505060405180910390f35b610687611318565b6040518080602001828103825283818151815260200191508051906020019080838360005b838110156106c75780820151818401526020810190506106ac565b50505050905090810190601f1680156106f45780820380516001836020036101000a031916815260200191505b509250505060405180910390f35b6107446004803603602081101561071857600080fd5b81019080803573ffffffffffffffffffffffffffffffffffffffff1690602001909291905050506113ba565b6040518082815260200191505060405180910390f35b61076261148f565b604051808273ffffffffffffffffffffffffffffffffffffffff1673ffffffffffffffffffffffffffffffffffffffff16815260200191505060405180910390f35b6107e6600480360360208110156107ba57600080fd5b81019080803573ffffffffffffffffffffffffffffffffffffffff169060200190929190505050611497565b6040518080602001828103825283818151815260200191508051906020019060200280838360005b8381101561082957808201518184015260208101905061080e565b505050509050019250505060405180910390f35b610845611573565b6040518082815260200191505060405180910390f35b61086361157d565b6040518082815260200191505060405180910390f35b610881611583565b6040518080602001828103825283818151815260200191508051906020019080838360005b838110156108c15780820151818401526020810190506108a6565b50505050905090810190601f1680156108ee5780820380516001836020036101000a031916815260200191505b509250505060405180910390f35b610904611625565b604051808273ffffffffffffffffffffffffffffffffffffffff1673ffffffffffffffffffffffffffffffffffffffff16815260200191505060405180910390f35b6109946004803603604081101561095c57600080fd5b81019080803573ffffffffffffffffffffffffffffffffffffffff16906020019092919080351515906020019092919050505061162d565b005b6109c2600480360360208110156109ac57600080fd5b81019080803590602001909291905050506117e5565b005b6109cc611831565b6040518082815260200191505060405180910390f35b6109ea611837565b6040518082815260200191505060405180910390f35b610a0861183d565b6040518082815260200191505060405180910390f35b610b2160048036036080811015610a3457600080fd5b81019080803573ffffffffffffffffffffffffffffffffffffffff169060200190929190803573ffffffffffffffffffffffffffffffffffffffff1690602001909291908035906020019092919080359060200190640100000000811115610a9b57600080fd5b820183602082011115610aad57600080fd5b80359060200191846001830284011164010000000083111715610acf57600080fd5b91908080601f016020809104026020016040519081016040528093929190818152602001838380828437600081840152601f19601f820116905080830192505050505050509192919290505050611843565b005b610b2b6118bb565b6040518082815260200191505060405180910390f35b610b6d60048036036020811015610b5757600080fd5b81019080803590602001909291905050506118c1565b6040518080602001828103825283818151815260200191508051906020019080838360005b83811015610bad578082015181840152602081019050610b92565b50505050905090810190601f168015610bda5780820380516001836020036101000a031916815260200191505b509250505060405180910390f35b610bf0611baa565b005b610bfa611ed5565b6040518082815260200191505060405180910390f35b610c7260048036036040811015610c2657600080fd5b81019080803573ffffffffffffffffffffffffffffffffffffffff169060200190929190803573ffffffffffffffffffffffffffffffffffffffff169060200190929190505050611edb565b604051808215151515815260200191505060405180910390f35b610c94611f6f565b6040518082815260200191505060405180910390f35b6000806000837bffffffffffffffffffffffffffffffffffffffffffffffffffffffff19167bffffffffffffffffffffffffffffffffffffffffffffffffffffffff1916815260200190815260200160002060009054906101000a900460ff169050919050565b606060068054600181600116156101000203166002900480601f016020809104026020016040519081016040528092919081815260200182805460018160011615610100020316600290048015610da95780601f10610d7e57610100808354040283529160200191610da9565b820191906000526020600020905b815481529060010190602001808311610d8c57829003601f168201915b5050505050905090565b6000610dbe82611f7c565b610e13576040517f08c379a000000000000000000000000000000000000000000000000000000000815260040180806020018281038252602c815260200180613c85602c913960400191505060405180910390fd5b6004600083815260200190815260200160002060009054906101000a900473ffffffffffffffffffffffffffffffffffffffff169050919050565b6000610e59826112db565b90508073ffffffffffffffffffffffffffffffffffffffff168373ffffffffffffffffffffffffffffffffffffffff161415610ee0576040517f08c379a0000000000000000000000000000000000000000000000000000000008152600401808060200182810382526021815260200180613d096021913960400191505060405180910390fd5b8073ffffffffffffffffffffffffffffffffffffffff16610eff611f99565b73ffffffffffffffffffffffffffffffffffffffff161480610f2e5750610f2d81610f28611f99565b611edb565b5b610f83576040517f08c379a0000000000000000000000000000000000000000000000000000000008152600401808060200182810382526038815260200180613bd86038913960400191505060405180910390fd5b610f8d8383611fa1565b505050565b6000610f9e600261205a565b905090565b600a5481565b610fb587600c5461206f565b8015610fc95750610fc886600d5461206f565b5b8015610fdd5750610fdc85600e5461206f565b5b8015610ff15750610ff084600d5461206f565b5b8015611005575061100483600f5461206f565b5b801561101957506110188260105461206f565b5b801561102d575061102c8160115461206f565b5b61109f576040517f08c379a000000000000000000000000000000000000000000000000000000000815260040180806020018281038252600c8152602001807f636865636b206661696c6564000000000000000000000000000000000000000081525060200191505060405180910390fd5b6110a88761219b565b6110b18661219b565b6110ba8561219b565b6110c38461219b565b6110cc8361219b565b6110d58261219b565b6110de8161219b565b6110f46007600b546121b990919063ffffffff16565b600b819055506000611104612203565b905060405180604001604052808281526020016040518060400160405280600781526020017f466f6d6f3732310000000000000000000000000000000000000000000000000081525081525060126000838152602001908152602001600020600082015181600001556020820151816001019080519060200190611189929190613a2c565b509050506111973382612239565b6111ad6001600a5461242d90919063ffffffff16565b600a819055505050505050505050565b6111ce6111c8611f99565b826124b5565b611223576040517f08c379a0000000000000000000000000000000000000000000000000000000008152600401808060200182810382526031815260200180613d2a6031913960400191505060405180910390fd5b61122e8383836125a9565b505050565b6000600b54905090565b600061129082600160008673ffffffffffffffffffffffffffffffffffffffff1673ffffffffffffffffffffffffffffffffffffffff1681526020019081526020016000206127ec90919063ffffffff16565b905092915050565b6112b383838360405180602001604052806000815250611843565b505050565b6000806112cf83600261280690919063ffffffff16565b50905080915050919050565b600061130b82604051806060016040528060298152602001613c3a6029913960026128359092919063ffffffff16565b9050919050565b600e5481565b606060098054600181600116156101000203166002900480601f0160208091040260200160405190810160405280929190818152602001828054600181600116156101000203166002900480156113b05780601f10611385576101008083540402835291602001916113b0565b820191906000526020600020905b81548152906001019060200180831161139357829003601f168201915b5050505050905090565b60008073ffffffffffffffffffffffffffffffffffffffff168273ffffffffffffffffffffffffffffffffffffffff161415611441576040517f08c379a000000000000000000000000000000000000000000000000000000000815260040180806020018281038252602a815260200180613c10602a913960400191505060405180910390fd5b611488600160008473ffffffffffffffffffffffffffffffffffffffff1673ffffffffffffffffffffffffffffffffffffffff168152602001908152602001600020612854565b9050919050565b63deadbeef81565b606060006114a4836113ba565b905060008114156114e85760006040519080825280602002602001820160405280156114df5781602001602082028038833980820191505090505b5091505061156e565b6060816040519080825280602002602001820160405280156115195781602001602082028038833980820191505090505b509050600080905060008090505b8381101561156657611539868261123d565b83838151811061154557fe5b60200260200101818152505081806001019250508080600101915050611527565b829450505050505b919050565b6000600a54905090565b600b5481565b606060078054600181600116156101000203166002900480601f01602080910402602001604051908101604052809291908181526020018280546001816001161561010002031660029004801561161b5780601f106115f05761010080835404028352916020019161161b565b820191906000526020600020905b8154815290600101906020018083116115fe57829003601f168201915b5050505050905090565b63deadbeef81565b611635611f99565b73ffffffffffffffffffffffffffffffffffffffff168273ffffffffffffffffffffffffffffffffffffffff1614156116d6576040517f08c379a00000000000000000000000000000000000000000000000000000000081526004018080602001828103825260198152602001807f4552433732313a20617070726f766520746f2063616c6c65720000000000000081525060200191505060405180910390fd5b80600560006116e3611f99565b73ffffffffffffffffffffffffffffffffffffffff1673ffffffffffffffffffffffffffffffffffffffff16815260200190815260200160002060008473ffffffffffffffffffffffffffffffffffffffff1673ffffffffffffffffffffffffffffffffffffffff16815260200190815260200160002060006101000a81548160ff0219169083151502179055508173ffffffffffffffffffffffffffffffffffffffff16611790611f99565b73ffffffffffffffffffffffffffffffffffffffff167f17307eab39ab6107e8899845ad3d59bd9653f200f220920489ca2b5937696c3183604051808215151515815260200191505060405180910390a35050565b3373ffffffffffffffffffffffffffffffffffffffff16611805826112db565b73ffffffffffffffffffffffffffffffffffffffff161461182557600080fd5b61182e8161219b565b50565b600c5481565b60105481565b60115481565b61185461184e611f99565b836124b5565b6118a9576040517f08c379a0000000000000000000000000000000000000000000000000000000008152600401808060200182810382526031815260200180613d2a6031913960400191505060405180910390fd5b6118b584848484612869565b50505050565b600f5481565b60606118cc82611f7c565b611921576040517f08c379a000000000000000000000000000000000000000000000000000000000815260040180806020018281038252602f815260200180613cda602f913960400191505060405180910390fd5b6060600860008481526020019081526020016000208054600181600116156101000203166002900480601f0160208091040260200160405190810160405280929190818152602001828054600181600116156101000203166002900480156119ca5780601f1061199f576101008083540402835291602001916119ca565b820191906000526020600020905b8154815290600101906020018083116119ad57829003601f168201915b505050505090506000600980546001816001161561010002031660029004905014156119f95780915050611ba5565b600081511115611ad2576009816040516020018083805460018160011615610100020316600290048015611a645780601f10611a42576101008083540402835291820191611a64565b820191906000526020600020905b815481529060010190602001808311611a50575b505082805190602001908083835b60208310611a955780518252602082019150602081019050602083039250611a72565b6001836020036101000a03801982511681845116808217855250505050505090500192505050604051602081830303815290604052915050611ba5565b6009611add846128db565b6040516020018083805460018160011615610100020316600290048015611b3b5780601f10611b19576101008083540402835291820191611b3b565b820191906000526020600020905b815481529060010190602001808311611b27575b505082805190602001908083835b60208310611b6c5780518252602082019150602081019050602083039250611b49565b6001836020036101000a038019825116818451168082178552505050505050905001925050506040516020818303038152906040529150505b919050565b3273ffffffffffffffffffffffffffffffffffffffff163373ffffffffffffffffffffffffffffffffffffffff1614611be257600080fd5b611c203363deadbeef68056bc75e2d6310000063deadbeef73ffffffffffffffffffffffffffffffffffffffff16612a0b909392919063ffffffff16565b6000611c2a612af8565b905060606127068210611c74576040518060400160405280600181526020017f31000000000000000000000000000000000000000000000000000000000000008152509050611e57565b6126fc8210611cba576040518060400160405280600181526020017f32000000000000000000000000000000000000000000000000000000000000008152509050611e56565b6126ca8210611d00576040518060400160405280600181526020017f37000000000000000000000000000000000000000000000000000000000000008152509050611e55565b6123288210611d46576040518060400160405280600181526020017f6f000000000000000000000000000000000000000000000000000000000000008152509050611e54565b611f408210611d8c576040518060400160405280600181526020017f6d000000000000000000000000000000000000000000000000000000000000008152509050611e53565b610fa08210611dd2576040518060400160405280600181526020017f6f000000000000000000000000000000000000000000000000000000000000008152509050611e52565b6103e88210611e18576040518060400160405280600181526020017f46000000000000000000000000000000000000000000000000000000000000008152509050611e51565b6040518060400160405280601381526020017f446f6e277420676976652075702c2062726f210000000000000000000000000081525090505b5b5b5b5b5b5b6000611e61612203565b905060405180604001604052808281526020018381525060126000838152602001908152602001600020600082015181600001556020820151816001019080519060200190611eb1929190613a2c565b509050506001600b60008282540192505081905550611ed03382612239565b505050565b600d5481565b6000600560008473ffffffffffffffffffffffffffffffffffffffff1673ffffffffffffffffffffffffffffffffffffffff16815260200190815260200160002060008373ffffffffffffffffffffffffffffffffffffffff1673ffffffffffffffffffffffffffffffffffffffff16815260200190815260200160002060009054906101000a900460ff16905092915050565b68056bc75e2d6310000081565b6000611f92826002612b7e90919063ffffffff16565b9050919050565b600033905090565b816004600083815260200190815260200160002060006101000a81548173ffffffffffffffffffffffffffffffffffffffff021916908373ffffffffffffffffffffffffffffffffffffffff160217905550808273ffffffffffffffffffffffffffffffffffffffff16612014836112db565b73ffffffffffffffffffffffffffffffffffffffff167f8c5be1e5ebec7d5bd14f71427d1e84f3dd0314c0f7b2291e5b200ac8c7c3b92560405160405180910390a45050565b600061206882600001612b98565b9050919050565b6000612079613aac565b6012600085815260200190815260200160002060405180604001604052908160008201548152602001600182018054600181600116156101000203166002900480601f01602080910402602001604051908101604052809291908181526020018280546001816001161561010002031660029004801561213a5780601f1061210f5761010080835404028352916020019161213a565b820191906000526020600020905b81548152906001019060200180831161211d57829003601f168201915b50505050508152505090503373ffffffffffffffffffffffffffffffffffffffff16612165856112db565b73ffffffffffffffffffffffffffffffffffffffff16148015612192575082816020015180519060200120145b91505092915050565b6121a481612ba9565b60136000815480929190600101919050555050565b60006121fb83836040518060400160405280601e81526020017f536166654d6174683a207375627472616374696f6e206f766572666c6f770000815250612ce3565b905092915050565b60006122346013546122266001612218610f92565b61242d90919063ffffffff16565b61242d90919063ffffffff16565b905090565b600073ffffffffffffffffffffffffffffffffffffffff168273ffffffffffffffffffffffffffffffffffffffff1614156122dc576040517f08c379a00000000000000000000000000000000000000000000000000000000081526004018080602001828103825260208152602001807f4552433732313a206d696e7420746f20746865207a65726f206164647265737381525060200191505060405180910390fd5b6122e581611f7c565b15612358576040517f08c379a000000000000000000000000000000000000000000000000000000000815260040180806020018281038252601c8152602001807f4552433732313a20746f6b656e20616c7265616479206d696e7465640000000081525060200191505060405180910390fd5b61236460008383612da3565b6123b581600160008573ffffffffffffffffffffffffffffffffffffffff1673ffffffffffffffffffffffffffffffffffffffff168152602001908152602001600020612da890919063ffffffff16565b506123cc81836002612dc29092919063ffffffff16565b50808273ffffffffffffffffffffffffffffffffffffffff16600073ffffffffffffffffffffffffffffffffffffffff167fddf252ad1be2c89b69c2b068fc378daa952ba7f163c4a11628f55a4df523b3ef60405160405180910390a45050565b6000808284019050838110156124ab576040517f08c379a000000000000000000000000000000000000000000000000000000000815260040180806020018281038252601b8152602001807f536166654d6174683a206164646974696f6e206f766572666c6f77000000000081525060200191505060405180910390fd5b8091505092915050565b60006124c082611f7c565b612515576040517f08c379a000000000000000000000000000000000000000000000000000000000815260040180806020018281038252602c815260200180613bac602c913960400191505060405180910390fd5b6000612520836112db565b90508073ffffffffffffffffffffffffffffffffffffffff168473ffffffffffffffffffffffffffffffffffffffff16148061258f57508373ffffffffffffffffffffffffffffffffffffffff1661257784610db3565b73ffffffffffffffffffffffffffffffffffffffff16145b806125a0575061259f8185611edb565b5b91505092915050565b8273ffffffffffffffffffffffffffffffffffffffff166125c9826112db565b73ffffffffffffffffffffffffffffffffffffffff1614612635576040517f08c379a0000000000000000000000000000000000000000000000000000000008152600401808060200182810382526029815260200180613cb16029913960400191505060405180910390fd5b600073ffffffffffffffffffffffffffffffffffffffff168273ffffffffffffffffffffffffffffffffffffffff1614156126bb576040517f08c379a0000000000000000000000000000000000000000000000000000000008152600401808060200182810382526024815260200180613b886024913960400191505060405180910390fd5b6126c6838383612da3565b6126d1600082611fa1565b61272281600160008673ffffffffffffffffffffffffffffffffffffffff1673ffffffffffffffffffffffffffffffffffffffff168152602001908152602001600020612df790919063ffffffff16565b5061277481600160008573ffffffffffffffffffffffffffffffffffffffff1673ffffffffffffffffffffffffffffffffffffffff168152602001908152602001600020612da890919063ffffffff16565b5061278b81836002612dc29092919063ffffffff16565b50808273ffffffffffffffffffffffffffffffffffffffff168473ffffffffffffffffffffffffffffffffffffffff167fddf252ad1be2c89b69c2b068fc378daa952ba7f163c4a11628f55a4df523b3ef60405160405180910390a4505050565b60006127fb8360000183612e11565b60001c905092915050565b6000806000806128198660000186612e94565b915091508160001c8160001c8090509350935050509250929050565b6000612848846000018460001b84612f2d565b60001c90509392505050565b600061286282600001613023565b9050919050565b6128748484846125a9565b61288084848484613034565b6128d5576040517f08c379a0000000000000000000000000000000000000000000000000000000008152600401808060200182810382526032815260200180613b566032913960400191505060405180910390fd5b50505050565b60606000821415612923576040518060400160405280600181526020017f30000000000000000000000000000000000000000000000000000000000000008152509050612a06565b600082905060005b6000821461294d578080600101915050600a828161294557fe5b04915061292b565b6060816040519080825280601f01601f1916602001820160405280156129825781602001600182028038833980820191505090505b50905060006001830390508593505b600084146129fe57600a84816129a357fe5b0660300160f81b828280600190039350815181106129bd57fe5b60200101907effffffffffffffffffffffffffffffffffffffffffffffffffffffffffffff1916908160001a905350600a84816129f657fe5b049350612991565b819450505050505b919050565b612af2846323b872dd60e01b858585604051602401808473ffffffffffffffffffffffffffffffffffffffff1673ffffffffffffffffffffffffffffffffffffffff1681526020018373ffffffffffffffffffffffffffffffffffffffff1673ffffffffffffffffffffffffffffffffffffffff1681526020018281526020019350505050604051602081830303815290604052907bffffffffffffffffffffffffffffffffffffffffffffffffffffffff19166020820180517bffffffffffffffffffffffffffffffffffffffffffffffffffffffff8381831617835250505050613279565b50505050565b600080424433604051602001808481526020018381526020018273ffffffffffffffffffffffffffffffffffffffff1673ffffffffffffffffffffffffffffffffffffffff1660601b815260140193505050506040516020818303038152906040528051906020012060001c90506000612b7482612710613368565b9050809250505090565b6000612b90836000018360001b61344e565b905092915050565b600081600001805490509050919050565b6000612bb4826112db565b9050612bc281600084612da3565b612bcd600083611fa1565b60006008600084815260200190815260200160002080546001816001161561010002031660029004905014612c1c57600860008381526020019081526020016000206000612c1b9190613ac6565b5b612c6d82600160008473ffffffffffffffffffffffffffffffffffffffff1673ffffffffffffffffffffffffffffffffffffffff168152602001908152602001600020612df790919063ffffffff16565b50612c8282600261347190919063ffffffff16565b5081600073ffffffffffffffffffffffffffffffffffffffff168273ffffffffffffffffffffffffffffffffffffffff167fddf252ad1be2c89b69c2b068fc378daa952ba7f163c4a11628f55a4df523b3ef60405160405180910390a45050565b6000838311158290612d90576040517f08c379a00000000000000000000000000000000000000000000000000000000081526004018080602001828103825283818151815260200191508051906020019080838360005b83811015612d55578082015181840152602081019050612d3a565b50505050905090810190601f168015612d825780820380516001836020036101000a031916815260200191505b509250505060405180910390fd5b5060008385039050809150509392505050565b505050565b6000612dba836000018360001b61348b565b905092915050565b6000612dee846000018460001b8473ffffffffffffffffffffffffffffffffffffffff1660001b6134fb565b90509392505050565b6000612e09836000018360001b6135d7565b905092915050565b600081836000018054905011612e72576040517f08c379a0000000000000000000000000000000000000000000000000000000008152600401808060200182810382526022815260200180613b346022913960400191505060405180910390fd5b826000018281548110612e8157fe5b9060005260206000200154905092915050565b60008082846000018054905011612ef6576040517f08c379a0000000000000000000000000000000000000000000000000000000008152600401808060200182810382526022815260200180613c636022913960400191505060405180910390fd5b6000846000018481548110612f0757fe5b906000526020600020906002020190508060000154816001015492509250509250929050565b60008084600101600085815260200190815260200160002054905060008114158390612ff4576040517f08c379a00000000000000000000000000000000000000000000000000000000081526004018080602001828103825283818151815260200191508051906020019080838360005b83811015612fb9578082015181840152602081019050612f9e565b50505050905090810190601f168015612fe65780820380516001836020036101000a031916815260200191505b509250505060405180910390fd5b5084600001600182038154811061300757fe5b9060005260206000209060020201600101549150509392505050565b600081600001805490509050919050565b60006130558473ffffffffffffffffffffffffffffffffffffffff166136bf565b6130625760019050613271565b60606131f863150b7a0260e01b613077611f99565b888787604051602401808573ffffffffffffffffffffffffffffffffffffffff1673ffffffffffffffffffffffffffffffffffffffff1681526020018473ffffffffffffffffffffffffffffffffffffffff1673ffffffffffffffffffffffffffffffffffffffff16815260200183815260200180602001828103825283818151815260200191508051906020019080838360005b8381101561312757808201518184015260208101905061310c565b50505050905090810190601f1680156131545780820380516001836020036101000a031916815260200191505b5095505050505050604051602081830303815290604052907bffffffffffffffffffffffffffffffffffffffffffffffffffffffff19166020820180517bffffffffffffffffffffffffffffffffffffffffffffffffffffffff8381831617835250505050604051806060016040528060328152602001613b56603291398773ffffffffffffffffffffffffffffffffffffffff166136d29092919063ffffffff16565b9050600081806020019051602081101561321157600080fd5b8101908080519060200190929190505050905063150b7a0260e01b7bffffffffffffffffffffffffffffffffffffffffffffffffffffffff1916817bffffffffffffffffffffffffffffffffffffffffffffffffffffffff191614925050505b949350505050565b60606132db826040518060400160405280602081526020017f5361666545524332303a206c6f772d6c6576656c2063616c6c206661696c65648152508573ffffffffffffffffffffffffffffffffffffffff166136d29092919063ffffffff16565b9050600081511115613363578080602001905160208110156132fc57600080fd5b8101908080519060200190929190505050613362576040517f08c379a000000000000000000000000000000000000000000000000000000000815260040180806020018281038252602a815260200180613d5b602a913960400191505060405180910390fd5b5b505050565b60008082116133df576040517f08c379a00000000000000000000000000000000000000000000000000000000081526004018080602001828103825260158152602001807f556e69666f726d52616e642f6d696e2d626f756e64000000000000000000000081525060200191505060405180910390fd5b60008283600003816133ed57fe5b06905060008490505b60011561343a578181106134095761343a565b80604051602001808281526020019150506040516020818303038152906040528051906020012060001c90506133f6565b83818161344357fe5b069250505092915050565b600080836001016000848152602001908152602001600020541415905092915050565b6000613483836000018360001b6136ea565b905092915050565b60006134978383613803565b6134f05782600001829080600181540180825580915050600190039060005260206000200160009091909190915055826000018054905083600101600084815260200190815260200160002081905550600190506134f5565b600090505b92915050565b60008084600101600085815260200190815260200160002054905060008114156135a2578460000160405180604001604052808681526020018581525090806001815401808255809150506001900390600052602060002090600202016000909190919091506000820151816000015560208201518160010155505084600001805490508560010160008681526020019081526020016000208190555060019150506135d0565b828560000160018303815481106135b557fe5b90600052602060002090600202016001018190555060009150505b9392505050565b600080836001016000848152602001908152602001600020549050600081146136b3576000600182039050600060018660000180549050039050600086600001828154811061362257fe5b906000526020600020015490508087600001848154811061363f57fe5b906000526020600020018190555060018301876001016000838152602001908152602001600020819055508660000180548061367757fe5b600190038181906000526020600020016000905590558660010160008781526020019081526020016000206000905560019450505050506136b9565b60009150505b92915050565b600080823b905060008111915050919050565b60606136e18484600085613826565b90509392505050565b600080836001016000848152602001908152602001600020549050600081146137f7576000600182039050600060018660000180549050039050600086600001828154811061373557fe5b906000526020600020906002020190508087600001848154811061375557fe5b90600052602060002090600202016000820154816000015560018201548160010155905050600183018760010160008360000154815260200190815260200160002081905550866000018054806137a857fe5b60019003818190600052602060002090600202016000808201600090556001820160009055505090558660010160008781526020019081526020016000206000905560019450505050506137fd565b60009150505b92915050565b600080836001016000848152602001908152602001600020541415905092915050565b6060613831856136bf565b6138a3576040517f08c379a000000000000000000000000000000000000000000000000000000000815260040180806020018281038252601d8152602001807f416464726573733a2063616c6c20746f206e6f6e2d636f6e747261637400000081525060200191505060405180910390fd5b600060608673ffffffffffffffffffffffffffffffffffffffff1685876040518082805190602001908083835b602083106138f357805182526020820191506020810190506020830392506138d0565b6001836020036101000a03801982511681845116808217855250505050505090500191505060006040518083038185875af1925050503d8060008114613955576040519150601f19603f3d011682016040523d82523d6000602084013e61395a565b606091505b5091509150811561396f578092505050613a24565b6000815111156139825780518082602001fd5b836040517f08c379a00000000000000000000000000000000000000000000000000000000081526004018080602001828103825283818151815260200191508051906020019080838360005b838110156139e95780820151818401526020810190506139ce565b50505050905090810190601f168015613a165780820380516001836020036101000a031916815260200191505b509250505060405180910390fd5b949350505050565b828054600181600116156101000203166002900490600052602060002090601f016020900481019282601f10613a6d57805160ff1916838001178555613a9b565b82800160010185558215613a9b579182015b82811115613a9a578251825591602001919060010190613a7f565b5b509050613aa89190613b0e565b5090565b604051806040016040528060008152602001606081525090565b50805460018160011615610100020316600290046000825580601f10613aec5750613b0b565b601f016020900490600052602060002090810190613b0a9190613b0e565b5b50565b613b3091905b80821115613b2c576000816000905550600101613b14565b5090565b9056fe456e756d657261626c655365743a20696e646578206f7574206f6620626f756e64734552433732313a207472616e7366657220746f206e6f6e20455243373231526563656976657220696d706c656d656e7465724552433732313a207472616e7366657220746f20746865207a65726f20616464726573734552433732313a206f70657261746f7220717565727920666f72206e6f6e6578697374656e7420746f6b656e4552433732313a20617070726f76652063616c6c6572206973206e6f74206f776e6572206e6f7220617070726f76656420666f7220616c6c4552433732313a2062616c616e636520717565727920666f7220746865207a65726f20616464726573734552433732313a206f776e657220717565727920666f72206e6f6e6578697374656e7420746f6b656e456e756d657261626c654d61703a20696e646578206f7574206f6620626f756e64734552433732313a20617070726f76656420717565727920666f72206e6f6e6578697374656e7420746f6b656e4552433732313a207472616e73666572206f6620746f6b656e2074686174206973206e6f74206f776e4552433732314d657461646174613a2055524920717565727920666f72206e6f6e6578697374656e7420746f6b656e4552433732313a20617070726f76616c20746f2063757272656e74206f776e65724552433732313a207472616e736665722063616c6c6572206973206e6f74206f776e6572206e6f7220617070726f7665645361666545524332303a204552433230206f7065726174696f6e20646964206e6f742073756363656564a26469706673582212201accc92999574b8ba0e4546d4376a28c1cc217850aa02fb3526f8b7c41d5710e64736f6c63430006020033",
  "source": "pragma solidity ^0.6.0;\n\nimport \"@openzeppelin/contracts/math/Math.sol\";\nimport \"@openzeppelin/contracts/math/SafeMath.sol\";\nimport \"@openzeppelin/contracts/token/ERC20/IERC20.sol\";\nimport \"@openzeppelin/contracts/token/ERC20/SafeERC20.sol\";\n\nimport \"@openzeppelin/contracts/token/ERC721/ERC721.sol\";\n\nlibrary UniformRandomNumber {\n  /// @notice Select a random number without modulo bias using a random seed and upper bound\n  /// @param _entropy The seed for randomness\n  /// @param _upperBound The upper bound of the desired number\n  /// @return A random number less than the _upperBound\n  function uniform(uint256 _entropy, uint256 _upperBound) internal pure returns (uint256) {\n    require(_upperBound > 0, \"UniformRand/min-bound\");\n    uint256 min = -_upperBound % _upperBound;\n    uint256 random = _entropy;\n    while (true) {\n      if (random >= min) {\n        break;\n      }\n      random = uint256(keccak256(abi.encodePacked(random)));\n    }\n    return random % _upperBound;\n  }\n}\n\ncontract Fomo721 is ERC721 {\n    using SafeMath for uint256;\n\tusing SafeERC20 for IERC20;\n    \n\tIERC20 constant public FomoToken = IERC20(0x00000000000000000000000000000000DeaDBeef);\n\tuint256 constant public mintPieceFee = 100 * 1e18;\n\taddress constant public burnAddress = 0x00000000000000000000000000000000DeaDBeef;\n\t\n\tuint256 public fomo721Count;\n\tuint256 public fomo721PieceCount;\n\n\tbytes32 public _F; \n\tbytes32 public _o;\n\tbytes32 public _m;\n\tbytes32 public _7;\n\tbytes32 public _2;\n\tbytes32 public _1;\n    \n    struct Fomo721Token {\n        uint256 id;\n\t\tstring char; // Fomo721\n    }\n\tmapping(uint256 => Fomo721Token) tokens;\n    uint256 burnedCounter = 0;\n\n    constructor(string memory _name, string memory _symbol) ERC721(_name, _symbol) public {\n\t\tfomo721Count = 0;\n\t\tfomo721PieceCount = 0;\n\t\t_F = keccak256(bytes(\"F\")); \n\t\t_o = keccak256(bytes(\"o\")); \n\t\t_m = keccak256(bytes(\"m\")); \n\t\t_7 = keccak256(bytes(\"7\")); \n\t\t_2 = keccak256(bytes(\"2\")); \n\t\t_1 = keccak256(bytes(\"1\")); \n\t}\n    \n\tfunction getRandom() internal view returns (uint256) {\n\t\tuint256 seed = uint256(keccak256(abi.encodePacked(now, block.difficulty, msg.sender)));\n\t\tuint256 rnd = UniformRandomNumber.uniform(seed, 10000);\n\t\treturn rnd;\n\t}\n\n\tfunction getFomo721Count() external view returns (uint256) {\n\t\treturn fomo721Count;\n\t}\n\n\tfunction getFomo721PieceCount() external view returns (uint256) {\n\t\treturn fomo721PieceCount;\n\t}\n\n\tfunction mintFomo721Piece() external {\n\t\trequire(msg.sender == tx.origin);\n\t\tFomoToken.safeTransferFrom(msg.sender, burnAddress, mintPieceFee);\n\t\tuint256 rnd = getRandom();\n\t\tstring memory char;\n\t\tif (rnd >= 9990) {\n\t\t\t// 0.001\n\t\t\tchar = \"1\";\n\t\t} else if (rnd >= 9980) {\n\t\t\t// 0.002\n\t\t\tchar = \"2\";\n\t\t} else if (rnd >= 9930) {\n\t\t\t// 0.007\n\t\t\tchar = \"7\";\n\t\t} else if (rnd >= 9000) {\n\t\t\t// 0.1\n\t\t\tchar = \"o\";\n\t\t} else if (rnd >= 8000) {\n\t\t\t// 0.2\n\t\t\tchar = \"m\";\n\t\t} else if (rnd >= 4000) {\n\t\t\t// 0.6\n\t\t\tchar = \"o\";\n\t\t} else if (rnd >= 1000) {\n\t\t\t// 0.9\n\t\t\tchar = \"F\";\n\t\t} else {\n\t\t\tchar = \"Don't give up, bro!\";\n\t\t}\n\t\tuint256 tokenId = _getNextTokenId();\n\t\ttokens[tokenId] = Fomo721Token(tokenId, char);\n\t\tfomo721PieceCount += 1;\n\t\t_mint(msg.sender, tokenId);\n\t}\n\n\tfunction check(uint256 id, bytes32 v) internal view returns (bool) {\n\t\tFomo721Token memory token = tokens[id];\n\t\treturn ownerOf(id) == msg.sender && keccak256(bytes(token.char)) == v;\n\t}\n\n\tfunction burnIt(uint256 id) external {\n\t\trequire(ownerOf(id) == msg.sender);\n\t\t_burn(id);\n\t}\n\n\tfunction mintFomo721(uint256 id1, uint256 id2, uint256 id3, uint256 id4, uint256 id5, uint256 id6, uint256 id7) external {\n\t\trequire(check(id1, _F) && check(id2, _o) && check(id3, _m) && check(id4, _o) && check(id5, _7) && check(id6, _2) && check(id7, _1), \"check failed\");\n\t\t_burn(id1); _burn(id2); _burn(id3); _burn(id4); _burn(id5); _burn(id6); _burn(id7);\n\t\tfomo721PieceCount = fomo721PieceCount.sub(7);\n\t\tuint256 tokenId = _getNextTokenId();\n\t\ttokens[tokenId] = Fomo721Token(tokenId, \"Fomo721\");\n\t\t_mint(msg.sender, tokenId);\n\t\tfomo721Count = fomo721Count.add(1);\n\t}\n\n    function _getNextTokenId() private view returns (uint256) {\n        return totalSupply().add(1).add(burnedCounter);\n    }\n\n    function _burn(uint256 _tokenId) override internal {\n        super._burn(_tokenId);\n        burnedCounter++;\n    }\n\n    function tokensOfOwner(address _owner) external view returns(uint256[] memory ownerTokens) {\n        uint256 tokenCount = balanceOf(_owner);\n\n        if (tokenCount == 0) {\n            return new uint256[](0);\n        } else {\n            uint256[] memory result = new uint256[](tokenCount);\n            uint256 resultIndex = 0;\n            uint256 _tokenIdx;\n            for (_tokenIdx = 0; _tokenIdx < tokenCount; _tokenIdx++) {\n                result[resultIndex] = tokenOfOwnerByIndex(_owner, _tokenIdx);\n                resultIndex++;\n            }\n            return result;\n        }\n    }\n}\n",
  "sourcePath": "/Users/cyan/Desktop/projects/defi/nifty.fi/fomo721/fomo721/contracts/fomo721.sol",
  "compiler": {
    "name": "solc",
    "version": "0.6.2+commit.bacdbe57.Emscripten.clang"
  },
  "schemaVersion": "3.2.5",
  "updatedAt": "2020-09-12T04:03:26.688Z",
  "devdoc": {
    "methods": {
      "approve(address,uint256)": {
        "details": "See {IERC721-approve}."
      },
      "balanceOf(address)": {
        "details": "See {IERC721-balanceOf}."
      },
      "baseURI()": {
        "details": "Returns the base URI set via {_setBaseURI}. This will be automatically added as a prefix in {tokenURI} to each token's URI, or to the token ID if no specific URI is set for that token ID."
      },
      "getApproved(uint256)": {
        "details": "See {IERC721-getApproved}."
      },
      "isApprovedForAll(address,address)": {
        "details": "See {IERC721-isApprovedForAll}."
      },
      "name()": {
        "details": "See {IERC721Metadata-name}."
      },
      "ownerOf(uint256)": {
        "details": "See {IERC721-ownerOf}."
      },
      "safeTransferFrom(address,address,uint256)": {
        "details": "See {IERC721-safeTransferFrom}."
      },
      "safeTransferFrom(address,address,uint256,bytes)": {
        "details": "See {IERC721-safeTransferFrom}."
      },
      "setApprovalForAll(address,bool)": {
        "details": "See {IERC721-setApprovalForAll}."
      },
      "supportsInterface(bytes4)": {
        "details": "See {IERC165-supportsInterface}.     * Time complexity O(1), guaranteed to always use less than 30 000 gas."
      },
      "symbol()": {
        "details": "See {IERC721Metadata-symbol}."
      },
      "tokenByIndex(uint256)": {
        "details": "See {IERC721Enumerable-tokenByIndex}."
      },
      "tokenOfOwnerByIndex(address,uint256)": {
        "details": "See {IERC721Enumerable-tokenOfOwnerByIndex}."
      },
      "tokenURI(uint256)": {
        "details": "See {IERC721Metadata-tokenURI}."
      },
      "totalSupply()": {
        "details": "See {IERC721Enumerable-totalSupply}."
      },
      "transferFrom(address,address,uint256)": {
        "details": "See {IERC721-transferFrom}."
      }
    }
  },
  "userdoc": {
    "methods": {}
  }
}