{
  "contractName": "FomoPrizePool",
  "abi": [
    {
      "inputs": [],
      "name": "Fomo721",
      "outputs": [
        {
          "internalType": "contract IERC721",
          "name": "",
          "type": "address"
        }
      ],
      "stateMutability": "view",
      "type": "function"
    },
    {
      "inputs": [],
      "name": "FomoToken",
      "outputs": [
        {
          "internalType": "contract IERC20",
          "name": "",
          "type": "address"
        }
      ],
      "stateMutability": "view",
      "type": "function"
    },
    {
      "inputs": [],
      "name": "burnAddress",
      "outputs": [
        {
          "internalType": "address",
          "name": "",
          "type": "address"
        }
      ],
      "stateMutability": "view",
      "type": "function"
    },
    {
      "inputs": [],
      "name": "minFomo",
      "outputs": [
        {
          "internalType": "uint256",
          "name": "",
          "type": "uint256"
        }
      ],
      "stateMutability": "view",
      "type": "function"
    },
    {
      "inputs": [
        {
          "internalType": "uint256",
          "name": "tokenId",
          "type": "uint256"
        }
      ],
      "name": "draw",
      "outputs": [],
      "stateMutability": "nonpayable",
      "type": "function"
    }
  ],
  "bytecode": "0x608060405234801561001057600080fd5b50610d70806100206000396000f3fe608060405234801561001057600080fd5b50600436106100575760003560e01c80633b3041471461005c57806359de26191461008a57806370d5ae05146100d4578063a11f8de41461011e578063f930fcfb14610168575b600080fd5b6100886004803603602081101561007257600080fd5b8101908080359060200190929190505050610186565b005b610092610534565b604051808273ffffffffffffffffffffffffffffffffffffffff1673ffffffffffffffffffffffffffffffffffffffff16815260200191505060405180910390f35b6100dc61053c565b604051808273ffffffffffffffffffffffffffffffffffffffff1673ffffffffffffffffffffffffffffffffffffffff16815260200191505060405180910390f35b610126610544565b604051808273ffffffffffffffffffffffffffffffffffffffff1673ffffffffffffffffffffffffffffffffffffffff16815260200191505060405180910390f35b61017061054c565b6040518082815260200191505060405180910390f35b678ac7230489e8000063deadbeef73ffffffffffffffffffffffffffffffffffffffff166370a08231336040518263ffffffff1660e01b8152600401808273ffffffffffffffffffffffffffffffffffffffff1673ffffffffffffffffffffffffffffffffffffffff16815260200191505060206040518083038186803b15801561021057600080fd5b505afa158015610224573d6000803e3d6000fd5b505050506040513d602081101561023a57600080fd5b8101908080519060200190929190505050101561025657600080fd5b3373ffffffffffffffffffffffffffffffffffffffff1663deadbeef73ffffffffffffffffffffffffffffffffffffffff16636352211e836040518263ffffffff1660e01b81526004018082815260200191505060206040518083038186803b1580156102c257600080fd5b505afa1580156102d6573d6000803e3d6000fd5b505050506040513d60208110156102ec57600080fd5b810190808051906020019092919050505073ffffffffffffffffffffffffffffffffffffffff161461031d57600080fd5b63deadbeef73ffffffffffffffffffffffffffffffffffffffff166342842e0e3363deadbeef846040518463ffffffff1660e01b8152600401808473ffffffffffffffffffffffffffffffffffffffff1673ffffffffffffffffffffffffffffffffffffffff1681526020018373ffffffffffffffffffffffffffffffffffffffff1673ffffffffffffffffffffffffffffffffffffffff1681526020018281526020019350505050600060405180830381600087803b1580156103e057600080fd5b505af11580156103f4573d6000803e3d6000fd5b505050506000610402610558565b905060006104fc6104326127106104246102bc866105de90919063ffffffff16565b61066690919063ffffffff16565b63deadbeef73ffffffffffffffffffffffffffffffffffffffff166370a08231306040518263ffffffff1660e01b8152600401808273ffffffffffffffffffffffffffffffffffffffff1673ffffffffffffffffffffffffffffffffffffffff16815260200191505060206040518083038186803b1580156104b357600080fd5b505afa1580156104c7573d6000803e3d6000fd5b505050506040513d60208110156104dd57600080fd5b81019080805190602001909291905050506106b090919063ffffffff16565b905061052f30338363deadbeef73ffffffffffffffffffffffffffffffffffffffff16610736909392919063ffffffff16565b505050565b63deadbeef81565b63deadbeef81565b63deadbeef81565b678ac7230489e8000081565b600080424433604051602001808481526020018381526020018273ffffffffffffffffffffffffffffffffffffffff1673ffffffffffffffffffffffffffffffffffffffff1660601b815260140193505050506040516020818303038152906040528051906020012060001c905060006105d4826102bc610823565b9050809250505090565b60008082840190508381101561065c576040517f08c379a000000000000000000000000000000000000000000000000000000000815260040180806020018281038252601b8152602001807f536166654d6174683a206164646974696f6e206f766572666c6f77000000000081525060200191505060405180910390fd5b8091505092915050565b60006106a883836040518060400160405280601a81526020017f536166654d6174683a206469766973696f6e206279207a65726f000000000000815250610909565b905092915050565b6000808314156106c35760009050610730565b60008284029050828482816106d457fe5b041461072b576040517f08c379a0000000000000000000000000000000000000000000000000000000008152600401808060200182810382526021815260200180610cf06021913960400191505060405180910390fd5b809150505b92915050565b61081d846323b872dd60e01b858585604051602401808473ffffffffffffffffffffffffffffffffffffffff1673ffffffffffffffffffffffffffffffffffffffff1681526020018373ffffffffffffffffffffffffffffffffffffffff1673ffffffffffffffffffffffffffffffffffffffff1681526020018281526020019350505050604051602081830303815290604052907bffffffffffffffffffffffffffffffffffffffffffffffffffffffff19166020820180517bffffffffffffffffffffffffffffffffffffffffffffffffffffffff83818316178352505050506109cf565b50505050565b600080821161089a576040517f08c379a00000000000000000000000000000000000000000000000000000000081526004018080602001828103825260158152602001807f556e69666f726d52616e642f6d696e2d626f756e64000000000000000000000081525060200191505060405180910390fd5b60008283600003816108a857fe5b06905060008490505b6001156108f5578181106108c4576108f5565b80604051602001808281526020019150506040516020818303038152906040528051906020012060001c90506108b1565b8381816108fe57fe5b069250505092915050565b600080831182906109b5576040517f08c379a00000000000000000000000000000000000000000000000000000000081526004018080602001828103825283818151815260200191508051906020019080838360005b8381101561097a57808201518184015260208101905061095f565b50505050905090810190601f1680156109a75780820380516001836020036101000a031916815260200191505b509250505060405180910390fd5b5060008385816109c157fe5b049050809150509392505050565b6060610a31826040518060400160405280602081526020017f5361666545524332303a206c6f772d6c6576656c2063616c6c206661696c65648152508573ffffffffffffffffffffffffffffffffffffffff16610abe9092919063ffffffff16565b9050600081511115610ab957808060200190516020811015610a5257600080fd5b8101908080519060200190929190505050610ab8576040517f08c379a000000000000000000000000000000000000000000000000000000000815260040180806020018281038252602a815260200180610d11602a913960400191505060405180910390fd5b5b505050565b6060610acd8484600085610ad6565b90509392505050565b6060610ae185610cdc565b610b53576040517f08c379a000000000000000000000000000000000000000000000000000000000815260040180806020018281038252601d8152602001807f416464726573733a2063616c6c20746f206e6f6e2d636f6e747261637400000081525060200191505060405180910390fd5b600060608673ffffffffffffffffffffffffffffffffffffffff1685876040518082805190602001908083835b60208310610ba35780518252602082019150602081019050602083039250610b80565b6001836020036101000a03801982511681845116808217855250505050505090500191505060006040518083038185875af1925050503d8060008114610c05576040519150601f19603f3d011682016040523d82523d6000602084013e610c0a565b606091505b50915091508115610c1f578092505050610cd4565b600081511115610c325780518082602001fd5b836040517f08c379a00000000000000000000000000000000000000000000000000000000081526004018080602001828103825283818151815260200191508051906020019080838360005b83811015610c99578082015181840152602081019050610c7e565b50505050905090810190601f168015610cc65780820380516001836020036101000a031916815260200191505b509250505060405180910390fd5b949350505050565b600080823b90506000811191505091905056fe536166654d6174683a206d756c7469706c69636174696f6e206f766572666c6f775361666545524332303a204552433230206f7065726174696f6e20646964206e6f742073756363656564a2646970667358221220bc29681fc9ff37d4d0234b2bd7e23fc9ad2cda18c198e3b9490266e931116c7464736f6c63430006020033",
  "source": "pragma solidity ^0.6.0;\n\nimport \"@openzeppelin/contracts/math/Math.sol\";\nimport \"@openzeppelin/contracts/math/SafeMath.sol\";\nimport \"@openzeppelin/contracts/token/ERC20/IERC20.sol\";\nimport \"@openzeppelin/contracts/token/ERC20/SafeERC20.sol\";\nimport \"@openzeppelin/contracts/token/ERC721/IERC721.sol\";\n\nlibrary UniformRandomNumber {\n  /// @notice Select a random number without modulo bias using a random seed and upper bound\n  /// @param _entropy The seed for randomness\n  /// @param _upperBound The upper bound of the desired number\n  /// @return A random number less than the _upperBound\n  function uniform(uint256 _entropy, uint256 _upperBound) internal pure returns (uint256) {\n    require(_upperBound > 0, \"UniformRand/min-bound\");\n    uint256 min = -_upperBound % _upperBound;\n    uint256 random = _entropy;\n    while (true) {\n      if (random >= min) {\n        break;\n      }\n      random = uint256(keccak256(abi.encodePacked(random)));\n    }\n    return random % _upperBound;\n  }\n}\n\ncontract FomoPrizePool {\n    using SafeMath for uint256;\n\tusing SafeERC20 for IERC20;\n    \n\tIERC20 constant public FomoToken = IERC20(0x00000000000000000000000000000000DeaDBeef);\n\tIERC721 constant public Fomo721 = IERC721(0x00000000000000000000000000000000DeaDBeef);\n\taddress constant public burnAddress = 0x00000000000000000000000000000000DeaDBeef;\n\tuint256 constant public minFomo = 10 * 1e18;\n\n\tfunction getRandom() internal view returns (uint256) {\n\t\tuint256 seed = uint256(keccak256(abi.encodePacked(now, block.difficulty, msg.sender)));\n        uint256 rnd = UniformRandomNumber.uniform(seed, 700);\n\t\treturn rnd;\n\t}\n\n\tmodifier onlyFomoHolder() {\n\t\trequire(FomoToken.balanceOf(msg.sender) >= minFomo);\n\t\t_;\n\t}\n\n\tfunction draw(uint256 tokenId) external onlyFomoHolder {\n\t\trequire(Fomo721.ownerOf(tokenId) == msg.sender);\n\t\tFomo721.safeTransferFrom(msg.sender, burnAddress, tokenId);\n\t\tuint256 rnd = getRandom();\n\t\tuint256 reward = FomoToken.balanceOf(address(this)).mul(rnd.add(700).div(10000));\n\t\tFomoToken.safeTransferFrom(address(this), msg.sender, reward);\n\t}\n}\n",
  "sourcePath": "/Users/cyan/Desktop/projects/defi/nifty.fi/fomo721/fomo721/contracts/fomoPrizePool.sol",
  "compiler": {
    "name": "solc",
    "version": "0.6.2+commit.bacdbe57.Emscripten.clang"
  },
  "schemaVersion": "3.2.5",
  "updatedAt": "2020-09-12T04:21:59.401Z",
  "devdoc": {
    "methods": {}
  },
  "userdoc": {
    "methods": {}
  }
}