{
  "contractName": "LPTokenWrapper",
  "abi": [
    {
      "anonymous": false,
      "inputs": [
        {
          "indexed": true,
          "internalType": "address",
          "name": "user",
          "type": "address"
        },
        {
          "indexed": false,
          "internalType": "uint256",
          "name": "profit",
          "type": "uint256"
        }
      ],
      "name": "LPTPaid",
      "type": "event"
    },
    {
      "inputs": [],
      "name": "LPT",
      "outputs": [
        {
          "internalType": "contract IERC20",
          "name": "",
          "type": "address"
        }
      ],
      "stateMutability": "view",
      "type": "function"
    },
    {
      "inputs": [
        {
          "internalType": "address",
          "name": "",
          "type": "address"
        }
      ],
      "name": "_balances",
      "outputs": [
        {
          "internalType": "uint256",
          "name": "",
          "type": "uint256"
        }
      ],
      "stateMutability": "view",
      "type": "function"
    },
    {
      "inputs": [],
      "name": "_profitPerShare",
      "outputs": [
        {
          "internalType": "uint256",
          "name": "",
          "type": "uint256"
        }
      ],
      "stateMutability": "view",
      "type": "function"
    },
    {
      "inputs": [
        {
          "internalType": "address",
          "name": "",
          "type": "address"
        }
      ],
      "name": "_realized",
      "outputs": [
        {
          "internalType": "uint256",
          "name": "",
          "type": "uint256"
        }
      ],
      "stateMutability": "view",
      "type": "function"
    },
    {
      "inputs": [],
      "name": "_totalSupply",
      "outputs": [
        {
          "internalType": "uint256",
          "name": "",
          "type": "uint256"
        }
      ],
      "stateMutability": "view",
      "type": "function"
    },
    {
      "inputs": [
        {
          "internalType": "address",
          "name": "",
          "type": "address"
        }
      ],
      "name": "_unrealized",
      "outputs": [
        {
          "internalType": "uint256",
          "name": "",
          "type": "uint256"
        }
      ],
      "stateMutability": "view",
      "type": "function"
    },
    {
      "inputs": [],
      "name": "totalSupply",
      "outputs": [
        {
          "internalType": "uint256",
          "name": "",
          "type": "uint256"
        }
      ],
      "stateMutability": "view",
      "type": "function"
    },
    {
      "inputs": [
        {
          "internalType": "address",
          "name": "account",
          "type": "address"
        }
      ],
      "name": "balanceOf",
      "outputs": [
        {
          "internalType": "uint256",
          "name": "",
          "type": "uint256"
        }
      ],
      "stateMutability": "view",
      "type": "function"
    },
    {
      "inputs": [
        {
          "internalType": "address",
          "name": "account",
          "type": "address"
        }
      ],
      "name": "unrealizedProfit",
      "outputs": [
        {
          "internalType": "uint256",
          "name": "",
          "type": "uint256"
        }
      ],
      "stateMutability": "view",
      "type": "function"
    },
    {
      "inputs": [
        {
          "internalType": "uint256",
          "name": "amount",
          "type": "uint256"
        }
      ],
      "name": "stake",
      "outputs": [],
      "stateMutability": "nonpayable",
      "type": "function"
    },
    {
      "inputs": [
        {
          "internalType": "uint256",
          "name": "amount",
          "type": "uint256"
        }
      ],
      "name": "withdraw",
      "outputs": [],
      "stateMutability": "nonpayable",
      "type": "function"
    },
    {
      "inputs": [],
      "name": "claim",
      "outputs": [],
      "stateMutability": "nonpayable",
      "type": "function"
    }
  ],
  "bytecode": "0x608060405234801561001057600080fd5b506113ab806100206000396000f3fe608060405234801561001057600080fd5b50600436106100b45760003560e01c806370a082311161007157806370a08231146101dd578063a694fc3a14610235578063b21c74e114610263578063b8f6c09c14610281578063ce5c1655146102cb578063ffab042014610323576100b4565b806318160ddd146100b95780632e1a7d4d146100d75780633eaaf86b146101055780634e71d92d146101235780635f25050a1461012d5780636ebcf60714610185575b600080fd5b6100c161037b565b6040518082815260200191505060405180910390f35b610103600480360360208110156100ed57600080fd5b8101908080359060200190929190505050610384565b005b61010d610576565b6040518082815260200191505060405180910390f35b61012b61057c565b005b61016f6004803603602081101561014357600080fd5b81019080803573ffffffffffffffffffffffffffffffffffffffff169060200190929190505050610767565b6040518082815260200191505060405180910390f35b6101c76004803603602081101561019b57600080fd5b81019080803573ffffffffffffffffffffffffffffffffffffffff16906020019092919050505061077f565b6040518082815260200191505060405180910390f35b61021f600480360360208110156101f357600080fd5b81019080803573ffffffffffffffffffffffffffffffffffffffff169060200190929190505050610797565b6040518082815260200191505060405180910390f35b6102616004803603602081101561024b57600080fd5b81019080803590602001909291905050506107e0565b005b61026b61099d565b6040518082815260200191505060405180910390f35b6102896109a3565b604051808273ffffffffffffffffffffffffffffffffffffffff1673ffffffffffffffffffffffffffffffffffffffff16815260200191505060405180910390f35b61030d600480360360208110156102e157600080fd5b81019080803573ffffffffffffffffffffffffffffffffffffffff1690602001909291905050506109bb565b6040518082815260200191505060405180910390f35b6103656004803603602081101561033957600080fd5b81019080803573ffffffffffffffffffffffffffffffffffffffff169060200190929190505050610ad4565b6040518082815260200191505060405180910390f35b60008054905090565b33600073ffffffffffffffffffffffffffffffffffffffff168173ffffffffffffffffffffffffffffffffffffffff161461044c576103c2816109bb565b600360008373ffffffffffffffffffffffffffffffffffffffff1673ffffffffffffffffffffffffffffffffffffffff16815260200190815260200160002081905550600254600460008373ffffffffffffffffffffffffffffffffffffffff1673ffffffffffffffffffffffffffffffffffffffff168152602001908152602001600020819055505b61046182600054610aec90919063ffffffff16565b6000819055506104b982600160003373ffffffffffffffffffffffffffffffffffffffff1673ffffffffffffffffffffffffffffffffffffffff16815260200190815260200160002054610aec90919063ffffffff16565b600160003373ffffffffffffffffffffffffffffffffffffffff1673ffffffffffffffffffffffffffffffffffffffff168152602001908152602001600020819055506000610512601484610b3690919063ffffffff16565b90506105278184610aec90919063ffffffff16565b9250610568338473cd4079b9713cdd1e629492b9c07ebd0dbd9f520273ffffffffffffffffffffffffffffffffffffffff16610b809092919063ffffffff16565b61057181610c38565b505050565b60005481565b33600073ffffffffffffffffffffffffffffffffffffffff168173ffffffffffffffffffffffffffffffffffffffff1614610644576105ba816109bb565b600360008373ffffffffffffffffffffffffffffffffffffffff1673ffffffffffffffffffffffffffffffffffffffff16815260200190815260200160002081905550600254600460008373ffffffffffffffffffffffffffffffffffffffff1673ffffffffffffffffffffffffffffffffffffffff168152602001908152602001600020819055505b6000600360003373ffffffffffffffffffffffffffffffffffffffff1673ffffffffffffffffffffffffffffffffffffffff16815260200190815260200160002054905060008114610763576000600360003373ffffffffffffffffffffffffffffffffffffffff1673ffffffffffffffffffffffffffffffffffffffff16815260200190815260200160002081905550610714338273cd4079b9713cdd1e629492b9c07ebd0dbd9f520273ffffffffffffffffffffffffffffffffffffffff16610b809092919063ffffffff16565b3373ffffffffffffffffffffffffffffffffffffffff167ff04b41893429a2707819cc29ddcc7e5f8b5f0b3d7f613136dc82f60ffd0d8aa3826040518082815260200191505060405180910390a25b5050565b60046020528060005260406000206000915090505481565b60016020528060005260406000206000915090505481565b6000600160008373ffffffffffffffffffffffffffffffffffffffff1673ffffffffffffffffffffffffffffffffffffffff168152602001908152602001600020549050919050565b33600073ffffffffffffffffffffffffffffffffffffffff168173ffffffffffffffffffffffffffffffffffffffff16146108a85761081e816109bb565b600360008373ffffffffffffffffffffffffffffffffffffffff1673ffffffffffffffffffffffffffffffffffffffff16815260200190815260200160002081905550600254600460008373ffffffffffffffffffffffffffffffffffffffff1673ffffffffffffffffffffffffffffffffffffffff168152602001908152602001600020819055505b6108bd82600054610c8990919063ffffffff16565b60008190555061091582600160003373ffffffffffffffffffffffffffffffffffffffff1673ffffffffffffffffffffffffffffffffffffffff16815260200190815260200160002054610c8990919063ffffffff16565b600160003373ffffffffffffffffffffffffffffffffffffffff1673ffffffffffffffffffffffffffffffffffffffff1681526020019081526020016000208190555061099933308473cd4079b9713cdd1e629492b9c07ebd0dbd9f520273ffffffffffffffffffffffffffffffffffffffff16610d11909392919063ffffffff16565b5050565b60025481565b73cd4079b9713cdd1e629492b9c07ebd0dbd9f520281565b6000610acd610a7f670de0b6b3a7640000610a71610a23600460008873ffffffffffffffffffffffffffffffffffffffff1673ffffffffffffffffffffffffffffffffffffffff16815260200190815260200160002054600254610aec90919063ffffffff16565b600160008873ffffffffffffffffffffffffffffffffffffffff1673ffffffffffffffffffffffffffffffffffffffff16815260200190815260200160002054610dfe90919063ffffffff16565b610b3690919063ffffffff16565b600360008573ffffffffffffffffffffffffffffffffffffffff1673ffffffffffffffffffffffffffffffffffffffff16815260200190815260200160002054610c8990919063ffffffff16565b9050919050565b60036020528060005260406000206000915090505481565b6000610b2e83836040518060400160405280601e81526020017f536166654d6174683a207375627472616374696f6e206f766572666c6f770000815250610e84565b905092915050565b6000610b7883836040518060400160405280601a81526020017f536166654d6174683a206469766973696f6e206279207a65726f000000000000815250610f44565b905092915050565b610c338363a9059cbb60e01b8484604051602401808373ffffffffffffffffffffffffffffffffffffffff1673ffffffffffffffffffffffffffffffffffffffff16815260200182815260200192505050604051602081830303815290604052907bffffffffffffffffffffffffffffffffffffffffffffffffffffffff19166020820180517bffffffffffffffffffffffffffffffffffffffffffffffffffffffff838183161783525050505061100a565b505050565b610c80610c6f610c4661037b565b610c61670de0b6b3a764000085610dfe90919063ffffffff16565b610b3690919063ffffffff16565b600254610c8990919063ffffffff16565b60028190555050565b600080828401905083811015610d07576040517f08c379a000000000000000000000000000000000000000000000000000000000815260040180806020018281038252601b8152602001807f536166654d6174683a206164646974696f6e206f766572666c6f77000000000081525060200191505060405180910390fd5b8091505092915050565b610df8846323b872dd60e01b858585604051602401808473ffffffffffffffffffffffffffffffffffffffff1673ffffffffffffffffffffffffffffffffffffffff1681526020018373ffffffffffffffffffffffffffffffffffffffff1673ffffffffffffffffffffffffffffffffffffffff1681526020018281526020019350505050604051602081830303815290604052907bffffffffffffffffffffffffffffffffffffffffffffffffffffffff19166020820180517bffffffffffffffffffffffffffffffffffffffffffffffffffffffff838183161783525050505061100a565b50505050565b600080831415610e115760009050610e7e565b6000828402905082848281610e2257fe5b0414610e79576040517f08c379a000000000000000000000000000000000000000000000000000000000815260040180806020018281038252602181526020018061132b6021913960400191505060405180910390fd5b809150505b92915050565b6000838311158290610f31576040517f08c379a00000000000000000000000000000000000000000000000000000000081526004018080602001828103825283818151815260200191508051906020019080838360005b83811015610ef6578082015181840152602081019050610edb565b50505050905090810190601f168015610f235780820380516001836020036101000a031916815260200191505b509250505060405180910390fd5b5060008385039050809150509392505050565b60008083118290610ff0576040517f08c379a00000000000000000000000000000000000000000000000000000000081526004018080602001828103825283818151815260200191508051906020019080838360005b83811015610fb5578082015181840152602081019050610f9a565b50505050905090810190601f168015610fe25780820380516001836020036101000a031916815260200191505b509250505060405180910390fd5b506000838581610ffc57fe5b049050809150509392505050565b606061106c826040518060400160405280602081526020017f5361666545524332303a206c6f772d6c6576656c2063616c6c206661696c65648152508573ffffffffffffffffffffffffffffffffffffffff166110f99092919063ffffffff16565b90506000815111156110f45780806020019051602081101561108d57600080fd5b81019080805190602001909291905050506110f3576040517f08c379a000000000000000000000000000000000000000000000000000000000815260040180806020018281038252602a81526020018061134c602a913960400191505060405180910390fd5b5b505050565b60606111088484600085611111565b90509392505050565b606061111c85611317565b61118e576040517f08c379a000000000000000000000000000000000000000000000000000000000815260040180806020018281038252601d8152602001807f416464726573733a2063616c6c20746f206e6f6e2d636f6e747261637400000081525060200191505060405180910390fd5b600060608673ffffffffffffffffffffffffffffffffffffffff1685876040518082805190602001908083835b602083106111de57805182526020820191506020810190506020830392506111bb565b6001836020036101000a03801982511681845116808217855250505050505090500191505060006040518083038185875af1925050503d8060008114611240576040519150601f19603f3d011682016040523d82523d6000602084013e611245565b606091505b5091509150811561125a57809250505061130f565b60008151111561126d5780518082602001fd5b836040517f08c379a00000000000000000000000000000000000000000000000000000000081526004018080602001828103825283818151815260200191508051906020019080838360005b838110156112d45780820151818401526020810190506112b9565b50505050905090810190601f1680156113015780820380516001836020036101000a031916815260200191505b509250505060405180910390fd5b949350505050565b600080823b90506000811191505091905056fe536166654d6174683a206d756c7469706c69636174696f6e206f766572666c6f775361666545524332303a204552433230206f7065726174696f6e20646964206e6f742073756363656564a26469706673582212206eefbd2d03e8d60ba72ab4c9c0da4a6816683873e85006f79f782a8f6242b80064736f6c63430006020033",
  "source": "pragma solidity ^0.6.0;\n\nimport \"@openzeppelin/contracts/math/Math.sol\";\nimport \"@openzeppelin/contracts/math/SafeMath.sol\";\nimport \"@openzeppelin/contracts/token/ERC20/IERC20.sol\";\nimport \"@openzeppelin/contracts/token/ERC20/SafeERC20.sol\";\n\ncontract LPTokenWrapper {\n    using SafeMath for uint256;\n    using SafeERC20 for IERC20;\n\n    IERC20 public constant LPT = IERC20(0xCd4079b9713CdD1e629492B9c07Ebd0dbD9F5202);\n\n    uint256 public _totalSupply;\n    mapping(address => uint256) public _balances;\n\n    uint256 public _profitPerShare; // x 1e18, monotonically increasing.\n    mapping(address => uint256) public _unrealized; // x 1e18\n    mapping(address => uint256) public _realized; // last paid _profitPerShare\n    event LPTPaid(address indexed user, uint256 profit);\n\n    function totalSupply() public view returns (uint256) {\n        return _totalSupply;\n    }\n\n    function balanceOf(address account) public view returns (uint256) {\n        return _balances[account];\n    }\n\n    function unrealizedProfit(address account) public view returns (uint256) {\n        return _unrealized[account].add(_balances[account].mul(_profitPerShare.sub(_realized[account])).div(1e18));\n    }    \n\n    function makeProfit(uint256 amount) internal {\n        _profitPerShare = _profitPerShare.add(amount.mul(1e18).div(totalSupply()));        \n    }\n\n    modifier update(address account) {\n        // Tells the contract that the buyer doesn't deserve dividends for the tokens before they owned them;\n        // really i know you think you do but you don't\n        // https://etherscan.io/address/0xb3775fb83f7d12a36e0475abdd1fca35c091efbe#code\n        if (account != address(0)) {\n            _unrealized[account] = unrealizedProfit(account);\n            _realized[account] = _profitPerShare;\n        }\n        _;\n    }    \n\n    function stake(uint256 amount) update(msg.sender) public virtual {\n        _totalSupply = _totalSupply.add(amount);\n        _balances[msg.sender] = _balances[msg.sender].add(amount);\n        LPT.safeTransferFrom(msg.sender, address(this), amount);\n    }\n\n    function withdraw(uint256 amount) update(msg.sender) public virtual {\n        _totalSupply = _totalSupply.sub(amount);\n        _balances[msg.sender] = _balances[msg.sender].sub(amount);\n        uint256 tax = amount.div(20);\n        amount = amount.sub(tax);\n        LPT.safeTransfer(msg.sender, amount);\n        makeProfit(tax);\n    }\n\n    function claim() update(msg.sender) public {\n        uint256 profit = _unrealized[msg.sender];\n        if (profit != 0) {\n            _unrealized[msg.sender] = 0;\n            LPT.safeTransfer(msg.sender, profit);\n            emit LPTPaid(msg.sender, profit);\n        }\n    }\n}\n\ncontract FomoPool is LPTokenWrapper {\n    uint256 public DURATION = 7 days;\n\tuint256 public initReward = 10000 * 1e18;\n\tuint256 public startTime;\n    uint256 public periodFinish;\n    uint256 public rewardRate;\n    uint256 public lastUpdateTime;\n    uint256 public rewardPerTokenStored;\n\tuint256 public devFee = 30; // 30 / 1000 = 3%\n\tuint256 public poolShare = 100; // 100 / 1000 = 10%\n\taddress public devAddress = 0x7C37f83F25Bc39Ba2734f44C791470a695953e3B;\n\taddress public prizePool;\n\n    mapping(address => uint256) public userRewardPerTokenPaid;\n    mapping(address => uint256) public rewards;\n\n    event RewardAdded(uint256 reward);\n    event Staked(address indexed user, uint256 amount);\n    event Withdrawn(address indexed user, uint256 amount);\n    event RewardPaid(address indexed user, uint256 reward);\n\n    IERC20 constant public FomoToken = IERC20(0xc7fD9aE2cf8542D71186877e21107E1F3A0b55ef);\n\n    constructor(address _prizePool) public {\n        _balances[msg.sender] = 1; // avoid divided by 0\n        _totalSupply = 1;\n        prizePool = _prizePool;\n    }\n\n    modifier updateReward(address account) {\n        rewardPerTokenStored = rewardPerToken();\n        lastUpdateTime = lastTimeRewardApplicable();\n        if (account != address(0)) {\n            rewards[account] = earned(account);\n            userRewardPerTokenPaid[account] = rewardPerTokenStored;\n        }\n        _;\n    }\n\n    function lastTimeRewardApplicable() public view returns (uint256) {\n        return Math.min(block.timestamp, periodFinish);\n    }\n\n    function rewardPerToken() public view returns (uint256) {\n        return\n            rewardPerTokenStored.add(\n                lastTimeRewardApplicable()\n                    .sub(lastUpdateTime)\n                    .mul(rewardRate)\n                    .mul(1e18)\n                    .div(totalSupply())\n            );\n    }\n\n    function earned(address account) public view returns (uint256) {\n        return\n            balanceOf(account)\n                .mul(rewardPerToken().sub(userRewardPerTokenPaid[account]))\n                .div(1e18)\n                .add(rewards[account]);\n    }\n\n    // stake visibility is public as overriding LPTokenWrapper's stake() function\n    function stake(uint256 amount) public override updateReward(msg.sender) checkHalve checkStart {\n        require(amount != 0, \"Cannot stake 0\");\n        super.stake(amount);\n        emit Staked(msg.sender, amount);\n    }\n\n    function withdraw(uint256 amount) public override updateReward(msg.sender) checkStart {\n        require(amount != 0, \"Cannot withdraw 0\");\n        super.withdraw(amount);\n        emit Withdrawn(msg.sender, amount);\n    }\n\n    function exit() external {\n        withdraw(balanceOf(msg.sender));\n        getReward();\n        claim();\n    }\n\n    function getReward() public updateReward(msg.sender) checkHalve checkStart {\n        uint256 reward = earned(msg.sender);\n\t\tuint256 devReward = reward.mul(devFee).div(1000);\n\t\tuint256 poolReward = reward.mul(poolShare).div(1000);\n\t\treward = reward.sub(devReward).sub(poolReward);\n        if (reward != 0) {\n            rewards[msg.sender] = 0;\n\t\t\tFomoToken.safeTransfer(devAddress, devReward);\n\t\t\tFomoToken.safeTransfer(prizePool, poolReward);\n            FomoToken.safeTransfer(msg.sender, reward);\n            emit RewardPaid(msg.sender, reward);\n        }\n    }\n\n\tmodifier checkStart() {\n\t\trequire(block.timestamp > startTime, \"not yet\");\n\t\t_;\n\t}\n\n\tmodifier checkHalve() {\n\t\tif (block.timestamp >= periodFinish) {\n\t\t\tinitReward = initReward.mul(50).div(100);\n\t\t\trewardRate = initReward.div(DURATION);\n\t\t\tperiodFinish = block.timestamp.add(DURATION);\n\t\t}\n\t\t_;\n\t}\n\n    /**\n     * @dev This function must be triggered by the contribution token approve-and-call fallback.\n     *      It will update reward rate and time.\n     * @param _amount Amount of reward tokens added to the pool\n     */\n    function receiveApproval(uint256 _amount) external updateReward(address(0)) {\n        require(_amount != 0, \"Cannot approve 0\");\n\n        if (block.timestamp >= periodFinish) {\n            rewardRate = _amount.div(DURATION);\n        } else {\n            uint256 remaining = periodFinish.sub(block.timestamp);\n            uint256 leftover = remaining.mul(rewardRate);\n            rewardRate = _amount.add(leftover).div(DURATION);\n        }\n        lastUpdateTime = block.timestamp;\n        periodFinish = block.timestamp.add(DURATION);\n\n        FomoToken.safeTransferFrom(msg.sender, address(this), _amount);\n        emit RewardAdded(_amount);\n    }\n}\n",
  "sourcePath": "/Users/cyan/Desktop/projects/defi/nifty.fi/fomo721/fomo721/contracts/fomoPool.sol",
  "compiler": {
    "name": "solc",
    "version": "0.6.2+commit.bacdbe57.Emscripten.clang"
  },
  "schemaVersion": "3.2.5",
  "updatedAt": "2020-09-12T03:52:02.880Z",
  "devdoc": {
    "methods": {}
  },
  "userdoc": {
    "methods": {}
  }
}