{
  "contractName": "LPTokenWrapper",
  "abi": [
    {
      "inputs": [
        {
          "internalType": "address",
          "name": "_lpt",
          "type": "address"
        }
      ],
      "stateMutability": "nonpayable",
      "type": "constructor"
    },
    {
      "anonymous": false,
      "inputs": [
        {
          "indexed": true,
          "internalType": "address",
          "name": "user",
          "type": "address"
        },
        {
          "indexed": false,
          "internalType": "uint256",
          "name": "profit",
          "type": "uint256"
        }
      ],
      "name": "LPTPaid",
      "type": "event"
    },
    {
      "inputs": [],
      "name": "LPT",
      "outputs": [
        {
          "internalType": "contract IERC20",
          "name": "",
          "type": "address"
        }
      ],
      "stateMutability": "view",
      "type": "function"
    },
    {
      "inputs": [
        {
          "internalType": "address",
          "name": "",
          "type": "address"
        }
      ],
      "name": "_balances",
      "outputs": [
        {
          "internalType": "uint256",
          "name": "",
          "type": "uint256"
        }
      ],
      "stateMutability": "view",
      "type": "function"
    },
    {
      "inputs": [],
      "name": "_profitPerShare",
      "outputs": [
        {
          "internalType": "uint256",
          "name": "",
          "type": "uint256"
        }
      ],
      "stateMutability": "view",
      "type": "function"
    },
    {
      "inputs": [
        {
          "internalType": "address",
          "name": "",
          "type": "address"
        }
      ],
      "name": "_realized",
      "outputs": [
        {
          "internalType": "uint256",
          "name": "",
          "type": "uint256"
        }
      ],
      "stateMutability": "view",
      "type": "function"
    },
    {
      "inputs": [],
      "name": "_totalSupply",
      "outputs": [
        {
          "internalType": "uint256",
          "name": "",
          "type": "uint256"
        }
      ],
      "stateMutability": "view",
      "type": "function"
    },
    {
      "inputs": [
        {
          "internalType": "address",
          "name": "",
          "type": "address"
        }
      ],
      "name": "_unrealized",
      "outputs": [
        {
          "internalType": "uint256",
          "name": "",
          "type": "uint256"
        }
      ],
      "stateMutability": "view",
      "type": "function"
    },
    {
      "inputs": [],
      "name": "totalSupply",
      "outputs": [
        {
          "internalType": "uint256",
          "name": "",
          "type": "uint256"
        }
      ],
      "stateMutability": "view",
      "type": "function"
    },
    {
      "inputs": [
        {
          "internalType": "address",
          "name": "account",
          "type": "address"
        }
      ],
      "name": "balanceOf",
      "outputs": [
        {
          "internalType": "uint256",
          "name": "",
          "type": "uint256"
        }
      ],
      "stateMutability": "view",
      "type": "function"
    },
    {
      "inputs": [
        {
          "internalType": "address",
          "name": "account",
          "type": "address"
        }
      ],
      "name": "unrealizedProfit",
      "outputs": [
        {
          "internalType": "uint256",
          "name": "",
          "type": "uint256"
        }
      ],
      "stateMutability": "view",
      "type": "function"
    },
    {
      "inputs": [
        {
          "internalType": "uint256",
          "name": "amount",
          "type": "uint256"
        }
      ],
      "name": "stake",
      "outputs": [],
      "stateMutability": "nonpayable",
      "type": "function"
    },
    {
      "inputs": [
        {
          "internalType": "uint256",
          "name": "amount",
          "type": "uint256"
        }
      ],
      "name": "withdraw",
      "outputs": [],
      "stateMutability": "nonpayable",
      "type": "function"
    },
    {
      "inputs": [],
      "name": "claim",
      "outputs": [],
      "stateMutability": "nonpayable",
      "type": "function"
    }
  ],
  "bytecode": "0x608060405234801561001057600080fd5b506040516113ec3803806113ec8339818101604052602081101561003357600080fd5b8101908080519060200190929190505050806000806101000a81548173ffffffffffffffffffffffffffffffffffffffff021916908373ffffffffffffffffffffffffffffffffffffffff16021790555050611358806100946000396000f3fe608060405234801561001057600080fd5b50600436106100b45760003560e01c806370a082311161007157806370a08231146101dd578063a694fc3a14610235578063b21c74e114610263578063b8f6c09c14610281578063ce5c1655146102cb578063ffab042014610323576100b4565b806318160ddd146100b95780632e1a7d4d146100d75780633eaaf86b146101055780634e71d92d146101235780635f25050a1461012d5780636ebcf60714610185575b600080fd5b6100c161037b565b6040518082815260200191505060405180910390f35b610103600480360360208110156100ed57600080fd5b8101908080359060200190929190505050610385565b005b61010d61054d565b6040518082815260200191505060405180910390f35b61012b610553565b005b61016f6004803603602081101561014357600080fd5b81019080803573ffffffffffffffffffffffffffffffffffffffff16906020019092919050505061074b565b6040518082815260200191505060405180910390f35b6101c76004803603602081101561019b57600080fd5b81019080803573ffffffffffffffffffffffffffffffffffffffff169060200190929190505050610763565b6040518082815260200191505060405180910390f35b61021f600480360360208110156101f357600080fd5b81019080803573ffffffffffffffffffffffffffffffffffffffff16906020019092919050505061077b565b6040518082815260200191505060405180910390f35b6102616004803603602081101561024b57600080fd5b81019080803590602001909291905050506107c4565b005b61026b61098e565b6040518082815260200191505060405180910390f35b610289610994565b604051808273ffffffffffffffffffffffffffffffffffffffff1673ffffffffffffffffffffffffffffffffffffffff16815260200191505060405180910390f35b61030d600480360360208110156102e157600080fd5b81019080803573ffffffffffffffffffffffffffffffffffffffff1690602001909291905050506109b9565b6040518082815260200191505060405180910390f35b6103656004803603602081101561033957600080fd5b81019080803573ffffffffffffffffffffffffffffffffffffffff169060200190929190505050610ad2565b6040518082815260200191505060405180910390f35b6000600154905090565b33600073ffffffffffffffffffffffffffffffffffffffff168173ffffffffffffffffffffffffffffffffffffffff161461044d576103c3816109b9565b600460008373ffffffffffffffffffffffffffffffffffffffff1673ffffffffffffffffffffffffffffffffffffffff16815260200190815260200160002081905550600354600560008373ffffffffffffffffffffffffffffffffffffffff1673ffffffffffffffffffffffffffffffffffffffff168152602001908152602001600020819055505b61046282600154610aea90919063ffffffff16565b6001819055506104ba82600260003373ffffffffffffffffffffffffffffffffffffffff1673ffffffffffffffffffffffffffffffffffffffff16815260200190815260200160002054610aea90919063ffffffff16565b600260003373ffffffffffffffffffffffffffffffffffffffff1673ffffffffffffffffffffffffffffffffffffffff1681526020019081526020016000208190555061054933836000809054906101000a900473ffffffffffffffffffffffffffffffffffffffff1673ffffffffffffffffffffffffffffffffffffffff16610b349092919063ffffffff16565b5050565b60015481565b33600073ffffffffffffffffffffffffffffffffffffffff168173ffffffffffffffffffffffffffffffffffffffff161461061b57610591816109b9565b600460008373ffffffffffffffffffffffffffffffffffffffff1673ffffffffffffffffffffffffffffffffffffffff16815260200190815260200160002081905550600354600560008373ffffffffffffffffffffffffffffffffffffffff1673ffffffffffffffffffffffffffffffffffffffff168152602001908152602001600020819055505b6000600460003373ffffffffffffffffffffffffffffffffffffffff1673ffffffffffffffffffffffffffffffffffffffff16815260200190815260200160002054905060008114610747576000600460003373ffffffffffffffffffffffffffffffffffffffff1673ffffffffffffffffffffffffffffffffffffffff168152602001908152602001600020819055506106f833826000809054906101000a900473ffffffffffffffffffffffffffffffffffffffff1673ffffffffffffffffffffffffffffffffffffffff16610b349092919063ffffffff16565b3373ffffffffffffffffffffffffffffffffffffffff167ff04b41893429a2707819cc29ddcc7e5f8b5f0b3d7f613136dc82f60ffd0d8aa3826040518082815260200191505060405180910390a25b5050565b60056020528060005260406000206000915090505481565b60026020528060005260406000206000915090505481565b6000600260008373ffffffffffffffffffffffffffffffffffffffff1673ffffffffffffffffffffffffffffffffffffffff168152602001908152602001600020549050919050565b33600073ffffffffffffffffffffffffffffffffffffffff168173ffffffffffffffffffffffffffffffffffffffff161461088c57610802816109b9565b600460008373ffffffffffffffffffffffffffffffffffffffff1673ffffffffffffffffffffffffffffffffffffffff16815260200190815260200160002081905550600354600560008373ffffffffffffffffffffffffffffffffffffffff1673ffffffffffffffffffffffffffffffffffffffff168152602001908152602001600020819055505b6108a182600154610bec90919063ffffffff16565b6001819055506108f982600260003373ffffffffffffffffffffffffffffffffffffffff1673ffffffffffffffffffffffffffffffffffffffff16815260200190815260200160002054610bec90919063ffffffff16565b600260003373ffffffffffffffffffffffffffffffffffffffff1673ffffffffffffffffffffffffffffffffffffffff1681526020019081526020016000208190555061098a3330846000809054906101000a900473ffffffffffffffffffffffffffffffffffffffff1673ffffffffffffffffffffffffffffffffffffffff16610c74909392919063ffffffff16565b5050565b60035481565b6000809054906101000a900473ffffffffffffffffffffffffffffffffffffffff1681565b6000610acb610a7d670de0b6b3a7640000610a6f610a21600560008873ffffffffffffffffffffffffffffffffffffffff1673ffffffffffffffffffffffffffffffffffffffff16815260200190815260200160002054600354610aea90919063ffffffff16565b600260008873ffffffffffffffffffffffffffffffffffffffff1673ffffffffffffffffffffffffffffffffffffffff16815260200190815260200160002054610d6190919063ffffffff16565b610de790919063ffffffff16565b600460008573ffffffffffffffffffffffffffffffffffffffff1673ffffffffffffffffffffffffffffffffffffffff16815260200190815260200160002054610bec90919063ffffffff16565b9050919050565b60046020528060005260406000206000915090505481565b6000610b2c83836040518060400160405280601e81526020017f536166654d6174683a207375627472616374696f6e206f766572666c6f770000815250610e31565b905092915050565b610be78363a9059cbb60e01b8484604051602401808373ffffffffffffffffffffffffffffffffffffffff1673ffffffffffffffffffffffffffffffffffffffff16815260200182815260200192505050604051602081830303815290604052907bffffffffffffffffffffffffffffffffffffffffffffffffffffffff19166020820180517bffffffffffffffffffffffffffffffffffffffffffffffffffffffff8381831617835250505050610ef1565b505050565b600080828401905083811015610c6a576040517f08c379a000000000000000000000000000000000000000000000000000000000815260040180806020018281038252601b8152602001807f536166654d6174683a206164646974696f6e206f766572666c6f77000000000081525060200191505060405180910390fd5b8091505092915050565b610d5b846323b872dd60e01b858585604051602401808473ffffffffffffffffffffffffffffffffffffffff1673ffffffffffffffffffffffffffffffffffffffff1681526020018373ffffffffffffffffffffffffffffffffffffffff1673ffffffffffffffffffffffffffffffffffffffff1681526020018281526020019350505050604051602081830303815290604052907bffffffffffffffffffffffffffffffffffffffffffffffffffffffff19166020820180517bffffffffffffffffffffffffffffffffffffffffffffffffffffffff8381831617835250505050610ef1565b50505050565b600080831415610d745760009050610de1565b6000828402905082848281610d8557fe5b0414610ddc576040517f08c379a00000000000000000000000000000000000000000000000000000000081526004018080602001828103825260218152602001806112d86021913960400191505060405180910390fd5b809150505b92915050565b6000610e2983836040518060400160405280601a81526020017f536166654d6174683a206469766973696f6e206279207a65726f000000000000815250610fe0565b905092915050565b6000838311158290610ede576040517f08c379a00000000000000000000000000000000000000000000000000000000081526004018080602001828103825283818151815260200191508051906020019080838360005b83811015610ea3578082015181840152602081019050610e88565b50505050905090810190601f168015610ed05780820380516001836020036101000a031916815260200191505b509250505060405180910390fd5b5060008385039050809150509392505050565b6060610f53826040518060400160405280602081526020017f5361666545524332303a206c6f772d6c6576656c2063616c6c206661696c65648152508573ffffffffffffffffffffffffffffffffffffffff166110a69092919063ffffffff16565b9050600081511115610fdb57808060200190516020811015610f7457600080fd5b8101908080519060200190929190505050610fda576040517f08c379a000000000000000000000000000000000000000000000000000000000815260040180806020018281038252602a8152602001806112f9602a913960400191505060405180910390fd5b5b505050565b6000808311829061108c576040517f08c379a00000000000000000000000000000000000000000000000000000000081526004018080602001828103825283818151815260200191508051906020019080838360005b83811015611051578082015181840152602081019050611036565b50505050905090810190601f16801561107e5780820380516001836020036101000a031916815260200191505b509250505060405180910390fd5b50600083858161109857fe5b049050809150509392505050565b60606110b584846000856110be565b90509392505050565b60606110c9856112c4565b61113b576040517f08c379a000000000000000000000000000000000000000000000000000000000815260040180806020018281038252601d8152602001807f416464726573733a2063616c6c20746f206e6f6e2d636f6e747261637400000081525060200191505060405180910390fd5b600060608673ffffffffffffffffffffffffffffffffffffffff1685876040518082805190602001908083835b6020831061118b5780518252602082019150602081019050602083039250611168565b6001836020036101000a03801982511681845116808217855250505050505090500191505060006040518083038185875af1925050503d80600081146111ed576040519150601f19603f3d011682016040523d82523d6000602084013e6111f2565b606091505b509150915081156112075780925050506112bc565b60008151111561121a5780518082602001fd5b836040517f08c379a00000000000000000000000000000000000000000000000000000000081526004018080602001828103825283818151815260200191508051906020019080838360005b83811015611281578082015181840152602081019050611266565b50505050905090810190601f1680156112ae5780820380516001836020036101000a031916815260200191505b509250505060405180910390fd5b949350505050565b600080823b90506000811191505091905056fe536166654d6174683a206d756c7469706c69636174696f6e206f766572666c6f775361666545524332303a204552433230206f7065726174696f6e20646964206e6f742073756363656564a264697066735822122039a8a33cff6075a2002ffc2e4f446efff4ddf2cdd0569cd29daabdbed1e1f72164736f6c63430006020033",
  "source": "pragma solidity ^0.6.0;\n\nimport \"@openzeppelin/contracts/math/Math.sol\";\nimport \"@openzeppelin/contracts/math/SafeMath.sol\";\nimport \"@openzeppelin/contracts/token/ERC20/IERC20.sol\";\nimport \"@openzeppelin/contracts/token/ERC20/SafeERC20.sol\";\n\ncontract LPTokenWrapper {\n    using SafeMath for uint256;\n    using SafeERC20 for IERC20;\n\n    IERC20 public LPT;\n\tconstructor(address _lpt) public {\n\t\tLPT = IERC20(_lpt);\n\t}\n\n    uint256 public _totalSupply;\n    mapping(address => uint256) public _balances;\n\n    uint256 public _profitPerShare; // x 1e18, monotonically increasing.\n    mapping(address => uint256) public _unrealized; // x 1e18\n    mapping(address => uint256) public _realized; // last paid _profitPerShare\n    event LPTPaid(address indexed user, uint256 profit);\n\n    function totalSupply() public view returns (uint256) {\n        return _totalSupply;\n    }\n\n    function balanceOf(address account) public view returns (uint256) {\n        return _balances[account];\n    }\n\n    function unrealizedProfit(address account) public view returns (uint256) {\n        return _unrealized[account].add(_balances[account].mul(_profitPerShare.sub(_realized[account])).div(1e18));\n    }    \n\n    modifier update(address account) {\n        // Tells the contract that the buyer doesn't deserve dividends for the tokens before they owned them;\n        // really i know you think you do but you don't\n        // https://etherscan.io/address/0xb3775fb83f7d12a36e0475abdd1fca35c091efbe#code\n        if (account != address(0)) {\n            _unrealized[account] = unrealizedProfit(account);\n            _realized[account] = _profitPerShare;\n        }\n        _;\n    }    \n\n    function stake(uint256 amount) update(msg.sender) public virtual {\n        _totalSupply = _totalSupply.add(amount);\n        _balances[msg.sender] = _balances[msg.sender].add(amount);\n        LPT.safeTransferFrom(msg.sender, address(this), amount);\n    }\n\n    function withdraw(uint256 amount) update(msg.sender) public virtual {\n        _totalSupply = _totalSupply.sub(amount);\n        _balances[msg.sender] = _balances[msg.sender].sub(amount);\n        LPT.safeTransfer(msg.sender, amount);\n    }\n\n    function claim() update(msg.sender) public {\n        uint256 profit = _unrealized[msg.sender];\n        if (profit != 0) {\n            _unrealized[msg.sender] = 0;\n            LPT.safeTransfer(msg.sender, profit);\n            emit LPTPaid(msg.sender, profit);\n        }\n    }\n}\n\ncontract YF721Pool is LPTokenWrapper {\n    uint256 public DURATION = 7 days;\n\tuint256 public initReward = 10000 * 1e18;\n\tuint256 public startTime;\n    uint256 public periodFinish;\n    uint256 public rewardRate;\n    uint256 public lastUpdateTime;\n    uint256 public rewardPerTokenStored;\n\tuint256 public devFee = 30; // 30 / 1000 = 3%\n\tuint256 public poolShare = 100; // 100 / 1000 = 10%\n\taddress public devAddress;\n\taddress public prizePool;\n\n    mapping(address => uint256) public userRewardPerTokenPaid;\n    mapping(address => uint256) public rewards;\n\n    event RewardAdded(uint256 reward);\n    event Staked(address indexed user, uint256 amount);\n    event Withdrawn(address indexed user, uint256 amount);\n    event RewardPaid(address indexed user, uint256 reward);\n\n    IERC20 public YF20;\n\n    constructor(\n\t\taddress _lpt,\n\t\taddress _yf20,\n\t\taddress _devaddr,\n\t\taddress _prizepool\n\t) LPTokenWrapper(_lpt) public {\n        _balances[msg.sender] = 1; // avoid divided by 0\n        _totalSupply = 1;\n        prizePool = _prizepool;\n\t\tdevAddress = _devaddr;\n\t\tYF20 = IERC20(_yf20);\n    }\n\n    modifier updateReward(address account) {\n        rewardPerTokenStored = rewardPerToken();\n        lastUpdateTime = lastTimeRewardApplicable();\n        if (account != address(0)) {\n            rewards[account] = earned(account);\n            userRewardPerTokenPaid[account] = rewardPerTokenStored;\n        }\n        _;\n    }\n\n    function lastTimeRewardApplicable() public view returns (uint256) {\n        return Math.min(block.timestamp, periodFinish);\n    }\n\n    function rewardPerToken() public view returns (uint256) {\n        return\n            rewardPerTokenStored.add(\n                lastTimeRewardApplicable()\n                    .sub(lastUpdateTime)\n                    .mul(rewardRate)\n                    .mul(1e18)\n                    .div(totalSupply())\n            );\n    }\n\n    function earned(address account) public view returns (uint256) {\n        return\n            balanceOf(account)\n                .mul(rewardPerToken().sub(userRewardPerTokenPaid[account]))\n                .div(1e18)\n                .add(rewards[account]);\n    }\n\n    // stake visibility is public as overriding LPTokenWrapper's stake() function\n    function stake(uint256 amount) public override updateReward(msg.sender) checkHalve checkStart {\n        require(amount != 0, \"Cannot stake 0\");\n        super.stake(amount);\n        emit Staked(msg.sender, amount);\n    }\n\n    function withdraw(uint256 amount) public override updateReward(msg.sender) checkStart {\n        require(amount != 0, \"Cannot withdraw 0\");\n        super.withdraw(amount);\n        emit Withdrawn(msg.sender, amount);\n    }\n\n    function exit() external {\n        withdraw(balanceOf(msg.sender));\n        getReward();\n        claim();\n    }\n\n    function getReward() public updateReward(msg.sender) checkHalve checkStart {\n        uint256 reward = earned(msg.sender);\n\t\tuint256 devReward = reward.mul(devFee).div(1000);\n\t\tuint256 poolReward = reward.mul(poolShare).div(1000);\n\t\treward = reward.sub(devReward).sub(poolReward);\n        if (reward != 0) {\n            rewards[msg.sender] = 0;\n\t\t\tYF20.safeTransfer(devAddress, devReward);\n\t\t\tYF20.safeTransfer(prizePool, poolReward);\n            YF20.safeTransfer(msg.sender, reward);\n            emit RewardPaid(msg.sender, reward);\n        }\n    }\n\n\tmodifier checkStart() {\n\t\trequire(block.timestamp > startTime, \"not yet\");\n\t\t_;\n\t}\n\n\tmodifier checkHalve() {\n\t\tif (block.timestamp >= periodFinish) {\n\t\t\tinitReward = initReward.mul(50).div(100);\n\t\t\trewardRate = initReward.div(DURATION);\n\t\t\tperiodFinish = block.timestamp.add(DURATION);\n\t\t}\n\t\t_;\n\t}\n\n    /**\n     * @dev This function must be triggered by the contribution token approve-and-call fallback.\n     *      It will update reward rate and time.\n     * @param _amount Amount of reward tokens added to the pool\n     */\n    function receiveApproval(uint256 _amount) external updateReward(address(0)) {\n        require(_amount != 0, \"Cannot approve 0\");\n\n        if (block.timestamp >= periodFinish) {\n            rewardRate = _amount.div(DURATION);\n        } else {\n            uint256 remaining = periodFinish.sub(block.timestamp);\n            uint256 leftover = remaining.mul(rewardRate);\n            rewardRate = _amount.add(leftover).div(DURATION);\n        }\n        lastUpdateTime = block.timestamp;\n        periodFinish = block.timestamp.add(DURATION);\n\n        YF20.safeTransferFrom(msg.sender, address(this), _amount);\n        emit RewardAdded(_amount);\n    }\n}\n",
  "sourcePath": "/Users/cyan/Desktop/projects/defi/nifty.fi/yf721/contracts/yf721RewardPool.sol",
  "compiler": {
    "name": "solc",
    "version": "0.6.2+commit.bacdbe57.Emscripten.clang"
  },
  "schemaVersion": "3.2.5",
  "updatedAt": "2020-09-14T05:51:37.656Z",
  "devdoc": {
    "methods": {}
  },
  "userdoc": {
    "methods": {}
  }
}