{
  "contractName": "YF721PrizePool",
  "abi": [
    {
      "inputs": [
        {
          "internalType": "address",
          "name": "_yf20",
          "type": "address"
        },
        {
          "internalType": "address",
          "name": "_yf721",
          "type": "address"
        }
      ],
      "stateMutability": "nonpayable",
      "type": "constructor"
    },
    {
      "inputs": [],
      "name": "YF20",
      "outputs": [
        {
          "internalType": "contract IERC20",
          "name": "",
          "type": "address"
        }
      ],
      "stateMutability": "view",
      "type": "function"
    },
    {
      "inputs": [],
      "name": "YF721",
      "outputs": [
        {
          "internalType": "contract IYF721",
          "name": "",
          "type": "address"
        }
      ],
      "stateMutability": "view",
      "type": "function"
    },
    {
      "inputs": [],
      "name": "burnAddress",
      "outputs": [
        {
          "internalType": "address",
          "name": "",
          "type": "address"
        }
      ],
      "stateMutability": "view",
      "type": "function"
    },
    {
      "inputs": [],
      "name": "minYF20",
      "outputs": [
        {
          "internalType": "uint256",
          "name": "",
          "type": "uint256"
        }
      ],
      "stateMutability": "view",
      "type": "function"
    },
    {
      "inputs": [
        {
          "internalType": "uint256",
          "name": "tokenId",
          "type": "uint256"
        }
      ],
      "name": "draw",
      "outputs": [],
      "stateMutability": "nonpayable",
      "type": "function"
    }
  ],
  "bytecode": "0x6080604052678ac7230489e8000060025534801561001c57600080fd5b506040516110f03803806110f08339818101604052604081101561003f57600080fd5b810190808051906020019092919080519060200190929190505050816000806101000a81548173ffffffffffffffffffffffffffffffffffffffff021916908373ffffffffffffffffffffffffffffffffffffffff16021790555080600160006101000a81548173ffffffffffffffffffffffffffffffffffffffff021916908373ffffffffffffffffffffffffffffffffffffffff1602179055505050611004806100ec6000396000f3fe608060405234801561001057600080fd5b50600436106100575760003560e01c80633b3041471461005c57806370d5ae051461008a578063d82857ed146100d4578063e729cc291461011e578063f4501efc1461013c575b600080fd5b6100886004803603602081101561007257600080fd5b8101908080359060200190929190505050610186565b005b6100926105d3565b604051808273ffffffffffffffffffffffffffffffffffffffff1673ffffffffffffffffffffffffffffffffffffffff16815260200191505060405180910390f35b6100dc6105db565b604051808273ffffffffffffffffffffffffffffffffffffffff1673ffffffffffffffffffffffffffffffffffffffff16815260200191505060405180910390f35b610126610601565b6040518082815260200191505060405180910390f35b610144610607565b604051808273ffffffffffffffffffffffffffffffffffffffff1673ffffffffffffffffffffffffffffffffffffffff16815260200191505060405180910390f35b6002546000809054906101000a900473ffffffffffffffffffffffffffffffffffffffff1673ffffffffffffffffffffffffffffffffffffffff166370a08231336040518263ffffffff1660e01b8152600401808273ffffffffffffffffffffffffffffffffffffffff1673ffffffffffffffffffffffffffffffffffffffff16815260200191505060206040518083038186803b15801561022757600080fd5b505afa15801561023b573d6000803e3d6000fd5b505050506040513d602081101561025157600080fd5b8101908080519060200190929190505050101561026d57600080fd5b3373ffffffffffffffffffffffffffffffffffffffff16600160009054906101000a900473ffffffffffffffffffffffffffffffffffffffff1673ffffffffffffffffffffffffffffffffffffffff16636352211e836040518263ffffffff1660e01b81526004018082815260200191505060206040518083038186803b1580156102f757600080fd5b505afa15801561030b573d6000803e3d6000fd5b505050506040513d602081101561032157600080fd5b810190808051906020019092919050505073ffffffffffffffffffffffffffffffffffffffff161461035257600080fd5b61035b8161062c565b61036457600080fd5b600160009054906101000a900473ffffffffffffffffffffffffffffffffffffffff1673ffffffffffffffffffffffffffffffffffffffff166342842e0e3363deadbeef846040518463ffffffff1660e01b8152600401808473ffffffffffffffffffffffffffffffffffffffff1673ffffffffffffffffffffffffffffffffffffffff1681526020018373ffffffffffffffffffffffffffffffffffffffff1673ffffffffffffffffffffffffffffffffffffffff1681526020018281526020019350505050600060405180830381600087803b15801561044557600080fd5b505af1158015610459573d6000803e3d6000fd5b5050505060006104676107ec565b9050600061057e6104976127106104896102bc8661087290919063ffffffff16565b6108fa90919063ffffffff16565b6000809054906101000a900473ffffffffffffffffffffffffffffffffffffffff1673ffffffffffffffffffffffffffffffffffffffff166370a08231306040518263ffffffff1660e01b8152600401808273ffffffffffffffffffffffffffffffffffffffff1673ffffffffffffffffffffffffffffffffffffffff16815260200191505060206040518083038186803b15801561053557600080fd5b505afa158015610549573d6000803e3d6000fd5b505050506040513d602081101561055f57600080fd5b810190808051906020019092919050505061094490919063ffffffff16565b90506105ce3033836000809054906101000a900473ffffffffffffffffffffffffffffffffffffffff1673ffffffffffffffffffffffffffffffffffffffff166109ca909392919063ffffffff16565b505050565b63deadbeef81565b600160009054906101000a900473ffffffffffffffffffffffffffffffffffffffff1681565b60025481565b6000809054906101000a900473ffffffffffffffffffffffffffffffffffffffff1681565b60006060600160009054906101000a900473ffffffffffffffffffffffffffffffffffffffff1673ffffffffffffffffffffffffffffffffffffffff1663c8903887846040518263ffffffff1660e01b81526004018082815260200191505060006040518083038186803b1580156106a357600080fd5b505afa1580156106b7573d6000803e3d6000fd5b505050506040513d6000823e3d601f19601f8201168201806040525060208110156106e157600080fd5b810190808051604051939291908464010000000082111561070157600080fd5b8382019150602082018581111561071757600080fd5b825186600182028301116401000000008211171561073457600080fd5b8083526020830192505050908051906020019080838360005b8381101561076857808201518184015260208101905061074d565b50505050905090810190601f1680156107955780820380516001836020036101000a031916815260200191505b5060405250505090506040518060400160405280600581526020017f594637323100000000000000000000000000000000000000000000000000000081525080519060200120818051906020012014915050919050565b600080424433604051602001808481526020018381526020018273ffffffffffffffffffffffffffffffffffffffff1673ffffffffffffffffffffffffffffffffffffffff1660601b815260140193505050506040516020818303038152906040528051906020012060001c90506000610868826102bc610ab7565b9050809250505090565b6000808284019050838110156108f0576040517f08c379a000000000000000000000000000000000000000000000000000000000815260040180806020018281038252601b8152602001807f536166654d6174683a206164646974696f6e206f766572666c6f77000000000081525060200191505060405180910390fd5b8091505092915050565b600061093c83836040518060400160405280601a81526020017f536166654d6174683a206469766973696f6e206279207a65726f000000000000815250610b9d565b905092915050565b60008083141561095757600090506109c4565b600082840290508284828161096857fe5b04146109bf576040517f08c379a0000000000000000000000000000000000000000000000000000000008152600401808060200182810382526021815260200180610f846021913960400191505060405180910390fd5b809150505b92915050565b610ab1846323b872dd60e01b858585604051602401808473ffffffffffffffffffffffffffffffffffffffff1673ffffffffffffffffffffffffffffffffffffffff1681526020018373ffffffffffffffffffffffffffffffffffffffff1673ffffffffffffffffffffffffffffffffffffffff1681526020018281526020019350505050604051602081830303815290604052907bffffffffffffffffffffffffffffffffffffffffffffffffffffffff19166020820180517bffffffffffffffffffffffffffffffffffffffffffffffffffffffff8381831617835250505050610c63565b50505050565b6000808211610b2e576040517f08c379a00000000000000000000000000000000000000000000000000000000081526004018080602001828103825260158152602001807f556e69666f726d52616e642f6d696e2d626f756e64000000000000000000000081525060200191505060405180910390fd5b6000828360000381610b3c57fe5b06905060008490505b600115610b8957818110610b5857610b89565b80604051602001808281526020019150506040516020818303038152906040528051906020012060001c9050610b45565b838181610b9257fe5b069250505092915050565b60008083118290610c49576040517f08c379a00000000000000000000000000000000000000000000000000000000081526004018080602001828103825283818151815260200191508051906020019080838360005b83811015610c0e578082015181840152602081019050610bf3565b50505050905090810190601f168015610c3b5780820380516001836020036101000a031916815260200191505b509250505060405180910390fd5b506000838581610c5557fe5b049050809150509392505050565b6060610cc5826040518060400160405280602081526020017f5361666545524332303a206c6f772d6c6576656c2063616c6c206661696c65648152508573ffffffffffffffffffffffffffffffffffffffff16610d529092919063ffffffff16565b9050600081511115610d4d57808060200190516020811015610ce657600080fd5b8101908080519060200190929190505050610d4c576040517f08c379a000000000000000000000000000000000000000000000000000000000815260040180806020018281038252602a815260200180610fa5602a913960400191505060405180910390fd5b5b505050565b6060610d618484600085610d6a565b90509392505050565b6060610d7585610f70565b610de7576040517f08c379a000000000000000000000000000000000000000000000000000000000815260040180806020018281038252601d8152602001807f416464726573733a2063616c6c20746f206e6f6e2d636f6e747261637400000081525060200191505060405180910390fd5b600060608673ffffffffffffffffffffffffffffffffffffffff1685876040518082805190602001908083835b60208310610e375780518252602082019150602081019050602083039250610e14565b6001836020036101000a03801982511681845116808217855250505050505090500191505060006040518083038185875af1925050503d8060008114610e99576040519150601f19603f3d011682016040523d82523d6000602084013e610e9e565b606091505b50915091508115610eb3578092505050610f68565b600081511115610ec65780518082602001fd5b836040517f08c379a00000000000000000000000000000000000000000000000000000000081526004018080602001828103825283818151815260200191508051906020019080838360005b83811015610f2d578082015181840152602081019050610f12565b50505050905090810190601f168015610f5a5780820380516001836020036101000a031916815260200191505b509250505060405180910390fd5b949350505050565b600080823b90506000811191505091905056fe536166654d6174683a206d756c7469706c69636174696f6e206f766572666c6f775361666545524332303a204552433230206f7065726174696f6e20646964206e6f742073756363656564a264697066735822122041059eb2958f76142ded76eb468f4ebcaf3682e71990fa71721967c9836cc21564736f6c63430006020033",
  "source": "pragma solidity ^0.6.0;\n\nimport \"@openzeppelin/contracts/math/Math.sol\";\nimport \"@openzeppelin/contracts/math/SafeMath.sol\";\nimport \"@openzeppelin/contracts/token/ERC20/IERC20.sol\";\nimport \"@openzeppelin/contracts/token/ERC20/SafeERC20.sol\";\nimport \"@openzeppelin/contracts/token/ERC721/IERC721.sol\";\nimport \"./rnd.sol\";\n\ninterface IYF721 is IERC721 {\n\tfunction getYF721Info(uint256 index) external view returns (string memory);\n}\n\ncontract YF721PrizePool {\n    using SafeMath for uint256;\n\tusing SafeERC20 for IERC20;\n    \n\tIERC20 public YF20;\n\tIYF721 public YF721;\n\tuint256 public minYF20 = 10 * 1e18;\n\taddress constant public burnAddress = 0x00000000000000000000000000000000DeaDBeef;\n\n\tconstructor(\n\t\taddress _yf20,\n\t\taddress _yf721\n\t) public {\n\t\tYF20 = IERC20(_yf20);\n\t\tYF721 = IYF721(_yf721);\n\t}\n\n\tfunction getRandom() internal view returns (uint256) {\n\t\tuint256 seed = uint256(keccak256(abi.encodePacked(now, block.difficulty, msg.sender)));\n        uint256 rnd = UniformRandomNumber.uniform(seed, 700);\n\t\treturn rnd;\n\t}\n\n\tmodifier onlyYFHolder() {\n\t\trequire(YF20.balanceOf(msg.sender) >= minYF20);\n\t\t_;\n\t}\n\n\tfunction isYF721(uint256 id) internal view returns (bool) {\n\t\tstring memory char = YF721.getYF721Info(id);\n\t\treturn keccak256(bytes(char)) == keccak256(bytes(\"YF721\"));\n\t}\n\n\tfunction draw(uint256 tokenId) external onlyYFHolder {\n\t\trequire(YF721.ownerOf(tokenId) == msg.sender);\n\t\trequire(isYF721(tokenId));\n\t\tYF721.safeTransferFrom(msg.sender, burnAddress, tokenId);\n\t\tuint256 rnd = getRandom();\n\t\tuint256 reward = YF20.balanceOf(address(this)).mul(rnd.add(700).div(10000));\n\t\tYF20.safeTransferFrom(address(this), msg.sender, reward);\n\t}\n}\n",
  "sourcePath": "/Users/cyan/Desktop/projects/defi/nifty.fi/yf721/contracts/yf721PrizePool.sol",
  "compiler": {
    "name": "solc",
    "version": "0.6.2+commit.bacdbe57.Emscripten.clang"
  },
  "schemaVersion": "3.2.5",
  "updatedAt": "2020-09-12T14:51:43.651Z",
  "devdoc": {
    "methods": {}
  },
  "userdoc": {
    "methods": {}
  }
}