{
  "contractName": "YF721",
  "abi": [
    {
      "inputs": [
        {
          "internalType": "address",
          "name": "_yf20",
          "type": "address"
        }
      ],
      "stateMutability": "nonpayable",
      "type": "constructor"
    },
    {
      "anonymous": false,
      "inputs": [
        {
          "indexed": true,
          "internalType": "address",
          "name": "owner",
          "type": "address"
        },
        {
          "indexed": true,
          "internalType": "address",
          "name": "approved",
          "type": "address"
        },
        {
          "indexed": true,
          "internalType": "uint256",
          "name": "tokenId",
          "type": "uint256"
        }
      ],
      "name": "Approval",
      "type": "event"
    },
    {
      "anonymous": false,
      "inputs": [
        {
          "indexed": true,
          "internalType": "address",
          "name": "owner",
          "type": "address"
        },
        {
          "indexed": true,
          "internalType": "address",
          "name": "operator",
          "type": "address"
        },
        {
          "indexed": false,
          "internalType": "bool",
          "name": "approved",
          "type": "bool"
        }
      ],
      "name": "ApprovalForAll",
      "type": "event"
    },
    {
      "anonymous": false,
      "inputs": [
        {
          "indexed": true,
          "internalType": "address",
          "name": "from",
          "type": "address"
        },
        {
          "indexed": true,
          "internalType": "address",
          "name": "to",
          "type": "address"
        },
        {
          "indexed": true,
          "internalType": "uint256",
          "name": "tokenId",
          "type": "uint256"
        }
      ],
      "name": "Transfer",
      "type": "event"
    },
    {
      "inputs": [],
      "name": "YF20",
      "outputs": [
        {
          "internalType": "contract IERC20",
          "name": "",
          "type": "address"
        }
      ],
      "stateMutability": "view",
      "type": "function"
    },
    {
      "inputs": [],
      "name": "_1",
      "outputs": [
        {
          "internalType": "bytes32",
          "name": "",
          "type": "bytes32"
        }
      ],
      "stateMutability": "view",
      "type": "function"
    },
    {
      "inputs": [],
      "name": "_2",
      "outputs": [
        {
          "internalType": "bytes32",
          "name": "",
          "type": "bytes32"
        }
      ],
      "stateMutability": "view",
      "type": "function"
    },
    {
      "inputs": [],
      "name": "_7",
      "outputs": [
        {
          "internalType": "bytes32",
          "name": "",
          "type": "bytes32"
        }
      ],
      "stateMutability": "view",
      "type": "function"
    },
    {
      "inputs": [],
      "name": "_F",
      "outputs": [
        {
          "internalType": "bytes32",
          "name": "",
          "type": "bytes32"
        }
      ],
      "stateMutability": "view",
      "type": "function"
    },
    {
      "inputs": [],
      "name": "_Y",
      "outputs": [
        {
          "internalType": "bytes32",
          "name": "",
          "type": "bytes32"
        }
      ],
      "stateMutability": "view",
      "type": "function"
    },
    {
      "inputs": [
        {
          "internalType": "address",
          "name": "to",
          "type": "address"
        },
        {
          "internalType": "uint256",
          "name": "tokenId",
          "type": "uint256"
        }
      ],
      "name": "approve",
      "outputs": [],
      "stateMutability": "nonpayable",
      "type": "function"
    },
    {
      "inputs": [
        {
          "internalType": "address",
          "name": "owner",
          "type": "address"
        }
      ],
      "name": "balanceOf",
      "outputs": [
        {
          "internalType": "uint256",
          "name": "",
          "type": "uint256"
        }
      ],
      "stateMutability": "view",
      "type": "function"
    },
    {
      "inputs": [],
      "name": "baseURI",
      "outputs": [
        {
          "internalType": "string",
          "name": "",
          "type": "string"
        }
      ],
      "stateMutability": "view",
      "type": "function"
    },
    {
      "inputs": [],
      "name": "burnAddress",
      "outputs": [
        {
          "internalType": "address",
          "name": "",
          "type": "address"
        }
      ],
      "stateMutability": "view",
      "type": "function"
    },
    {
      "inputs": [],
      "name": "burnRatio",
      "outputs": [
        {
          "internalType": "uint256",
          "name": "",
          "type": "uint256"
        }
      ],
      "stateMutability": "view",
      "type": "function"
    },
    {
      "inputs": [],
      "name": "countdown",
      "outputs": [
        {
          "internalType": "uint256",
          "name": "",
          "type": "uint256"
        }
      ],
      "stateMutability": "view",
      "type": "function"
    },
    {
      "inputs": [
        {
          "internalType": "uint256",
          "name": "tokenId",
          "type": "uint256"
        }
      ],
      "name": "getApproved",
      "outputs": [
        {
          "internalType": "address",
          "name": "",
          "type": "address"
        }
      ],
      "stateMutability": "view",
      "type": "function"
    },
    {
      "inputs": [
        {
          "internalType": "address",
          "name": "owner",
          "type": "address"
        },
        {
          "internalType": "address",
          "name": "operator",
          "type": "address"
        }
      ],
      "name": "isApprovedForAll",
      "outputs": [
        {
          "internalType": "bool",
          "name": "",
          "type": "bool"
        }
      ],
      "stateMutability": "view",
      "type": "function"
    },
    {
      "inputs": [],
      "name": "lastMintTime",
      "outputs": [
        {
          "internalType": "uint256",
          "name": "",
          "type": "uint256"
        }
      ],
      "stateMutability": "view",
      "type": "function"
    },
    {
      "inputs": [],
      "name": "lastMinter",
      "outputs": [
        {
          "internalType": "address",
          "name": "",
          "type": "address"
        }
      ],
      "stateMutability": "view",
      "type": "function"
    },
    {
      "inputs": [],
      "name": "mintPieceFee",
      "outputs": [
        {
          "internalType": "uint256",
          "name": "",
          "type": "uint256"
        }
      ],
      "stateMutability": "view",
      "type": "function"
    },
    {
      "inputs": [],
      "name": "name",
      "outputs": [
        {
          "internalType": "string",
          "name": "",
          "type": "string"
        }
      ],
      "stateMutability": "view",
      "type": "function"
    },
    {
      "inputs": [
        {
          "internalType": "uint256",
          "name": "tokenId",
          "type": "uint256"
        }
      ],
      "name": "ownerOf",
      "outputs": [
        {
          "internalType": "address",
          "name": "",
          "type": "address"
        }
      ],
      "stateMutability": "view",
      "type": "function"
    },
    {
      "inputs": [],
      "name": "prizePool",
      "outputs": [
        {
          "internalType": "address",
          "name": "",
          "type": "address"
        }
      ],
      "stateMutability": "view",
      "type": "function"
    },
    {
      "inputs": [
        {
          "internalType": "address",
          "name": "from",
          "type": "address"
        },
        {
          "internalType": "address",
          "name": "to",
          "type": "address"
        },
        {
          "internalType": "uint256",
          "name": "tokenId",
          "type": "uint256"
        }
      ],
      "name": "safeTransferFrom",
      "outputs": [],
      "stateMutability": "nonpayable",
      "type": "function"
    },
    {
      "inputs": [
        {
          "internalType": "address",
          "name": "from",
          "type": "address"
        },
        {
          "internalType": "address",
          "name": "to",
          "type": "address"
        },
        {
          "internalType": "uint256",
          "name": "tokenId",
          "type": "uint256"
        },
        {
          "internalType": "bytes",
          "name": "_data",
          "type": "bytes"
        }
      ],
      "name": "safeTransferFrom",
      "outputs": [],
      "stateMutability": "nonpayable",
      "type": "function"
    },
    {
      "inputs": [
        {
          "internalType": "address",
          "name": "operator",
          "type": "address"
        },
        {
          "internalType": "bool",
          "name": "approved",
          "type": "bool"
        }
      ],
      "name": "setApprovalForAll",
      "outputs": [],
      "stateMutability": "nonpayable",
      "type": "function"
    },
    {
      "inputs": [
        {
          "internalType": "bytes4",
          "name": "interfaceId",
          "type": "bytes4"
        }
      ],
      "name": "supportsInterface",
      "outputs": [
        {
          "internalType": "bool",
          "name": "",
          "type": "bool"
        }
      ],
      "stateMutability": "view",
      "type": "function"
    },
    {
      "inputs": [],
      "name": "symbol",
      "outputs": [
        {
          "internalType": "string",
          "name": "",
          "type": "string"
        }
      ],
      "stateMutability": "view",
      "type": "function"
    },
    {
      "inputs": [
        {
          "internalType": "uint256",
          "name": "index",
          "type": "uint256"
        }
      ],
      "name": "tokenByIndex",
      "outputs": [
        {
          "internalType": "uint256",
          "name": "",
          "type": "uint256"
        }
      ],
      "stateMutability": "view",
      "type": "function"
    },
    {
      "inputs": [
        {
          "internalType": "address",
          "name": "owner",
          "type": "address"
        },
        {
          "internalType": "uint256",
          "name": "index",
          "type": "uint256"
        }
      ],
      "name": "tokenOfOwnerByIndex",
      "outputs": [
        {
          "internalType": "uint256",
          "name": "",
          "type": "uint256"
        }
      ],
      "stateMutability": "view",
      "type": "function"
    },
    {
      "inputs": [
        {
          "internalType": "uint256",
          "name": "tokenId",
          "type": "uint256"
        }
      ],
      "name": "tokenURI",
      "outputs": [
        {
          "internalType": "string",
          "name": "",
          "type": "string"
        }
      ],
      "stateMutability": "view",
      "type": "function"
    },
    {
      "inputs": [],
      "name": "totalSupply",
      "outputs": [
        {
          "internalType": "uint256",
          "name": "",
          "type": "uint256"
        }
      ],
      "stateMutability": "view",
      "type": "function"
    },
    {
      "inputs": [
        {
          "internalType": "address",
          "name": "from",
          "type": "address"
        },
        {
          "internalType": "address",
          "name": "to",
          "type": "address"
        },
        {
          "internalType": "uint256",
          "name": "tokenId",
          "type": "uint256"
        }
      ],
      "name": "transferFrom",
      "outputs": [],
      "stateMutability": "nonpayable",
      "type": "function"
    },
    {
      "inputs": [
        {
          "internalType": "uint256",
          "name": "",
          "type": "uint256"
        }
      ],
      "name": "winners",
      "outputs": [
        {
          "internalType": "uint256",
          "name": "timestamp",
          "type": "uint256"
        },
        {
          "internalType": "uint256",
          "name": "tokenId",
          "type": "uint256"
        },
        {
          "internalType": "address",
          "name": "owner",
          "type": "address"
        }
      ],
      "stateMutability": "view",
      "type": "function"
    },
    {
      "inputs": [],
      "name": "yf721Count",
      "outputs": [
        {
          "internalType": "uint256",
          "name": "",
          "type": "uint256"
        }
      ],
      "stateMutability": "view",
      "type": "function"
    },
    {
      "inputs": [],
      "name": "yf721PieceCount",
      "outputs": [
        {
          "internalType": "uint256",
          "name": "",
          "type": "uint256"
        }
      ],
      "stateMutability": "view",
      "type": "function"
    },
    {
      "inputs": [
        {
          "internalType": "address",
          "name": "_prizepool",
          "type": "address"
        }
      ],
      "name": "setPrizePool",
      "outputs": [],
      "stateMutability": "nonpayable",
      "type": "function"
    },
    {
      "inputs": [],
      "name": "getWinnersLength",
      "outputs": [
        {
          "internalType": "uint256",
          "name": "",
          "type": "uint256"
        }
      ],
      "stateMutability": "view",
      "type": "function"
    },
    {
      "inputs": [],
      "name": "getYF721Count",
      "outputs": [
        {
          "internalType": "uint256",
          "name": "",
          "type": "uint256"
        }
      ],
      "stateMutability": "view",
      "type": "function"
    },
    {
      "inputs": [],
      "name": "getYF721PieceCount",
      "outputs": [
        {
          "internalType": "uint256",
          "name": "",
          "type": "uint256"
        }
      ],
      "stateMutability": "view",
      "type": "function"
    },
    {
      "inputs": [
        {
          "internalType": "uint256",
          "name": "idx",
          "type": "uint256"
        }
      ],
      "name": "getYF721Info",
      "outputs": [
        {
          "internalType": "string",
          "name": "",
          "type": "string"
        }
      ],
      "stateMutability": "view",
      "type": "function"
    },
    {
      "inputs": [],
      "name": "mintYF721Piece",
      "outputs": [],
      "stateMutability": "nonpayable",
      "type": "function"
    },
    {
      "inputs": [
        {
          "internalType": "uint256",
          "name": "id",
          "type": "uint256"
        }
      ],
      "name": "burnIt",
      "outputs": [],
      "stateMutability": "nonpayable",
      "type": "function"
    },
    {
      "inputs": [
        {
          "internalType": "uint256",
          "name": "id1",
          "type": "uint256"
        },
        {
          "internalType": "uint256",
          "name": "id2",
          "type": "uint256"
        },
        {
          "internalType": "uint256",
          "name": "id3",
          "type": "uint256"
        },
        {
          "internalType": "uint256",
          "name": "id4",
          "type": "uint256"
        },
        {
          "internalType": "uint256",
          "name": "id5",
          "type": "uint256"
        }
      ],
      "name": "mintFomo721",
      "outputs": [],
      "stateMutability": "nonpayable",
      "type": "function"
    },
    {
      "inputs": [
        {
          "internalType": "address",
          "name": "_owner",
          "type": "address"
        }
      ],
      "name": "tokensOfOwner",
      "outputs": [
        {
          "internalType": "uint256[]",
          "name": "ownerTokens",
          "type": "uint256[]"
        }
      ],
      "stateMutability": "view",
      "type": "function"
    }
  ],
  "bytecode": "0x60806040526101f4600e55610e10600f5560006018553480156200002257600080fd5b5060405162004d5c38038062004d5c833981810160405260208110156200004857600080fd5b81019080805190602001909291905050506040518060400160405280600581526020017f59463732310000000000000000000000000000000000000000000000000000008152506040518060400160405280600581526020017f5946373231000000000000000000000000000000000000000000000000000000815250620000dd6301ffc9a760e01b6200038660201b60201c565b8160069080519060200190620000f59291906200048f565b5080600790805190602001906200010e9291906200048f565b50620001276380ac58cd60e01b6200038660201b60201c565b6200013f635b5e139f60e01b6200038660201b60201c565b6200015763780e9d6360e01b6200038660201b60201c565b505033601a60006101000a81548173ffffffffffffffffffffffffffffffffffffffff021916908373ffffffffffffffffffffffffffffffffffffffff1602179055506000600c819055506000600d8190555080600a60006101000a81548173ffffffffffffffffffffffffffffffffffffffff021916908373ffffffffffffffffffffffffffffffffffffffff16021790555063deadbeef600b60006101000a81548173ffffffffffffffffffffffffffffffffffffffff021916908373ffffffffffffffffffffffffffffffffffffffff1602179055506040518060400160405280600181526020017f5900000000000000000000000000000000000000000000000000000000000000815250805190602001206012819055506040518060400160405280600181526020017f4600000000000000000000000000000000000000000000000000000000000000815250805190602001206013819055506040518060400160405280600181526020017f3700000000000000000000000000000000000000000000000000000000000000815250805190602001206014819055506040518060400160405280600181526020017f3200000000000000000000000000000000000000000000000000000000000000815250805190602001206015819055506040518060400160405280600181526020017f310000000000000000000000000000000000000000000000000000000000000081525080519060200120601681905550506200053e565b63ffffffff60e01b817bffffffffffffffffffffffffffffffffffffffffffffffffffffffff1916141562000423576040517f08c379a000000000000000000000000000000000000000000000000000000000815260040180806020018281038252601c8152602001807f4552433136353a20696e76616c696420696e746572666163652069640000000081525060200191505060405180910390fd5b6001600080837bffffffffffffffffffffffffffffffffffffffffffffffffffffffff19167bffffffffffffffffffffffffffffffffffffffffffffffffffffffff1916815260200190815260200160002060006101000a81548160ff02191690831515021790555050565b828054600181600116156101000203166002900490600052602060002090601f016020900481019282601f10620004d257805160ff191683800117855562000503565b8280016001018555821562000503579182015b8281111562000502578251825591602001919060010190620004e5565b5b50905062000512919062000516565b5090565b6200053b91905b80821115620005375760008160009055506001016200051d565b5090565b90565b61480e806200054e6000396000f3fe608060405234801561001057600080fd5b506004361061025e5760003560e01c806370d5ae0511610146578063ad94f8bc116100c3578063c890388711610087578063c890388714610d44578063cba8887214610deb578063e8484df214610e09578063e985e9c514610e5f578063f4501efc14610edb578063fb2542f414610f255761025e565b8063ad94f8bc14610b3e578063b88d4fde14610b5c578063bc8711fd14610c61578063bf70931214610c7f578063c87b56dd14610c9d5761025e565b8063a22cb4651161010a578063a22cb46514610a08578063a2fb117514610a58578063a5e9da1014610ad4578063a69e752f14610b02578063ac7fd48814610b205761025e565b806370d5ae051461083a578063719ce73e146108845780638462151c146108ce57806395d89b41146109675780639d463520146109ea5761025e565b806342842e0e116101df5780634dd80c5f116101a35780634dd80c5f146106735780634f6ccce7146106915780635192c82c146106d35780636352211e146106f15780636c0360eb1461075f57806370a08231146107e25761025e565b806342842e0e1461056157806348342f32146105cf5780634ba127a6146105ed5780634cd609bc1461060b5780634da58d35146106555761025e565b806318160ddd1161022657806318160ddd1461041157806323b872dd1461042f5780632f745c591461049d578063336c6d39146104ff578063424f548d146105435761025e565b806301ffc9a714610263578063050edc7d146102c857806306fdde03146102d2578063081812fc14610355578063095ea7b3146103c3575b600080fd5b6102ae6004803603602081101561027957600080fd5b8101908080357bffffffffffffffffffffffffffffffffffffffffffffffffffffffff19169060200190929190505050610f43565b604051808215151515815260200191505060405180910390f35b6102d0610faa565b005b6102da611687565b6040518080602001828103825283818151815260200191508051906020019080838360005b8381101561031a5780820151818401526020810190506102ff565b50505050905090810190601f1680156103475780820380516001836020036101000a031916815260200191505b509250505060405180910390f35b6103816004803603602081101561036b57600080fd5b8101908080359060200190929190505050611729565b604051808273ffffffffffffffffffffffffffffffffffffffff1673ffffffffffffffffffffffffffffffffffffffff16815260200191505060405180910390f35b61040f600480360360408110156103d957600080fd5b81019080803573ffffffffffffffffffffffffffffffffffffffff169060200190929190803590602001909291905050506117c4565b005b610419611908565b6040518082815260200191505060405180910390f35b61049b6004803603606081101561044557600080fd5b81019080803573ffffffffffffffffffffffffffffffffffffffff169060200190929190803573ffffffffffffffffffffffffffffffffffffffff16906020019092919080359060200190929190505050611919565b005b6104e9600480360360408110156104b357600080fd5b81019080803573ffffffffffffffffffffffffffffffffffffffff1690602001909291908035906020019092919050505061198f565b6040518082815260200191505060405180910390f35b6105416004803603602081101561051557600080fd5b81019080803573ffffffffffffffffffffffffffffffffffffffff1690602001909291905050506119ea565b005b61054b611ae6565b6040518082815260200191505060405180910390f35b6105cd6004803603606081101561057757600080fd5b81019080803573ffffffffffffffffffffffffffffffffffffffff169060200190929190803573ffffffffffffffffffffffffffffffffffffffff16906020019092919080359060200190929190505050611aec565b005b6105d7611b0c565b6040518082815260200191505060405180910390f35b6105f5611b12565b6040518082815260200191505060405180910390f35b610613611b18565b604051808273ffffffffffffffffffffffffffffffffffffffff1673ffffffffffffffffffffffffffffffffffffffff16815260200191505060405180910390f35b61065d611b3e565b6040518082815260200191505060405180910390f35b61067b611b48565b6040518082815260200191505060405180910390f35b6106bd600480360360208110156106a757600080fd5b8101908080359060200190929190505050611b52565b6040518082815260200191505060405180910390f35b6106db611b75565b6040518082815260200191505060405180910390f35b61071d6004803603602081101561070757600080fd5b8101908080359060200190929190505050611b7b565b604051808273ffffffffffffffffffffffffffffffffffffffff1673ffffffffffffffffffffffffffffffffffffffff16815260200191505060405180910390f35b610767611bb2565b6040518080602001828103825283818151815260200191508051906020019080838360005b838110156107a757808201518184015260208101905061078c565b50505050905090810190601f1680156107d45780820380516001836020036101000a031916815260200191505b509250505060405180910390f35b610824600480360360208110156107f857600080fd5b81019080803573ffffffffffffffffffffffffffffffffffffffff169060200190929190505050611c54565b6040518082815260200191505060405180910390f35b610842611d29565b604051808273ffffffffffffffffffffffffffffffffffffffff1673ffffffffffffffffffffffffffffffffffffffff16815260200191505060405180910390f35b61088c611d31565b604051808273ffffffffffffffffffffffffffffffffffffffff1673ffffffffffffffffffffffffffffffffffffffff16815260200191505060405180910390f35b610910600480360360208110156108e457600080fd5b81019080803573ffffffffffffffffffffffffffffffffffffffff169060200190929190505050611d57565b6040518080602001828103825283818151815260200191508051906020019060200280838360005b83811015610953578082015181840152602081019050610938565b505050509050019250505060405180910390f35b61096f611e33565b6040518080602001828103825283818151815260200191508051906020019080838360005b838110156109af578082015181840152602081019050610994565b50505050905090810190601f1680156109dc5780820380516001836020036101000a031916815260200191505b509250505060405180910390f35b6109f2611ed5565b6040518082815260200191505060405180910390f35b610a5660048036036040811015610a1e57600080fd5b81019080803573ffffffffffffffffffffffffffffffffffffffff169060200190929190803515159060200190929190505050611edb565b005b610a8460048036036020811015610a6e57600080fd5b8101908080359060200190929190505050612093565b604051808481526020018381526020018273ffffffffffffffffffffffffffffffffffffffff1673ffffffffffffffffffffffffffffffffffffffff168152602001935050505060405180910390f35b610b0060048036036020811015610aea57600080fd5b81019080803590602001909291905050506120ea565b005b610b0a612136565b6040518082815260200191505060405180910390f35b610b2861213c565b6040518082815260200191505060405180910390f35b610b46612142565b6040518082815260200191505060405180910390f35b610c5f60048036036080811015610b7257600080fd5b81019080803573ffffffffffffffffffffffffffffffffffffffff169060200190929190803573ffffffffffffffffffffffffffffffffffffffff1690602001909291908035906020019092919080359060200190640100000000811115610bd957600080fd5b820183602082011115610beb57600080fd5b80359060200191846001830284011164010000000083111715610c0d57600080fd5b91908080601f016020809104026020016040519081016040528093929190818152602001838380828437600081840152601f19601f820116905080830192505050505050509192919290505050612148565b005b610c696121c0565b6040518082815260200191505060405180910390f35b610c876121cd565b6040518082815260200191505060405180910390f35b610cc960048036036020811015610cb357600080fd5b81019080803590602001909291905050506121d3565b6040518080602001828103825283818151815260200191508051906020019080838360005b83811015610d09578082015181840152602081019050610cee565b50505050905090810190601f168015610d365780820380516001836020036101000a031916815260200191505b509250505060405180910390f35b610d7060048036036020811015610d5a57600080fd5b81019080803590602001909291905050506124bc565b6040518080602001828103825283818151815260200191508051906020019080838360005b83811015610db0578082015181840152602081019050610d95565b50505050905090810190601f168015610ddd5780820380516001836020036101000a031916815260200191505b509250505060405180910390f35b610df3612574565b6040518082815260200191505060405180910390f35b610e5d600480360360a0811015610e1f57600080fd5b81019080803590602001909291908035906020019092919080359060200190929190803590602001909291908035906020019092919050505061257a565b005b610ec160048036036040811015610e7557600080fd5b81019080803573ffffffffffffffffffffffffffffffffffffffff169060200190929190803573ffffffffffffffffffffffffffffffffffffffff169060200190929190505050612752565b604051808215151515815260200191505060405180910390f35b610ee36127e6565b604051808273ffffffffffffffffffffffffffffffffffffffff1673ffffffffffffffffffffffffffffffffffffffff16815260200191505060405180910390f35b610f2d61280c565b6040518082815260200191505060405180910390f35b6000806000837bffffffffffffffffffffffffffffffffffffffffffffffffffffffff19167bffffffffffffffffffffffffffffffffffffffffffffffffffffffff1916815260200190815260200160002060009054906101000a900460ff169050919050565b3273ffffffffffffffffffffffffffffffffffffffff163373ffffffffffffffffffffffffffffffffffffffff1614610fe257600080fd5b61103a333068056bc75e2d63100000600a60009054906101000a900473ffffffffffffffffffffffffffffffffffffffff1673ffffffffffffffffffffffffffffffffffffffff16612819909392919063ffffffff16565b6110be3063deadbeef6110756103e8611067600e5468056bc75e2d6310000061290690919063ffffffff16565b61298c90919063ffffffff16565b600a60009054906101000a900473ffffffffffffffffffffffffffffffffffffffff1673ffffffffffffffffffffffffffffffffffffffff16612819909392919063ffffffff16565b61120830600b60009054906101000a900473ffffffffffffffffffffffffffffffffffffffff16600a60009054906101000a900473ffffffffffffffffffffffffffffffffffffffff1673ffffffffffffffffffffffffffffffffffffffff166370a08231306040518263ffffffff1660e01b8152600401808273ffffffffffffffffffffffffffffffffffffffff1673ffffffffffffffffffffffffffffffffffffffff16815260200191505060206040518083038186803b15801561118457600080fd5b505afa158015611198573d6000803e3d6000fd5b505050506040513d60208110156111ae57600080fd5b8101908080519060200190929190505050600a60009054906101000a900473ffffffffffffffffffffffffffffffffffffffff1673ffffffffffffffffffffffffffffffffffffffff16612819909392919063ffffffff16565b60006112126129d6565b905060606126fc821061125c576040518060400160405280600181526020017f310000000000000000000000000000000000000000000000000000000000000081525090506113b1565b6126e882106112a2576040518060400160405280600181526020017f320000000000000000000000000000000000000000000000000000000000000081525090506113b0565b61268482106112e8576040518060400160405280600181526020017f370000000000000000000000000000000000000000000000000000000000000081525090506113af565b611b58821061132e576040518060400160405280600181526020017f460000000000000000000000000000000000000000000000000000000000000081525090506113ae565b6113888210611374576040518060400160405280600181526020017f590000000000000000000000000000000000000000000000000000000000000081525090506113ad565b6040518060400160405280601381526020017f446f6e277420676976652075702c2062726f210000000000000000000000000081525090505b5b5b5b5b60006113bb612a5c565b90506040518060400160405280828152602001838152506017600083815260200190815260200160002060008201518160000155602082015181600101908051906020019061140b92919061445f565b509050506001600d6000828254019250508190555061142a3382612a92565b60006010541415611482574260108190555033601160006101000a81548173ffffffffffffffffffffffffffffffffffffffff021916908373ffffffffffffffffffffffffffffffffffffffff160217905550611682565b4261149a600f54601054612c8690919063ffffffff16565b1015611681576114a8612a5c565b905060405180604001604052808281526020016040518060400160405280600581526020017f59463732310000000000000000000000000000000000000000000000000000008152508152506017600083815260200190815260200160002060008201518160000155602082015181600101908051906020019061152d92919061445f565b5090505061155d601160009054906101000a900473ffffffffffffffffffffffffffffffffffffffff1682612a92565b60196040518060600160405280428152602001838152602001601160009054906101000a900473ffffffffffffffffffffffffffffffffffffffff1673ffffffffffffffffffffffffffffffffffffffff168152509080600181540180825580915050600190039060005260206000209060030201600090919091909150600082015181600001556020820151816001015560408201518160020160006101000a81548173ffffffffffffffffffffffffffffffffffffffff021916908373ffffffffffffffffffffffffffffffffffffffff160217905550505033601160006101000a81548173ffffffffffffffffffffffffffffffffffffffff021916908373ffffffffffffffffffffffffffffffffffffffff160217905550426010819055505b5b505050565b606060068054600181600116156101000203166002900480601f01602080910402602001604051908101604052809291908181526020018280546001816001161561010002031660029004801561171f5780601f106116f45761010080835404028352916020019161171f565b820191906000526020600020905b81548152906001019060200180831161170257829003601f168201915b5050505050905090565b600061173482612d0e565b611789576040517f08c379a000000000000000000000000000000000000000000000000000000000815260040180806020018281038252602c8152602001806146d9602c913960400191505060405180910390fd5b6004600083815260200190815260200160002060009054906101000a900473ffffffffffffffffffffffffffffffffffffffff169050919050565b60006117cf82611b7b565b90508073ffffffffffffffffffffffffffffffffffffffff168373ffffffffffffffffffffffffffffffffffffffff161415611856576040517f08c379a000000000000000000000000000000000000000000000000000000000815260040180806020018281038252602181526020018061475d6021913960400191505060405180910390fd5b8073ffffffffffffffffffffffffffffffffffffffff16611875612d2b565b73ffffffffffffffffffffffffffffffffffffffff1614806118a457506118a38161189e612d2b565b612752565b5b6118f9576040517f08c379a000000000000000000000000000000000000000000000000000000000815260040180806020018281038252603881526020018061460b6038913960400191505060405180910390fd5b6119038383612d33565b505050565b60006119146002612dec565b905090565b61192a611924612d2b565b82612e01565b61197f576040517f08c379a000000000000000000000000000000000000000000000000000000000815260040180806020018281038252603181526020018061477e6031913960400191505060405180910390fd5b61198a838383612ef5565b505050565b60006119e282600160008673ffffffffffffffffffffffffffffffffffffffff1673ffffffffffffffffffffffffffffffffffffffff16815260200190815260200160002061313890919063ffffffff16565b905092915050565b601a60009054906101000a900473ffffffffffffffffffffffffffffffffffffffff1673ffffffffffffffffffffffffffffffffffffffff163373ffffffffffffffffffffffffffffffffffffffff1614611a4457600080fd5b63deadbeef73ffffffffffffffffffffffffffffffffffffffff16600b60009054906101000a900473ffffffffffffffffffffffffffffffffffffffff1673ffffffffffffffffffffffffffffffffffffffff1614611aa257600080fd5b80600b60006101000a81548173ffffffffffffffffffffffffffffffffffffffff021916908373ffffffffffffffffffffffffffffffffffffffff16021790555050565b60125481565b611b0783838360405180602001604052806000815250612148565b505050565b600d5481565b600c5481565b601160009054906101000a900473ffffffffffffffffffffffffffffffffffffffff1681565b6000600d54905090565b6000600c54905090565b600080611b6983600261315290919063ffffffff16565b50905080915050919050565b600e5481565b6000611bab8260405180606001604052806029815260200161466d6029913960026131819092919063ffffffff16565b9050919050565b606060098054600181600116156101000203166002900480601f016020809104026020016040519081016040528092919081815260200182805460018160011615610100020316600290048015611c4a5780601f10611c1f57610100808354040283529160200191611c4a565b820191906000526020600020905b815481529060010190602001808311611c2d57829003601f168201915b5050505050905090565b60008073ffffffffffffffffffffffffffffffffffffffff168273ffffffffffffffffffffffffffffffffffffffff161415611cdb576040517f08c379a000000000000000000000000000000000000000000000000000000000815260040180806020018281038252602a815260200180614643602a913960400191505060405180910390fd5b611d22600160008473ffffffffffffffffffffffffffffffffffffffff1673ffffffffffffffffffffffffffffffffffffffff1681526020019081526020016000206131a0565b9050919050565b63deadbeef81565b600b60009054906101000a900473ffffffffffffffffffffffffffffffffffffffff1681565b60606000611d6483611c54565b90506000811415611da8576000604051908082528060200260200182016040528015611d9f5781602001602082028038833980820191505090505b50915050611e2e565b606081604051908082528060200260200182016040528015611dd95781602001602082028038833980820191505090505b509050600080905060008090505b83811015611e2657611df9868261198f565b838381518110611e0557fe5b60200260200101818152505081806001019250508080600101915050611de7565b829450505050505b919050565b606060078054600181600116156101000203166002900480601f016020809104026020016040519081016040528092919081815260200182805460018160011615610100020316600290048015611ecb5780601f10611ea057610100808354040283529160200191611ecb565b820191906000526020600020905b815481529060010190602001808311611eae57829003601f168201915b5050505050905090565b60105481565b611ee3612d2b565b73ffffffffffffffffffffffffffffffffffffffff168273ffffffffffffffffffffffffffffffffffffffff161415611f84576040517f08c379a00000000000000000000000000000000000000000000000000000000081526004018080602001828103825260198152602001807f4552433732313a20617070726f766520746f2063616c6c65720000000000000081525060200191505060405180910390fd5b8060056000611f91612d2b565b73ffffffffffffffffffffffffffffffffffffffff1673ffffffffffffffffffffffffffffffffffffffff16815260200190815260200160002060008473ffffffffffffffffffffffffffffffffffffffff1673ffffffffffffffffffffffffffffffffffffffff16815260200190815260200160002060006101000a81548160ff0219169083151502179055508173ffffffffffffffffffffffffffffffffffffffff1661203e612d2b565b73ffffffffffffffffffffffffffffffffffffffff167f17307eab39ab6107e8899845ad3d59bd9653f200f220920489ca2b5937696c3183604051808215151515815260200191505060405180910390a35050565b601981815481106120a057fe5b90600052602060002090600302016000915090508060000154908060010154908060020160009054906101000a900473ffffffffffffffffffffffffffffffffffffffff16905083565b3373ffffffffffffffffffffffffffffffffffffffff1661210a82611b7b565b73ffffffffffffffffffffffffffffffffffffffff161461212a57600080fd5b612133816131b5565b50565b60135481565b60155481565b60165481565b612159612153612d2b565b83612e01565b6121ae576040517f08c379a000000000000000000000000000000000000000000000000000000000815260040180806020018281038252603181526020018061477e6031913960400191505060405180910390fd5b6121ba848484846131d3565b50505050565b6000601980549050905090565b60145481565b60606121de82612d0e565b612233576040517f08c379a000000000000000000000000000000000000000000000000000000000815260040180806020018281038252602f81526020018061472e602f913960400191505060405180910390fd5b6060600860008481526020019081526020016000208054600181600116156101000203166002900480601f0160208091040260200160405190810160405280929190818152602001828054600181600116156101000203166002900480156122dc5780601f106122b1576101008083540402835291602001916122dc565b820191906000526020600020905b8154815290600101906020018083116122bf57829003601f168201915b5050505050905060006009805460018160011615610100020316600290049050141561230b57809150506124b7565b6000815111156123e45760098160405160200180838054600181600116156101000203166002900480156123765780601f10612354576101008083540402835291820191612376565b820191906000526020600020905b815481529060010190602001808311612362575b505082805190602001908083835b602083106123a75780518252602082019150602081019050602083039250612384565b6001836020036101000a038019825116818451168082178552505050505050905001925050506040516020818303038152906040529150506124b7565b60096123ef84613245565b604051602001808380546001816001161561010002031660029004801561244d5780601f1061242b57610100808354040283529182019161244d565b820191906000526020600020905b815481529060010190602001808311612439575b505082805190602001908083835b6020831061247e578051825260208201915060208101905060208303925061245b565b6001836020036101000a038019825116818451168082178552505050505050905001925050506040516020818303038152906040529150505b919050565b6060601760008381526020019081526020016000206001018054600181600116156101000203166002900480601f0160208091040260200160405190810160405280929190818152602001828054600181600116156101000203166002900480156125685780601f1061253d57610100808354040283529160200191612568565b820191906000526020600020905b81548152906001019060200180831161254b57829003601f168201915b50505050509050919050565b600f5481565b61258685601254613375565b801561259a575061259984601354613375565b5b80156125ae57506125ad83601454613375565b5b80156125c257506125c182601554613375565b5b80156125d657506125d581601654613375565b5b612648576040517f08c379a000000000000000000000000000000000000000000000000000000000815260040180806020018281038252600c8152602001807f636865636b206661696c6564000000000000000000000000000000000000000081525060200191505060405180910390fd5b612651856131b5565b61265a846131b5565b612663836131b5565b61266c826131b5565b612675816131b5565b61268b6005600d546134a190919063ffffffff16565b600d81905550600061269b612a5c565b905060405180604001604052808281526020016040518060400160405280600581526020017f59463732310000000000000000000000000000000000000000000000000000008152508152506017600083815260200190815260200160002060008201518160000155602082015181600101908051906020019061272092919061445f565b5090505061272e3382612a92565b6127446001600c54612c8690919063ffffffff16565b600c81905550505050505050565b6000600560008473ffffffffffffffffffffffffffffffffffffffff1673ffffffffffffffffffffffffffffffffffffffff16815260200190815260200160002060008373ffffffffffffffffffffffffffffffffffffffff1673ffffffffffffffffffffffffffffffffffffffff16815260200190815260200160002060009054906101000a900460ff16905092915050565b600a60009054906101000a900473ffffffffffffffffffffffffffffffffffffffff1681565b68056bc75e2d6310000081565b612900846323b872dd60e01b858585604051602401808473ffffffffffffffffffffffffffffffffffffffff1673ffffffffffffffffffffffffffffffffffffffff1681526020018373ffffffffffffffffffffffffffffffffffffffff1673ffffffffffffffffffffffffffffffffffffffff1681526020018281526020019350505050604051602081830303815290604052907bffffffffffffffffffffffffffffffffffffffffffffffffffffffff19166020820180517bffffffffffffffffffffffffffffffffffffffffffffffffffffffff83818316178352505050506134eb565b50505050565b6000808314156129195760009050612986565b600082840290508284828161292a57fe5b0414612981576040517f08c379a00000000000000000000000000000000000000000000000000000000081526004018080602001828103825260218152602001806146b86021913960400191505060405180910390fd5b809150505b92915050565b60006129ce83836040518060400160405280601a81526020017f536166654d6174683a206469766973696f6e206279207a65726f0000000000008152506135da565b905092915050565b600080424433604051602001808481526020018381526020018273ffffffffffffffffffffffffffffffffffffffff1673ffffffffffffffffffffffffffffffffffffffff1660601b815260140193505050506040516020818303038152906040528051906020012060001c90506000612a52826127106136a0565b9050809250505090565b6000612a8d601854612a7f6001612a71611908565b612c8690919063ffffffff16565b612c8690919063ffffffff16565b905090565b600073ffffffffffffffffffffffffffffffffffffffff168273ffffffffffffffffffffffffffffffffffffffff161415612b35576040517f08c379a00000000000000000000000000000000000000000000000000000000081526004018080602001828103825260208152602001807f4552433732313a206d696e7420746f20746865207a65726f206164647265737381525060200191505060405180910390fd5b612b3e81612d0e565b15612bb1576040517f08c379a000000000000000000000000000000000000000000000000000000000815260040180806020018281038252601c8152602001807f4552433732313a20746f6b656e20616c7265616479206d696e7465640000000081525060200191505060405180910390fd5b612bbd60008383613786565b612c0e81600160008573ffffffffffffffffffffffffffffffffffffffff1673ffffffffffffffffffffffffffffffffffffffff16815260200190815260200160002061378b90919063ffffffff16565b50612c25818360026137a59092919063ffffffff16565b50808273ffffffffffffffffffffffffffffffffffffffff16600073ffffffffffffffffffffffffffffffffffffffff167fddf252ad1be2c89b69c2b068fc378daa952ba7f163c4a11628f55a4df523b3ef60405160405180910390a45050565b600080828401905083811015612d04576040517f08c379a000000000000000000000000000000000000000000000000000000000815260040180806020018281038252601b8152602001807f536166654d6174683a206164646974696f6e206f766572666c6f77000000000081525060200191505060405180910390fd5b8091505092915050565b6000612d248260026137da90919063ffffffff16565b9050919050565b600033905090565b816004600083815260200190815260200160002060006101000a81548173ffffffffffffffffffffffffffffffffffffffff021916908373ffffffffffffffffffffffffffffffffffffffff160217905550808273ffffffffffffffffffffffffffffffffffffffff16612da683611b7b565b73ffffffffffffffffffffffffffffffffffffffff167f8c5be1e5ebec7d5bd14f71427d1e84f3dd0314c0f7b2291e5b200ac8c7c3b92560405160405180910390a45050565b6000612dfa826000016137f4565b9050919050565b6000612e0c82612d0e565b612e61576040517f08c379a000000000000000000000000000000000000000000000000000000000815260040180806020018281038252602c8152602001806145df602c913960400191505060405180910390fd5b6000612e6c83611b7b565b90508073ffffffffffffffffffffffffffffffffffffffff168473ffffffffffffffffffffffffffffffffffffffff161480612edb57508373ffffffffffffffffffffffffffffffffffffffff16612ec384611729565b73ffffffffffffffffffffffffffffffffffffffff16145b80612eec5750612eeb8185612752565b5b91505092915050565b8273ffffffffffffffffffffffffffffffffffffffff16612f1582611b7b565b73ffffffffffffffffffffffffffffffffffffffff1614612f81576040517f08c379a00000000000000000000000000000000000000000000000000000000081526004018080602001828103825260298152602001806147056029913960400191505060405180910390fd5b600073ffffffffffffffffffffffffffffffffffffffff168273ffffffffffffffffffffffffffffffffffffffff161415613007576040517f08c379a00000000000000000000000000000000000000000000000000000000081526004018080602001828103825260248152602001806145bb6024913960400191505060405180910390fd5b613012838383613786565b61301d600082612d33565b61306e81600160008673ffffffffffffffffffffffffffffffffffffffff1673ffffffffffffffffffffffffffffffffffffffff16815260200190815260200160002061380590919063ffffffff16565b506130c081600160008573ffffffffffffffffffffffffffffffffffffffff1673ffffffffffffffffffffffffffffffffffffffff16815260200190815260200160002061378b90919063ffffffff16565b506130d7818360026137a59092919063ffffffff16565b50808273ffffffffffffffffffffffffffffffffffffffff168473ffffffffffffffffffffffffffffffffffffffff167fddf252ad1be2c89b69c2b068fc378daa952ba7f163c4a11628f55a4df523b3ef60405160405180910390a4505050565b6000613147836000018361381f565b60001c905092915050565b60008060008061316586600001866138a2565b915091508160001c8160001c8090509350935050509250929050565b6000613194846000018460001b8461393b565b60001c90509392505050565b60006131ae82600001613a31565b9050919050565b6131be81613a42565b60186000815480929190600101919050555050565b6131de848484612ef5565b6131ea84848484613b7c565b61323f576040517f08c379a00000000000000000000000000000000000000000000000000000000081526004018080602001828103825260328152602001806145896032913960400191505060405180910390fd5b50505050565b6060600082141561328d576040518060400160405280600181526020017f30000000000000000000000000000000000000000000000000000000000000008152509050613370565b600082905060005b600082146132b7578080600101915050600a82816132af57fe5b049150613295565b6060816040519080825280601f01601f1916602001820160405280156132ec5781602001600182028038833980820191505090505b50905060006001830390508593505b6000841461336857600a848161330d57fe5b0660300160f81b8282806001900393508151811061332757fe5b60200101907effffffffffffffffffffffffffffffffffffffffffffffffffffffffffffff1916908160001a905350600a848161336057fe5b0493506132fb565b819450505050505b919050565b600061337f6144df565b6017600085815260200190815260200160002060405180604001604052908160008201548152602001600182018054600181600116156101000203166002900480601f0160208091040260200160405190810160405280929190818152602001828054600181600116156101000203166002900480156134405780601f1061341557610100808354040283529160200191613440565b820191906000526020600020905b81548152906001019060200180831161342357829003601f168201915b50505050508152505090503373ffffffffffffffffffffffffffffffffffffffff1661346b85611b7b565b73ffffffffffffffffffffffffffffffffffffffff16148015613498575082816020015180519060200120145b91505092915050565b60006134e383836040518060400160405280601e81526020017f536166654d6174683a207375627472616374696f6e206f766572666c6f770000815250613dc1565b905092915050565b606061354d826040518060400160405280602081526020017f5361666545524332303a206c6f772d6c6576656c2063616c6c206661696c65648152508573ffffffffffffffffffffffffffffffffffffffff16613e819092919063ffffffff16565b90506000815111156135d55780806020019051602081101561356e57600080fd5b81019080805190602001909291905050506135d4576040517f08c379a000000000000000000000000000000000000000000000000000000000815260040180806020018281038252602a8152602001806147af602a913960400191505060405180910390fd5b5b505050565b60008083118290613686576040517f08c379a00000000000000000000000000000000000000000000000000000000081526004018080602001828103825283818151815260200191508051906020019080838360005b8381101561364b578082015181840152602081019050613630565b50505050905090810190601f1680156136785780820380516001836020036101000a031916815260200191505b509250505060405180910390fd5b50600083858161369257fe5b049050809150509392505050565b6000808211613717576040517f08c379a00000000000000000000000000000000000000000000000000000000081526004018080602001828103825260158152602001807f556e69666f726d52616e642f6d696e2d626f756e64000000000000000000000081525060200191505060405180910390fd5b600082836000038161372557fe5b06905060008490505b6001156137725781811061374157613772565b80604051602001808281526020019150506040516020818303038152906040528051906020012060001c905061372e565b83818161377b57fe5b069250505092915050565b505050565b600061379d836000018360001b613e99565b905092915050565b60006137d1846000018460001b8473ffffffffffffffffffffffffffffffffffffffff1660001b613f09565b90509392505050565b60006137ec836000018360001b613fe5565b905092915050565b600081600001805490509050919050565b6000613817836000018360001b614008565b905092915050565b600081836000018054905011613880576040517f08c379a00000000000000000000000000000000000000000000000000000000081526004018080602001828103825260228152602001806145676022913960400191505060405180910390fd5b82600001828154811061388f57fe5b9060005260206000200154905092915050565b60008082846000018054905011613904576040517f08c379a00000000000000000000000000000000000000000000000000000000081526004018080602001828103825260228152602001806146966022913960400191505060405180910390fd5b600084600001848154811061391557fe5b906000526020600020906002020190508060000154816001015492509250509250929050565b60008084600101600085815260200190815260200160002054905060008114158390613a02576040517f08c379a00000000000000000000000000000000000000000000000000000000081526004018080602001828103825283818151815260200191508051906020019080838360005b838110156139c75780820151818401526020810190506139ac565b50505050905090810190601f1680156139f45780820380516001836020036101000a031916815260200191505b509250505060405180910390fd5b50846000016001820381548110613a1557fe5b9060005260206000209060020201600101549150509392505050565b600081600001805490509050919050565b6000613a4d82611b7b565b9050613a5b81600084613786565b613a66600083612d33565b60006008600084815260200190815260200160002080546001816001161561010002031660029004905014613ab557600860008381526020019081526020016000206000613ab491906144f9565b5b613b0682600160008473ffffffffffffffffffffffffffffffffffffffff1673ffffffffffffffffffffffffffffffffffffffff16815260200190815260200160002061380590919063ffffffff16565b50613b1b8260026140f090919063ffffffff16565b5081600073ffffffffffffffffffffffffffffffffffffffff168273ffffffffffffffffffffffffffffffffffffffff167fddf252ad1be2c89b69c2b068fc378daa952ba7f163c4a11628f55a4df523b3ef60405160405180910390a45050565b6000613b9d8473ffffffffffffffffffffffffffffffffffffffff1661410a565b613baa5760019050613db9565b6060613d4063150b7a0260e01b613bbf612d2b565b888787604051602401808573ffffffffffffffffffffffffffffffffffffffff1673ffffffffffffffffffffffffffffffffffffffff1681526020018473ffffffffffffffffffffffffffffffffffffffff1673ffffffffffffffffffffffffffffffffffffffff16815260200183815260200180602001828103825283818151815260200191508051906020019080838360005b83811015613c6f578082015181840152602081019050613c54565b50505050905090810190601f168015613c9c5780820380516001836020036101000a031916815260200191505b5095505050505050604051602081830303815290604052907bffffffffffffffffffffffffffffffffffffffffffffffffffffffff19166020820180517bffffffffffffffffffffffffffffffffffffffffffffffffffffffff8381831617835250505050604051806060016040528060328152602001614589603291398773ffffffffffffffffffffffffffffffffffffffff16613e819092919063ffffffff16565b90506000818060200190516020811015613d5957600080fd5b8101908080519060200190929190505050905063150b7a0260e01b7bffffffffffffffffffffffffffffffffffffffffffffffffffffffff1916817bffffffffffffffffffffffffffffffffffffffffffffffffffffffff191614925050505b949350505050565b6000838311158290613e6e576040517f08c379a00000000000000000000000000000000000000000000000000000000081526004018080602001828103825283818151815260200191508051906020019080838360005b83811015613e33578082015181840152602081019050613e18565b50505050905090810190601f168015613e605780820380516001836020036101000a031916815260200191505b509250505060405180910390fd5b5060008385039050809150509392505050565b6060613e90848460008561411d565b90509392505050565b6000613ea58383614323565b613efe578260000182908060018154018082558091505060019003906000526020600020016000909190919091505582600001805490508360010160008481526020019081526020016000208190555060019050613f03565b600090505b92915050565b6000808460010160008581526020019081526020016000205490506000811415613fb057846000016040518060400160405280868152602001858152509080600181540180825580915050600190039060005260206000209060020201600090919091909150600082015181600001556020820151816001015550508460000180549050856001016000868152602001908152602001600020819055506001915050613fde565b82856000016001830381548110613fc357fe5b90600052602060002090600202016001018190555060009150505b9392505050565b600080836001016000848152602001908152602001600020541415905092915050565b600080836001016000848152602001908152602001600020549050600081146140e4576000600182039050600060018660000180549050039050600086600001828154811061405357fe5b906000526020600020015490508087600001848154811061407057fe5b90600052602060002001819055506001830187600101600083815260200190815260200160002081905550866000018054806140a857fe5b600190038181906000526020600020016000905590558660010160008781526020019081526020016000206000905560019450505050506140ea565b60009150505b92915050565b6000614102836000018360001b614346565b905092915050565b600080823b905060008111915050919050565b60606141288561410a565b61419a576040517f08c379a000000000000000000000000000000000000000000000000000000000815260040180806020018281038252601d8152602001807f416464726573733a2063616c6c20746f206e6f6e2d636f6e747261637400000081525060200191505060405180910390fd5b600060608673ffffffffffffffffffffffffffffffffffffffff1685876040518082805190602001908083835b602083106141ea57805182526020820191506020810190506020830392506141c7565b6001836020036101000a03801982511681845116808217855250505050505090500191505060006040518083038185875af1925050503d806000811461424c576040519150601f19603f3d011682016040523d82523d6000602084013e614251565b606091505b5091509150811561426657809250505061431b565b6000815111156142795780518082602001fd5b836040517f08c379a00000000000000000000000000000000000000000000000000000000081526004018080602001828103825283818151815260200191508051906020019080838360005b838110156142e05780820151818401526020810190506142c5565b50505050905090810190601f16801561430d5780820380516001836020036101000a031916815260200191505b509250505060405180910390fd5b949350505050565b600080836001016000848152602001908152602001600020541415905092915050565b60008083600101600084815260200190815260200160002054905060008114614453576000600182039050600060018660000180549050039050600086600001828154811061439157fe5b90600052602060002090600202019050808760000184815481106143b157fe5b906000526020600020906002020160008201548160000155600182015481600101559050506001830187600101600083600001548152602001908152602001600020819055508660000180548061440457fe5b6001900381819060005260206000209060020201600080820160009055600182016000905550509055866001016000878152602001908152602001600020600090556001945050505050614459565b60009150505b92915050565b828054600181600116156101000203166002900490600052602060002090601f016020900481019282601f106144a057805160ff19168380011785556144ce565b828001600101855582156144ce579182015b828111156144cd5782518255916020019190600101906144b2565b5b5090506144db9190614541565b5090565b604051806040016040528060008152602001606081525090565b50805460018160011615610100020316600290046000825580601f1061451f575061453e565b601f01602090049060005260206000209081019061453d9190614541565b5b50565b61456391905b8082111561455f576000816000905550600101614547565b5090565b9056fe456e756d657261626c655365743a20696e646578206f7574206f6620626f756e64734552433732313a207472616e7366657220746f206e6f6e20455243373231526563656976657220696d706c656d656e7465724552433732313a207472616e7366657220746f20746865207a65726f20616464726573734552433732313a206f70657261746f7220717565727920666f72206e6f6e6578697374656e7420746f6b656e4552433732313a20617070726f76652063616c6c6572206973206e6f74206f776e6572206e6f7220617070726f76656420666f7220616c6c4552433732313a2062616c616e636520717565727920666f7220746865207a65726f20616464726573734552433732313a206f776e657220717565727920666f72206e6f6e6578697374656e7420746f6b656e456e756d657261626c654d61703a20696e646578206f7574206f6620626f756e6473536166654d6174683a206d756c7469706c69636174696f6e206f766572666c6f774552433732313a20617070726f76656420717565727920666f72206e6f6e6578697374656e7420746f6b656e4552433732313a207472616e73666572206f6620746f6b656e2074686174206973206e6f74206f776e4552433732314d657461646174613a2055524920717565727920666f72206e6f6e6578697374656e7420746f6b656e4552433732313a20617070726f76616c20746f2063757272656e74206f776e65724552433732313a207472616e736665722063616c6c6572206973206e6f74206f776e6572206e6f7220617070726f7665645361666545524332303a204552433230206f7065726174696f6e20646964206e6f742073756363656564a264697066735822122067ef2ba5e446b88995576b77fca10b2df28d55ce1f332e374bf04c7d23cd642b64736f6c63430006020033",
  "source": "pragma solidity ^0.6.0;\n\nimport \"@openzeppelin/contracts/math/Math.sol\";\nimport \"@openzeppelin/contracts/math/SafeMath.sol\";\nimport \"@openzeppelin/contracts/token/ERC20/IERC20.sol\";\nimport \"@openzeppelin/contracts/token/ERC20/SafeERC20.sol\";\nimport \"@openzeppelin/contracts/token/ERC721/ERC721.sol\";\nimport \"./rnd.sol\";\n\ncontract YF721 is ERC721 {\n    using SafeMath for uint256;\n\tusing SafeERC20 for IERC20;\n    \n\tuint256 constant public mintPieceFee = 100 * 1e18;\n\tIERC20 public YF20;\n\taddress public prizePool;\n\taddress constant public burnAddress = 0x00000000000000000000000000000000DeaDBeef;\n\t\n\tuint256 public yf721Count;\n\tuint256 public yf721PieceCount;\n\tuint256 public burnRatio = 500; // 50%\n\n\tuint256 public countdown = 1 hours;\n\tuint256 public lastMintTime;\n\taddress public lastMinter;\n\n\tbytes32 public _Y; \n\tbytes32 public _F;\n\tbytes32 public _7;\n\tbytes32 public _2;\n\tbytes32 public _1;\n    \n    struct YF721Token {\n        uint256 id;\n\t\tstring char; // YF721\n    }\n\tmapping(uint256 => YF721Token) tokens;\n    uint256 burnedCounter = 0;\n\n\tstruct Winner {\n\t\tuint256 timestamp;\n\t\tuint256 tokenId;\n\t\taddress owner;\n\t}\n\tWinner[] public winners;\n\n\taddress owner;\n    constructor(\n\t\taddress _yf20\n\t) ERC721(\"YF721\", \"YF721\") public {\n\t\towner = msg.sender;\n\t\tyf721Count = 0;\n\t\tyf721PieceCount = 0;\n\t\tYF20 = IERC20(_yf20);\n\t\tprizePool = burnAddress;\n\n\t\t_Y = keccak256(bytes(\"Y\")); \n\t\t_F = keccak256(bytes(\"F\")); \n\t\t_7 = keccak256(bytes(\"7\")); \n\t\t_2 = keccak256(bytes(\"2\")); \n\t\t_1 = keccak256(bytes(\"1\")); \n\t}\n\n\tmodifier onlyOwner() {\n\t\trequire(msg.sender == owner);\n\t\t_;\n\t}\n\n\tmodifier onlyOnce() {\n\t\trequire(prizePool == burnAddress);\n\t\t_;\n\t}\n\n\tfunction setPrizePool(address _prizepool) external onlyOwner onlyOnce {\n\t\tprizePool = _prizepool;\n\t}\n\n\tfunction getWinnersLength() external view returns (uint256) {\n\t\treturn winners.length;\n\t}\n\n\tfunction getRandom() internal view returns (uint256) {\n\t\tuint256 seed = uint256(keccak256(abi.encodePacked(now, block.difficulty, msg.sender)));\n\t\tuint256 rnd = UniformRandomNumber.uniform(seed, 10000);\n\t\treturn rnd;\n\t}\n\n\tfunction getYF721Count() external view returns (uint256) {\n\t\treturn yf721Count;\n\t}\n\n\tfunction getYF721PieceCount() external view returns (uint256) {\n\t\treturn yf721PieceCount;\n\t}\n\n\tfunction getYF721Info(uint256 idx) external view returns (string memory) {\n\t\treturn tokens[idx].char;\n\t}\n\n\tfunction mintYF721Piece() external {\n\t\trequire(msg.sender == tx.origin);\n\t\tYF20.safeTransferFrom(msg.sender, address(this), mintPieceFee);\n\t\tYF20.safeTransferFrom(address(this), burnAddress, mintPieceFee.mul(burnRatio).div(1000));\n\t\tYF20.safeTransferFrom(address(this), prizePool, YF20.balanceOf(address(this)));\n\t\tuint256 rnd = getRandom();\n\t\tstring memory char;\n\t\tif (rnd >= 9980) {\n\t\t\t// 0.002\n\t\t\tchar = \"1\";\n\t\t} else if (rnd >= 9960) {\n\t\t\t// 0.004\n\t\t\tchar = \"2\";\n\t\t} else if (rnd >= 9860) {\n\t\t\t// 0.014\n\t\t\tchar = \"7\";\n\t\t} else if (rnd >= 7000) {\n\t\t\t// 0.3\n\t\t\tchar = \"F\";\n\t\t} else if (rnd >= 5000) {\n\t\t\t// 0.5\n\t\t\tchar = \"Y\";\n\t\t} else {\n\t\t\tchar = \"Don't give up, bro!\";\n\t\t}\n\t\tuint256 tokenId = _getNextTokenId();\n\t\ttokens[tokenId] = YF721Token(tokenId, char);\n\t\tyf721PieceCount += 1;\n\t\t_mint(msg.sender, tokenId);\n\n\t\tif(lastMintTime == 0) {\n\t\t\tlastMintTime = block.timestamp;\n\t\t\tlastMinter = msg.sender;\n\t\t} else {\n\t\t\tif(lastMintTime.add(countdown) < block.timestamp) {\n\t\t\t\ttokenId = _getNextTokenId();\n\t\t\t\ttokens[tokenId] = YF721Token(tokenId, \"YF721\");\n\t\t\t\t_mint(lastMinter, tokenId);\n\t\t\t\twinners.push(Winner(block.timestamp, tokenId, lastMinter));\n\n\t\t\t\tlastMinter = msg.sender;\n\t\t\t\tlastMintTime = block.timestamp;\n\t\t\t}\n\t\t}\n\t}\n\n\tfunction check(uint256 id, bytes32 v) internal view returns (bool) {\n\t\tYF721Token memory token = tokens[id];\n\t\treturn ownerOf(id) == msg.sender && keccak256(bytes(token.char)) == v;\n\t}\n\n\tfunction burnIt(uint256 id) external {\n\t\trequire(ownerOf(id) == msg.sender);\n\t\t_burn(id);\n\t}\n\n\tfunction mintFomo721(uint256 id1, uint256 id2, uint256 id3, uint256 id4, uint256 id5) external {\n\t\trequire(check(id1, _Y) && check(id2, _F) && check(id3, _7) && check(id4, _2) && check(id5, _1), \"check failed\");\n\t\t_burn(id1); _burn(id2); _burn(id3); _burn(id4); _burn(id5);\n\t\tyf721PieceCount = yf721PieceCount.sub(5);\n\t\tuint256 tokenId = _getNextTokenId();\n\t\ttokens[tokenId] = YF721Token(tokenId, \"YF721\");\n\t\t_mint(msg.sender, tokenId);\n\t\tyf721Count = yf721Count.add(1);\n\t}\n\n    function _getNextTokenId() private view returns (uint256) {\n        return totalSupply().add(1).add(burnedCounter);\n    }\n\n    function _burn(uint256 _tokenId) override internal {\n        super._burn(_tokenId);\n        burnedCounter++;\n    }\n\n    function tokensOfOwner(address _owner) external view returns(uint256[] memory ownerTokens) {\n        uint256 tokenCount = balanceOf(_owner);\n\n        if (tokenCount == 0) {\n            return new uint256[](0);\n        } else {\n            uint256[] memory result = new uint256[](tokenCount);\n            uint256 resultIndex = 0;\n            uint256 _tokenIdx;\n            for (_tokenIdx = 0; _tokenIdx < tokenCount; _tokenIdx++) {\n                result[resultIndex] = tokenOfOwnerByIndex(_owner, _tokenIdx);\n                resultIndex++;\n            }\n            return result;\n        }\n    }\n}\n",
  "sourcePath": "/Users/cyan/Desktop/projects/defi/nifty.fi/yf721/contracts/yf721.sol",
  "compiler": {
    "name": "solc",
    "version": "0.6.2+commit.bacdbe57.Emscripten.clang"
  },
  "schemaVersion": "3.2.5",
  "updatedAt": "2020-09-12T14:55:09.150Z",
  "devdoc": {
    "methods": {
      "approve(address,uint256)": {
        "details": "See {IERC721-approve}."
      },
      "balanceOf(address)": {
        "details": "See {IERC721-balanceOf}."
      },
      "baseURI()": {
        "details": "Returns the base URI set via {_setBaseURI}. This will be automatically added as a prefix in {tokenURI} to each token's URI, or to the token ID if no specific URI is set for that token ID."
      },
      "getApproved(uint256)": {
        "details": "See {IERC721-getApproved}."
      },
      "isApprovedForAll(address,address)": {
        "details": "See {IERC721-isApprovedForAll}."
      },
      "name()": {
        "details": "See {IERC721Metadata-name}."
      },
      "ownerOf(uint256)": {
        "details": "See {IERC721-ownerOf}."
      },
      "safeTransferFrom(address,address,uint256)": {
        "details": "See {IERC721-safeTransferFrom}."
      },
      "safeTransferFrom(address,address,uint256,bytes)": {
        "details": "See {IERC721-safeTransferFrom}."
      },
      "setApprovalForAll(address,bool)": {
        "details": "See {IERC721-setApprovalForAll}."
      },
      "supportsInterface(bytes4)": {
        "details": "See {IERC165-supportsInterface}.     * Time complexity O(1), guaranteed to always use less than 30 000 gas."
      },
      "symbol()": {
        "details": "See {IERC721Metadata-symbol}."
      },
      "tokenByIndex(uint256)": {
        "details": "See {IERC721Enumerable-tokenByIndex}."
      },
      "tokenOfOwnerByIndex(address,uint256)": {
        "details": "See {IERC721Enumerable-tokenOfOwnerByIndex}."
      },
      "tokenURI(uint256)": {
        "details": "See {IERC721Metadata-tokenURI}."
      },
      "totalSupply()": {
        "details": "See {IERC721Enumerable-totalSupply}."
      },
      "transferFrom(address,address,uint256)": {
        "details": "See {IERC721-transferFrom}."
      }
    }
  },
  "userdoc": {
    "methods": {}
  }
}