{
  "contractName": "YF721PrizePool",
  "abi": [
    {
      "inputs": [
        {
          "internalType": "address",
          "name": "_yf20",
          "type": "address"
        },
        {
          "internalType": "address",
          "name": "_yf721",
          "type": "address"
        }
      ],
      "stateMutability": "nonpayable",
      "type": "constructor"
    },
    {
      "inputs": [],
      "name": "YF20",
      "outputs": [
        {
          "internalType": "contract IERC20",
          "name": "",
          "type": "address"
        }
      ],
      "stateMutability": "view",
      "type": "function"
    },
    {
      "inputs": [],
      "name": "YF721",
      "outputs": [
        {
          "internalType": "contract IERC721",
          "name": "",
          "type": "address"
        }
      ],
      "stateMutability": "view",
      "type": "function"
    },
    {
      "inputs": [],
      "name": "burnAddress",
      "outputs": [
        {
          "internalType": "address",
          "name": "",
          "type": "address"
        }
      ],
      "stateMutability": "view",
      "type": "function"
    },
    {
      "inputs": [],
      "name": "minYF20",
      "outputs": [
        {
          "internalType": "uint256",
          "name": "",
          "type": "uint256"
        }
      ],
      "stateMutability": "view",
      "type": "function"
    },
    {
      "inputs": [
        {
          "internalType": "uint256",
          "name": "tokenId",
          "type": "uint256"
        }
      ],
      "name": "draw",
      "outputs": [],
      "stateMutability": "nonpayable",
      "type": "function"
    }
  ],
  "bytecode": "0x6080604052678ac7230489e8000060025534801561001c57600080fd5b50604051610f1e380380610f1e8339818101604052604081101561003f57600080fd5b810190808051906020019092919080519060200190929190505050816000806101000a81548173ffffffffffffffffffffffffffffffffffffffff021916908373ffffffffffffffffffffffffffffffffffffffff16021790555080600160006101000a81548173ffffffffffffffffffffffffffffffffffffffff021916908373ffffffffffffffffffffffffffffffffffffffff1602179055505050610e32806100ec6000396000f3fe608060405234801561001057600080fd5b50600436106100575760003560e01c80633b3041471461005c57806370d5ae051461008a578063d82857ed146100d4578063e729cc291461011e578063f4501efc1461013c575b600080fd5b6100886004803603602081101561007257600080fd5b8101908080359060200190929190505050610186565b005b6100926105c1565b604051808273ffffffffffffffffffffffffffffffffffffffff1673ffffffffffffffffffffffffffffffffffffffff16815260200191505060405180910390f35b6100dc6105c9565b604051808273ffffffffffffffffffffffffffffffffffffffff1673ffffffffffffffffffffffffffffffffffffffff16815260200191505060405180910390f35b6101266105ef565b6040518082815260200191505060405180910390f35b6101446105f5565b604051808273ffffffffffffffffffffffffffffffffffffffff1673ffffffffffffffffffffffffffffffffffffffff16815260200191505060405180910390f35b6002546000809054906101000a900473ffffffffffffffffffffffffffffffffffffffff1673ffffffffffffffffffffffffffffffffffffffff166370a08231336040518263ffffffff1660e01b8152600401808273ffffffffffffffffffffffffffffffffffffffff1673ffffffffffffffffffffffffffffffffffffffff16815260200191505060206040518083038186803b15801561022757600080fd5b505afa15801561023b573d6000803e3d6000fd5b505050506040513d602081101561025157600080fd5b8101908080519060200190929190505050101561026d57600080fd5b3373ffffffffffffffffffffffffffffffffffffffff16600160009054906101000a900473ffffffffffffffffffffffffffffffffffffffff1673ffffffffffffffffffffffffffffffffffffffff16636352211e836040518263ffffffff1660e01b81526004018082815260200191505060206040518083038186803b1580156102f757600080fd5b505afa15801561030b573d6000803e3d6000fd5b505050506040513d602081101561032157600080fd5b810190808051906020019092919050505073ffffffffffffffffffffffffffffffffffffffff161461035257600080fd5b600160009054906101000a900473ffffffffffffffffffffffffffffffffffffffff1673ffffffffffffffffffffffffffffffffffffffff166342842e0e3363deadbeef846040518463ffffffff1660e01b8152600401808473ffffffffffffffffffffffffffffffffffffffff1673ffffffffffffffffffffffffffffffffffffffff1681526020018373ffffffffffffffffffffffffffffffffffffffff1673ffffffffffffffffffffffffffffffffffffffff1681526020018281526020019350505050600060405180830381600087803b15801561043357600080fd5b505af1158015610447573d6000803e3d6000fd5b50505050600061045561061a565b9050600061056c6104856127106104776102bc866106a090919063ffffffff16565b61072890919063ffffffff16565b6000809054906101000a900473ffffffffffffffffffffffffffffffffffffffff1673ffffffffffffffffffffffffffffffffffffffff166370a08231306040518263ffffffff1660e01b8152600401808273ffffffffffffffffffffffffffffffffffffffff1673ffffffffffffffffffffffffffffffffffffffff16815260200191505060206040518083038186803b15801561052357600080fd5b505afa158015610537573d6000803e3d6000fd5b505050506040513d602081101561054d57600080fd5b810190808051906020019092919050505061077290919063ffffffff16565b90506105bc3033836000809054906101000a900473ffffffffffffffffffffffffffffffffffffffff1673ffffffffffffffffffffffffffffffffffffffff166107f8909392919063ffffffff16565b505050565b63deadbeef81565b600160009054906101000a900473ffffffffffffffffffffffffffffffffffffffff1681565b60025481565b6000809054906101000a900473ffffffffffffffffffffffffffffffffffffffff1681565b600080424433604051602001808481526020018381526020018273ffffffffffffffffffffffffffffffffffffffff1673ffffffffffffffffffffffffffffffffffffffff1660601b815260140193505050506040516020818303038152906040528051906020012060001c90506000610696826102bc6108e5565b9050809250505090565b60008082840190508381101561071e576040517f08c379a000000000000000000000000000000000000000000000000000000000815260040180806020018281038252601b8152602001807f536166654d6174683a206164646974696f6e206f766572666c6f77000000000081525060200191505060405180910390fd5b8091505092915050565b600061076a83836040518060400160405280601a81526020017f536166654d6174683a206469766973696f6e206279207a65726f0000000000008152506109cb565b905092915050565b60008083141561078557600090506107f2565b600082840290508284828161079657fe5b04146107ed576040517f08c379a0000000000000000000000000000000000000000000000000000000008152600401808060200182810382526021815260200180610db26021913960400191505060405180910390fd5b809150505b92915050565b6108df846323b872dd60e01b858585604051602401808473ffffffffffffffffffffffffffffffffffffffff1673ffffffffffffffffffffffffffffffffffffffff1681526020018373ffffffffffffffffffffffffffffffffffffffff1673ffffffffffffffffffffffffffffffffffffffff1681526020018281526020019350505050604051602081830303815290604052907bffffffffffffffffffffffffffffffffffffffffffffffffffffffff19166020820180517bffffffffffffffffffffffffffffffffffffffffffffffffffffffff8381831617835250505050610a91565b50505050565b600080821161095c576040517f08c379a00000000000000000000000000000000000000000000000000000000081526004018080602001828103825260158152602001807f556e69666f726d52616e642f6d696e2d626f756e64000000000000000000000081525060200191505060405180910390fd5b600082836000038161096a57fe5b06905060008490505b6001156109b757818110610986576109b7565b80604051602001808281526020019150506040516020818303038152906040528051906020012060001c9050610973565b8381816109c057fe5b069250505092915050565b60008083118290610a77576040517f08c379a00000000000000000000000000000000000000000000000000000000081526004018080602001828103825283818151815260200191508051906020019080838360005b83811015610a3c578082015181840152602081019050610a21565b50505050905090810190601f168015610a695780820380516001836020036101000a031916815260200191505b509250505060405180910390fd5b506000838581610a8357fe5b049050809150509392505050565b6060610af3826040518060400160405280602081526020017f5361666545524332303a206c6f772d6c6576656c2063616c6c206661696c65648152508573ffffffffffffffffffffffffffffffffffffffff16610b809092919063ffffffff16565b9050600081511115610b7b57808060200190516020811015610b1457600080fd5b8101908080519060200190929190505050610b7a576040517f08c379a000000000000000000000000000000000000000000000000000000000815260040180806020018281038252602a815260200180610dd3602a913960400191505060405180910390fd5b5b505050565b6060610b8f8484600085610b98565b90509392505050565b6060610ba385610d9e565b610c15576040517f08c379a000000000000000000000000000000000000000000000000000000000815260040180806020018281038252601d8152602001807f416464726573733a2063616c6c20746f206e6f6e2d636f6e747261637400000081525060200191505060405180910390fd5b600060608673ffffffffffffffffffffffffffffffffffffffff1685876040518082805190602001908083835b60208310610c655780518252602082019150602081019050602083039250610c42565b6001836020036101000a03801982511681845116808217855250505050505090500191505060006040518083038185875af1925050503d8060008114610cc7576040519150601f19603f3d011682016040523d82523d6000602084013e610ccc565b606091505b50915091508115610ce1578092505050610d96565b600081511115610cf45780518082602001fd5b836040517f08c379a00000000000000000000000000000000000000000000000000000000081526004018080602001828103825283818151815260200191508051906020019080838360005b83811015610d5b578082015181840152602081019050610d40565b50505050905090810190601f168015610d885780820380516001836020036101000a031916815260200191505b509250505060405180910390fd5b949350505050565b600080823b90506000811191505091905056fe536166654d6174683a206d756c7469706c69636174696f6e206f766572666c6f775361666545524332303a204552433230206f7065726174696f6e20646964206e6f742073756363656564a26469706673582212209db05d1d983d6f23d201a5ebfcf26a2a247387b06ecd891fc004e3962557576564736f6c63430006020033",
  "source": "pragma solidity ^0.6.0;\n\nimport \"@openzeppelin/contracts/math/Math.sol\";\nimport \"@openzeppelin/contracts/math/SafeMath.sol\";\nimport \"@openzeppelin/contracts/token/ERC20/IERC20.sol\";\nimport \"@openzeppelin/contracts/token/ERC20/SafeERC20.sol\";\nimport \"@openzeppelin/contracts/token/ERC721/IERC721.sol\";\nimport \"./rnd.sol\";\n\ncontract YF721PrizePool {\n    using SafeMath for uint256;\n\tusing SafeERC20 for IERC20;\n    \n\tIERC20 public YF20;\n\tIERC721 public YF721;\n\tuint256 public minYF20 = 10 * 1e18;\n\taddress constant public burnAddress = 0x00000000000000000000000000000000DeaDBeef;\n\n\tconstructor(\n\t\taddress _yf20,\n\t\taddress _yf721\n\t) public {\n\t\tYF20 = IERC20(_yf20);\n\t\tYF721 = IERC721(_yf721);\n\t}\n\n\tfunction getRandom() internal view returns (uint256) {\n\t\tuint256 seed = uint256(keccak256(abi.encodePacked(now, block.difficulty, msg.sender)));\n        uint256 rnd = UniformRandomNumber.uniform(seed, 700);\n\t\treturn rnd;\n\t}\n\n\tmodifier onlyYF20Holder() {\n\t\trequire(YF20.balanceOf(msg.sender) >= minYF20);\n\t\t_;\n\t}\n\n\tfunction draw(uint256 tokenId) external onlyYF20Holder {\n\t\trequire(YF721.ownerOf(tokenId) == msg.sender);\n\t\tYF721.safeTransferFrom(msg.sender, burnAddress, tokenId);\n\t\tuint256 rnd = getRandom();\n\t\tuint256 reward = YF20.balanceOf(address(this)).mul(rnd.add(700).div(10000));\n\t\tYF20.safeTransferFrom(address(this), msg.sender, reward);\n\t}\n}\n",
  "sourcePath": "/Users/cyan/Desktop/projects/defi/nifty.fi/yf721/contracts/yf721PrizePool.sol",
  "compiler": {
    "name": "solc",
    "version": "0.6.2+commit.bacdbe57.Emscripten.clang"
  },
  "schemaVersion": "3.2.5",
  "updatedAt": "2020-09-14T15:13:14.262Z",
  "devdoc": {
    "methods": {}
  },
  "userdoc": {
    "methods": {}
  }
}