{
  "contractName": "YF721Pool",
  "abi": [
    {
      "inputs": [
        {
          "internalType": "address",
          "name": "_lpt",
          "type": "address"
        },
        {
          "internalType": "address",
          "name": "_fomotoken",
          "type": "address"
        },
        {
          "internalType": "address",
          "name": "_devaddr",
          "type": "address"
        },
        {
          "internalType": "address",
          "name": "_prizepool",
          "type": "address"
        }
      ],
      "stateMutability": "nonpayable",
      "type": "constructor"
    },
    {
      "anonymous": false,
      "inputs": [
        {
          "indexed": true,
          "internalType": "address",
          "name": "user",
          "type": "address"
        },
        {
          "indexed": false,
          "internalType": "uint256",
          "name": "profit",
          "type": "uint256"
        }
      ],
      "name": "LPTPaid",
      "type": "event"
    },
    {
      "anonymous": false,
      "inputs": [
        {
          "indexed": false,
          "internalType": "uint256",
          "name": "reward",
          "type": "uint256"
        }
      ],
      "name": "RewardAdded",
      "type": "event"
    },
    {
      "anonymous": false,
      "inputs": [
        {
          "indexed": true,
          "internalType": "address",
          "name": "user",
          "type": "address"
        },
        {
          "indexed": false,
          "internalType": "uint256",
          "name": "reward",
          "type": "uint256"
        }
      ],
      "name": "RewardPaid",
      "type": "event"
    },
    {
      "anonymous": false,
      "inputs": [
        {
          "indexed": true,
          "internalType": "address",
          "name": "user",
          "type": "address"
        },
        {
          "indexed": false,
          "internalType": "uint256",
          "name": "amount",
          "type": "uint256"
        }
      ],
      "name": "Staked",
      "type": "event"
    },
    {
      "anonymous": false,
      "inputs": [
        {
          "indexed": true,
          "internalType": "address",
          "name": "user",
          "type": "address"
        },
        {
          "indexed": false,
          "internalType": "uint256",
          "name": "amount",
          "type": "uint256"
        }
      ],
      "name": "Withdrawn",
      "type": "event"
    },
    {
      "inputs": [],
      "name": "DURATION",
      "outputs": [
        {
          "internalType": "uint256",
          "name": "",
          "type": "uint256"
        }
      ],
      "stateMutability": "view",
      "type": "function"
    },
    {
      "inputs": [],
      "name": "FomoToken",
      "outputs": [
        {
          "internalType": "contract IERC20",
          "name": "",
          "type": "address"
        }
      ],
      "stateMutability": "view",
      "type": "function"
    },
    {
      "inputs": [],
      "name": "LPT",
      "outputs": [
        {
          "internalType": "contract IERC20",
          "name": "",
          "type": "address"
        }
      ],
      "stateMutability": "view",
      "type": "function"
    },
    {
      "inputs": [
        {
          "internalType": "address",
          "name": "",
          "type": "address"
        }
      ],
      "name": "_balances",
      "outputs": [
        {
          "internalType": "uint256",
          "name": "",
          "type": "uint256"
        }
      ],
      "stateMutability": "view",
      "type": "function"
    },
    {
      "inputs": [],
      "name": "_profitPerShare",
      "outputs": [
        {
          "internalType": "uint256",
          "name": "",
          "type": "uint256"
        }
      ],
      "stateMutability": "view",
      "type": "function"
    },
    {
      "inputs": [
        {
          "internalType": "address",
          "name": "",
          "type": "address"
        }
      ],
      "name": "_realized",
      "outputs": [
        {
          "internalType": "uint256",
          "name": "",
          "type": "uint256"
        }
      ],
      "stateMutability": "view",
      "type": "function"
    },
    {
      "inputs": [],
      "name": "_totalSupply",
      "outputs": [
        {
          "internalType": "uint256",
          "name": "",
          "type": "uint256"
        }
      ],
      "stateMutability": "view",
      "type": "function"
    },
    {
      "inputs": [
        {
          "internalType": "address",
          "name": "",
          "type": "address"
        }
      ],
      "name": "_unrealized",
      "outputs": [
        {
          "internalType": "uint256",
          "name": "",
          "type": "uint256"
        }
      ],
      "stateMutability": "view",
      "type": "function"
    },
    {
      "inputs": [
        {
          "internalType": "address",
          "name": "account",
          "type": "address"
        }
      ],
      "name": "balanceOf",
      "outputs": [
        {
          "internalType": "uint256",
          "name": "",
          "type": "uint256"
        }
      ],
      "stateMutability": "view",
      "type": "function"
    },
    {
      "inputs": [],
      "name": "claim",
      "outputs": [],
      "stateMutability": "nonpayable",
      "type": "function"
    },
    {
      "inputs": [],
      "name": "devAddress",
      "outputs": [
        {
          "internalType": "address",
          "name": "",
          "type": "address"
        }
      ],
      "stateMutability": "view",
      "type": "function"
    },
    {
      "inputs": [],
      "name": "devFee",
      "outputs": [
        {
          "internalType": "uint256",
          "name": "",
          "type": "uint256"
        }
      ],
      "stateMutability": "view",
      "type": "function"
    },
    {
      "inputs": [],
      "name": "initReward",
      "outputs": [
        {
          "internalType": "uint256",
          "name": "",
          "type": "uint256"
        }
      ],
      "stateMutability": "view",
      "type": "function"
    },
    {
      "inputs": [],
      "name": "lastUpdateTime",
      "outputs": [
        {
          "internalType": "uint256",
          "name": "",
          "type": "uint256"
        }
      ],
      "stateMutability": "view",
      "type": "function"
    },
    {
      "inputs": [],
      "name": "periodFinish",
      "outputs": [
        {
          "internalType": "uint256",
          "name": "",
          "type": "uint256"
        }
      ],
      "stateMutability": "view",
      "type": "function"
    },
    {
      "inputs": [],
      "name": "poolShare",
      "outputs": [
        {
          "internalType": "uint256",
          "name": "",
          "type": "uint256"
        }
      ],
      "stateMutability": "view",
      "type": "function"
    },
    {
      "inputs": [],
      "name": "prizePool",
      "outputs": [
        {
          "internalType": "address",
          "name": "",
          "type": "address"
        }
      ],
      "stateMutability": "view",
      "type": "function"
    },
    {
      "inputs": [],
      "name": "rewardPerTokenStored",
      "outputs": [
        {
          "internalType": "uint256",
          "name": "",
          "type": "uint256"
        }
      ],
      "stateMutability": "view",
      "type": "function"
    },
    {
      "inputs": [],
      "name": "rewardRate",
      "outputs": [
        {
          "internalType": "uint256",
          "name": "",
          "type": "uint256"
        }
      ],
      "stateMutability": "view",
      "type": "function"
    },
    {
      "inputs": [
        {
          "internalType": "address",
          "name": "",
          "type": "address"
        }
      ],
      "name": "rewards",
      "outputs": [
        {
          "internalType": "uint256",
          "name": "",
          "type": "uint256"
        }
      ],
      "stateMutability": "view",
      "type": "function"
    },
    {
      "inputs": [],
      "name": "startTime",
      "outputs": [
        {
          "internalType": "uint256",
          "name": "",
          "type": "uint256"
        }
      ],
      "stateMutability": "view",
      "type": "function"
    },
    {
      "inputs": [],
      "name": "totalSupply",
      "outputs": [
        {
          "internalType": "uint256",
          "name": "",
          "type": "uint256"
        }
      ],
      "stateMutability": "view",
      "type": "function"
    },
    {
      "inputs": [
        {
          "internalType": "address",
          "name": "account",
          "type": "address"
        }
      ],
      "name": "unrealizedProfit",
      "outputs": [
        {
          "internalType": "uint256",
          "name": "",
          "type": "uint256"
        }
      ],
      "stateMutability": "view",
      "type": "function"
    },
    {
      "inputs": [
        {
          "internalType": "address",
          "name": "",
          "type": "address"
        }
      ],
      "name": "userRewardPerTokenPaid",
      "outputs": [
        {
          "internalType": "uint256",
          "name": "",
          "type": "uint256"
        }
      ],
      "stateMutability": "view",
      "type": "function"
    },
    {
      "inputs": [],
      "name": "lastTimeRewardApplicable",
      "outputs": [
        {
          "internalType": "uint256",
          "name": "",
          "type": "uint256"
        }
      ],
      "stateMutability": "view",
      "type": "function"
    },
    {
      "inputs": [],
      "name": "rewardPerToken",
      "outputs": [
        {
          "internalType": "uint256",
          "name": "",
          "type": "uint256"
        }
      ],
      "stateMutability": "view",
      "type": "function"
    },
    {
      "inputs": [
        {
          "internalType": "address",
          "name": "account",
          "type": "address"
        }
      ],
      "name": "earned",
      "outputs": [
        {
          "internalType": "uint256",
          "name": "",
          "type": "uint256"
        }
      ],
      "stateMutability": "view",
      "type": "function"
    },
    {
      "inputs": [
        {
          "internalType": "uint256",
          "name": "amount",
          "type": "uint256"
        }
      ],
      "name": "stake",
      "outputs": [],
      "stateMutability": "nonpayable",
      "type": "function"
    },
    {
      "inputs": [
        {
          "internalType": "uint256",
          "name": "amount",
          "type": "uint256"
        }
      ],
      "name": "withdraw",
      "outputs": [],
      "stateMutability": "nonpayable",
      "type": "function"
    },
    {
      "inputs": [],
      "name": "exit",
      "outputs": [],
      "stateMutability": "nonpayable",
      "type": "function"
    },
    {
      "inputs": [],
      "name": "getReward",
      "outputs": [],
      "stateMutability": "nonpayable",
      "type": "function"
    },
    {
      "inputs": [
        {
          "internalType": "uint256",
          "name": "_amount",
          "type": "uint256"
        }
      ],
      "name": "receiveApproval",
      "outputs": [],
      "stateMutability": "nonpayable",
      "type": "function"
    }
  ],
  "bytecode": "0x608060405262093a8060065569021e19e0c9bab2400000600755601e600d556064600e5534801561002f57600080fd5b506040516127fb3803806127fb8339818101604052608081101561005257600080fd5b810190808051906020019092919080519060200190929190805190602001909291908051906020019092919050505083806000806101000a81548173ffffffffffffffffffffffffffffffffffffffff021916908373ffffffffffffffffffffffffffffffffffffffff160217905550506001600260003373ffffffffffffffffffffffffffffffffffffffff1673ffffffffffffffffffffffffffffffffffffffff168152602001908152602001600020819055506001808190555080601060006101000a81548173ffffffffffffffffffffffffffffffffffffffff021916908373ffffffffffffffffffffffffffffffffffffffff16021790555081600f60006101000a81548173ffffffffffffffffffffffffffffffffffffffff021916908373ffffffffffffffffffffffffffffffffffffffff16021790555082601360006101000a81548173ffffffffffffffffffffffffffffffffffffffff021916908373ffffffffffffffffffffffffffffffffffffffff16021790555050505050612616806101e56000396000f3fe608060405234801561001057600080fd5b50600436106101ef5760003560e01c80637b0a47ee1161010f578063c8f33c91116100a2578063df136d6511610071578063df136d651461078a578063e9fad8ee146107a8578063ebe2b12b146107b2578063ffab0420146107d0576101ef565b8063c8f33c91146106c8578063cd3daf9d146106e6578063ce5c165514610704578063dab9c5dd1461075c576101ef565b8063a11f8de4116100de578063a11f8de4146105e8578063a694fc3a14610632578063b21c74e114610660578063b8f6c09c1461067e576101ef565b80637b0a47ee1461053657806380faa57d146105545780638b876347146105725780639bfffad7146105ca576101ef565b8063459bc132116101875780636ebcf607116101565780636ebcf6071461041e57806370a0823114610476578063719ce73e146104ce57806378e9792514610518576101ef565b8063459bc132146103805780634e71d92d1461039e5780635f25050a146103a85780636827e76414610400576101ef565b80632e1a7d4d116101c35780632e1a7d4d146102e05780633ad10ef61461030e5780633d18b912146103585780633eaaf86b14610362576101ef565b80628cc262146101f45780630700037d1461024c57806318160ddd146102a45780631be05289146102c2575b600080fd5b6102366004803603602081101561020a57600080fd5b81019080803573ffffffffffffffffffffffffffffffffffffffff169060200190929190505050610828565b6040518082815260200191505060405180910390f35b61028e6004803603602081101561026257600080fd5b81019080803573ffffffffffffffffffffffffffffffffffffffff16906020019092919050505061090f565b6040518082815260200191505060405180910390f35b6102ac610927565b6040518082815260200191505060405180910390f35b6102ca610931565b6040518082815260200191505060405180910390f35b61030c600480360360208110156102f657600080fd5b8101908080359060200190929190505050610937565b005b610316610b64565b604051808273ffffffffffffffffffffffffffffffffffffffff1673ffffffffffffffffffffffffffffffffffffffff16815260200191505060405180910390f35b610360610b8a565b005b61036a610fb1565b6040518082815260200191505060405180910390f35b610388610fb7565b6040518082815260200191505060405180910390f35b6103a6610fbd565b005b6103ea600480360360208110156103be57600080fd5b81019080803573ffffffffffffffffffffffffffffffffffffffff1690602001909291905050506111b5565b6040518082815260200191505060405180910390f35b6104086111cd565b6040518082815260200191505060405180910390f35b6104606004803603602081101561043457600080fd5b81019080803573ffffffffffffffffffffffffffffffffffffffff1690602001909291905050506111d3565b6040518082815260200191505060405180910390f35b6104b86004803603602081101561048c57600080fd5b81019080803573ffffffffffffffffffffffffffffffffffffffff1690602001909291905050506111eb565b6040518082815260200191505060405180910390f35b6104d6611234565b604051808273ffffffffffffffffffffffffffffffffffffffff1673ffffffffffffffffffffffffffffffffffffffff16815260200191505060405180910390f35b61052061125a565b6040518082815260200191505060405180910390f35b61053e611260565b6040518082815260200191505060405180910390f35b61055c611266565b6040518082815260200191505060405180910390f35b6105b46004803603602081101561058857600080fd5b81019080803573ffffffffffffffffffffffffffffffffffffffff169060200190929190505050611279565b6040518082815260200191505060405180910390f35b6105d2611291565b6040518082815260200191505060405180910390f35b6105f0611297565b604051808273ffffffffffffffffffffffffffffffffffffffff1673ffffffffffffffffffffffffffffffffffffffff16815260200191505060405180910390f35b61065e6004803603602081101561064857600080fd5b81019080803590602001909291905050506112bd565b005b61066861155b565b6040518082815260200191505060405180910390f35b610686611561565b604051808273ffffffffffffffffffffffffffffffffffffffff1673ffffffffffffffffffffffffffffffffffffffff16815260200191505060405180910390f35b6106d0611586565b6040518082815260200191505060405180910390f35b6106ee61158c565b6040518082815260200191505060405180910390f35b6107466004803603602081101561071a57600080fd5b81019080803573ffffffffffffffffffffffffffffffffffffffff16906020019092919050505061160a565b6040518082815260200191505060405180910390f35b6107886004803603602081101561077257600080fd5b8101908080359060200190929190505050611723565b005b6107926119b6565b6040518082815260200191505060405180910390f35b6107b06119bc565b005b6107ba6119df565b6040518082815260200191505060405180910390f35b610812600480360360208110156107e657600080fd5b81019080803573ffffffffffffffffffffffffffffffffffffffff1690602001909291905050506119e5565b6040518082815260200191505060405180910390f35b6000610908601260008473ffffffffffffffffffffffffffffffffffffffff1673ffffffffffffffffffffffffffffffffffffffff168152602001908152602001600020546108fa670de0b6b3a76400006108ec6108d5601160008973ffffffffffffffffffffffffffffffffffffffff1673ffffffffffffffffffffffffffffffffffffffff168152602001908152602001600020546108c761158c565b6119fd90919063ffffffff16565b6108de886111eb565b611a4790919063ffffffff16565b611acd90919063ffffffff16565b611b1790919063ffffffff16565b9050919050565b60126020528060005260406000206000915090505481565b6000600154905090565b60065481565b3361094061158c565b600c8190555061094e611266565b600b81905550600073ffffffffffffffffffffffffffffffffffffffff168173ffffffffffffffffffffffffffffffffffffffff1614610a1b5761099181610828565b601260008373ffffffffffffffffffffffffffffffffffffffff1673ffffffffffffffffffffffffffffffffffffffff16815260200190815260200160002081905550600c54601160008373ffffffffffffffffffffffffffffffffffffffff1673ffffffffffffffffffffffffffffffffffffffff168152602001908152602001600020819055505b6008544211610a92576040517f08c379a00000000000000000000000000000000000000000000000000000000081526004018080602001828103825260078152602001807f6e6f74207965740000000000000000000000000000000000000000000000000081525060200191505060405180910390fd5b6000821415610b09576040517f08c379a00000000000000000000000000000000000000000000000000000000081526004018080602001828103825260118152602001807f43616e6e6f74207769746864726177203000000000000000000000000000000081525060200191505060405180910390fd5b610b1282611b9f565b3373ffffffffffffffffffffffffffffffffffffffff167f7084f5476618d8e60b11ef0d7d3f06914655adb8793e28ff7f018d4c76d505d5836040518082815260200191505060405180910390a25050565b600f60009054906101000a900473ffffffffffffffffffffffffffffffffffffffff1681565b33610b9361158c565b600c81905550610ba1611266565b600b81905550600073ffffffffffffffffffffffffffffffffffffffff168173ffffffffffffffffffffffffffffffffffffffff1614610c6e57610be481610828565b601260008373ffffffffffffffffffffffffffffffffffffffff1673ffffffffffffffffffffffffffffffffffffffff16815260200190815260200160002081905550600c54601160008373ffffffffffffffffffffffffffffffffffffffff1673ffffffffffffffffffffffffffffffffffffffff168152602001908152602001600020819055505b6009544210610cdf57610ca06064610c926032600754611a4790919063ffffffff16565b611acd90919063ffffffff16565b600781905550610cbd600654600754611acd90919063ffffffff16565b600a81905550610cd860065442611b1790919063ffffffff16565b6009819055505b6008544211610d56576040517f08c379a00000000000000000000000000000000000000000000000000000000081526004018080602001828103825260078152602001807f6e6f74207965740000000000000000000000000000000000000000000000000081525060200191505060405180910390fd5b6000610d6133610828565b90506000610d8e6103e8610d80600d5485611a4790919063ffffffff16565b611acd90919063ffffffff16565b90506000610dbb6103e8610dad600e5486611a4790919063ffffffff16565b611acd90919063ffffffff16565b9050610de281610dd484866119fd90919063ffffffff16565b6119fd90919063ffffffff16565b925060008314610fab576000601260003373ffffffffffffffffffffffffffffffffffffffff1673ffffffffffffffffffffffffffffffffffffffff16815260200190815260200160002081905550610ea0600f60009054906101000a900473ffffffffffffffffffffffffffffffffffffffff1683601360009054906101000a900473ffffffffffffffffffffffffffffffffffffffff1673ffffffffffffffffffffffffffffffffffffffff16611d679092919063ffffffff16565b610f0f601060009054906101000a900473ffffffffffffffffffffffffffffffffffffffff1682601360009054906101000a900473ffffffffffffffffffffffffffffffffffffffff1673ffffffffffffffffffffffffffffffffffffffff16611d679092919063ffffffff16565b610f5c3384601360009054906101000a900473ffffffffffffffffffffffffffffffffffffffff1673ffffffffffffffffffffffffffffffffffffffff16611d679092919063ffffffff16565b3373ffffffffffffffffffffffffffffffffffffffff167fe2403640ba68fed3a2f88b7557551d1993f84b99bb10ff833f0cf8db0c5e0486846040518082815260200191505060405180910390a25b50505050565b60015481565b600e5481565b33600073ffffffffffffffffffffffffffffffffffffffff168173ffffffffffffffffffffffffffffffffffffffff161461108557610ffb8161160a565b600460008373ffffffffffffffffffffffffffffffffffffffff1673ffffffffffffffffffffffffffffffffffffffff16815260200190815260200160002081905550600354600560008373ffffffffffffffffffffffffffffffffffffffff1673ffffffffffffffffffffffffffffffffffffffff168152602001908152602001600020819055505b6000600460003373ffffffffffffffffffffffffffffffffffffffff1673ffffffffffffffffffffffffffffffffffffffff168152602001908152602001600020549050600081146111b1576000600460003373ffffffffffffffffffffffffffffffffffffffff1673ffffffffffffffffffffffffffffffffffffffff1681526020019081526020016000208190555061116233826000809054906101000a900473ffffffffffffffffffffffffffffffffffffffff1673ffffffffffffffffffffffffffffffffffffffff16611d679092919063ffffffff16565b3373ffffffffffffffffffffffffffffffffffffffff167ff04b41893429a2707819cc29ddcc7e5f8b5f0b3d7f613136dc82f60ffd0d8aa3826040518082815260200191505060405180910390a25b5050565b60056020528060005260406000206000915090505481565b600d5481565b60026020528060005260406000206000915090505481565b6000600260008373ffffffffffffffffffffffffffffffffffffffff1673ffffffffffffffffffffffffffffffffffffffff168152602001908152602001600020549050919050565b601060009054906101000a900473ffffffffffffffffffffffffffffffffffffffff1681565b60085481565b600a5481565b600061127442600954611e1f565b905090565b60116020528060005260406000206000915090505481565b60075481565b601360009054906101000a900473ffffffffffffffffffffffffffffffffffffffff1681565b336112c661158c565b600c819055506112d4611266565b600b81905550600073ffffffffffffffffffffffffffffffffffffffff168173ffffffffffffffffffffffffffffffffffffffff16146113a15761131781610828565b601260008373ffffffffffffffffffffffffffffffffffffffff1673ffffffffffffffffffffffffffffffffffffffff16815260200190815260200160002081905550600c54601160008373ffffffffffffffffffffffffffffffffffffffff1673ffffffffffffffffffffffffffffffffffffffff168152602001908152602001600020819055505b6009544210611412576113d360646113c56032600754611a4790919063ffffffff16565b611acd90919063ffffffff16565b6007819055506113f0600654600754611acd90919063ffffffff16565b600a8190555061140b60065442611b1790919063ffffffff16565b6009819055505b6008544211611489576040517f08c379a00000000000000000000000000000000000000000000000000000000081526004018080602001828103825260078152602001807f6e6f74207965740000000000000000000000000000000000000000000000000081525060200191505060405180910390fd5b6000821415611500576040517f08c379a000000000000000000000000000000000000000000000000000000000815260040180806020018281038252600e8152602001807f43616e6e6f74207374616b65203000000000000000000000000000000000000081525060200191505060405180910390fd5b61150982611e38565b3373ffffffffffffffffffffffffffffffffffffffff167f9e71bc8eea02a63969f509818f2dafb9254532904319f9dbda79b67bd34a5f3d836040518082815260200191505060405180910390a25050565b60035481565b6000809054906101000a900473ffffffffffffffffffffffffffffffffffffffff1681565b600b5481565b60006116056115f461159c610927565b6115e6670de0b6b3a76400006115d8600a546115ca600b546115bc611266565b6119fd90919063ffffffff16565b611a4790919063ffffffff16565b611a4790919063ffffffff16565b611acd90919063ffffffff16565b600c54611b1790919063ffffffff16565b905090565b600061171c6116ce670de0b6b3a76400006116c0611672600560008873ffffffffffffffffffffffffffffffffffffffff1673ffffffffffffffffffffffffffffffffffffffff168152602001908152602001600020546003546119fd90919063ffffffff16565b600260008873ffffffffffffffffffffffffffffffffffffffff1673ffffffffffffffffffffffffffffffffffffffff16815260200190815260200160002054611a4790919063ffffffff16565b611acd90919063ffffffff16565b600460008573ffffffffffffffffffffffffffffffffffffffff1673ffffffffffffffffffffffffffffffffffffffff16815260200190815260200160002054611b1790919063ffffffff16565b9050919050565b600061172d61158c565b600c8190555061173b611266565b600b81905550600073ffffffffffffffffffffffffffffffffffffffff168173ffffffffffffffffffffffffffffffffffffffff16146118085761177e81610828565b601260008373ffffffffffffffffffffffffffffffffffffffff1673ffffffffffffffffffffffffffffffffffffffff16815260200190815260200160002081905550600c54601160008373ffffffffffffffffffffffffffffffffffffffff1673ffffffffffffffffffffffffffffffffffffffff168152602001908152602001600020819055505b600082141561187f576040517f08c379a00000000000000000000000000000000000000000000000000000000081526004018080602001828103825260108152602001807f43616e6e6f7420617070726f766520300000000000000000000000000000000081525060200191505060405180910390fd5b60095442106118a85761189d60065483611acd90919063ffffffff16565b600a8190555061190a565b60006118bf426009546119fd90919063ffffffff16565b905060006118d8600a5483611a4790919063ffffffff16565b90506119016006546118f38387611b1790919063ffffffff16565b611acd90919063ffffffff16565b600a8190555050505b42600b8190555061192660065442611b1790919063ffffffff16565b60098190555061197b333084601360009054906101000a900473ffffffffffffffffffffffffffffffffffffffff1673ffffffffffffffffffffffffffffffffffffffff16612002909392919063ffffffff16565b7fde88a922e0d3b88b24e9623efeb464919c6bf9f66857a65e2bfcf2ce87a9433d826040518082815260200191505060405180910390a15050565b600c5481565b6119cd6119c8336111eb565b610937565b6119d5610b8a565b6119dd610fbd565b565b60095481565b60046020528060005260406000206000915090505481565b6000611a3f83836040518060400160405280601e81526020017f536166654d6174683a207375627472616374696f6e206f766572666c6f7700008152506120ef565b905092915050565b600080831415611a5a5760009050611ac7565b6000828402905082848281611a6b57fe5b0414611ac2576040517f08c379a00000000000000000000000000000000000000000000000000000000081526004018080602001828103825260218152602001806125966021913960400191505060405180910390fd5b809150505b92915050565b6000611b0f83836040518060400160405280601a81526020017f536166654d6174683a206469766973696f6e206279207a65726f0000000000008152506121af565b905092915050565b600080828401905083811015611b95576040517f08c379a000000000000000000000000000000000000000000000000000000000815260040180806020018281038252601b8152602001807f536166654d6174683a206164646974696f6e206f766572666c6f77000000000081525060200191505060405180910390fd5b8091505092915050565b33600073ffffffffffffffffffffffffffffffffffffffff168173ffffffffffffffffffffffffffffffffffffffff1614611c6757611bdd8161160a565b600460008373ffffffffffffffffffffffffffffffffffffffff1673ffffffffffffffffffffffffffffffffffffffff16815260200190815260200160002081905550600354600560008373ffffffffffffffffffffffffffffffffffffffff1673ffffffffffffffffffffffffffffffffffffffff168152602001908152602001600020819055505b611c7c826001546119fd90919063ffffffff16565b600181905550611cd482600260003373ffffffffffffffffffffffffffffffffffffffff1673ffffffffffffffffffffffffffffffffffffffff168152602001908152602001600020546119fd90919063ffffffff16565b600260003373ffffffffffffffffffffffffffffffffffffffff1673ffffffffffffffffffffffffffffffffffffffff16815260200190815260200160002081905550611d6333836000809054906101000a900473ffffffffffffffffffffffffffffffffffffffff1673ffffffffffffffffffffffffffffffffffffffff16611d679092919063ffffffff16565b5050565b611e1a8363a9059cbb60e01b8484604051602401808373ffffffffffffffffffffffffffffffffffffffff1673ffffffffffffffffffffffffffffffffffffffff16815260200182815260200192505050604051602081830303815290604052907bffffffffffffffffffffffffffffffffffffffffffffffffffffffff19166020820180517bffffffffffffffffffffffffffffffffffffffffffffffffffffffff8381831617835250505050612275565b505050565b6000818310611e2e5781611e30565b825b905092915050565b33600073ffffffffffffffffffffffffffffffffffffffff168173ffffffffffffffffffffffffffffffffffffffff1614611f0057611e768161160a565b600460008373ffffffffffffffffffffffffffffffffffffffff1673ffffffffffffffffffffffffffffffffffffffff16815260200190815260200160002081905550600354600560008373ffffffffffffffffffffffffffffffffffffffff1673ffffffffffffffffffffffffffffffffffffffff168152602001908152602001600020819055505b611f1582600154611b1790919063ffffffff16565b600181905550611f6d82600260003373ffffffffffffffffffffffffffffffffffffffff1673ffffffffffffffffffffffffffffffffffffffff16815260200190815260200160002054611b1790919063ffffffff16565b600260003373ffffffffffffffffffffffffffffffffffffffff1673ffffffffffffffffffffffffffffffffffffffff16815260200190815260200160002081905550611ffe3330846000809054906101000a900473ffffffffffffffffffffffffffffffffffffffff1673ffffffffffffffffffffffffffffffffffffffff16612002909392919063ffffffff16565b5050565b6120e9846323b872dd60e01b858585604051602401808473ffffffffffffffffffffffffffffffffffffffff1673ffffffffffffffffffffffffffffffffffffffff1681526020018373ffffffffffffffffffffffffffffffffffffffff1673ffffffffffffffffffffffffffffffffffffffff1681526020018281526020019350505050604051602081830303815290604052907bffffffffffffffffffffffffffffffffffffffffffffffffffffffff19166020820180517bffffffffffffffffffffffffffffffffffffffffffffffffffffffff8381831617835250505050612275565b50505050565b600083831115829061219c576040517f08c379a00000000000000000000000000000000000000000000000000000000081526004018080602001828103825283818151815260200191508051906020019080838360005b83811015612161578082015181840152602081019050612146565b50505050905090810190601f16801561218e5780820380516001836020036101000a031916815260200191505b509250505060405180910390fd5b5060008385039050809150509392505050565b6000808311829061225b576040517f08c379a00000000000000000000000000000000000000000000000000000000081526004018080602001828103825283818151815260200191508051906020019080838360005b83811015612220578082015181840152602081019050612205565b50505050905090810190601f16801561224d5780820380516001836020036101000a031916815260200191505b509250505060405180910390fd5b50600083858161226757fe5b049050809150509392505050565b60606122d7826040518060400160405280602081526020017f5361666545524332303a206c6f772d6c6576656c2063616c6c206661696c65648152508573ffffffffffffffffffffffffffffffffffffffff166123649092919063ffffffff16565b905060008151111561235f578080602001905160208110156122f857600080fd5b810190808051906020019092919050505061235e576040517f08c379a000000000000000000000000000000000000000000000000000000000815260040180806020018281038252602a8152602001806125b7602a913960400191505060405180910390fd5b5b505050565b6060612373848460008561237c565b90509392505050565b606061238785612582565b6123f9576040517f08c379a000000000000000000000000000000000000000000000000000000000815260040180806020018281038252601d8152602001807f416464726573733a2063616c6c20746f206e6f6e2d636f6e747261637400000081525060200191505060405180910390fd5b600060608673ffffffffffffffffffffffffffffffffffffffff1685876040518082805190602001908083835b602083106124495780518252602082019150602081019050602083039250612426565b6001836020036101000a03801982511681845116808217855250505050505090500191505060006040518083038185875af1925050503d80600081146124ab576040519150601f19603f3d011682016040523d82523d6000602084013e6124b0565b606091505b509150915081156124c557809250505061257a565b6000815111156124d85780518082602001fd5b836040517f08c379a00000000000000000000000000000000000000000000000000000000081526004018080602001828103825283818151815260200191508051906020019080838360005b8381101561253f578082015181840152602081019050612524565b50505050905090810190601f16801561256c5780820380516001836020036101000a031916815260200191505b509250505060405180910390fd5b949350505050565b600080823b90506000811191505091905056fe536166654d6174683a206d756c7469706c69636174696f6e206f766572666c6f775361666545524332303a204552433230206f7065726174696f6e20646964206e6f742073756363656564a264697066735822122034b3e6a0208a1982003d0820b93a1ef527821aae617af11df0cf55c1e6bab72f64736f6c63430006020033",
  "source": "pragma solidity ^0.6.0;\n\nimport \"@openzeppelin/contracts/math/Math.sol\";\nimport \"@openzeppelin/contracts/math/SafeMath.sol\";\nimport \"@openzeppelin/contracts/token/ERC20/IERC20.sol\";\nimport \"@openzeppelin/contracts/token/ERC20/SafeERC20.sol\";\n\ncontract LPTokenWrapper {\n    using SafeMath for uint256;\n    using SafeERC20 for IERC20;\n\n    IERC20 public LPT;\n\tconstructor(address _lpt) public {\n\t\tLPT = IERC20(_lpt);\n\t}\n\n    uint256 public _totalSupply;\n    mapping(address => uint256) public _balances;\n\n    uint256 public _profitPerShare; // x 1e18, monotonically increasing.\n    mapping(address => uint256) public _unrealized; // x 1e18\n    mapping(address => uint256) public _realized; // last paid _profitPerShare\n    event LPTPaid(address indexed user, uint256 profit);\n\n    function totalSupply() public view returns (uint256) {\n        return _totalSupply;\n    }\n\n    function balanceOf(address account) public view returns (uint256) {\n        return _balances[account];\n    }\n\n    function unrealizedProfit(address account) public view returns (uint256) {\n        return _unrealized[account].add(_balances[account].mul(_profitPerShare.sub(_realized[account])).div(1e18));\n    }    \n\n    modifier update(address account) {\n        // Tells the contract that the buyer doesn't deserve dividends for the tokens before they owned them;\n        // really i know you think you do but you don't\n        // https://etherscan.io/address/0xb3775fb83f7d12a36e0475abdd1fca35c091efbe#code\n        if (account != address(0)) {\n            _unrealized[account] = unrealizedProfit(account);\n            _realized[account] = _profitPerShare;\n        }\n        _;\n    }    \n\n    function stake(uint256 amount) update(msg.sender) public virtual {\n        _totalSupply = _totalSupply.add(amount);\n        _balances[msg.sender] = _balances[msg.sender].add(amount);\n        LPT.safeTransferFrom(msg.sender, address(this), amount);\n    }\n\n    function withdraw(uint256 amount) update(msg.sender) public virtual {\n        _totalSupply = _totalSupply.sub(amount);\n        _balances[msg.sender] = _balances[msg.sender].sub(amount);\n        LPT.safeTransfer(msg.sender, amount);\n    }\n\n    function claim() update(msg.sender) public {\n        uint256 profit = _unrealized[msg.sender];\n        if (profit != 0) {\n            _unrealized[msg.sender] = 0;\n            LPT.safeTransfer(msg.sender, profit);\n            emit LPTPaid(msg.sender, profit);\n        }\n    }\n}\n\ncontract YF721Pool is LPTokenWrapper {\n    uint256 public DURATION = 7 days;\n\tuint256 public initReward = 10000 * 1e18;\n\tuint256 public startTime;\n    uint256 public periodFinish;\n    uint256 public rewardRate;\n    uint256 public lastUpdateTime;\n    uint256 public rewardPerTokenStored;\n\tuint256 public devFee = 30; // 30 / 1000 = 3%\n\tuint256 public poolShare = 100; // 100 / 1000 = 10%\n\taddress public devAddress;\n\taddress public prizePool;\n\n    mapping(address => uint256) public userRewardPerTokenPaid;\n    mapping(address => uint256) public rewards;\n\n    event RewardAdded(uint256 reward);\n    event Staked(address indexed user, uint256 amount);\n    event Withdrawn(address indexed user, uint256 amount);\n    event RewardPaid(address indexed user, uint256 reward);\n\n    IERC20 public FomoToken;\n\n    constructor(\n\t\taddress _lpt,\n\t\taddress _fomotoken,\n\t\taddress _devaddr,\n\t\taddress _prizepool\n\t) LPTokenWrapper(_lpt) public {\n        _balances[msg.sender] = 1; // avoid divided by 0\n        _totalSupply = 1;\n        prizePool = _prizepool;\n\t\tdevAddress = _devaddr;\n\t\tFomoToken = IERC20(_fomotoken);\n    }\n\n    modifier updateReward(address account) {\n        rewardPerTokenStored = rewardPerToken();\n        lastUpdateTime = lastTimeRewardApplicable();\n        if (account != address(0)) {\n            rewards[account] = earned(account);\n            userRewardPerTokenPaid[account] = rewardPerTokenStored;\n        }\n        _;\n    }\n\n    function lastTimeRewardApplicable() public view returns (uint256) {\n        return Math.min(block.timestamp, periodFinish);\n    }\n\n    function rewardPerToken() public view returns (uint256) {\n        return\n            rewardPerTokenStored.add(\n                lastTimeRewardApplicable()\n                    .sub(lastUpdateTime)\n                    .mul(rewardRate)\n                    .mul(1e18)\n                    .div(totalSupply())\n            );\n    }\n\n    function earned(address account) public view returns (uint256) {\n        return\n            balanceOf(account)\n                .mul(rewardPerToken().sub(userRewardPerTokenPaid[account]))\n                .div(1e18)\n                .add(rewards[account]);\n    }\n\n    // stake visibility is public as overriding LPTokenWrapper's stake() function\n    function stake(uint256 amount) public override updateReward(msg.sender) checkHalve checkStart {\n        require(amount != 0, \"Cannot stake 0\");\n        super.stake(amount);\n        emit Staked(msg.sender, amount);\n    }\n\n    function withdraw(uint256 amount) public override updateReward(msg.sender) checkStart {\n        require(amount != 0, \"Cannot withdraw 0\");\n        super.withdraw(amount);\n        emit Withdrawn(msg.sender, amount);\n    }\n\n    function exit() external {\n        withdraw(balanceOf(msg.sender));\n        getReward();\n        claim();\n    }\n\n    function getReward() public updateReward(msg.sender) checkHalve checkStart {\n        uint256 reward = earned(msg.sender);\n\t\tuint256 devReward = reward.mul(devFee).div(1000);\n\t\tuint256 poolReward = reward.mul(poolShare).div(1000);\n\t\treward = reward.sub(devReward).sub(poolReward);\n        if (reward != 0) {\n            rewards[msg.sender] = 0;\n\t\t\tFomoToken.safeTransfer(devAddress, devReward);\n\t\t\tFomoToken.safeTransfer(prizePool, poolReward);\n            FomoToken.safeTransfer(msg.sender, reward);\n            emit RewardPaid(msg.sender, reward);\n        }\n    }\n\n\tmodifier checkStart() {\n\t\trequire(block.timestamp > startTime, \"not yet\");\n\t\t_;\n\t}\n\n\tmodifier checkHalve() {\n\t\tif (block.timestamp >= periodFinish) {\n\t\t\tinitReward = initReward.mul(50).div(100);\n\t\t\trewardRate = initReward.div(DURATION);\n\t\t\tperiodFinish = block.timestamp.add(DURATION);\n\t\t}\n\t\t_;\n\t}\n\n    /**\n     * @dev This function must be triggered by the contribution token approve-and-call fallback.\n     *      It will update reward rate and time.\n     * @param _amount Amount of reward tokens added to the pool\n     */\n    function receiveApproval(uint256 _amount) external updateReward(address(0)) {\n        require(_amount != 0, \"Cannot approve 0\");\n\n        if (block.timestamp >= periodFinish) {\n            rewardRate = _amount.div(DURATION);\n        } else {\n            uint256 remaining = periodFinish.sub(block.timestamp);\n            uint256 leftover = remaining.mul(rewardRate);\n            rewardRate = _amount.add(leftover).div(DURATION);\n        }\n        lastUpdateTime = block.timestamp;\n        periodFinish = block.timestamp.add(DURATION);\n\n        FomoToken.safeTransferFrom(msg.sender, address(this), _amount);\n        emit RewardAdded(_amount);\n    }\n}\n",
  "sourcePath": "/Users/cyan/Desktop/projects/defi/nifty.fi/yf721/contracts/yf721Pool.sol",
  "compiler": {
    "name": "solc",
    "version": "0.6.2+commit.bacdbe57.Emscripten.clang"
  },
  "schemaVersion": "3.2.5",
  "updatedAt": "2020-09-12T14:51:43.645Z",
  "devdoc": {
    "methods": {
      "receiveApproval(uint256)": {
        "details": "This function must be triggered by the contribution token approve-and-call fallback.     It will update reward rate and time.",
        "params": {
          "_amount": "Amount of reward tokens added to the pool"
        }
      }
    }
  },
  "userdoc": {
    "methods": {}
  }
}