{
  "contractName": "YF721PieceMinter",
  "abi": [
    {
      "inputs": [
        {
          "internalType": "address",
          "name": "_yf20",
          "type": "address"
        },
        {
          "internalType": "address",
          "name": "_y",
          "type": "address"
        },
        {
          "internalType": "address",
          "name": "_f",
          "type": "address"
        },
        {
          "internalType": "address",
          "name": "_seven",
          "type": "address"
        },
        {
          "internalType": "address",
          "name": "_two",
          "type": "address"
        },
        {
          "internalType": "address",
          "name": "_one",
          "type": "address"
        }
      ],
      "stateMutability": "nonpayable",
      "type": "constructor"
    },
    {
      "inputs": [],
      "name": "YF20",
      "outputs": [
        {
          "internalType": "contract IERC20",
          "name": "",
          "type": "address"
        }
      ],
      "stateMutability": "view",
      "type": "function"
    },
    {
      "inputs": [],
      "name": "_1",
      "outputs": [
        {
          "internalType": "contract IYF721Piece",
          "name": "",
          "type": "address"
        }
      ],
      "stateMutability": "view",
      "type": "function"
    },
    {
      "inputs": [],
      "name": "_1chance",
      "outputs": [
        {
          "internalType": "uint256",
          "name": "",
          "type": "uint256"
        }
      ],
      "stateMutability": "view",
      "type": "function"
    },
    {
      "inputs": [],
      "name": "_2",
      "outputs": [
        {
          "internalType": "contract IYF721Piece",
          "name": "",
          "type": "address"
        }
      ],
      "stateMutability": "view",
      "type": "function"
    },
    {
      "inputs": [],
      "name": "_2chance",
      "outputs": [
        {
          "internalType": "uint256",
          "name": "",
          "type": "uint256"
        }
      ],
      "stateMutability": "view",
      "type": "function"
    },
    {
      "inputs": [],
      "name": "_7",
      "outputs": [
        {
          "internalType": "contract IYF721Piece",
          "name": "",
          "type": "address"
        }
      ],
      "stateMutability": "view",
      "type": "function"
    },
    {
      "inputs": [],
      "name": "_7chance",
      "outputs": [
        {
          "internalType": "uint256",
          "name": "",
          "type": "uint256"
        }
      ],
      "stateMutability": "view",
      "type": "function"
    },
    {
      "inputs": [],
      "name": "_F",
      "outputs": [
        {
          "internalType": "contract IYF721Piece",
          "name": "",
          "type": "address"
        }
      ],
      "stateMutability": "view",
      "type": "function"
    },
    {
      "inputs": [],
      "name": "_Y",
      "outputs": [
        {
          "internalType": "contract IYF721Piece",
          "name": "",
          "type": "address"
        }
      ],
      "stateMutability": "view",
      "type": "function"
    },
    {
      "inputs": [],
      "name": "_fchance",
      "outputs": [
        {
          "internalType": "uint256",
          "name": "",
          "type": "uint256"
        }
      ],
      "stateMutability": "view",
      "type": "function"
    },
    {
      "inputs": [],
      "name": "_ychance",
      "outputs": [
        {
          "internalType": "uint256",
          "name": "",
          "type": "uint256"
        }
      ],
      "stateMutability": "view",
      "type": "function"
    },
    {
      "inputs": [],
      "name": "burnAddress",
      "outputs": [
        {
          "internalType": "address",
          "name": "",
          "type": "address"
        }
      ],
      "stateMutability": "view",
      "type": "function"
    },
    {
      "inputs": [],
      "name": "burnRatio",
      "outputs": [
        {
          "internalType": "uint256",
          "name": "",
          "type": "uint256"
        }
      ],
      "stateMutability": "view",
      "type": "function"
    },
    {
      "inputs": [],
      "name": "mintPieceFee",
      "outputs": [
        {
          "internalType": "uint256",
          "name": "",
          "type": "uint256"
        }
      ],
      "stateMutability": "view",
      "type": "function"
    },
    {
      "inputs": [],
      "name": "prizePool",
      "outputs": [
        {
          "internalType": "address",
          "name": "",
          "type": "address"
        }
      ],
      "stateMutability": "view",
      "type": "function"
    },
    {
      "inputs": [
        {
          "internalType": "address",
          "name": "_prizepool",
          "type": "address"
        }
      ],
      "name": "setPrizePool",
      "outputs": [],
      "stateMutability": "nonpayable",
      "type": "function"
    },
    {
      "inputs": [],
      "name": "mintPiece",
      "outputs": [],
      "stateMutability": "nonpayable",
      "type": "function"
    }
  ],
  "bytecode": "0x60806040526101f4600255611388600855611b58600955612684600a556126e8600b556126fc600c556000600d5534801561003957600080fd5b50604051611756380380611756833981810160405260c081101561005c57600080fd5b8101908080519060200190929190805190602001909291908051906020019092919080519060200190929190805190602001909291908051906020019092919050505033600e60006101000a81548173ffffffffffffffffffffffffffffffffffffffff021916908373ffffffffffffffffffffffffffffffffffffffff160217905550856000806101000a81548173ffffffffffffffffffffffffffffffffffffffff021916908373ffffffffffffffffffffffffffffffffffffffff16021790555063deadbeef600160006101000a81548173ffffffffffffffffffffffffffffffffffffffff021916908373ffffffffffffffffffffffffffffffffffffffff16021790555084600360006101000a81548173ffffffffffffffffffffffffffffffffffffffff021916908373ffffffffffffffffffffffffffffffffffffffff16021790555083600460006101000a81548173ffffffffffffffffffffffffffffffffffffffff021916908373ffffffffffffffffffffffffffffffffffffffff16021790555082600560006101000a81548173ffffffffffffffffffffffffffffffffffffffff021916908373ffffffffffffffffffffffffffffffffffffffff16021790555081600660006101000a81548173ffffffffffffffffffffffffffffffffffffffff021916908373ffffffffffffffffffffffffffffffffffffffff16021790555080600760006101000a81548173ffffffffffffffffffffffffffffffffffffffff021916908373ffffffffffffffffffffffffffffffffffffffff160217905550505050505050611497806102bf6000396000f3fe608060405234801561001057600080fd5b506004361061010b5760003560e01c8063840d3795116100a2578063aeefc35611610071578063aeefc35614610392578063bf709312146103b0578063c8a13551146103fa578063f4501efc14610418578063fb2542f4146104625761010b565b8063840d379514610296578063a69e752f146102b4578063ac7fd488146102fe578063ad94f8bc146103485761010b565b806370d5ae05116100de57806370d5ae05146101c6578063719ce73e1461021057806379b191901461025a5780637d9c8e3b146102785761010b565b8063336c6d3914610110578063378762e614610154578063424f548d1461015e5780635192c82c146101a8575b600080fd5b6101526004803603602081101561012657600080fd5b81019080803573ffffffffffffffffffffffffffffffffffffffff169060200190929190505050610480565b005b61015c61057c565b005b610166610bc6565b604051808273ffffffffffffffffffffffffffffffffffffffff1673ffffffffffffffffffffffffffffffffffffffff16815260200191505060405180910390f35b6101b0610bec565b6040518082815260200191505060405180910390f35b6101ce610bf2565b604051808273ffffffffffffffffffffffffffffffffffffffff1673ffffffffffffffffffffffffffffffffffffffff16815260200191505060405180910390f35b610218610bfa565b604051808273ffffffffffffffffffffffffffffffffffffffff1673ffffffffffffffffffffffffffffffffffffffff16815260200191505060405180910390f35b610262610c20565b6040518082815260200191505060405180910390f35b610280610c26565b6040518082815260200191505060405180910390f35b61029e610c2c565b6040518082815260200191505060405180910390f35b6102bc610c32565b604051808273ffffffffffffffffffffffffffffffffffffffff1673ffffffffffffffffffffffffffffffffffffffff16815260200191505060405180910390f35b610306610c58565b604051808273ffffffffffffffffffffffffffffffffffffffff1673ffffffffffffffffffffffffffffffffffffffff16815260200191505060405180910390f35b610350610c7e565b604051808273ffffffffffffffffffffffffffffffffffffffff1673ffffffffffffffffffffffffffffffffffffffff16815260200191505060405180910390f35b61039a610ca4565b6040518082815260200191505060405180910390f35b6103b8610caa565b604051808273ffffffffffffffffffffffffffffffffffffffff1673ffffffffffffffffffffffffffffffffffffffff16815260200191505060405180910390f35b610402610cd0565b6040518082815260200191505060405180910390f35b610420610cd6565b604051808273ffffffffffffffffffffffffffffffffffffffff1673ffffffffffffffffffffffffffffffffffffffff16815260200191505060405180910390f35b61046a610cfb565b6040518082815260200191505060405180910390f35b600e60009054906101000a900473ffffffffffffffffffffffffffffffffffffffff1673ffffffffffffffffffffffffffffffffffffffff163373ffffffffffffffffffffffffffffffffffffffff16146104da57600080fd5b63deadbeef73ffffffffffffffffffffffffffffffffffffffff16600160009054906101000a900473ffffffffffffffffffffffffffffffffffffffff1673ffffffffffffffffffffffffffffffffffffffff161461053857600080fd5b80600160006101000a81548173ffffffffffffffffffffffffffffffffffffffff021916908373ffffffffffffffffffffffffffffffffffffffff16021790555050565b3273ffffffffffffffffffffffffffffffffffffffff163373ffffffffffffffffffffffffffffffffffffffff16146105b457600080fd5b61060a3330670de0b6b3a76400006000809054906101000a900473ffffffffffffffffffffffffffffffffffffffff1673ffffffffffffffffffffffffffffffffffffffff16610d07909392919063ffffffff16565b61068c3063deadbeef6106446103e8610636600254670de0b6b3a7640000610df490919063ffffffff16565b610e7a90919063ffffffff16565b6000809054906101000a900473ffffffffffffffffffffffffffffffffffffffff1673ffffffffffffffffffffffffffffffffffffffff16610d07909392919063ffffffff16565b6107d430600160009054906101000a900473ffffffffffffffffffffffffffffffffffffffff166000809054906101000a900473ffffffffffffffffffffffffffffffffffffffff1673ffffffffffffffffffffffffffffffffffffffff166370a08231306040518263ffffffff1660e01b8152600401808273ffffffffffffffffffffffffffffffffffffffff1673ffffffffffffffffffffffffffffffffffffffff16815260200191505060206040518083038186803b15801561075157600080fd5b505afa158015610765573d6000803e3d6000fd5b505050506040513d602081101561077b57600080fd5b81019080805190602001909291905050506000809054906101000a900473ffffffffffffffffffffffffffffffffffffffff1673ffffffffffffffffffffffffffffffffffffffff16610d07909392919063ffffffff16565b60006107de610ec4565b9050600c5481106108a757600760009054906101000a900473ffffffffffffffffffffffffffffffffffffffff1673ffffffffffffffffffffffffffffffffffffffff16636a627842336040518263ffffffff1660e01b8152600401808273ffffffffffffffffffffffffffffffffffffffff1673ffffffffffffffffffffffffffffffffffffffff168152602001915050600060405180830381600087803b15801561088a57600080fd5b505af115801561089e573d6000803e3d6000fd5b50505050610bc3565b600b54811061096e57600660009054906101000a900473ffffffffffffffffffffffffffffffffffffffff1673ffffffffffffffffffffffffffffffffffffffff16636a627842336040518263ffffffff1660e01b8152600401808273ffffffffffffffffffffffffffffffffffffffff1673ffffffffffffffffffffffffffffffffffffffff168152602001915050600060405180830381600087803b15801561095157600080fd5b505af1158015610965573d6000803e3d6000fd5b50505050610bc2565b600a548110610a3557600560009054906101000a900473ffffffffffffffffffffffffffffffffffffffff1673ffffffffffffffffffffffffffffffffffffffff16636a627842336040518263ffffffff1660e01b8152600401808273ffffffffffffffffffffffffffffffffffffffff1673ffffffffffffffffffffffffffffffffffffffff168152602001915050600060405180830381600087803b158015610a1857600080fd5b505af1158015610a2c573d6000803e3d6000fd5b50505050610bc1565b6009548110610afc57600460009054906101000a900473ffffffffffffffffffffffffffffffffffffffff1673ffffffffffffffffffffffffffffffffffffffff16636a627842336040518263ffffffff1660e01b8152600401808273ffffffffffffffffffffffffffffffffffffffff1673ffffffffffffffffffffffffffffffffffffffff168152602001915050600060405180830381600087803b158015610adf57600080fd5b505af1158015610af3573d6000803e3d6000fd5b50505050610bc0565b6008548110610bbf57600360009054906101000a900473ffffffffffffffffffffffffffffffffffffffff1673ffffffffffffffffffffffffffffffffffffffff16636a627842336040518263ffffffff1660e01b8152600401808273ffffffffffffffffffffffffffffffffffffffff1673ffffffffffffffffffffffffffffffffffffffff168152602001915050600060405180830381600087803b158015610ba657600080fd5b505af1158015610bba573d6000803e3d6000fd5b505050505b5b5b5b5b50565b600360009054906101000a900473ffffffffffffffffffffffffffffffffffffffff1681565b60025481565b63deadbeef81565b600160009054906101000a900473ffffffffffffffffffffffffffffffffffffffff1681565b600c5481565b60095481565b600a5481565b600460009054906101000a900473ffffffffffffffffffffffffffffffffffffffff1681565b600660009054906101000a900473ffffffffffffffffffffffffffffffffffffffff1681565b600760009054906101000a900473ffffffffffffffffffffffffffffffffffffffff1681565b60085481565b600560009054906101000a900473ffffffffffffffffffffffffffffffffffffffff1681565b600b5481565b6000809054906101000a900473ffffffffffffffffffffffffffffffffffffffff1681565b670de0b6b3a764000081565b610dee846323b872dd60e01b858585604051602401808473ffffffffffffffffffffffffffffffffffffffff1673ffffffffffffffffffffffffffffffffffffffff1681526020018373ffffffffffffffffffffffffffffffffffffffff1673ffffffffffffffffffffffffffffffffffffffff1681526020018281526020019350505050604051602081830303815290604052907bffffffffffffffffffffffffffffffffffffffffffffffffffffffff19166020820180517bffffffffffffffffffffffffffffffffffffffffffffffffffffffff8381831617835250505050610f4a565b50505050565b600080831415610e075760009050610e74565b6000828402905082848281610e1857fe5b0414610e6f576040517f08c379a00000000000000000000000000000000000000000000000000000000081526004018080602001828103825260218152602001806114176021913960400191505060405180910390fd5b809150505b92915050565b6000610ebc83836040518060400160405280601a81526020017f536166654d6174683a206469766973696f6e206279207a65726f000000000000815250611039565b905092915050565b600080424433604051602001808481526020018381526020018273ffffffffffffffffffffffffffffffffffffffff1673ffffffffffffffffffffffffffffffffffffffff1660601b815260140193505050506040516020818303038152906040528051906020012060001c90506000610f40826127106110ff565b9050809250505090565b6060610fac826040518060400160405280602081526020017f5361666545524332303a206c6f772d6c6576656c2063616c6c206661696c65648152508573ffffffffffffffffffffffffffffffffffffffff166111e59092919063ffffffff16565b905060008151111561103457808060200190516020811015610fcd57600080fd5b8101908080519060200190929190505050611033576040517f08c379a000000000000000000000000000000000000000000000000000000000815260040180806020018281038252602a815260200180611438602a913960400191505060405180910390fd5b5b505050565b600080831182906110e5576040517f08c379a00000000000000000000000000000000000000000000000000000000081526004018080602001828103825283818151815260200191508051906020019080838360005b838110156110aa57808201518184015260208101905061108f565b50505050905090810190601f1680156110d75780820380516001836020036101000a031916815260200191505b509250505060405180910390fd5b5060008385816110f157fe5b049050809150509392505050565b6000808211611176576040517f08c379a00000000000000000000000000000000000000000000000000000000081526004018080602001828103825260158152602001807f556e69666f726d52616e642f6d696e2d626f756e64000000000000000000000081525060200191505060405180910390fd5b600082836000038161118457fe5b06905060008490505b6001156111d1578181106111a0576111d1565b80604051602001808281526020019150506040516020818303038152906040528051906020012060001c905061118d565b8381816111da57fe5b069250505092915050565b60606111f484846000856111fd565b90509392505050565b606061120885611403565b61127a576040517f08c379a000000000000000000000000000000000000000000000000000000000815260040180806020018281038252601d8152602001807f416464726573733a2063616c6c20746f206e6f6e2d636f6e747261637400000081525060200191505060405180910390fd5b600060608673ffffffffffffffffffffffffffffffffffffffff1685876040518082805190602001908083835b602083106112ca57805182526020820191506020810190506020830392506112a7565b6001836020036101000a03801982511681845116808217855250505050505090500191505060006040518083038185875af1925050503d806000811461132c576040519150601f19603f3d011682016040523d82523d6000602084013e611331565b606091505b509150915081156113465780925050506113fb565b6000815111156113595780518082602001fd5b836040517f08c379a00000000000000000000000000000000000000000000000000000000081526004018080602001828103825283818151815260200191508051906020019080838360005b838110156113c05780820151818401526020810190506113a5565b50505050905090810190601f1680156113ed5780820380516001836020036101000a031916815260200191505b509250505060405180910390fd5b949350505050565b600080823b90506000811191505091905056fe536166654d6174683a206d756c7469706c69636174696f6e206f766572666c6f775361666545524332303a204552433230206f7065726174696f6e20646964206e6f742073756363656564a26469706673582212203f798c869f779018fb2e9a24d4092326f5d534b73b876d379c59eefc787c283364736f6c63430006020033",
  "source": "pragma solidity ^0.6.0;\n\nimport \"@openzeppelin/contracts/math/Math.sol\";\nimport \"@openzeppelin/contracts/math/SafeMath.sol\";\nimport \"@openzeppelin/contracts/token/ERC20/IERC20.sol\";\nimport \"@openzeppelin/contracts/token/ERC20/SafeERC20.sol\";\nimport \"@openzeppelin/contracts/token/ERC721/ERC721.sol\";\nimport \"./rnd.sol\";\nimport \"./IYF721Piece.sol\";\n\n\ncontract YF721PieceMinter {\n    using SafeMath for uint256;\n\tusing SafeERC20 for IERC20;\n    \n\tuint256 constant public mintPieceFee = 1 * 1e18;\n\tIERC20 public YF20;\n\taddress public prizePool;\n\taddress constant public burnAddress = 0x00000000000000000000000000000000DeaDBeef;\n\t\n\tuint256 public burnRatio = 500; // 50%\n\n\tIYF721Piece public _Y;\n\tIYF721Piece public _F;\n\tIYF721Piece public _7;\n\tIYF721Piece public _2;\n\tIYF721Piece public _1;\n\n\tuint256 public _ychance = 5000;\n\tuint256 public _fchance = 7000;\n\tuint256 public _7chance = 9860;\n\tuint256 public _2chance = 9960;\n\tuint256 public _1chance = 9980;\n\n    uint256 burnedCounter = 0;\n\n\taddress owner;\n    constructor(\n\t\taddress _yf20,\n\t\taddress _y,\n\t\taddress _f,\n\t\taddress _seven,\n\t\taddress _two,\n\t\taddress _one\n\t) public {\n\t\towner = msg.sender;\n\t\tYF20 = IERC20(_yf20);\n\t\tprizePool = burnAddress;\n\n\t\t_Y = IYF721Piece(_y);\n\t\t_F = IYF721Piece(_f);\n\t\t_7 = IYF721Piece(_seven);\n\t\t_2 = IYF721Piece(_two);\n\t\t_1 = IYF721Piece(_one);\n\t}\n\n\tmodifier onlyOwner() {\n\t\trequire(msg.sender == owner);\n\t\t_;\n\t}\n\n\tmodifier onlyOnce() {\n\t\trequire(prizePool == burnAddress);\n\t\t_;\n\t}\n\n\tfunction setPrizePool(address _prizepool) external onlyOwner onlyOnce {\n\t\tprizePool = _prizepool;\n\t}\n\n\tfunction getRandom() internal view returns (uint256) {\n\t\tuint256 seed = uint256(keccak256(abi.encodePacked(now, block.difficulty, msg.sender)));\n\t\tuint256 rnd = UniformRandomNumber.uniform(seed, 10000);\n\t\treturn rnd;\n\t}\n\n\tfunction mintPiece() external {\n\t\trequire(msg.sender == tx.origin);\n\t\tYF20.safeTransferFrom(msg.sender, address(this), mintPieceFee);\n\t\tYF20.safeTransferFrom(address(this), burnAddress, mintPieceFee.mul(burnRatio).div(1000));\n\t\tYF20.safeTransferFrom(address(this), prizePool, YF20.balanceOf(address(this)));\n\t\tuint256 rnd = getRandom();\n\t\tif(rnd >= _1chance) {\n\t\t\t_1.mint(msg.sender);\n\t\t} else if(rnd >= _2chance) {\n\t\t\t_2.mint(msg.sender);\n\t\t} else if(rnd >= _7chance) {\n\t\t\t_7.mint(msg.sender);\n\t\t} else if(rnd >= _fchance) {\n\t\t\t_F.mint(msg.sender);\n\t\t} else if(rnd >= _ychance) {\n\t\t\t_Y.mint(msg.sender);\n\t\t}/* else {\n\t\t\t// Don't give up, bro!\n\t\t}*/\n\t}\n}\n",
  "sourcePath": "/Users/cyan/Desktop/projects/defi/nifty.fi/yf721/contracts/yf721PieceMinter.sol",
  "compiler": {
    "name": "solc",
    "version": "0.6.2+commit.bacdbe57.Emscripten.clang"
  },
  "schemaVersion": "3.2.5",
  "updatedAt": "2020-09-14T05:55:02.081Z",
  "devdoc": {
    "methods": {}
  },
  "userdoc": {
    "methods": {}
  }
}