{
  "contractName": "YF721",
  "abi": [
    {
      "inputs": [
        {
          "internalType": "address",
          "name": "_y",
          "type": "address"
        },
        {
          "internalType": "address",
          "name": "_f",
          "type": "address"
        },
        {
          "internalType": "address",
          "name": "_seven",
          "type": "address"
        },
        {
          "internalType": "address",
          "name": "_two",
          "type": "address"
        },
        {
          "internalType": "address",
          "name": "_one",
          "type": "address"
        }
      ],
      "stateMutability": "nonpayable",
      "type": "constructor"
    },
    {
      "anonymous": false,
      "inputs": [
        {
          "indexed": true,
          "internalType": "address",
          "name": "owner",
          "type": "address"
        },
        {
          "indexed": true,
          "internalType": "address",
          "name": "approved",
          "type": "address"
        },
        {
          "indexed": true,
          "internalType": "uint256",
          "name": "tokenId",
          "type": "uint256"
        }
      ],
      "name": "Approval",
      "type": "event"
    },
    {
      "anonymous": false,
      "inputs": [
        {
          "indexed": true,
          "internalType": "address",
          "name": "owner",
          "type": "address"
        },
        {
          "indexed": true,
          "internalType": "address",
          "name": "operator",
          "type": "address"
        },
        {
          "indexed": false,
          "internalType": "bool",
          "name": "approved",
          "type": "bool"
        }
      ],
      "name": "ApprovalForAll",
      "type": "event"
    },
    {
      "anonymous": false,
      "inputs": [
        {
          "indexed": true,
          "internalType": "address",
          "name": "from",
          "type": "address"
        },
        {
          "indexed": true,
          "internalType": "address",
          "name": "to",
          "type": "address"
        },
        {
          "indexed": true,
          "internalType": "uint256",
          "name": "tokenId",
          "type": "uint256"
        }
      ],
      "name": "Transfer",
      "type": "event"
    },
    {
      "inputs": [],
      "name": "YF20",
      "outputs": [
        {
          "internalType": "contract IERC20",
          "name": "",
          "type": "address"
        }
      ],
      "stateMutability": "view",
      "type": "function"
    },
    {
      "inputs": [],
      "name": "_1",
      "outputs": [
        {
          "internalType": "contract IYF721Piece",
          "name": "",
          "type": "address"
        }
      ],
      "stateMutability": "view",
      "type": "function"
    },
    {
      "inputs": [],
      "name": "_2",
      "outputs": [
        {
          "internalType": "contract IYF721Piece",
          "name": "",
          "type": "address"
        }
      ],
      "stateMutability": "view",
      "type": "function"
    },
    {
      "inputs": [],
      "name": "_7",
      "outputs": [
        {
          "internalType": "contract IYF721Piece",
          "name": "",
          "type": "address"
        }
      ],
      "stateMutability": "view",
      "type": "function"
    },
    {
      "inputs": [],
      "name": "_F",
      "outputs": [
        {
          "internalType": "contract IYF721Piece",
          "name": "",
          "type": "address"
        }
      ],
      "stateMutability": "view",
      "type": "function"
    },
    {
      "inputs": [],
      "name": "_Y",
      "outputs": [
        {
          "internalType": "contract IYF721Piece",
          "name": "",
          "type": "address"
        }
      ],
      "stateMutability": "view",
      "type": "function"
    },
    {
      "inputs": [
        {
          "internalType": "address",
          "name": "to",
          "type": "address"
        },
        {
          "internalType": "uint256",
          "name": "tokenId",
          "type": "uint256"
        }
      ],
      "name": "approve",
      "outputs": [],
      "stateMutability": "nonpayable",
      "type": "function"
    },
    {
      "inputs": [
        {
          "internalType": "address",
          "name": "owner",
          "type": "address"
        }
      ],
      "name": "balanceOf",
      "outputs": [
        {
          "internalType": "uint256",
          "name": "",
          "type": "uint256"
        }
      ],
      "stateMutability": "view",
      "type": "function"
    },
    {
      "inputs": [],
      "name": "baseURI",
      "outputs": [
        {
          "internalType": "string",
          "name": "",
          "type": "string"
        }
      ],
      "stateMutability": "view",
      "type": "function"
    },
    {
      "inputs": [],
      "name": "burnAddress",
      "outputs": [
        {
          "internalType": "address",
          "name": "",
          "type": "address"
        }
      ],
      "stateMutability": "view",
      "type": "function"
    },
    {
      "inputs": [],
      "name": "burnRatio",
      "outputs": [
        {
          "internalType": "uint256",
          "name": "",
          "type": "uint256"
        }
      ],
      "stateMutability": "view",
      "type": "function"
    },
    {
      "inputs": [
        {
          "internalType": "uint256",
          "name": "tokenId",
          "type": "uint256"
        }
      ],
      "name": "getApproved",
      "outputs": [
        {
          "internalType": "address",
          "name": "",
          "type": "address"
        }
      ],
      "stateMutability": "view",
      "type": "function"
    },
    {
      "inputs": [
        {
          "internalType": "address",
          "name": "owner",
          "type": "address"
        },
        {
          "internalType": "address",
          "name": "operator",
          "type": "address"
        }
      ],
      "name": "isApprovedForAll",
      "outputs": [
        {
          "internalType": "bool",
          "name": "",
          "type": "bool"
        }
      ],
      "stateMutability": "view",
      "type": "function"
    },
    {
      "inputs": [],
      "name": "mintPieceFee",
      "outputs": [
        {
          "internalType": "uint256",
          "name": "",
          "type": "uint256"
        }
      ],
      "stateMutability": "view",
      "type": "function"
    },
    {
      "inputs": [],
      "name": "name",
      "outputs": [
        {
          "internalType": "string",
          "name": "",
          "type": "string"
        }
      ],
      "stateMutability": "view",
      "type": "function"
    },
    {
      "inputs": [
        {
          "internalType": "uint256",
          "name": "tokenId",
          "type": "uint256"
        }
      ],
      "name": "ownerOf",
      "outputs": [
        {
          "internalType": "address",
          "name": "",
          "type": "address"
        }
      ],
      "stateMutability": "view",
      "type": "function"
    },
    {
      "inputs": [],
      "name": "prizePool",
      "outputs": [
        {
          "internalType": "address",
          "name": "",
          "type": "address"
        }
      ],
      "stateMutability": "view",
      "type": "function"
    },
    {
      "inputs": [
        {
          "internalType": "address",
          "name": "from",
          "type": "address"
        },
        {
          "internalType": "address",
          "name": "to",
          "type": "address"
        },
        {
          "internalType": "uint256",
          "name": "tokenId",
          "type": "uint256"
        }
      ],
      "name": "safeTransferFrom",
      "outputs": [],
      "stateMutability": "nonpayable",
      "type": "function"
    },
    {
      "inputs": [
        {
          "internalType": "address",
          "name": "from",
          "type": "address"
        },
        {
          "internalType": "address",
          "name": "to",
          "type": "address"
        },
        {
          "internalType": "uint256",
          "name": "tokenId",
          "type": "uint256"
        },
        {
          "internalType": "bytes",
          "name": "_data",
          "type": "bytes"
        }
      ],
      "name": "safeTransferFrom",
      "outputs": [],
      "stateMutability": "nonpayable",
      "type": "function"
    },
    {
      "inputs": [
        {
          "internalType": "address",
          "name": "operator",
          "type": "address"
        },
        {
          "internalType": "bool",
          "name": "approved",
          "type": "bool"
        }
      ],
      "name": "setApprovalForAll",
      "outputs": [],
      "stateMutability": "nonpayable",
      "type": "function"
    },
    {
      "inputs": [
        {
          "internalType": "bytes4",
          "name": "interfaceId",
          "type": "bytes4"
        }
      ],
      "name": "supportsInterface",
      "outputs": [
        {
          "internalType": "bool",
          "name": "",
          "type": "bool"
        }
      ],
      "stateMutability": "view",
      "type": "function"
    },
    {
      "inputs": [],
      "name": "symbol",
      "outputs": [
        {
          "internalType": "string",
          "name": "",
          "type": "string"
        }
      ],
      "stateMutability": "view",
      "type": "function"
    },
    {
      "inputs": [
        {
          "internalType": "uint256",
          "name": "index",
          "type": "uint256"
        }
      ],
      "name": "tokenByIndex",
      "outputs": [
        {
          "internalType": "uint256",
          "name": "",
          "type": "uint256"
        }
      ],
      "stateMutability": "view",
      "type": "function"
    },
    {
      "inputs": [
        {
          "internalType": "address",
          "name": "owner",
          "type": "address"
        },
        {
          "internalType": "uint256",
          "name": "index",
          "type": "uint256"
        }
      ],
      "name": "tokenOfOwnerByIndex",
      "outputs": [
        {
          "internalType": "uint256",
          "name": "",
          "type": "uint256"
        }
      ],
      "stateMutability": "view",
      "type": "function"
    },
    {
      "inputs": [
        {
          "internalType": "uint256",
          "name": "tokenId",
          "type": "uint256"
        }
      ],
      "name": "tokenURI",
      "outputs": [
        {
          "internalType": "string",
          "name": "",
          "type": "string"
        }
      ],
      "stateMutability": "view",
      "type": "function"
    },
    {
      "inputs": [],
      "name": "totalSupply",
      "outputs": [
        {
          "internalType": "uint256",
          "name": "",
          "type": "uint256"
        }
      ],
      "stateMutability": "view",
      "type": "function"
    },
    {
      "inputs": [
        {
          "internalType": "address",
          "name": "from",
          "type": "address"
        },
        {
          "internalType": "address",
          "name": "to",
          "type": "address"
        },
        {
          "internalType": "uint256",
          "name": "tokenId",
          "type": "uint256"
        }
      ],
      "name": "transferFrom",
      "outputs": [],
      "stateMutability": "nonpayable",
      "type": "function"
    },
    {
      "inputs": [
        {
          "internalType": "uint256",
          "name": "id1",
          "type": "uint256"
        },
        {
          "internalType": "uint256",
          "name": "id2",
          "type": "uint256"
        },
        {
          "internalType": "uint256",
          "name": "id3",
          "type": "uint256"
        },
        {
          "internalType": "uint256",
          "name": "id4",
          "type": "uint256"
        },
        {
          "internalType": "uint256",
          "name": "id5",
          "type": "uint256"
        }
      ],
      "name": "mintYF721",
      "outputs": [],
      "stateMutability": "nonpayable",
      "type": "function"
    },
    {
      "inputs": [
        {
          "internalType": "uint256",
          "name": "_tokenId",
          "type": "uint256"
        }
      ],
      "name": "burn",
      "outputs": [],
      "stateMutability": "nonpayable",
      "type": "function"
    },
    {
      "inputs": [
        {
          "internalType": "address",
          "name": "_owner",
          "type": "address"
        }
      ],
      "name": "tokensOfOwner",
      "outputs": [
        {
          "internalType": "uint256[]",
          "name": "ownerTokens",
          "type": "uint256[]"
        }
      ],
      "stateMutability": "view",
      "type": "function"
    }
  ],
  "bytecode": "0x60806040526101f4600c5560006012553480156200001c57600080fd5b5060405162003ac638038062003ac6833981810160405260a08110156200004257600080fd5b8101908080519060200190929190805190602001909291908051906020019092919080519060200190929190805190602001909291905050506040518060400160405280600581526020017f59463732310000000000000000000000000000000000000000000000000000008152506040518060400160405280600581526020017f5946373231000000000000000000000000000000000000000000000000000000815250620000ff6301ffc9a760e01b620002cb60201b60201c565b816006908051906020019062000117929190620003d4565b50806007908051906020019062000130929190620003d4565b50620001496380ac58cd60e01b620002cb60201b60201c565b62000161635b5e139f60e01b620002cb60201b60201c565b6200017963780e9d6360e01b620002cb60201b60201c565b505084600d60006101000a81548173ffffffffffffffffffffffffffffffffffffffff021916908373ffffffffffffffffffffffffffffffffffffffff16021790555083600e60006101000a81548173ffffffffffffffffffffffffffffffffffffffff021916908373ffffffffffffffffffffffffffffffffffffffff16021790555082600f60006101000a81548173ffffffffffffffffffffffffffffffffffffffff021916908373ffffffffffffffffffffffffffffffffffffffff16021790555081601060006101000a81548173ffffffffffffffffffffffffffffffffffffffff021916908373ffffffffffffffffffffffffffffffffffffffff16021790555080601160006101000a81548173ffffffffffffffffffffffffffffffffffffffff021916908373ffffffffffffffffffffffffffffffffffffffff160217905550505050505062000483565b63ffffffff60e01b817bffffffffffffffffffffffffffffffffffffffffffffffffffffffff1916141562000368576040517f08c379a000000000000000000000000000000000000000000000000000000000815260040180806020018281038252601c8152602001807f4552433136353a20696e76616c696420696e746572666163652069640000000081525060200191505060405180910390fd5b6001600080837bffffffffffffffffffffffffffffffffffffffffffffffffffffffff19167bffffffffffffffffffffffffffffffffffffffffffffffffffffffff1916815260200190815260200160002060006101000a81548160ff02191690831515021790555050565b828054600181600116156101000203166002900490600052602060002090601f016020900481019282601f106200041757805160ff191683800117855562000448565b8280016001018555821562000448579182015b82811115620004475782518255916020019190600101906200042a565b5b5090506200045791906200045b565b5090565b6200048091905b808211156200047c57600081600090555060010162000462565b5090565b90565b61363380620004936000396000f3fe608060405234801561001057600080fd5b50600436106101da5760003560e01c806370d5ae0511610104578063ad94f8bc116100a2578063c87b56dd11610071578063c87b56dd14610b83578063e985e9c514610c2a578063f4501efc14610ca6578063fb2542f414610cf0576101da565b8063ad94f8bc14610994578063b88d4fde146109de578063bf70931214610ae3578063c0f0708614610b2d576101da565b806395d89b41116100de57806395d89b411461082d578063a22cb465146108b0578063a69e752f14610900578063ac7fd4881461094a576101da565b806370d5ae0514610700578063719ce73e1461074a5780638462151c14610794576101da565b8063424f548d1161017c5780635192c82c1161014b5780635192c82c146105995780636352211e146105b75780636c0360eb1461062557806370a08231146106a8576101da565b8063424f548d1461047157806342842e0e146104bb57806342966c68146105295780634f6ccce714610557576101da565b8063095ea7b3116101b8578063095ea7b31461033557806318160ddd1461038357806323b872dd146103a15780632f745c591461040f576101da565b806301ffc9a7146101df57806306fdde0314610244578063081812fc146102c7575b600080fd5b61022a600480360360208110156101f557600080fd5b8101908080357bffffffffffffffffffffffffffffffffffffffffffffffffffffffff19169060200190929190505050610d0e565b604051808215151515815260200191505060405180910390f35b61024c610d75565b6040518080602001828103825283818151815260200191508051906020019080838360005b8381101561028c578082015181840152602081019050610271565b50505050905090810190601f1680156102b95780820380516001836020036101000a031916815260200191505b509250505060405180910390f35b6102f3600480360360208110156102dd57600080fd5b8101908080359060200190929190505050610e17565b604051808273ffffffffffffffffffffffffffffffffffffffff1673ffffffffffffffffffffffffffffffffffffffff16815260200191505060405180910390f35b6103816004803603604081101561034b57600080fd5b81019080803573ffffffffffffffffffffffffffffffffffffffff16906020019092919080359060200190929190505050610eb2565b005b61038b610ff6565b6040518082815260200191505060405180910390f35b61040d600480360360608110156103b757600080fd5b81019080803573ffffffffffffffffffffffffffffffffffffffff169060200190929190803573ffffffffffffffffffffffffffffffffffffffff16906020019092919080359060200190929190505050611007565b005b61045b6004803603604081101561042557600080fd5b81019080803573ffffffffffffffffffffffffffffffffffffffff1690602001909291908035906020019092919050505061107d565b6040518082815260200191505060405180910390f35b6104796110d8565b604051808273ffffffffffffffffffffffffffffffffffffffff1673ffffffffffffffffffffffffffffffffffffffff16815260200191505060405180910390f35b610527600480360360608110156104d157600080fd5b81019080803573ffffffffffffffffffffffffffffffffffffffff169060200190929190803573ffffffffffffffffffffffffffffffffffffffff169060200190929190803590602001909291905050506110fe565b005b6105556004803603602081101561053f57600080fd5b810190808035906020019092919050505061111e565b005b6105836004803603602081101561056d57600080fd5b810190808035906020019092919050505061117c565b6040518082815260200191505060405180910390f35b6105a161119f565b6040518082815260200191505060405180910390f35b6105e3600480360360208110156105cd57600080fd5b81019080803590602001909291905050506111a5565b604051808273ffffffffffffffffffffffffffffffffffffffff1673ffffffffffffffffffffffffffffffffffffffff16815260200191505060405180910390f35b61062d6111dc565b6040518080602001828103825283818151815260200191508051906020019080838360005b8381101561066d578082015181840152602081019050610652565b50505050905090810190601f16801561069a5780820380516001836020036101000a031916815260200191505b509250505060405180910390f35b6106ea600480360360208110156106be57600080fd5b81019080803573ffffffffffffffffffffffffffffffffffffffff16906020019092919050505061127e565b6040518082815260200191505060405180910390f35b610708611353565b604051808273ffffffffffffffffffffffffffffffffffffffff1673ffffffffffffffffffffffffffffffffffffffff16815260200191505060405180910390f35b61075261135b565b604051808273ffffffffffffffffffffffffffffffffffffffff1673ffffffffffffffffffffffffffffffffffffffff16815260200191505060405180910390f35b6107d6600480360360208110156107aa57600080fd5b81019080803573ffffffffffffffffffffffffffffffffffffffff169060200190929190505050611381565b6040518080602001828103825283818151815260200191508051906020019060200280838360005b838110156108195780820151818401526020810190506107fe565b505050509050019250505060405180910390f35b61083561145d565b6040518080602001828103825283818151815260200191508051906020019080838360005b8381101561087557808201518184015260208101905061085a565b50505050905090810190601f1680156108a25780820380516001836020036101000a031916815260200191505b509250505060405180910390f35b6108fe600480360360408110156108c657600080fd5b81019080803573ffffffffffffffffffffffffffffffffffffffff1690602001909291908035151590602001909291905050506114ff565b005b6109086116b7565b604051808273ffffffffffffffffffffffffffffffffffffffff1673ffffffffffffffffffffffffffffffffffffffff16815260200191505060405180910390f35b6109526116dd565b604051808273ffffffffffffffffffffffffffffffffffffffff1673ffffffffffffffffffffffffffffffffffffffff16815260200191505060405180910390f35b61099c611703565b604051808273ffffffffffffffffffffffffffffffffffffffff1673ffffffffffffffffffffffffffffffffffffffff16815260200191505060405180910390f35b610ae1600480360360808110156109f457600080fd5b81019080803573ffffffffffffffffffffffffffffffffffffffff169060200190929190803573ffffffffffffffffffffffffffffffffffffffff1690602001909291908035906020019092919080359060200190640100000000811115610a5b57600080fd5b820183602082011115610a6d57600080fd5b80359060200191846001830284011164010000000083111715610a8f57600080fd5b91908080601f016020809104026020016040519081016040528093929190818152602001838380828437600081840152601f19601f820116905080830192505050505050509192919290505050611729565b005b610aeb6117a1565b604051808273ffffffffffffffffffffffffffffffffffffffff1673ffffffffffffffffffffffffffffffffffffffff16815260200191505060405180910390f35b610b81600480360360a0811015610b4357600080fd5b8101908080359060200190929190803590602001909291908035906020019092919080359060200190929190803590602001909291905050506117c7565b005b610baf60048036036020811015610b9957600080fd5b8101908080359060200190929190505050611aa6565b6040518080602001828103825283818151815260200191508051906020019080838360005b83811015610bef578082015181840152602081019050610bd4565b50505050905090810190601f168015610c1c5780820380516001836020036101000a031916815260200191505b509250505060405180910390f35b610c8c60048036036040811015610c4057600080fd5b81019080803573ffffffffffffffffffffffffffffffffffffffff169060200190929190803573ffffffffffffffffffffffffffffffffffffffff169060200190929190505050611d8f565b604051808215151515815260200191505060405180910390f35b610cae611e23565b604051808273ffffffffffffffffffffffffffffffffffffffff1673ffffffffffffffffffffffffffffffffffffffff16815260200191505060405180910390f35b610cf8611e49565b6040518082815260200191505060405180910390f35b6000806000837bffffffffffffffffffffffffffffffffffffffffffffffffffffffff19167bffffffffffffffffffffffffffffffffffffffffffffffffffffffff1916815260200190815260200160002060009054906101000a900460ff169050919050565b606060068054600181600116156101000203166002900480601f016020809104026020016040519081016040528092919081815260200182805460018160011615610100020316600290048015610e0d5780601f10610de257610100808354040283529160200191610e0d565b820191906000526020600020905b815481529060010190602001808311610df057829003601f168201915b5050505050905090565b6000610e2282611e55565b610e77576040517f08c379a000000000000000000000000000000000000000000000000000000000815260040180806020018281038252602c815260200180613528602c913960400191505060405180910390fd5b6004600083815260200190815260200160002060009054906101000a900473ffffffffffffffffffffffffffffffffffffffff169050919050565b6000610ebd826111a5565b90508073ffffffffffffffffffffffffffffffffffffffff168373ffffffffffffffffffffffffffffffffffffffff161415610f44576040517f08c379a00000000000000000000000000000000000000000000000000000000081526004018080602001828103825260218152602001806135ac6021913960400191505060405180910390fd5b8073ffffffffffffffffffffffffffffffffffffffff16610f63611e72565b73ffffffffffffffffffffffffffffffffffffffff161480610f925750610f9181610f8c611e72565b611d8f565b5b610fe7576040517f08c379a000000000000000000000000000000000000000000000000000000000815260040180806020018281038252603881526020018061347b6038913960400191505060405180910390fd5b610ff18383611e7a565b505050565b60006110026002611f33565b905090565b611018611012611e72565b82611f48565b61106d576040517f08c379a00000000000000000000000000000000000000000000000000000000081526004018080602001828103825260318152602001806135cd6031913960400191505060405180910390fd5b61107883838361203c565b505050565b60006110d082600160008673ffffffffffffffffffffffffffffffffffffffff1673ffffffffffffffffffffffffffffffffffffffff16815260200190815260200160002061227f90919063ffffffff16565b905092915050565b600d60009054906101000a900473ffffffffffffffffffffffffffffffffffffffff1681565b61111983838360405180602001604052806000815250611729565b505050565b611127816111a5565b73ffffffffffffffffffffffffffffffffffffffff163373ffffffffffffffffffffffffffffffffffffffff161461115e57600080fd5b61116781612299565b60126000815480929190600101919050555050565b6000806111938360026123d390919063ffffffff16565b50905080915050919050565b600c5481565b60006111d5826040518060600160405280602981526020016134dd6029913960026124029092919063ffffffff16565b9050919050565b606060098054600181600116156101000203166002900480601f0160208091040260200160405190810160405280929190818152602001828054600181600116156101000203166002900480156112745780601f1061124957610100808354040283529160200191611274565b820191906000526020600020905b81548152906001019060200180831161125757829003601f168201915b5050505050905090565b60008073ffffffffffffffffffffffffffffffffffffffff168273ffffffffffffffffffffffffffffffffffffffff161415611305576040517f08c379a000000000000000000000000000000000000000000000000000000000815260040180806020018281038252602a8152602001806134b3602a913960400191505060405180910390fd5b61134c600160008473ffffffffffffffffffffffffffffffffffffffff1673ffffffffffffffffffffffffffffffffffffffff168152602001908152602001600020612421565b9050919050565b63deadbeef81565b600b60009054906101000a900473ffffffffffffffffffffffffffffffffffffffff1681565b6060600061138e8361127e565b905060008114156113d25760006040519080825280602002602001820160405280156113c95781602001602082028038833980820191505090505b50915050611458565b6060816040519080825280602002602001820160405280156114035781602001602082028038833980820191505090505b509050600080905060008090505b8381101561145057611423868261107d565b83838151811061142f57fe5b60200260200101818152505081806001019250508080600101915050611411565b829450505050505b919050565b606060078054600181600116156101000203166002900480601f0160208091040260200160405190810160405280929190818152602001828054600181600116156101000203166002900480156114f55780601f106114ca576101008083540402835291602001916114f5565b820191906000526020600020905b8154815290600101906020018083116114d857829003601f168201915b5050505050905090565b611507611e72565b73ffffffffffffffffffffffffffffffffffffffff168273ffffffffffffffffffffffffffffffffffffffff1614156115a8576040517f08c379a00000000000000000000000000000000000000000000000000000000081526004018080602001828103825260198152602001807f4552433732313a20617070726f766520746f2063616c6c65720000000000000081525060200191505060405180910390fd5b80600560006115b5611e72565b73ffffffffffffffffffffffffffffffffffffffff1673ffffffffffffffffffffffffffffffffffffffff16815260200190815260200160002060008473ffffffffffffffffffffffffffffffffffffffff1673ffffffffffffffffffffffffffffffffffffffff16815260200190815260200160002060006101000a81548160ff0219169083151502179055508173ffffffffffffffffffffffffffffffffffffffff16611662611e72565b73ffffffffffffffffffffffffffffffffffffffff167f17307eab39ab6107e8899845ad3d59bd9653f200f220920489ca2b5937696c3183604051808215151515815260200191505060405180910390a35050565b600e60009054906101000a900473ffffffffffffffffffffffffffffffffffffffff1681565b601060009054906101000a900473ffffffffffffffffffffffffffffffffffffffff1681565b601160009054906101000a900473ffffffffffffffffffffffffffffffffffffffff1681565b61173a611734611e72565b83611f48565b61178f576040517f08c379a00000000000000000000000000000000000000000000000000000000081526004018080602001828103825260318152602001806135cd6031913960400191505060405180910390fd5b61179b84848484612436565b50505050565b600f60009054906101000a900473ffffffffffffffffffffffffffffffffffffffff1681565b600d60009054906101000a900473ffffffffffffffffffffffffffffffffffffffff1673ffffffffffffffffffffffffffffffffffffffff166342966c68866040518263ffffffff1660e01b815260040180828152602001915050600060405180830381600087803b15801561183c57600080fd5b505af1158015611850573d6000803e3d6000fd5b50505050600e60009054906101000a900473ffffffffffffffffffffffffffffffffffffffff1673ffffffffffffffffffffffffffffffffffffffff166342966c68856040518263ffffffff1660e01b815260040180828152602001915050600060405180830381600087803b1580156118c957600080fd5b505af11580156118dd573d6000803e3d6000fd5b50505050600f60009054906101000a900473ffffffffffffffffffffffffffffffffffffffff1673ffffffffffffffffffffffffffffffffffffffff166342966c68846040518263ffffffff1660e01b815260040180828152602001915050600060405180830381600087803b15801561195657600080fd5b505af115801561196a573d6000803e3d6000fd5b50505050601060009054906101000a900473ffffffffffffffffffffffffffffffffffffffff1673ffffffffffffffffffffffffffffffffffffffff166342966c68836040518263ffffffff1660e01b815260040180828152602001915050600060405180830381600087803b1580156119e357600080fd5b505af11580156119f7573d6000803e3d6000fd5b50505050601160009054906101000a900473ffffffffffffffffffffffffffffffffffffffff1673ffffffffffffffffffffffffffffffffffffffff166342966c68826040518263ffffffff1660e01b815260040180828152602001915050600060405180830381600087803b158015611a7057600080fd5b505af1158015611a84573d6000803e3d6000fd5b505050506000611a926124a8565b9050611a9e33826124de565b505050505050565b6060611ab182611e55565b611b06576040517f08c379a000000000000000000000000000000000000000000000000000000000815260040180806020018281038252602f81526020018061357d602f913960400191505060405180910390fd5b6060600860008481526020019081526020016000208054600181600116156101000203166002900480601f016020809104026020016040519081016040528092919081815260200182805460018160011615610100020316600290048015611baf5780601f10611b8457610100808354040283529160200191611baf565b820191906000526020600020905b815481529060010190602001808311611b9257829003601f168201915b50505050509050600060098054600181600116156101000203166002900490501415611bde5780915050611d8a565b600081511115611cb7576009816040516020018083805460018160011615610100020316600290048015611c495780601f10611c27576101008083540402835291820191611c49565b820191906000526020600020905b815481529060010190602001808311611c35575b505082805190602001908083835b60208310611c7a5780518252602082019150602081019050602083039250611c57565b6001836020036101000a03801982511681845116808217855250505050505090500192505050604051602081830303815290604052915050611d8a565b6009611cc2846126d2565b6040516020018083805460018160011615610100020316600290048015611d205780601f10611cfe576101008083540402835291820191611d20565b820191906000526020600020905b815481529060010190602001808311611d0c575b505082805190602001908083835b60208310611d515780518252602082019150602081019050602083039250611d2e565b6001836020036101000a038019825116818451168082178552505050505050905001925050506040516020818303038152906040529150505b919050565b6000600560008473ffffffffffffffffffffffffffffffffffffffff1673ffffffffffffffffffffffffffffffffffffffff16815260200190815260200160002060008373ffffffffffffffffffffffffffffffffffffffff1673ffffffffffffffffffffffffffffffffffffffff16815260200190815260200160002060009054906101000a900460ff16905092915050565b600a60009054906101000a900473ffffffffffffffffffffffffffffffffffffffff1681565b670de0b6b3a764000081565b6000611e6b82600261280290919063ffffffff16565b9050919050565b600033905090565b816004600083815260200190815260200160002060006101000a81548173ffffffffffffffffffffffffffffffffffffffff021916908373ffffffffffffffffffffffffffffffffffffffff160217905550808273ffffffffffffffffffffffffffffffffffffffff16611eed836111a5565b73ffffffffffffffffffffffffffffffffffffffff167f8c5be1e5ebec7d5bd14f71427d1e84f3dd0314c0f7b2291e5b200ac8c7c3b92560405160405180910390a45050565b6000611f418260000161281c565b9050919050565b6000611f5382611e55565b611fa8576040517f08c379a000000000000000000000000000000000000000000000000000000000815260040180806020018281038252602c81526020018061344f602c913960400191505060405180910390fd5b6000611fb3836111a5565b90508073ffffffffffffffffffffffffffffffffffffffff168473ffffffffffffffffffffffffffffffffffffffff16148061202257508373ffffffffffffffffffffffffffffffffffffffff1661200a84610e17565b73ffffffffffffffffffffffffffffffffffffffff16145b8061203357506120328185611d8f565b5b91505092915050565b8273ffffffffffffffffffffffffffffffffffffffff1661205c826111a5565b73ffffffffffffffffffffffffffffffffffffffff16146120c8576040517f08c379a00000000000000000000000000000000000000000000000000000000081526004018080602001828103825260298152602001806135546029913960400191505060405180910390fd5b600073ffffffffffffffffffffffffffffffffffffffff168273ffffffffffffffffffffffffffffffffffffffff16141561214e576040517f08c379a000000000000000000000000000000000000000000000000000000000815260040180806020018281038252602481526020018061342b6024913960400191505060405180910390fd5b61215983838361282d565b612164600082611e7a565b6121b581600160008673ffffffffffffffffffffffffffffffffffffffff1673ffffffffffffffffffffffffffffffffffffffff16815260200190815260200160002061283290919063ffffffff16565b5061220781600160008573ffffffffffffffffffffffffffffffffffffffff1673ffffffffffffffffffffffffffffffffffffffff16815260200190815260200160002061284c90919063ffffffff16565b5061221e818360026128669092919063ffffffff16565b50808273ffffffffffffffffffffffffffffffffffffffff168473ffffffffffffffffffffffffffffffffffffffff167fddf252ad1be2c89b69c2b068fc378daa952ba7f163c4a11628f55a4df523b3ef60405160405180910390a4505050565b600061228e836000018361289b565b60001c905092915050565b60006122a4826111a5565b90506122b28160008461282d565b6122bd600083611e7a565b6000600860008481526020019081526020016000208054600181600116156101000203166002900490501461230c5760086000838152602001908152602001600020600061230b9190613369565b5b61235d82600160008473ffffffffffffffffffffffffffffffffffffffff1673ffffffffffffffffffffffffffffffffffffffff16815260200190815260200160002061283290919063ffffffff16565b5061237282600261291e90919063ffffffff16565b5081600073ffffffffffffffffffffffffffffffffffffffff168273ffffffffffffffffffffffffffffffffffffffff167fddf252ad1be2c89b69c2b068fc378daa952ba7f163c4a11628f55a4df523b3ef60405160405180910390a45050565b6000806000806123e68660000186612938565b915091508160001c8160001c8090509350935050509250929050565b6000612415846000018460001b846129d1565b60001c90509392505050565b600061242f82600001612ac7565b9050919050565b61244184848461203c565b61244d84848484612ad8565b6124a2576040517f08c379a00000000000000000000000000000000000000000000000000000000081526004018080602001828103825260328152602001806133f96032913960400191505060405180910390fd5b50505050565b60006124d96012546124cb60016124bd610ff6565b612d1d90919063ffffffff16565b612d1d90919063ffffffff16565b905090565b600073ffffffffffffffffffffffffffffffffffffffff168273ffffffffffffffffffffffffffffffffffffffff161415612581576040517f08c379a00000000000000000000000000000000000000000000000000000000081526004018080602001828103825260208152602001807f4552433732313a206d696e7420746f20746865207a65726f206164647265737381525060200191505060405180910390fd5b61258a81611e55565b156125fd576040517f08c379a000000000000000000000000000000000000000000000000000000000815260040180806020018281038252601c8152602001807f4552433732313a20746f6b656e20616c7265616479206d696e7465640000000081525060200191505060405180910390fd5b6126096000838361282d565b61265a81600160008573ffffffffffffffffffffffffffffffffffffffff1673ffffffffffffffffffffffffffffffffffffffff16815260200190815260200160002061284c90919063ffffffff16565b50612671818360026128669092919063ffffffff16565b50808273ffffffffffffffffffffffffffffffffffffffff16600073ffffffffffffffffffffffffffffffffffffffff167fddf252ad1be2c89b69c2b068fc378daa952ba7f163c4a11628f55a4df523b3ef60405160405180910390a45050565b6060600082141561271a576040518060400160405280600181526020017f300000000000000000000000000000000000000000000000000000000000000081525090506127fd565b600082905060005b60008214612744578080600101915050600a828161273c57fe5b049150612722565b6060816040519080825280601f01601f1916602001820160405280156127795781602001600182028038833980820191505090505b50905060006001830390508593505b600084146127f557600a848161279a57fe5b0660300160f81b828280600190039350815181106127b457fe5b60200101907effffffffffffffffffffffffffffffffffffffffffffffffffffffffffffff1916908160001a905350600a84816127ed57fe5b049350612788565b819450505050505b919050565b6000612814836000018360001b612da5565b905092915050565b600081600001805490509050919050565b505050565b6000612844836000018360001b612dc8565b905092915050565b600061285e836000018360001b612eb0565b905092915050565b6000612892846000018460001b8473ffffffffffffffffffffffffffffffffffffffff1660001b612f20565b90509392505050565b6000818360000180549050116128fc576040517f08c379a00000000000000000000000000000000000000000000000000000000081526004018080602001828103825260228152602001806133d76022913960400191505060405180910390fd5b82600001828154811061290b57fe5b9060005260206000200154905092915050565b6000612930836000018360001b612ffc565b905092915050565b6000808284600001805490501161299a576040517f08c379a00000000000000000000000000000000000000000000000000000000081526004018080602001828103825260228152602001806135066022913960400191505060405180910390fd5b60008460000184815481106129ab57fe5b906000526020600020906002020190508060000154816001015492509250509250929050565b60008084600101600085815260200190815260200160002054905060008114158390612a98576040517f08c379a00000000000000000000000000000000000000000000000000000000081526004018080602001828103825283818151815260200191508051906020019080838360005b83811015612a5d578082015181840152602081019050612a42565b50505050905090810190601f168015612a8a5780820380516001836020036101000a031916815260200191505b509250505060405180910390fd5b50846000016001820381548110612aab57fe5b9060005260206000209060020201600101549150509392505050565b600081600001805490509050919050565b6000612af98473ffffffffffffffffffffffffffffffffffffffff16613115565b612b065760019050612d15565b6060612c9c63150b7a0260e01b612b1b611e72565b888787604051602401808573ffffffffffffffffffffffffffffffffffffffff1673ffffffffffffffffffffffffffffffffffffffff1681526020018473ffffffffffffffffffffffffffffffffffffffff1673ffffffffffffffffffffffffffffffffffffffff16815260200183815260200180602001828103825283818151815260200191508051906020019080838360005b83811015612bcb578082015181840152602081019050612bb0565b50505050905090810190601f168015612bf85780820380516001836020036101000a031916815260200191505b5095505050505050604051602081830303815290604052907bffffffffffffffffffffffffffffffffffffffffffffffffffffffff19166020820180517bffffffffffffffffffffffffffffffffffffffffffffffffffffffff83818316178352505050506040518060600160405280603281526020016133f9603291398773ffffffffffffffffffffffffffffffffffffffff166131289092919063ffffffff16565b90506000818060200190516020811015612cb557600080fd5b8101908080519060200190929190505050905063150b7a0260e01b7bffffffffffffffffffffffffffffffffffffffffffffffffffffffff1916817bffffffffffffffffffffffffffffffffffffffffffffffffffffffff191614925050505b949350505050565b600080828401905083811015612d9b576040517f08c379a000000000000000000000000000000000000000000000000000000000815260040180806020018281038252601b8152602001807f536166654d6174683a206164646974696f6e206f766572666c6f77000000000081525060200191505060405180910390fd5b8091505092915050565b600080836001016000848152602001908152602001600020541415905092915050565b60008083600101600084815260200190815260200160002054905060008114612ea45760006001820390506000600186600001805490500390506000866000018281548110612e1357fe5b9060005260206000200154905080876000018481548110612e3057fe5b9060005260206000200181905550600183018760010160008381526020019081526020016000208190555086600001805480612e6857fe5b60019003818190600052602060002001600090559055866001016000878152602001908152602001600020600090556001945050505050612eaa565b60009150505b92915050565b6000612ebc8383613140565b612f15578260000182908060018154018082558091505060019003906000526020600020016000909190919091505582600001805490508360010160008481526020019081526020016000208190555060019050612f1a565b600090505b92915050565b6000808460010160008581526020019081526020016000205490506000811415612fc757846000016040518060400160405280868152602001858152509080600181540180825580915050600190039060005260206000209060020201600090919091909150600082015181600001556020820151816001015550508460000180549050856001016000868152602001908152602001600020819055506001915050612ff5565b82856000016001830381548110612fda57fe5b90600052602060002090600202016001018190555060009150505b9392505050565b60008083600101600084815260200190815260200160002054905060008114613109576000600182039050600060018660000180549050039050600086600001828154811061304757fe5b906000526020600020906002020190508087600001848154811061306757fe5b90600052602060002090600202016000820154816000015560018201548160010155905050600183018760010160008360000154815260200190815260200160002081905550866000018054806130ba57fe5b600190038181906000526020600020906002020160008082016000905560018201600090555050905586600101600087815260200190815260200160002060009055600194505050505061310f565b60009150505b92915050565b600080823b905060008111915050919050565b60606131378484600085613163565b90509392505050565b600080836001016000848152602001908152602001600020541415905092915050565b606061316e85613115565b6131e0576040517f08c379a000000000000000000000000000000000000000000000000000000000815260040180806020018281038252601d8152602001807f416464726573733a2063616c6c20746f206e6f6e2d636f6e747261637400000081525060200191505060405180910390fd5b600060608673ffffffffffffffffffffffffffffffffffffffff1685876040518082805190602001908083835b60208310613230578051825260208201915060208101905060208303925061320d565b6001836020036101000a03801982511681845116808217855250505050505090500191505060006040518083038185875af1925050503d8060008114613292576040519150601f19603f3d011682016040523d82523d6000602084013e613297565b606091505b509150915081156132ac578092505050613361565b6000815111156132bf5780518082602001fd5b836040517f08c379a00000000000000000000000000000000000000000000000000000000081526004018080602001828103825283818151815260200191508051906020019080838360005b8381101561332657808201518184015260208101905061330b565b50505050905090810190601f1680156133535780820380516001836020036101000a031916815260200191505b509250505060405180910390fd5b949350505050565b50805460018160011615610100020316600290046000825580601f1061338f57506133ae565b601f0160209004906000526020600020908101906133ad91906133b1565b5b50565b6133d391905b808211156133cf5760008160009055506001016133b7565b5090565b9056fe456e756d657261626c655365743a20696e646578206f7574206f6620626f756e64734552433732313a207472616e7366657220746f206e6f6e20455243373231526563656976657220696d706c656d656e7465724552433732313a207472616e7366657220746f20746865207a65726f20616464726573734552433732313a206f70657261746f7220717565727920666f72206e6f6e6578697374656e7420746f6b656e4552433732313a20617070726f76652063616c6c6572206973206e6f74206f776e6572206e6f7220617070726f76656420666f7220616c6c4552433732313a2062616c616e636520717565727920666f7220746865207a65726f20616464726573734552433732313a206f776e657220717565727920666f72206e6f6e6578697374656e7420746f6b656e456e756d657261626c654d61703a20696e646578206f7574206f6620626f756e64734552433732313a20617070726f76656420717565727920666f72206e6f6e6578697374656e7420746f6b656e4552433732313a207472616e73666572206f6620746f6b656e2074686174206973206e6f74206f776e4552433732314d657461646174613a2055524920717565727920666f72206e6f6e6578697374656e7420746f6b656e4552433732313a20617070726f76616c20746f2063757272656e74206f776e65724552433732313a207472616e736665722063616c6c6572206973206e6f74206f776e6572206e6f7220617070726f766564a2646970667358221220e518337d23e4003b4046ba174d3c5815905eb845a0de28aa8dfee118696ef7fa64736f6c63430006020033",
  "source": "pragma solidity ^0.6.0;\n\nimport \"@openzeppelin/contracts/math/Math.sol\";\nimport \"@openzeppelin/contracts/math/SafeMath.sol\";\nimport \"@openzeppelin/contracts/token/ERC20/IERC20.sol\";\nimport \"@openzeppelin/contracts/token/ERC20/SafeERC20.sol\";\nimport \"@openzeppelin/contracts/token/ERC721/ERC721.sol\";\nimport \"./rnd.sol\";\nimport \"./IYF721Piece.sol\";\n\ncontract YF721 is ERC721 {\n    using SafeMath for uint256;\n\tusing SafeERC20 for IERC20;\n    \n\tuint256 constant public mintPieceFee = 1 * 1e18;\n\tIERC20 public YF20;\n\taddress public prizePool;\n\taddress constant public burnAddress = 0x00000000000000000000000000000000DeaDBeef;\n\t\n\tuint256 public burnRatio = 500; // 50%\n\n\tIYF721Piece public _Y; \n\tIYF721Piece public _F;\n\tIYF721Piece public _7;\n\tIYF721Piece public _2;\n\tIYF721Piece public _1;\n    \n    uint256 burnedCounter = 0;\n\n    constructor(\n\t\taddress _y,\n\t\taddress _f,\n\t\taddress _seven,\n\t\taddress _two,\n\t\taddress _one\n\t) ERC721(\"YF721\", \"YF721\") public {\n\t\t_Y = IYF721Piece(_y); \n\t\t_F = IYF721Piece(_f); \n\t\t_7 = IYF721Piece(_seven); \n\t\t_2 = IYF721Piece(_two); \n\t\t_1 = IYF721Piece(_one); \n\t}\n\n\tfunction getRandom() internal view returns (uint256) {\n\t\tuint256 seed = uint256(keccak256(abi.encodePacked(now, block.difficulty, msg.sender)));\n\t\tuint256 rnd = UniformRandomNumber.uniform(seed, 10000);\n\t\treturn rnd;\n\t}\n\n\tfunction mintYF721(uint256 id1, uint256 id2, uint256 id3, uint256 id4, uint256 id5) external {\n\t\t_Y.burn(id1); _F.burn(id2); _7.burn(id3); _2.burn(id4); _1.burn(id5);\n\t\tuint256 tokenId = _getNextTokenId();\n\t\t_mint(msg.sender, tokenId);\n\t}\n\n    function _getNextTokenId() private view returns (uint256) {\n        return totalSupply().add(1).add(burnedCounter);\n    }\n\n    function burn(uint256 _tokenId) external {\n\t\trequire(msg.sender == ownerOf(_tokenId));\n        super._burn(_tokenId);\n        burnedCounter++;\n    }\n\n    function tokensOfOwner(address _owner) external view returns(uint256[] memory ownerTokens) {\n        uint256 tokenCount = balanceOf(_owner);\n\n        if (tokenCount == 0) {\n            return new uint256[](0);\n        } else {\n            uint256[] memory result = new uint256[](tokenCount);\n            uint256 resultIndex = 0;\n            uint256 _tokenIdx;\n            for (_tokenIdx = 0; _tokenIdx < tokenCount; _tokenIdx++) {\n                result[resultIndex] = tokenOfOwnerByIndex(_owner, _tokenIdx);\n                resultIndex++;\n            }\n            return result;\n        }\n    }\n}\n",
  "sourcePath": "/Users/cyan/Desktop/projects/defi/nifty.fi/yf721/contracts/yf721.sol",
  "compiler": {
    "name": "solc",
    "version": "0.6.2+commit.bacdbe57.Emscripten.clang"
  },
  "schemaVersion": "3.2.5",
  "updatedAt": "2020-09-14T05:55:02.076Z",
  "devdoc": {
    "methods": {
      "approve(address,uint256)": {
        "details": "See {IERC721-approve}."
      },
      "balanceOf(address)": {
        "details": "See {IERC721-balanceOf}."
      },
      "baseURI()": {
        "details": "Returns the base URI set via {_setBaseURI}. This will be automatically added as a prefix in {tokenURI} to each token's URI, or to the token ID if no specific URI is set for that token ID."
      },
      "getApproved(uint256)": {
        "details": "See {IERC721-getApproved}."
      },
      "isApprovedForAll(address,address)": {
        "details": "See {IERC721-isApprovedForAll}."
      },
      "name()": {
        "details": "See {IERC721Metadata-name}."
      },
      "ownerOf(uint256)": {
        "details": "See {IERC721-ownerOf}."
      },
      "safeTransferFrom(address,address,uint256)": {
        "details": "See {IERC721-safeTransferFrom}."
      },
      "safeTransferFrom(address,address,uint256,bytes)": {
        "details": "See {IERC721-safeTransferFrom}."
      },
      "setApprovalForAll(address,bool)": {
        "details": "See {IERC721-setApprovalForAll}."
      },
      "supportsInterface(bytes4)": {
        "details": "See {IERC165-supportsInterface}.     * Time complexity O(1), guaranteed to always use less than 30 000 gas."
      },
      "symbol()": {
        "details": "See {IERC721Metadata-symbol}."
      },
      "tokenByIndex(uint256)": {
        "details": "See {IERC721Enumerable-tokenByIndex}."
      },
      "tokenOfOwnerByIndex(address,uint256)": {
        "details": "See {IERC721Enumerable-tokenOfOwnerByIndex}."
      },
      "tokenURI(uint256)": {
        "details": "See {IERC721Metadata-tokenURI}."
      },
      "totalSupply()": {
        "details": "See {IERC721Enumerable-totalSupply}."
      },
      "transferFrom(address,address,uint256)": {
        "details": "See {IERC721-transferFrom}."
      }
    }
  },
  "userdoc": {
    "methods": {}
  }
}